{
  "_format": "hh-sol-artifact-1",
  "contractName": "HypeyVesting",
  "sourceName": "contracts/vesting/HypeyVesting.sol",
  "abi": [
    {
      "inputs": [],
      "stateMutability": "nonpayable",
      "type": "constructor"
    },
    {
      "anonymous": false,
      "inputs": [
        {
          "indexed": false,
          "internalType": "address",
          "name": "previousAdmin",
          "type": "address"
        },
        {
          "indexed": false,
          "internalType": "address",
          "name": "newAdmin",
          "type": "address"
        }
      ],
      "name": "AdminChanged",
      "type": "event"
    },
    {
      "anonymous": false,
      "inputs": [
        {
          "indexed": true,
          "internalType": "address",
          "name": "to",
          "type": "address"
        },
        {
          "indexed": false,
          "internalType": "uint256",
          "name": "amount",
          "type": "uint256"
        }
      ],
      "name": "AdminWithdraw",
      "type": "event"
    },
    {
      "anonymous": false,
      "inputs": [
        {
          "indexed": true,
          "internalType": "address",
          "name": "beacon",
          "type": "address"
        }
      ],
      "name": "BeaconUpgraded",
      "type": "event"
    },
    {
      "anonymous": false,
      "inputs": [
        {
          "indexed": false,
          "internalType": "uint8",
          "name": "version",
          "type": "uint8"
        }
      ],
      "name": "Initialized",
      "type": "event"
    },
    {
      "anonymous": false,
      "inputs": [
        {
          "indexed": false,
          "internalType": "bytes32",
          "name": "newMerkleRoot",
          "type": "bytes32"
        }
      ],
      "name": "MerkleRootUpdated",
      "type": "event"
    },
    {
      "anonymous": false,
      "inputs": [
        {
          "indexed": true,
          "internalType": "address",
          "name": "previousOwner",
          "type": "address"
        },
        {
          "indexed": true,
          "internalType": "address",
          "name": "newOwner",
          "type": "address"
        }
      ],
      "name": "OwnershipTransferred",
      "type": "event"
    },
    {
      "anonymous": false,
      "inputs": [
        {
          "indexed": false,
          "internalType": "address",
          "name": "account",
          "type": "address"
        }
      ],
      "name": "Paused",
      "type": "event"
    },
    {
      "anonymous": false,
      "inputs": [
        {
          "indexed": true,
          "internalType": "bytes32",
          "name": "role",
          "type": "bytes32"
        },
        {
          "indexed": true,
          "internalType": "bytes32",
          "name": "previousAdminRole",
          "type": "bytes32"
        },
        {
          "indexed": true,
          "internalType": "bytes32",
          "name": "newAdminRole",
          "type": "bytes32"
        }
      ],
      "name": "RoleAdminChanged",
      "type": "event"
    },
    {
      "anonymous": false,
      "inputs": [
        {
          "indexed": true,
          "internalType": "bytes32",
          "name": "role",
          "type": "bytes32"
        },
        {
          "indexed": true,
          "internalType": "address",
          "name": "account",
          "type": "address"
        },
        {
          "indexed": true,
          "internalType": "address",
          "name": "sender",
          "type": "address"
        }
      ],
      "name": "RoleGranted",
      "type": "event"
    },
    {
      "anonymous": false,
      "inputs": [
        {
          "indexed": true,
          "internalType": "bytes32",
          "name": "role",
          "type": "bytes32"
        },
        {
          "indexed": true,
          "internalType": "address",
          "name": "account",
          "type": "address"
        },
        {
          "indexed": true,
          "internalType": "address",
          "name": "sender",
          "type": "address"
        }
      ],
      "name": "RoleRevoked",
      "type": "event"
    },
    {
      "anonymous": false,
      "inputs": [
        {
          "indexed": true,
          "internalType": "address",
          "name": "beneficiary",
          "type": "address"
        },
        {
          "indexed": false,
          "internalType": "uint256",
          "name": "index",
          "type": "uint256"
        },
        {
          "indexed": false,
          "internalType": "uint256",
          "name": "amount",
          "type": "uint256"
        }
      ],
      "name": "TokensClaimed",
      "type": "event"
    },
    {
      "anonymous": false,
      "inputs": [
        {
          "indexed": true,
          "internalType": "address",
          "name": "from",
          "type": "address"
        },
        {
          "indexed": false,
          "internalType": "uint256",
          "name": "amount",
          "type": "uint256"
        }
      ],
      "name": "TokensDeposited",
      "type": "event"
    },
    {
      "anonymous": false,
      "inputs": [
        {
          "indexed": false,
          "internalType": "address",
          "name": "account",
          "type": "address"
        }
      ],
      "name": "Unpaused",
      "type": "event"
    },
    {
      "anonymous": false,
      "inputs": [
        {
          "indexed": true,
          "internalType": "address",
          "name": "implementation",
          "type": "address"
        }
      ],
      "name": "Upgraded",
      "type": "event"
    },
    {
      "anonymous": false,
      "inputs": [
        {
          "indexed": true,
          "internalType": "address",
          "name": "beneficiary",
          "type": "address"
        },
        {
          "indexed": false,
          "internalType": "uint256",
          "name": "index",
          "type": "uint256"
        },
        {
          "indexed": false,
          "internalType": "uint256",
          "name": "totalAmount",
          "type": "uint256"
        }
      ],
      "name": "VestingCreated",
      "type": "event"
    },
    {
      "anonymous": false,
      "inputs": [
        {
          "indexed": true,
          "internalType": "address",
          "name": "token",
          "type": "address"
        },
        {
          "indexed": true,
          "internalType": "address",
          "name": "owner",
          "type": "address"
        },
        {
          "indexed": true,
          "internalType": "address",
          "name": "timelock",
          "type": "address"
        }
      ],
      "name": "VestingInitialized",
      "type": "event"
    },
    {
      "inputs": [],
      "name": "DEFAULT_ADMIN_ROLE",
      "outputs": [
        {
          "internalType": "bytes32",
          "name": "",
          "type": "bytes32"
        }
      ],
      "stateMutability": "view",
      "type": "function"
    },
    {
      "inputs": [],
      "name": "MULTISIG_ADMIN_ROLE",
      "outputs": [
        {
          "internalType": "bytes32",
          "name": "",
          "type": "bytes32"
        }
      ],
      "stateMutability": "view",
      "type": "function"
    },
    {
      "inputs": [
        {
          "internalType": "address[]",
          "name": "beneficiaries",
          "type": "address[]"
        },
        {
          "internalType": "uint256[]",
          "name": "totalAmounts",
          "type": "uint256[]"
        },
        {
          "internalType": "uint256[]",
          "name": "starts",
          "type": "uint256[]"
        },
        {
          "internalType": "uint256[]",
          "name": "cliffDurations",
          "type": "uint256[]"
        },
        {
          "internalType": "uint256[]",
          "name": "durations",
          "type": "uint256[]"
        },
        {
          "internalType": "uint256[]",
          "name": "slicePeriodSeconds",
          "type": "uint256[]"
        },
        {
          "internalType": "uint256[]",
          "name": "cliffUnlockPercents",
          "type": "uint256[]"
        }
      ],
      "name": "addBatchVestingSchedules",
      "outputs": [],
      "stateMutability": "nonpayable",
      "type": "function"
    },
    {
      "inputs": [
        {
          "internalType": "address",
          "name": "beneficiary",
          "type": "address"
        },
        {
          "internalType": "uint256",
          "name": "totalAmount",
          "type": "uint256"
        },
        {
          "internalType": "uint256",
          "name": "start",
          "type": "uint256"
        },
        {
          "internalType": "uint256",
          "name": "cliffDuration",
          "type": "uint256"
        },
        {
          "internalType": "uint256",
          "name": "duration",
          "type": "uint256"
        },
        {
          "internalType": "uint256",
          "name": "slicePeriodSeconds",
          "type": "uint256"
        },
        {
          "internalType": "uint256",
          "name": "cliffUnlockPercent",
          "type": "uint256"
        }
      ],
      "name": "addVestingSchedule",
      "outputs": [],
      "stateMutability": "nonpayable",
      "type": "function"
    },
    {
      "inputs": [
        {
          "internalType": "address",
          "name": "beneficiary",
          "type": "address"
        },
        {
          "internalType": "uint256",
          "name": "totalAmount",
          "type": "uint256"
        },
        {
          "internalType": "uint256",
          "name": "start",
          "type": "uint256"
        },
        {
          "internalType": "uint256",
          "name": "cliffDuration",
          "type": "uint256"
        },
        {
          "internalType": "uint256",
          "name": "duration",
          "type": "uint256"
        },
        {
          "internalType": "uint256",
          "name": "slicePeriodSeconds",
          "type": "uint256"
        },
        {
          "internalType": "uint256",
          "name": "cliffUnlockPercent",
          "type": "uint256"
        },
        {
          "internalType": "bytes32[]",
          "name": "merkleProof",
          "type": "bytes32[]"
        }
      ],
      "name": "addVestingScheduleWithProof",
      "outputs": [],
      "stateMutability": "nonpayable",
      "type": "function"
    },
    {
      "inputs": [
        {
          "internalType": "address",
          "name": "to",
          "type": "address"
        },
        {
          "internalType": "uint256",
          "name": "amount",
          "type": "uint256"
        }
      ],
      "name": "adminWithdraw",
      "outputs": [],
      "stateMutability": "nonpayable",
      "type": "function"
    },
    {
      "inputs": [],
      "name": "builder",
      "outputs": [
        {
          "internalType": "string",
          "name": "",
          "type": "string"
        }
      ],
      "stateMutability": "pure",
      "type": "function"
    },
    {
      "inputs": [
        {
          "internalType": "uint256",
          "name": "index",
          "type": "uint256"
        }
      ],
      "name": "claim",
      "outputs": [],
      "stateMutability": "nonpayable",
      "type": "function"
    },
    {
      "inputs": [
        {
          "internalType": "address",
          "name": "beneficiary",
          "type": "address"
        },
        {
          "internalType": "uint256",
          "name": "index",
          "type": "uint256"
        }
      ],
      "name": "claimFor",
      "outputs": [],
      "stateMutability": "nonpayable",
      "type": "function"
    },
    {
      "inputs": [
        {
          "components": [
            {
              "internalType": "bool",
              "name": "initialized",
              "type": "bool"
            },
            {
              "internalType": "uint256",
              "name": "totalAmount",
              "type": "uint256"
            },
            {
              "internalType": "uint256",
              "name": "released",
              "type": "uint256"
            },
            {
              "internalType": "uint256",
              "name": "start",
              "type": "uint256"
            },
            {
              "internalType": "uint256",
              "name": "cliff",
              "type": "uint256"
            },
            {
              "internalType": "uint256",
              "name": "duration",
              "type": "uint256"
            },
            {
              "internalType": "uint256",
              "name": "slicePeriodSeconds",
              "type": "uint256"
            },
            {
              "internalType": "uint256",
              "name": "cliffUnlockPercent",
              "type": "uint256"
            }
          ],
          "internalType": "struct HypeyVesting.VestingSchedule",
          "name": "schedule",
          "type": "tuple"
        }
      ],
      "name": "computeReleasableAmount",
      "outputs": [
        {
          "internalType": "uint256",
          "name": "",
          "type": "uint256"
        }
      ],
      "stateMutability": "view",
      "type": "function"
    },
    {
      "inputs": [
        {
          "internalType": "uint256",
          "name": "amount",
          "type": "uint256"
        }
      ],
      "name": "depositTokens",
      "outputs": [],
      "stateMutability": "nonpayable",
      "type": "function"
    },
    {
      "inputs": [],
      "name": "getPoolBalance",
      "outputs": [
        {
          "internalType": "uint256",
          "name": "",
          "type": "uint256"
        }
      ],
      "stateMutability": "view",
      "type": "function"
    },
    {
      "inputs": [
        {
          "internalType": "bytes32",
          "name": "role",
          "type": "bytes32"
        }
      ],
      "name": "getRoleAdmin",
      "outputs": [
        {
          "internalType": "bytes32",
          "name": "",
          "type": "bytes32"
        }
      ],
      "stateMutability": "view",
      "type": "function"
    },
    {
      "inputs": [
        {
          "internalType": "address",
          "name": "beneficiary",
          "type": "address"
        }
      ],
      "name": "getTotalLocked",
      "outputs": [
        {
          "internalType": "uint256",
          "name": "total",
          "type": "uint256"
        }
      ],
      "stateMutability": "view",
      "type": "function"
    },
    {
      "inputs": [
        {
          "internalType": "address",
          "name": "beneficiary",
          "type": "address"
        }
      ],
      "name": "getUserPoolStatus",
      "outputs": [
        {
          "internalType": "uint256",
          "name": "poolBalance",
          "type": "uint256"
        },
        {
          "internalType": "uint256",
          "name": "totalLocked",
          "type": "uint256"
        }
      ],
      "stateMutability": "view",
      "type": "function"
    },
    {
      "inputs": [
        {
          "internalType": "address",
          "name": "beneficiary",
          "type": "address"
        }
      ],
      "name": "getVestingInfo",
      "outputs": [
        {
          "components": [
            {
              "internalType": "bool",
              "name": "initialized",
              "type": "bool"
            },
            {
              "internalType": "uint256",
              "name": "totalAmount",
              "type": "uint256"
            },
            {
              "internalType": "uint256",
              "name": "released",
              "type": "uint256"
            },
            {
              "internalType": "uint256",
              "name": "start",
              "type": "uint256"
            },
            {
              "internalType": "uint256",
              "name": "cliff",
              "type": "uint256"
            },
            {
              "internalType": "uint256",
              "name": "duration",
              "type": "uint256"
            },
            {
              "internalType": "uint256",
              "name": "slicePeriodSeconds",
              "type": "uint256"
            },
            {
              "internalType": "uint256",
              "name": "cliffUnlockPercent",
              "type": "uint256"
            }
          ],
          "internalType": "struct HypeyVesting.VestingSchedule[]",
          "name": "schedules",
          "type": "tuple[]"
        },
        {
          "internalType": "uint256[]",
          "name": "releasable",
          "type": "uint256[]"
        }
      ],
      "stateMutability": "view",
      "type": "function"
    },
    {
      "inputs": [
        {
          "internalType": "bytes32",
          "name": "role",
          "type": "bytes32"
        },
        {
          "internalType": "address",
          "name": "account",
          "type": "address"
        }
      ],
      "name": "grantRole",
      "outputs": [],
      "stateMutability": "nonpayable",
      "type": "function"
    },
    {
      "inputs": [
        {
          "internalType": "bytes32",
          "name": "role",
          "type": "bytes32"
        },
        {
          "internalType": "address",
          "name": "account",
          "type": "address"
        }
      ],
      "name": "hasRole",
      "outputs": [
        {
          "internalType": "bool",
          "name": "",
          "type": "bool"
        }
      ],
      "stateMutability": "view",
      "type": "function"
    },
    {
      "inputs": [
        {
          "internalType": "address",
          "name": "tokenAddress",
          "type": "address"
        },
        {
          "internalType": "address",
          "name": "_owner",
          "type": "address"
        },
        {
          "internalType": "address payable",
          "name": "timelockAddress",
          "type": "address"
        }
      ],
      "name": "initialize",
      "outputs": [],
      "stateMutability": "nonpayable",
      "type": "function"
    },
    {
      "inputs": [],
      "name": "merkleRoot",
      "outputs": [
        {
          "internalType": "bytes32",
          "name": "",
          "type": "bytes32"
        }
      ],
      "stateMutability": "view",
      "type": "function"
    },
    {
      "inputs": [],
      "name": "owner",
      "outputs": [
        {
          "internalType": "address",
          "name": "",
          "type": "address"
        }
      ],
      "stateMutability": "view",
      "type": "function"
    },
    {
      "inputs": [],
      "name": "ownerInitialized",
      "outputs": [
        {
          "internalType": "bool",
          "name": "",
          "type": "bool"
        }
      ],
      "stateMutability": "view",
      "type": "function"
    },
    {
      "inputs": [],
      "name": "pause",
      "outputs": [],
      "stateMutability": "nonpayable",
      "type": "function"
    },
    {
      "inputs": [],
      "name": "paused",
      "outputs": [
        {
          "internalType": "bool",
          "name": "",
          "type": "bool"
        }
      ],
      "stateMutability": "view",
      "type": "function"
    },
    {
      "inputs": [],
      "name": "proxiableUUID",
      "outputs": [
        {
          "internalType": "bytes32",
          "name": "",
          "type": "bytes32"
        }
      ],
      "stateMutability": "view",
      "type": "function"
    },
    {
      "inputs": [],
      "name": "renounceOwnership",
      "outputs": [],
      "stateMutability": "nonpayable",
      "type": "function"
    },
    {
      "inputs": [
        {
          "internalType": "bytes32",
          "name": "role",
          "type": "bytes32"
        },
        {
          "internalType": "address",
          "name": "account",
          "type": "address"
        }
      ],
      "name": "renounceRole",
      "outputs": [],
      "stateMutability": "nonpayable",
      "type": "function"
    },
    {
      "inputs": [
        {
          "internalType": "bytes32",
          "name": "role",
          "type": "bytes32"
        },
        {
          "internalType": "address",
          "name": "account",
          "type": "address"
        }
      ],
      "name": "revokeRole",
      "outputs": [],
      "stateMutability": "nonpayable",
      "type": "function"
    },
    {
      "inputs": [
        {
          "internalType": "bytes32",
          "name": "newRoot",
          "type": "bytes32"
        }
      ],
      "name": "setMerkleRoot",
      "outputs": [],
      "stateMutability": "nonpayable",
      "type": "function"
    },
    {
      "inputs": [
        {
          "internalType": "bytes4",
          "name": "interfaceId",
          "type": "bytes4"
        }
      ],
      "name": "supportsInterface",
      "outputs": [
        {
          "internalType": "bool",
          "name": "",
          "type": "bool"
        }
      ],
      "stateMutability": "view",
      "type": "function"
    },
    {
      "inputs": [],
      "name": "timelock",
      "outputs": [
        {
          "internalType": "contract TimelockControllerUpgradeable",
          "name": "",
          "type": "address"
        }
      ],
      "stateMutability": "view",
      "type": "function"
    },
    {
      "inputs": [],
      "name": "token",
      "outputs": [
        {
          "internalType": "contract IERC20Upgradeable",
          "name": "",
          "type": "address"
        }
      ],
      "stateMutability": "view",
      "type": "function"
    },
    {
      "inputs": [
        {
          "internalType": "address",
          "name": "newOwner",
          "type": "address"
        }
      ],
      "name": "transferOwnership",
      "outputs": [],
      "stateMutability": "nonpayable",
      "type": "function"
    },
    {
      "inputs": [],
      "name": "trustedInitializer",
      "outputs": [
        {
          "internalType": "address",
          "name": "",
          "type": "address"
        }
      ],
      "stateMutability": "view",
      "type": "function"
    },
    {
      "inputs": [],
      "name": "unpause",
      "outputs": [],
      "stateMutability": "nonpayable",
      "type": "function"
    },
    {
      "inputs": [
        {
          "internalType": "address",
          "name": "newImplementation",
          "type": "address"
        }
      ],
      "name": "upgradeTo",
      "outputs": [],
      "stateMutability": "nonpayable",
      "type": "function"
    },
    {
      "inputs": [
        {
          "internalType": "address",
          "name": "newImplementation",
          "type": "address"
        },
        {
          "internalType": "bytes",
          "name": "data",
          "type": "bytes"
        }
      ],
      "name": "upgradeToAndCall",
      "outputs": [],
      "stateMutability": "payable",
      "type": "function"
    },
    {
      "inputs": [
        {
          "internalType": "address",
          "name": "",
          "type": "address"
        },
        {
          "internalType": "uint256",
          "name": "",
          "type": "uint256"
        }
      ],
      "name": "vestingSchedules",
      "outputs": [
        {
          "internalType": "bool",
          "name": "initialized",
          "type": "bool"
        },
        {
          "internalType": "uint256",
          "name": "totalAmount",
          "type": "uint256"
        },
        {
          "internalType": "uint256",
          "name": "released",
          "type": "uint256"
        },
        {
          "internalType": "uint256",
          "name": "start",
          "type": "uint256"
        },
        {
          "internalType": "uint256",
          "name": "cliff",
          "type": "uint256"
        },
        {
          "internalType": "uint256",
          "name": "duration",
          "type": "uint256"
        },
        {
          "internalType": "uint256",
          "name": "slicePeriodSeconds",
          "type": "uint256"
        },
        {
          "internalType": "uint256",
          "name": "cliffUnlockPercent",
          "type": "uint256"
        }
      ],
      "stateMutability": "view",
      "type": "function"
    }
  ],
  "bytecode": "0x60c080604052346100f057306080523360a0526000549060ff8260081c1661009e575060ff80821603610063575b60405161392d90816100f68239608051818181611228015281816113550152611dab015260a05181818161079c01526110480152f35b60ff90811916176000557f7f26b83ff96e1f2b6a682f133852f6798a09c465da95921460cefb3847402498602060405160ff8152a13861002d565b62461bcd60e51b815260206004820152602760248201527f496e697469616c697a61626c653a20636f6e747261637420697320696e697469604482015266616c697a696e6760c81b6064820152608490fd5b600080fdfe61020080604052600436101561001457600080fd5b60003560e01c90816301ffc9a7146129e85750806305c77a3c14612971578063077a259c146124f45780630de05659146122e4578063248a9ca3146122b45780632eb4a7ab146122955780632f2ff15d146121f557806334f2c7471461210257806336568abe146120705780633659cfe614611d86578063379607f514611b535780633f4ba83a14611abf578063401d44821461191457806345626bd61461186d57806348904881146116825780634f1ef286146112d957806352d1902d146112155780635c975abb146111f2578063715018a6146111955780637cb64759146111485780638456cb59146110ee5780638da5cb5b146110c557806391d14854146110775780639e85f9aa14611032578063a217fddf14611016578063abd70aa214610f8c578063b970362614610c35578063bebc214514610c11578063c0c53b8b14610724578063c8f50b4c146106fb578063d33219b4146106cd578063d547741f1461068d578063d701460c14610616578063d7e84fbf146105a2578063dd49756e146104a6578063f2fde38b14610417578063fb897ce4146101f15763fc0c546a146101c257600080fd5b346101ec5760003660031901126101ec5761015f546040516001600160a01b039091168152602090f35b600080fd5b346101ec576020806003193601126101ec576001600160a01b03610213612a3b565b16806000526101628083526040600020549261022e84612fd7565b9361023c6040519586612b1f565b80855261024881612fd7565b601f199390840160005b8181106103c157505061026482612fd7565b946102726040519687612b1f565b82865261027e83612fd7565b868501950136863760005b83811061035e57505050506040519384936040850160408652825180915260609084606088019401916000905b8282106102fa57505050508482038584015251808252908201929160005b8281106102e357505050500390f35b8351855286955093810193928101926001016102d4565b835180511515875280880151888801526040808201519088015280820151878301526080808201519088015260a0808201519088015260c0808201519088015260e090810151908701528998506101009095019492860192600191909101906102b6565b600190826000999798995283865261038361037d826040600020612a98565b50612e9e565b61038d828961317d565b52610398818861317d565b506103ac6103a6828961317d565b51613022565b6103b6828b61317d565b520196959496610289565b8490604098969798516103d381612aca565b60008152600083820152600060408201526000606082015260006080820152600060a0820152600060c0820152600060e08201528282890101520196959496610252565b346101ec5760203660031901126101ec57610430612a3b565b610438613565565b6001600160a01b0381161561045257610450906135bd565b005b60405162461bcd60e51b815260206004820152602660248201527f4f776e61626c653a206e6577206f776e657220697320746865207a65726f206160448201526564647265737360d01b6064820152608490fd5b346101ec576020806003193601126101ec576004359060008160018060a01b0361015f54166064604051809481936323b872dd60e01b83523360048401523060248401528860448401525af190811561059657600091610569575b5015610534577f59062170a285eb80e8c6b8ced60428442a51910635005233fc4ce084a475845e906040519283523392a2005b6064906040519062461bcd60e51b82526004820152600e60248201526d11195c1bdcda5d0819985a5b195960921b6044820152fd5b6105899150823d841161058f575b6105818183612b1f565b810190612efd565b83610501565b503d610577565b6040513d6000823e3d90fd5b346101ec5760003660031901126101ec57604051604081019080821067ffffffffffffffff831117610600576105fc91604052600e81526d544f50415920444556205445414d60901b602082015260405191829182612b80565b0390f35b634e487b7160e01b600052604160045260246000fd5b346101ec576101003660031901126101ec5760405161063481612aca565b60043580151581036101ec578161068591602093526024358382015260443560408201526064356060820152608435608082015260a43560a082015260c43560c082015260e43560e0820152613022565b604051908152f35b346101ec5760403660031901126101ec576104506004356106ac612a51565b908060005261012d6020526106c8600160406000200154613396565b6134e6565b346101ec5760003660031901126101ec576101615460405160089190911c6001600160a01b03168152602090f35b346101ec5760003660031901126101ec5760206040516000805160206138b88339815191528152f35b346101ec5760603660031901126101ec5761073d612a3b565b610745612a51565b6044803591906001600160a01b0390818416908185036101ec576000549460ff6008968181891c161595868097610c05575b8015610bef575b15610b945760019960ff1992888c85831617600055610b82575b50817f0000000000000000000000000000000000000000000000000000000000000000163303610b3e578116978815610b0257818116958615610ac6578715610a8257506107f4846000548c1c166107ef81613606565b613606565b6107fd336135bd565b61082a846000548c1c1661081081613606565b61081981613606565b84606554166065556107ef81613606565b61015f80546001600160a01b0319168a179055338603610a73575b5060008581527fa581b17bfc4d6578e300cafbf34fd2dc1fef0270d8c73f88a99dcde2859a66396020908152604090912054909961012d9291851615610a39575b6000805160206138b88339815191529586600052838c526040600020886000528c528560406000205416156109ff575b6101618054610100600160a81b03191691831b610100600160a81b0316919091178082556000808052858e52604080822092851c8616808352928f529020548716156109c3575b5054901c169284600052818a526040600020846000528a526040600020541615610987575b50505050604051937fb66992478f7ac920287599c0c595e781dea4aae4d7de20364f24157a65c985fb600080a461095557005b7f7f26b83ff96e1f2b6a682f133852f6798a09c465da95921460cefb38474024989261ff0019600054166000558152a1005b8360005288526040600020826000528852886040600020918254161790553391600080516020613898833981519152600080a486808080610922565b60008052848d526040600020816000528d528d60406000209087825416179055339060006000805160206138988339815191528180a48d6108fd565b86600052838c526040600020886000528c5260406000208d86825416179055338888600080516020613898833981519152600080a46108b6565b60008052828b526040600020876000528b5260406000208c85825416179055338760006000805160206138988339815191528180a4610886565b610a7c906135bd565b8a610845565b6064907f496e76616c69642074696d656c6f636b206164647265737300000000000000006040519162461bcd60e51b83526020600484015260186024840152820152fd5b60649074496e76616c6964206f776e6572206164647265737360581b6040519162461bcd60e51b83526020600484015260156024840152820152fd5b60405162461bcd60e51b8152602060048201526015602482015274496e76616c696420746f6b656e206164647265737360581b81880152606490fd5b60405162461bcd60e51b815260206004820152601860248201527f556e617574686f72697a656420696e697469616c697a6572000000000000000081880152606490fd5b61ffff1916610101176000558b610798565b60405162461bcd60e51b815260206004820152602e60248201527f496e697469616c697a61626c653a20636f6e747261637420697320616c726561818701526d191e481a5b9a5d1a585b1a5e995960921b6064820152608490fd5b50303b15801561077e575060018383161461077e565b50600183831610610777565b346101ec5760003660031901126101ec57602060ff61016154166040519015158152f35b346101ec576101003660031901126101ec57610c4f612a3b565b60e43567ffffffffffffffff81116101ec57610c6f903690600401612a67565b9161016054918215610f515760405160208101906bffffffffffffffffffffffff198460601b168252602435603482015260443560548201526064356074820152608435609482015260a43560b482015260c43560d482015260d48152610cd581612aca565b51902090610ce285612fd7565b94610cf06040519687612b1f565b808652602086019060051b8201913683116101ec57905b828210610f4157505050906000915b8451831015610d5c57610d29838661317d565b519081811015610d4957600052602052600160406000205b920191610d16565b9060005260205260016040600020610d41565b8303610f0557610d766001600160a01b0382161515612c2e565b608435151580610efa575b610d8a90612c7a565b610d99606460c4351115612cc6565b610da66024351515612d04565b60443515610eab57610dbe6084356064351115612da7565b60018060a01b03811660005261016280602052610e326040600020610de7606435604435612bb9565b9060405191610df583612aca565b600183526024356020840152600060408401526044356060840152608083015260843560a083015260a43560c083015260c43560e0830152612e07565b60018060a01b038216600052602052604060002054906000198201918211610e95576040805192835260243560208401526001600160a01b03909116917f9ade76f4385de306666dfb21a52b27d52db0fde8ad0f515fa261f532cac60d219190a2005b634e487b7160e01b600052601160045260246000fd5b60405162461bcd60e51b815260206004820152602160248201527f53746172742074696d65206d7573742062652067726561746572207468616e206044820152600360fc1b6064820152608490fd5b5060a4351515610d81565b60405162461bcd60e51b815260206004820152601460248201527324b73b30b634b21036b2b935b63290383937b7b360611b6044820152606490fd5b8135815260209182019101610d07565b60405162461bcd60e51b815260206004820152601360248201527213595c9adb19481c9bdbdd081b9bdd081cd95d606a1b6044820152606490fd5b346101ec5760003660031901126101ec5761015f546040516370a0823160e01b815230600482015290602090829060249082906001600160a01b03165afa801561059657600090610fe3575b602090604051908152f35b506020813d60201161100e575b81610ffd60209383612b1f565b810103126101ec5760209051610fd8565b3d9150610ff0565b346101ec5760003660031901126101ec57602060405160008152f35b346101ec5760003660031901126101ec576040517f00000000000000000000000000000000000000000000000000000000000000006001600160a01b03168152602090f35b346101ec5760403660031901126101ec57611090612a51565b60043560005261012d60205260406000209060018060a01b0316600052602052602060ff604060002054166040519015158152f35b346101ec5760003660031901126101ec576033546040516001600160a01b039091168152602090f35b346101ec5760003660031901126101ec57611107613191565b61110f6134a2565b600160ff1960655416176065557f62e78cea01bee320cd4e420270b5ea74000d11b0c9f74754ebdbfc544b05a2586020604051338152a1005b346101ec5760203660031901126101ec577f90004c04698bc3322499a575ed3752dd4abf33e0a7294c06a787a0fe01bea9416020600435611187613565565b8061016055604051908152a1005b346101ec5760003660031901126101ec576111ae613565565b603380546001600160a01b031981169091556000906001600160a01b03167f8be0079c531659141344cd1fd0a4f28419497f9722a3daafe3b4186f6b6457e08280a3005b346101ec5760003660031901126101ec57602060ff606554166040519015158152f35b346101ec5760003660031901126101ec577f00000000000000000000000000000000000000000000000000000000000000006001600160a01b0316300361126e5760206040516000805160206138d88339815191528152f35b60405162461bcd60e51b815260206004820152603860248201527f555550535570677261646561626c653a206d757374206e6f742062652063616c60448201527f6c6564207468726f7567682064656c656761746563616c6c00000000000000006064820152608490fd5b60403660031901126101ec576112ed612a3b565b602490813567ffffffffffffffff81116101ec57366023820112156101ec5780600401359061131b82612b41565b6113286040519182612b1f565b82815260209283820192368783830101116101ec5781600092888793018637830101526001600160a01b037f000000000000000000000000000000000000000000000000000000000000000081169061138330831415612f15565b6113a06000805160206138d8833981519152928284541614612f76565b806101615460081c163303611642576000805160206138b883398151915260005261012d8552604060002032600052855260ff60406000205416156115fe577f4910fdfa16fed3260ed0e7147f7cc6da11a60208b5b9406d12a635614ffd91435460ff16156114185750505050506104509150613666565b859293949516906040516352d1902d60e01b81528681600481865afa600091816115cf575b5061149d5760405162461bcd60e51b815260048101889052602e818a01527f45524331393637557067726164653a206e657720696d706c656d656e7461746960448201526d6f6e206973206e6f74205555505360901b6064820152608490fd5b969192939594960361157a57506114b382613666565b7fbc7cd75a20ee27fd9adebab32041f755214dbc6bffa90cc0225b39da2e5c2d3b600080a2825115801590611572575b6114e957005b60008061045095604051956114fd87612ae7565b602787527f416464726573733a206c6f772d6c6576656c2064656c65676174652063616c6c86880152660819985a5b195960ca1b60408801525190845af4903d15611569573d61154c81612b41565b9061155a6040519283612b1f565b8152600081943d92013e613806565b60609250613806565b5060016114e3565b8360296084926040519262461bcd60e51b845260048401528201527f45524331393637557067726164653a20756e737570706f727465642070726f786044820152681a58589b195555525160ba1b6064820152fd5b9091508781813d83116115f7575b6115e78183612b1f565b810103126101ec5751908961143d565b503d6115dd565b60405162461bcd60e51b815260048101869052601f818901527f55706772616465207265717569726573206d756c74697369672061646d696e006044820152606490fd5b60405162461bcd60e51b8152600481018690526019818901527855706772616465206f6e6c79207669612074696d656c6f636b60381b6044820152606490fd5b346101ec5760e03660031901126101ec5761169b612a3b565b6024356044356064356084359160a4359160c435956116b8613191565b6001600160a01b0316956116cd871515612c2e565b8515938461181957428410156116e281612d5c565b868411806117d4576117226117289261171d61177f998b1515806117cb575b61170a90612c7a565b6117176064891115612cc6565b15612d04565b612d5c565b15612da7565b87600052610162958660205261174360406000209486612bb9565b6040519561175087612aca565b60018752896020880152600060408801526060870152608086015260a085015260c084015260e0830152612e07565b82600052602052604060002054906000198201918211610e95577f9ade76f4385de306666dfb21a52b27d52db0fde8ad0f515fa261f532cac60d219160409182519182526020820152a2005b50861515611701565b60405162461bcd60e51b815260206004820152601a60248201527f436c696666206c6f6e676572207468616e206475726174696f6e0000000000006044820152606490fd5b60405162461bcd60e51b815260206004820152602660248201527f546f74616c20616d6f756e74206d7573742062652067726561746572207468616044820152656e207a65726f60d01b6064820152608490fd5b346101ec5760403660031901126101ec57611886612a3b565b6001600160a01b0316600090815261016260205260409020805460243591908210156101ec57610100916118b991612a98565b5060ff815416906001810154906002810154600382015460048301549060058401549260076006860154950154956040519715158852602088015260408701526060860152608085015260a084015260c083015260e0820152f35b346101ec5760403660031901126101ec5761192d612a3b565b60243590611939613191565b61015f546040516370a0823160e01b81523060048201526020926001600160a01b03929091908316908481602481855afa8015610596578691600091611a8e575b5010611a495760405163a9059cbb60e01b81526001600160a01b038316600482015260248101869052908490829060449082906000905af190811561059657600091611a2c575b50156119f55760405193845216917fba443e8671971c36cdeb74f87321041daff421230cbc5e36cb835269ed1d8b7e9190a2005b60405162461bcd60e51b815260048101849052600f60248201526e15da5d1a191c985dc819985a5b1959608a1b6044820152606490fd5b611a439150843d861161058f576105818183612b1f565b856119c1565b60405162461bcd60e51b815260048101859052601960248201527f496e73756666696369656e7420706f6f6c2062616c616e6365000000000000006044820152606490fd5b809250868092503d8311611ab8575b611aa78183612b1f565b810103126101ec578590518761197a565b503d611a9d565b346101ec5760003660031901126101ec57611ad8613191565b60655460ff811615611b175760ff19166065557f5db9ee0a495bf2e6ff9c91a7834c1ba4fdd244a5e8aa4e537bd38aeae4b073aa6020604051338152a1005b60405162461bcd60e51b815260206004820152601460248201527314185d5cd8589b194e881b9bdd081c185d5cd95960621b6044820152606490fd5b346101ec576020806003193601126101ec5760043590611b716134a2565b611b796134a2565b611b84331515612c2e565b33600052610162808252604060002054831015611d4157336000528152611baf826040600020612a98565b509060ff82541615611cfd57611bcc611bc783612e9e565b613022565b918215611cb857600201611be1838254612bb9565b905561015f5460405163a9059cbb60e01b815233600482015260248101849052908290829060449082906000906001600160a01b03165af190811561059657600091611c9b575b5015611c5f576040519283528201527f9923b4306c6c030f2bdfbf156517d5983b87e15b96176da122cd4f2effa4ba7b60403392a2005b6064906040519062461bcd60e51b825260048201526015602482015274151bdad95b881d1c985b9cd9995c8819985a5b1959605a1b6044820152fd5b611cb29150823d841161058f576105818183612b1f565b84611c28565b60405162461bcd60e51b815260048101839052601d60248201527f4e6f20746f6b656e7320617661696c61626c6520666f7220636c61696d0000006044820152606490fd5b6064906040519062461bcd60e51b82526004820152601a60248201527f56657374696e67207363686564756c65206e6f7420666f756e640000000000006044820152fd5b60405162461bcd60e51b815260048101839052601e60248201527f496e76616c69642076657374696e67207363686564756c6520696e64657800006044820152606490fd5b346101ec576020806003193601126101ec57611da0612a3b565b6001600160a01b03917f00000000000000000000000000000000000000000000000000000000000000008316611dd830821415612f15565b611df56000805160206138d8833981519152918583541614612f76565b836101615460081c16330361202f576000805160206138b883398151915260005261012d8252604060002032600052825260ff6040600020541615611fea57604051908282019482861067ffffffffffffffff87111761060057856040526000835260ff7f4910fdfa16fed3260ed0e7147f7cc6da11a60208b5b9406d12a635614ffd91435416600014611e9157505050506104509150613666565b8492939416906040516352d1902d60e01b81528581600481865afa60009181611fbb575b50611f165760405162461bcd60e51b815260048101879052602e60248201527f45524331393637557067726164653a206e657720696d706c656d656e7461746960448201526d6f6e206973206e6f74205555505360901b6064820152608490fd5b94939403611f6457611f2782613666565b7fbc7cd75a20ee27fd9adebab32041f755214dbc6bffa90cc0225b39da2e5c2d3b600080a2825115801590611f5c576114e957005b5060006114e3565b60405162461bcd60e51b815260048101849052602960248201527f45524331393637557067726164653a20756e737570706f727465642070726f786044820152681a58589b195555525160ba1b6064820152608490fd5b9091508681813d8311611fe3575b611fd38183612b1f565b810103126101ec57519088611eb5565b503d611fc9565b60405162461bcd60e51b815260048101839052601f60248201527f55706772616465207265717569726573206d756c74697369672061646d696e006044820152606490fd5b60405162461bcd60e51b815260048101839052601960248201527855706772616465206f6e6c79207669612074696d656c6f636b60381b6044820152606490fd5b346101ec5760403660031901126101ec57612089612a51565b336001600160a01b038216036120a557610450906004356134e6565b60405162461bcd60e51b815260206004820152602f60248201527f416363657373436f6e74726f6c3a2063616e206f6e6c792072656e6f756e636560448201526e103937b632b9903337b91039b2b63360891b6064820152608490fd5b346101ec576020806003193601126101ec57602461211e612a3b565b61015f546040516370a0823160e01b8152306004820152926000926001600160a01b039290918691869190829086165afa938415610596576000946121c6575b50166000526101628352604060002092600084545b80821061218a575050604080945051928352820152f35b90926121be6001916121b8836121a0888b612a98565b50015460026121af898c612a98565b50015490612bac565b90612bb9565b930190612173565b9093508481813d83116121ee575b6121de8183612b1f565b810103126101ec5751928561215e565b503d6121d4565b346101ec5760403660031901126101ec57600435612211612a51565b8160005261012d8060205261222d600160406000200154613396565b826000528060205260406000209160018060a01b0316918260005260205260ff604060002054161561225b57005b826000526020526040600020816000526020526040600020600160ff198254161790553391600080516020613898833981519152600080a4005b346101ec5760003660031901126101ec57602061016054604051908152f35b346101ec5760203660031901126101ec5760043560005261012d6020526020600160406000200154604051908152f35b346101ec5760403660031901126101ec576122fd612a3b565b6024356123086134a2565b6001600160a01b038281169261231f841515612c2e565b83600052610162906020918083526040600020548510156124af5785600052825261234e846040600020612a98565b509260ff8454161561246a57612366611bc785612e9e565b938415612425576123be9284926002879301612383848254612bb9565b905561015f541690600060405180968195829463a9059cbb60e01b84526004840160209093929193604081019460018060a01b031681520152565b03925af190811561059657600091612408575b5015611c5f57916040917f9923b4306c6c030f2bdfbf156517d5983b87e15b96176da122cd4f2effa4ba7b938351928352820152a2005b61241f9150823d841161058f576105818183612b1f565b856123d1565b60405162461bcd60e51b815260048101859052601d60248201527f4e6f20746f6b656e7320617661696c61626c6520666f7220636c61696d0000006044820152606490fd5b60405162461bcd60e51b815260048101849052601a60248201527f56657374696e67207363686564756c65206e6f7420666f756e640000000000006044820152606490fd5b60405162461bcd60e51b815260048101849052601e60248201527f496e76616c69642076657374696e67207363686564756c6520696e64657800006044820152606490fd5b346101ec5760e03660031901126101ec5767ffffffffffffffff6004358181116101ec57612526903690600401612a67565b6024358381116101ec5761253e903690600401612a67565b6101e052926044358181116101ec5761255b903690600401612a67565b6101a0526080526064358181116101ec5761257a903690600401612a67565b60c05260a0526084358181116101ec57612598903690600401612a67565b6101405260e05260a4358181116101ec576125b7903690600401612a67565b610160526101005260c435116101ec576125d63660c435600401612a67565b61018052610120526125e6613191565b6125f46101e0518214612bc6565b6126026101a0518214612bc6565b61260f60c0518214612bc6565b61261d610140518214612bc6565b61262b610160518214612bc6565b612639610180518214612bc6565b801561293d57606481116128ff5760006101c0525b806101c0511061265a57005b61268260018060a01b0361267a6126756101c0518587612c0a565b612c1a565b161515612c2e565b6126956101c0516101405160e051612c0a565b351515806128dd575b6126a790612c7a565b6126c860646126c06101c0516101805161012051612c0a565b351115612cc6565b6126e46126dc6101c0516101e05186612c0a565b351515612d04565b612703426126fb6101c0516101a051608051612c0a565b351015612d5c565b6127346127186101c05160c05160a051612c0a565b3561272c6101c0516101405160e051612c0a565b351015612da7565b6101c0516001600160a01b039061275090612675908486612c0a565b1660005261016260205261283460406000206127736101c0516101e05187612c0a565b35906127886101c0516101a051608051612c0a565b356127b961279f6101c0516101a051608051612c0a565b356127b26101c05160c05160a051612c0a565b3590612bb9565b6127cc6101c0516101405160e051612c0a565b356127e16101c0516101605161010051612c0a565b35916127f76101c0516101805161012051612c0a565b35936040519661280688612aca565b600188526020880152600060408801526060870152608086015260a085015260c084015260e0830152612e07565b6128456126756101c0518385612c0a565b6101c0516001600160a01b039061286190612675908587612c0a565b166000526101626020526040600020549081600019810111610e955760407f9ade76f4385de306666dfb21a52b27d52db0fde8ad0f515fa261f532cac60d21916128b26101c0516101e05189612c0a565b825160001990950185523560208501526001600160a01b031692a260016101c051016101c05261264e565b506126a76128f56101c0516101605161010051612c0a565b351515905061269e565b60405162461bcd60e51b8152602060048201526016602482015275546f6f206d616e792062656e6566696369617269657360501b6044820152606490fd5b60405162461bcd60e51b815260206004820152600c60248201526b456d7074792061727261797360a01b6044820152606490fd5b346101ec5760203660031901126101ec5761298a612a3b565b6001600160a01b0316600090815261016260205260408120805482915b8184106129b957602083604051908152f35b90916129de6001916121b8836129cf8887612a98565b50015460026121af8988612a98565b93019291906129a7565b346101ec5760203660031901126101ec576004359063ffffffff60e01b82168092036101ec57602091637965db0b60e01b8114908115612a2a575b5015158152f35b6301ffc9a760e01b14905083612a23565b600435906001600160a01b03821682036101ec57565b602435906001600160a01b03821682036101ec57565b9181601f840112156101ec5782359167ffffffffffffffff83116101ec576020808501948460051b0101116101ec57565b8054821015612ab45760005260206000209060031b0190600090565b634e487b7160e01b600052603260045260246000fd5b610100810190811067ffffffffffffffff82111761060057604052565b6060810190811067ffffffffffffffff82111761060057604052565b6080810190811067ffffffffffffffff82111761060057604052565b90601f8019910116810190811067ffffffffffffffff82111761060057604052565b67ffffffffffffffff811161060057601f01601f191660200190565b60005b838110612b705750506000910152565b8181015183820152602001612b60565b60409160208252612ba08151809281602086015260208686019101612b5d565b601f01601f1916010190565b91908203918211610e9557565b91908201809211610e9557565b15612bcd57565b60405162461bcd60e51b8152602060048201526015602482015274082e4e4c2f240d8cadccee8d040dad2e6dac2e8c6d605b1b6044820152606490fd5b9190811015612ab45760051b0190565b356001600160a01b03811681036101ec5790565b15612c3557565b60405162461bcd60e51b815260206004820152601b60248201527f496e76616c69642062656e6566696369617279206164647265737300000000006044820152606490fd5b15612c8157565b60405162461bcd60e51b815260206004820152601960248201527f496e76616c6964206475726174696f6e206f7220736c696365000000000000006044820152606490fd5b15612ccd57565b60405162461bcd60e51b815260206004820152600f60248201526e496e76616c696420636c696666202560881b6044820152606490fd5b15612d0b57565b60405162461bcd60e51b815260206004820152602360248201527f546f74616c20616d6f756e74206d75737420626520677265617465722074686160448201526206e20360ec1b6064820152608490fd5b15612d6357565b606460405162461bcd60e51b815260206004820152602060248201527f53746172742074696d652063616e6e6f7420626520696e2074686520706173746044820152fd5b15612dae57565b60405162461bcd60e51b815260206004820152602b60248201527f436c696666206475726174696f6e2063616e6e6f742065786365656420746f7460448201526a30b610323ab930ba34b7b760a91b6064820152608490fd5b80546801000000000000000081101561060057612e2991600182018155612a98565b919091612e885760e08160079251151560ff801986541691161784556020810151600185015560408101516002850155606081015160038501556080810151600485015560a0810151600585015560c081015160068501550151910155565b634e487b7160e01b600052600060045260246000fd5b90604051612eab81612aca565b60e06007829460ff8154161515845260018101546020850152600281015460408501526003810154606085015260048101546080850152600581015460a0850152600681015460c08501520154910152565b908160209103126101ec575180151581036101ec5790565b15612f1c57565b60405162461bcd60e51b815260206004820152602c60248201527f46756e6374696f6e206d7573742062652063616c6c6564207468726f7567682060448201526b19195b1959d85d1958d85b1b60a21b6064820152608490fd5b15612f7d57565b60405162461bcd60e51b815260206004820152602c60248201527f46756e6374696f6e206d7573742062652063616c6c6564207468726f7567682060448201526b6163746976652070726f787960a01b6064820152608490fd5b67ffffffffffffffff81116106005760051b60200190565b81810292918115918404141715610e9557565b811561300c570490565b634e487b7160e01b600052601260045260246000fd5b8051158015613171575b61316b57608081019081514210600014613047575050600090565b6060810180519061305e60a0840192835190612bb9565b421061307e57505061307b91506040602082015191015190612bac565b90565b600093514210158061315e575b61313b575b61309b905142612bac565b60208301916130bc835160646130b560e088015183612fef565b0490612bac565b91806130f5575b505050518083116130ec575b5060400151808211156130e55761307b91612bac565b5050600090565b915060406130cf565b6131139061310960c0870191825190613002565b9251905190613002565b9182156130c3579161312d6121b892613132959794612fef565b613002565b913880806130c3565b925061309b6064613155602085015160e086015190612fef565b04939050613090565b5060e0830151151561308b565b50600090565b5060208101511561302c565b8051821015612ab45760209160051b010190565b3360009081527ff7eb0daba1366a953481591555412f50097a7418b48cd07b54c80a4fe83e658460209081526040808320549092906000805160206138b88339815191529060ff16156131e45750505050565b6131ed33613707565b8451916131f983612b03565b604283528483019360603686378351156133825760308553835190600191600110156133825790607860218601536041915b818311613314575050506132d2576132809385936132b8936132a96048946132ce9951988576020b1b1b2b9b9a1b7b73a3937b61d1030b1b1b7bab73a1604d1b8b978801528251928391603789019101612b5d565b8401917001034b99036b4b9b9b4b733903937b6329607d1b603784015251809386840190612b5d565b01036028810185520183612b1f565b5162461bcd60e51b815291829160048301612b80565b0390fd5b60648486519062461bcd60e51b825280600483015260248201527f537472696e67733a20686578206c656e67746820696e73756666696369656e746044820152fd5b909192600f8116601081101561336e576f181899199a1a9b1b9c1cb0b131b232b360811b901a61334485886136f6565b5360041c92801561335a5760001901919061322b565b634e487b7160e01b82526011600452602482fd5b634e487b7160e01b83526032600452602483fd5b634e487b7160e01b81526032600452602490fd5b600081815260209061012d8252604092838220338352835260ff8483205416156133c05750505050565b6133c933613707565b8451916133d583612b03565b604283528483019360603686378351156133825760308553835190600191600110156133825790607860218601536041915b81831161345c575050506132d2576132809385936132b8936132a96048946132ce9951988576020b1b1b2b9b9a1b7b73a3937b61d1030b1b1b7bab73a1604d1b8b978801528251928391603789019101612b5d565b909192600f8116601081101561336e576f181899199a1a9b1b9c1cb0b131b232b360811b901a61348c85886136f6565b5360041c92801561335a57600019019190613407565b60ff606554166134ae57565b60405162461bcd60e51b815260206004820152601060248201526f14185d5cd8589b194e881c185d5cd95960821b6044820152606490fd5b9060009180835261012d80602052604084209260018060a01b03169283855260205260ff60408520541661351b575b50505050565b818452602052604083208284526020526040832060ff1981541690557ff6391f5c32d9c69d2a47ea670b442974b53935d1edc7fd64eb21e047a839171b339380a438808080613515565b6033546001600160a01b0316330361357957565b606460405162461bcd60e51b815260206004820152602060248201527f4f776e61626c653a2063616c6c6572206973206e6f7420746865206f776e65726044820152fd5b603380546001600160a01b039283166001600160a01b0319821681179092559091167f8be0079c531659141344cd1fd0a4f28419497f9722a3daafe3b4186f6b6457e0600080a3565b1561360d57565b60405162461bcd60e51b815260206004820152602b60248201527f496e697469616c697a61626c653a20636f6e7472616374206973206e6f74206960448201526a6e697469616c697a696e6760a81b6064820152608490fd5b803b1561369b576000805160206138d883398151915280546001600160a01b0319166001600160a01b03909216919091179055565b60405162461bcd60e51b815260206004820152602d60248201527f455243313936373a206e657720696d706c656d656e746174696f6e206973206e60448201526c1bdd08184818dbdb9d1c9858dd609a1b6064820152608490fd5b908151811015612ab4570160200190565b6040519061371482612ae7565b602a8252602082016040368237825115612ab45760309053815160019060011015612ab457607860218401536029905b8082116137985750506137545790565b606460405162461bcd60e51b815260206004820152602060248201527f537472696e67733a20686578206c656e67746820696e73756666696369656e746044820152fd5b9091600f811660108110156137f1576f181899199a1a9b1b9c1cb0b131b232b360811b901a6137c784866136f6565b5360041c9180156137dc576000190190613744565b60246000634e487b7160e01b81526011600452fd5b60246000634e487b7160e01b81526032600452fd5b91929015613868575081511561381a575090565b3b156138235790565b60405162461bcd60e51b815260206004820152601d60248201527f416464726573733a2063616c6c20746f206e6f6e2d636f6e74726163740000006044820152606490fd5b82519091501561387b5750805190602001fd5b60405162461bcd60e51b81529081906132ce9060048301612b8056fe2f8788117e7eff1d82e926ec794901d17c78024a50270940304540a733656f0d71e15edd14fd3418eb6412e352e9213f5344899ecebf19a3e57e7d605e2472b2360894a13ba1a3210667c828492db98dca3e2076cc3735a920a3ca505d382bbca2646970667358221220d5c0d3d93ee81639129a99f92b93799b25d5e273afe6552f05275ad46e0752b064736f6c63430008190033",
  "linkReferences": {},
  "deployedLinkReferences": {}
}