{
  "_format": "hh-sol-artifact-1",
  "contractName": "HYPEYTreasury",
  "sourceName": "contracts/treasury/HYPEYTreasury.sol",
  "abi": [
    {
      "inputs": [],
      "stateMutability": "nonpayable",
      "type": "constructor"
    },
    {
      "anonymous": false,
      "inputs": [
        {
          "indexed": false,
          "internalType": "address",
          "name": "previousAdmin",
          "type": "address"
        },
        {
          "indexed": false,
          "internalType": "address",
          "name": "newAdmin",
          "type": "address"
        }
      ],
      "name": "AdminChanged",
      "type": "event"
    },
    {
      "anonymous": false,
      "inputs": [
        {
          "indexed": true,
          "internalType": "address",
          "name": "beacon",
          "type": "address"
        }
      ],
      "name": "BeaconUpgraded",
      "type": "event"
    },
    {
      "anonymous": false,
      "inputs": [
        {
          "indexed": true,
          "internalType": "address",
          "name": "from",
          "type": "address"
        },
        {
          "indexed": false,
          "internalType": "uint256",
          "name": "amount",
          "type": "uint256"
        }
      ],
      "name": "ETHDeposited",
      "type": "event"
    },
    {
      "anonymous": false,
      "inputs": [
        {
          "indexed": true,
          "internalType": "address",
          "name": "to",
          "type": "address"
        },
        {
          "indexed": false,
          "internalType": "uint256",
          "name": "amount",
          "type": "uint256"
        }
      ],
      "name": "ETHWithdrawn",
      "type": "event"
    },
    {
      "anonymous": false,
      "inputs": [
        {
          "indexed": false,
          "internalType": "uint8",
          "name": "version",
          "type": "uint8"
        }
      ],
      "name": "Initialized",
      "type": "event"
    },
    {
      "anonymous": false,
      "inputs": [
        {
          "indexed": false,
          "internalType": "address",
          "name": "account",
          "type": "address"
        }
      ],
      "name": "Paused",
      "type": "event"
    },
    {
      "anonymous": false,
      "inputs": [
        {
          "indexed": true,
          "internalType": "bytes32",
          "name": "role",
          "type": "bytes32"
        },
        {
          "indexed": true,
          "internalType": "bytes32",
          "name": "previousAdminRole",
          "type": "bytes32"
        },
        {
          "indexed": true,
          "internalType": "bytes32",
          "name": "newAdminRole",
          "type": "bytes32"
        }
      ],
      "name": "RoleAdminChanged",
      "type": "event"
    },
    {
      "anonymous": false,
      "inputs": [
        {
          "indexed": true,
          "internalType": "bytes32",
          "name": "role",
          "type": "bytes32"
        },
        {
          "indexed": true,
          "internalType": "address",
          "name": "account",
          "type": "address"
        },
        {
          "indexed": true,
          "internalType": "address",
          "name": "sender",
          "type": "address"
        }
      ],
      "name": "RoleGranted",
      "type": "event"
    },
    {
      "anonymous": false,
      "inputs": [
        {
          "indexed": true,
          "internalType": "bytes32",
          "name": "role",
          "type": "bytes32"
        },
        {
          "indexed": true,
          "internalType": "address",
          "name": "account",
          "type": "address"
        },
        {
          "indexed": true,
          "internalType": "address",
          "name": "sender",
          "type": "address"
        }
      ],
      "name": "RoleRevoked",
      "type": "event"
    },
    {
      "anonymous": false,
      "inputs": [
        {
          "indexed": true,
          "internalType": "address",
          "name": "token",
          "type": "address"
        },
        {
          "indexed": false,
          "internalType": "bool",
          "name": "enabled",
          "type": "bool"
        }
      ],
      "name": "TokenSupported",
      "type": "event"
    },
    {
      "anonymous": false,
      "inputs": [
        {
          "indexed": true,
          "internalType": "address",
          "name": "token",
          "type": "address"
        },
        {
          "indexed": true,
          "internalType": "address",
          "name": "from",
          "type": "address"
        },
        {
          "indexed": false,
          "internalType": "uint256",
          "name": "amount",
          "type": "uint256"
        }
      ],
      "name": "TokensDeposited",
      "type": "event"
    },
    {
      "anonymous": false,
      "inputs": [
        {
          "indexed": true,
          "internalType": "address",
          "name": "token",
          "type": "address"
        },
        {
          "indexed": true,
          "internalType": "address",
          "name": "to",
          "type": "address"
        },
        {
          "indexed": false,
          "internalType": "uint256",
          "name": "amount",
          "type": "uint256"
        }
      ],
      "name": "TokensWithdrawn",
      "type": "event"
    },
    {
      "anonymous": false,
      "inputs": [
        {
          "indexed": true,
          "internalType": "address",
          "name": "admin",
          "type": "address"
        },
        {
          "indexed": true,
          "internalType": "address",
          "name": "timelock",
          "type": "address"
        }
      ],
      "name": "TreasuryInitialized",
      "type": "event"
    },
    {
      "anonymous": false,
      "inputs": [
        {
          "indexed": false,
          "internalType": "address",
          "name": "account",
          "type": "address"
        }
      ],
      "name": "Unpaused",
      "type": "event"
    },
    {
      "anonymous": false,
      "inputs": [
        {
          "indexed": true,
          "internalType": "address",
          "name": "implementation",
          "type": "address"
        }
      ],
      "name": "Upgraded",
      "type": "event"
    },
    {
      "stateMutability": "payable",
      "type": "fallback"
    },
    {
      "inputs": [],
      "name": "DEFAULT_ADMIN_ROLE",
      "outputs": [
        {
          "internalType": "bytes32",
          "name": "",
          "type": "bytes32"
        }
      ],
      "stateMutability": "view",
      "type": "function"
    },
    {
      "inputs": [],
      "name": "MAX_SUPPORTED_TOKENS",
      "outputs": [
        {
          "internalType": "uint256",
          "name": "",
          "type": "uint256"
        }
      ],
      "stateMutability": "view",
      "type": "function"
    },
    {
      "inputs": [],
      "name": "MULTISIG_ADMIN_ROLE",
      "outputs": [
        {
          "internalType": "bytes32",
          "name": "",
          "type": "bytes32"
        }
      ],
      "stateMutability": "view",
      "type": "function"
    },
    {
      "inputs": [
        {
          "internalType": "address",
          "name": "token",
          "type": "address"
        }
      ],
      "name": "addSupportedToken",
      "outputs": [],
      "stateMutability": "nonpayable",
      "type": "function"
    },
    {
      "inputs": [],
      "name": "builder",
      "outputs": [
        {
          "internalType": "string",
          "name": "",
          "type": "string"
        }
      ],
      "stateMutability": "pure",
      "type": "function"
    },
    {
      "inputs": [
        {
          "internalType": "address",
          "name": "token",
          "type": "address"
        },
        {
          "internalType": "uint256",
          "name": "amount",
          "type": "uint256"
        }
      ],
      "name": "depositToken",
      "outputs": [],
      "stateMutability": "nonpayable",
      "type": "function"
    },
    {
      "inputs": [
        {
          "internalType": "address payable",
          "name": "to",
          "type": "address"
        },
        {
          "internalType": "uint256",
          "name": "amount",
          "type": "uint256"
        }
      ],
      "name": "disburseETH",
      "outputs": [],
      "stateMutability": "nonpayable",
      "type": "function"
    },
    {
      "inputs": [
        {
          "internalType": "address",
          "name": "token",
          "type": "address"
        },
        {
          "internalType": "address",
          "name": "to",
          "type": "address"
        },
        {
          "internalType": "uint256",
          "name": "amount",
          "type": "uint256"
        }
      ],
      "name": "disburseToken",
      "outputs": [],
      "stateMutability": "nonpayable",
      "type": "function"
    },
    {
      "inputs": [
        {
          "internalType": "address",
          "name": "token",
          "type": "address"
        }
      ],
      "name": "getERC20Balance",
      "outputs": [
        {
          "internalType": "uint256",
          "name": "",
          "type": "uint256"
        }
      ],
      "stateMutability": "view",
      "type": "function"
    },
    {
      "inputs": [],
      "name": "getETHBalance",
      "outputs": [
        {
          "internalType": "uint256",
          "name": "",
          "type": "uint256"
        }
      ],
      "stateMutability": "view",
      "type": "function"
    },
    {
      "inputs": [
        {
          "internalType": "bytes32",
          "name": "role",
          "type": "bytes32"
        }
      ],
      "name": "getRoleAdmin",
      "outputs": [
        {
          "internalType": "bytes32",
          "name": "",
          "type": "bytes32"
        }
      ],
      "stateMutability": "view",
      "type": "function"
    },
    {
      "inputs": [],
      "name": "getSupportedTokens",
      "outputs": [
        {
          "internalType": "address[]",
          "name": "",
          "type": "address[]"
        }
      ],
      "stateMutability": "view",
      "type": "function"
    },
    {
      "inputs": [
        {
          "internalType": "bytes32",
          "name": "role",
          "type": "bytes32"
        },
        {
          "internalType": "address",
          "name": "account",
          "type": "address"
        }
      ],
      "name": "grantRole",
      "outputs": [],
      "stateMutability": "nonpayable",
      "type": "function"
    },
    {
      "inputs": [
        {
          "internalType": "bytes32",
          "name": "role",
          "type": "bytes32"
        },
        {
          "internalType": "address",
          "name": "account",
          "type": "address"
        }
      ],
      "name": "hasRole",
      "outputs": [
        {
          "internalType": "bool",
          "name": "",
          "type": "bool"
        }
      ],
      "stateMutability": "view",
      "type": "function"
    },
    {
      "inputs": [
        {
          "internalType": "address",
          "name": "admin",
          "type": "address"
        },
        {
          "internalType": "address",
          "name": "timelockAddress",
          "type": "address"
        }
      ],
      "name": "initialize",
      "outputs": [],
      "stateMutability": "nonpayable",
      "type": "function"
    },
    {
      "inputs": [],
      "name": "ownerInitialized",
      "outputs": [
        {
          "internalType": "bool",
          "name": "",
          "type": "bool"
        }
      ],
      "stateMutability": "view",
      "type": "function"
    },
    {
      "inputs": [],
      "name": "pause",
      "outputs": [],
      "stateMutability": "nonpayable",
      "type": "function"
    },
    {
      "inputs": [],
      "name": "paused",
      "outputs": [
        {
          "internalType": "bool",
          "name": "",
          "type": "bool"
        }
      ],
      "stateMutability": "view",
      "type": "function"
    },
    {
      "inputs": [],
      "name": "proxiableUUID",
      "outputs": [
        {
          "internalType": "bytes32",
          "name": "",
          "type": "bytes32"
        }
      ],
      "stateMutability": "view",
      "type": "function"
    },
    {
      "inputs": [
        {
          "internalType": "address",
          "name": "token",
          "type": "address"
        }
      ],
      "name": "removeSupportedToken",
      "outputs": [],
      "stateMutability": "nonpayable",
      "type": "function"
    },
    {
      "inputs": [
        {
          "internalType": "bytes32",
          "name": "role",
          "type": "bytes32"
        },
        {
          "internalType": "address",
          "name": "account",
          "type": "address"
        }
      ],
      "name": "renounceRole",
      "outputs": [],
      "stateMutability": "nonpayable",
      "type": "function"
    },
    {
      "inputs": [
        {
          "internalType": "bytes32",
          "name": "role",
          "type": "bytes32"
        },
        {
          "internalType": "address",
          "name": "account",
          "type": "address"
        }
      ],
      "name": "revokeRole",
      "outputs": [],
      "stateMutability": "nonpayable",
      "type": "function"
    },
    {
      "inputs": [
        {
          "internalType": "uint256",
          "name": "",
          "type": "uint256"
        }
      ],
      "name": "supportedTokenList",
      "outputs": [
        {
          "internalType": "address",
          "name": "",
          "type": "address"
        }
      ],
      "stateMutability": "view",
      "type": "function"
    },
    {
      "inputs": [
        {
          "internalType": "address",
          "name": "",
          "type": "address"
        }
      ],
      "name": "supportedTokens",
      "outputs": [
        {
          "internalType": "bool",
          "name": "",
          "type": "bool"
        }
      ],
      "stateMutability": "view",
      "type": "function"
    },
    {
      "inputs": [
        {
          "internalType": "bytes4",
          "name": "interfaceId",
          "type": "bytes4"
        }
      ],
      "name": "supportsInterface",
      "outputs": [
        {
          "internalType": "bool",
          "name": "",
          "type": "bool"
        }
      ],
      "stateMutability": "view",
      "type": "function"
    },
    {
      "inputs": [],
      "name": "timelock",
      "outputs": [
        {
          "internalType": "contract TimelockControllerUpgradeable",
          "name": "",
          "type": "address"
        }
      ],
      "stateMutability": "view",
      "type": "function"
    },
    {
      "inputs": [],
      "name": "trustedInitializer",
      "outputs": [
        {
          "internalType": "address",
          "name": "",
          "type": "address"
        }
      ],
      "stateMutability": "view",
      "type": "function"
    },
    {
      "inputs": [],
      "name": "unpause",
      "outputs": [],
      "stateMutability": "nonpayable",
      "type": "function"
    },
    {
      "inputs": [
        {
          "internalType": "address",
          "name": "newImplementation",
          "type": "address"
        }
      ],
      "name": "upgradeTo",
      "outputs": [],
      "stateMutability": "nonpayable",
      "type": "function"
    },
    {
      "inputs": [
        {
          "internalType": "address",
          "name": "newImplementation",
          "type": "address"
        },
        {
          "internalType": "bytes",
          "name": "data",
          "type": "bytes"
        }
      ],
      "name": "upgradeToAndCall",
      "outputs": [],
      "stateMutability": "payable",
      "type": "function"
    },
    {
      "stateMutability": "payable",
      "type": "receive"
    }
  ],
  "bytecode": "0x60c080604052346100f057306080523360a0526000549060ff8260081c1661009e575060ff80821603610063575b60405161252990816100f682396080518181816109ee01528181610b1801526111c2015260a0518181816104590152610e980152f35b60ff90811916176000557f7f26b83ff96e1f2b6a682f133852f6798a09c465da95921460cefb3847402498602060405160ff8152a13861002d565b62461bcd60e51b815260206004820152602760248201527f496e697469616c697a61626c653a20636f6e747261637420697320696e697469604482015266616c697a696e6760c81b6064820152608490fd5b600080fdfe60806040908082526004908136101561004e575b50503615610022573461002257005b513481527f6c703791f399558807424f489ccd811c72b4ff0b74af547264fad7c646776df060203392a2005b600091823560e01c91826301ffc9a71461184c575081631933868a1461171f578163248a9ca3146116f35781632b60c822146116b05781632f2ff15d14611602578163338b5dea1461153357816336568abe146114a25781633659cfe61461119a5781633f4ba83a14611103578163485cc95514610e365781634f1ef28614610a9b57816352d1902d146109d85781635c975abb146109b457816368c4ac26146109755781636d69fcaf146107e45781636e947298146107c9578163763191901461063f57816376c751c61461052b5781638456cb59146104d057816391d14854146104885781639e85f9aa14610444578163a217fddf14610429578163b588d22514610395578163ba7c095714610379578163bebc214514610354578163c8f50b4c1461032b578163d33219b414610301578163d3c7c2c714610238578163d547741f146101f5575063d7e84fbf146101a85780610013565b90346101f157816003193601126101f15780516101ed916101c88261194f565b600e82526d544f50415920444556205445414d60901b602083015251918291826119e8565b0390f35b5080fd5b90508234610234578060031936011261023457610231913561022c600161021a6118ec565b9383875260fb60205286200154611e40565b6120bd565b80f35b8280fd5b5050346102fe57806003193601126102fe5790805191829061012f918254808652602080960190819484527f232da9e50dad2971456a78fb5cd6ff6b75019984d6e918139ce990999420f97990845b8181106102e1575050508161029d910382611987565b83519485948186019282875251809352850193925b8281106102c157505050500390f35b83516001600160a01b0316855286955093810193928101926001016102b2565b82546001600160a01b031684529288019260019283019201610287565b80fd5b8284346101f157816003193601126101f15761012d5490516001600160a01b039091168152602090f35b8284346101f157816003193601126101f157602090516000805160206124b48339815191528152f35b8284346101f157816003193601126101f15760209060ff610130541690519015158152f35b8284346101f157816003193601126101f1576020905160328152f35b8284346101f1576020928360031936011261023457836001600160a01b036103bb611907565b169160248451809481936370a0823160e01b835230908301525afa92831561041e5780936103ec575b505051908152f35b909192508382813d8311610417575b6104058183611987565b810103126102fe5750519083806103e4565b503d6103fb565b8251903d90823e3d90fd5b8284346101f157816003193601126101f15751908152602090f35b8284346101f157816003193601126101f157517f00000000000000000000000000000000000000000000000000000000000000006001600160a01b03168152602090f35b839150346102345781600319360112610234578160209360ff926104aa6118ec565b9035825260fb86528282206001600160a01b039091168252855220549151911615158152f35b8284346101f157816003193601126101f15760207f62e78cea01bee320cd4e420270b5ea74000d11b0c9f74754ebdbfc544b05a2589161050e611c3b565b610516611f4b565b600160ff19603354161760335551338152a180f35b9050823461023457606036600319011261023457610547611907565b61054f6118ec565b916044359161055c611c3b565b610564611f4b565b6001600160a01b0390811680875261012e6020528287205490949061058b9060ff16611b37565b1693610598851515611a14565b6105a3831515611a60565b6105b969d3c21bcecceda1000000841115611aab565b81519063a9059cbb60e01b602083015285602483015283604483015260448252608082019082821067ffffffffffffffff83111761062c5750916106247f6337ed398c0e8467698c581374fdce4db14922df487b5a39483079f5f59b60a49492602094835286612193565b51908152a380f35b634e487b7160e01b885260419052602487fd5b905082346102345760203660031901126102345761065b611907565b90610664611c3b565b60018060a01b038092169182855261012e8060205261068860ff8488205416611b37565b838652602052818520805460ff19169055845b61012f80548083101561079957908391866106b58561189f565b949054600395861b1c16146106cf5750505060010161069b565b91949596909392600019928381019081116107865790610702856106f56107209461189f565b9054908a1b1c169161189f565b90919060018060a01b038084549260031b9316831b921b1916179055565b83549081156107735750917fd86c88b4a367d9b81a6e00c9d3f7d01657bffef358fa8968c91c045ae99f0d5295939160209593019261075e8461189f565b81939154921b1b19169055555b51848152a280f35b634e487b7160e01b895260319052602488fd5b634e487b7160e01b8a526011835260248afd5b505050507fd86c88b4a367d9b81a6e00c9d3f7d01657bffef358fa8968c91c045ae99f0d5291925060209061076b565b8284346101f157816003193601126101f15751478152602090f35b8284346101f15760208060031936011261023457610800611907565b91610809611c3b565b6001600160a01b03831692831561093a5783855261012e80845260ff83872054166108f75761012f906032825410156108b6578587528452828620805460ff19166001179055805490680100000000000000008210156108a35791610702827fd86c88b4a367d9b81a6e00c9d3f7d01657bffef358fa8968c91c045ae99f0d52969594600161089a9501905561189f565b5160018152a280f35b634e487b7160e01b875260418852602487fd5b606488868087519262461bcd60e51b845283015260248201527f4d6178696d756d20737570706f7274656420746f6b656e7320726561636865646044820152fd5b825162461bcd60e51b8152808801859052601760248201527f546f6b656e20616c726561647920737570706f727465640000000000000000006044820152606490fd5b815162461bcd60e51b81528087018490526015602482015274496e76616c696420746f6b656e206164647265737360581b6044820152606490fd5b8284346101f15760203660031901126101f15760209160ff9082906001600160a01b036109a0611907565b16815261012e855220541690519015158152f35b8284346101f157816003193601126101f15760209060ff6033541690519015158152f35b919050346102fe57806003193601126102fe57507f00000000000000000000000000000000000000000000000000000000000000006001600160a01b03163003610a3357602082516000805160206124d48339815191528152f35b6020608492519162461bcd60e51b8352820152603860248201527f555550535570677261646561626c653a206d757374206e6f742062652063616c60448201527f6c6564207468726f7567682064656c656761746563616c6c00000000000000006064820152fd5b8284806003193601126101f157610ab0611907565b9060249081359067ffffffffffffffff8211610e325736602383011215610e32578186013591610adf836119a9565b90610aec83519283611987565b8382526020938483019136878383010111610e2e57818992888893018537840101526001600160a01b037f0000000000000000000000000000000000000000000000000000000000000000811690610b4630831415611b79565b610b636000805160206124d4833981519152928284541614611bda565b610b6b611c3b565b8061012d54163303610df0576000805160206124b4833981519152895260fb8652848920328a52865260ff858a20541615610dae577f4910fdfa16fed3260ed0e7147f7cc6da11a60208b5b9406d12a635614ffd91435460ff1615610bdc5750505050505050610231919250612282565b87939496989597169086516352d1902d60e01b815288818c81865afa879181610d7b575b50610c5e57875162461bcd60e51b8152808c018a9052602e818c01527f45524331393637557067726164653a206e657720696d706c656d656e7461746960448201526d6f6e206973206e6f74205555505360901b6064820152608490fd5b99929498919396959903610d2757505090869291610c7b85612282565b7fbc7cd75a20ee27fd9adebab32041f755214dbc6bffa90cc0225b39da2e5c2d3b8480a2855115801590610d1f575b610cb8575b50505050505080f35b610d1395660819985a5b195960ca1b837f416464726573733a206c6f772d6c6576656c2064656c65676174652063616c6c86955198610cf68a61191d565b60278a528901528701525190845af4610d0d611b07565b91612422565b50818080838180610caf565b506001610caa565b845162461bcd60e51b81529182018790526029908201527f45524331393637557067726164653a20756e737570706f727465642070726f786044820152681a58589b195555525160ba1b6064820152608490fd5b9091508981813d8311610da7575b610d938183611987565b81010312610da35751908c610c00565b8780fd5b503d610d89565b845162461bcd60e51b8152808b01879052601f818901527f55706772616465207265717569726573206d756c74697369672061646d696e006044820152606490fd5b845162461bcd60e51b8152808b018790526019818901527855706772616465206f6e6c79207669612074696d656c6f636b60381b6044820152606490fd5b8880fd5b8480fd5b83915034610234578160031936011261023457610e51611907565b90610e5a6118ec565b92845460ff8160081c1615938480956110f6575b80156110df575b156110855760ff1982811660011788559185611074575b506001600160a01b03907f00000000000000000000000000000000000000000000000000000000000000008216330361103157818116968715610ff6578216948515610fb3575090610f4491610f0b60ff8a5460081c16610eec81612133565b610ef581612133565b610efe81612133565b8560335416603355612133565b61012d80546001600160a01b0319168717815590610f3190610f2c81611f8f565b61201e565b610f3d82825416611f8f565b541661201e565b60016101309182541617905551927f28c014722fc954327ed915fa752532701baa2ab85333078b3442d2f3e9e9306a8580a3610f7e575080f35b60207f7f26b83ff96e1f2b6a682f133852f6798a09c465da95921460cefb38474024989161ff0019845416845560018152a180f35b606490602086519162461bcd60e51b8352820152601860248201527f496e76616c69642074696d656c6f636b206164647265737300000000000000006044820152fd5b845162461bcd60e51b81526020818801526015602482015274496e76616c69642061646d696e206164647265737360581b6044820152606490fd5b835162461bcd60e51b8152602081870152601860248201527f556e617574686f72697a656420696e697469616c697a657200000000000000006044820152606490fd5b61ffff191661010117875587610e8c565b825162461bcd60e51b8152602081860152602e60248201527f496e697469616c697a61626c653a20636f6e747261637420697320616c72656160448201526d191e481a5b9a5d1a585b1a5e995960921b6064820152608490fd5b50303b158015610e755750600160ff831614610e75565b50600160ff831610610e6e565b8391503461023457826003193601126102345761111e611c3b565b6033549060ff821615611160575060ff1916603355513381527f5db9ee0a495bf2e6ff9c91a7834c1ba4fdd244a5e8aa4e537bd38aeae4b073aa90602090a180f35b606490602084519162461bcd60e51b8352820152601460248201527314185d5cd8589b194e881b9bdd081c185d5cd95960621b6044820152fd5b905082346102345760208060031936011261149e576111b7611907565b916001600160a01b037f00000000000000000000000000000000000000000000000000000000000000008116906111f030831415611b79565b61120d6000805160206124d4833981519152928284541614611bda565b611215611c3b565b8061012d5416330361145f576000805160206124b4833981519152875260fb8452828720328852845260ff83882054161561141c578251918483019183831067ffffffffffffffff841117611409578285528884527f4910fdfa16fed3260ed0e7147f7cc6da11a60208b5b9406d12a635614ffd91435460ff16156112a4575050505050506102319150612282565b8693949596169085516352d1902d60e01b815287818a81865afa8a91816113d6575b5061132557865162461bcd60e51b8152808a01899052602e60248201527f45524331393637557067726164653a206e657720696d706c656d656e7461746960448201526d6f6e206973206e6f74205555505360901b6064820152608490fd5b979192939594970361138157509086929161133f85612282565b7fbc7cd75a20ee27fd9adebab32041f755214dbc6bffa90cc0225b39da2e5c2d3b8480a285511580159061137a57610cb85750505050505080f35b5082610caa565b835162461bcd60e51b8152908101869052602960248201527f45524331393637557067726164653a20756e737570706f727465642070726f786044820152681a58589b195555525160ba1b6064820152608490fd5b9091508881813d8311611402575b6113ee8183611987565b810103126113fe5751908b6112c6565b8a80fd5b503d6113e4565b634e487b7160e01b895260418852602489fd5b825162461bcd60e51b8152808701859052601f60248201527f55706772616465207265717569726573206d756c74697369672061646d696e006044820152606490fd5b825162461bcd60e51b8152808701859052601960248201527855706772616465206f6e6c79207669612074696d656c6f636b60381b6044820152606490fd5b8380fd5b9050346101f157826003193601126101f1576114bc6118ec565b90336001600160a01b038316036114d8579061023191356120bd565b608490602085519162461bcd60e51b8352820152602f60248201527f416363657373436f6e74726f6c3a2063616e206f6e6c792072656e6f756e636560448201526e103937b632b9903337b91039b2b63360891b6064820152fd5b8391503461023457816003193601126102345761154e611907565b6001600160a01b031680845261012e60205282842054602435939192906115779060ff16611b37565b81516323b872dd60e01b6020820152336024820152306044820152606480820186905281529060a082019067ffffffffffffffff8211838310176115ef575082526115c29083612193565b519182527fcbc4a4091b012bb1329c38bbbb15455f5cac5aa3673da0a7f38cd61a4f49551760203393a380f35b634e487b7160e01b875260419052602486fd5b83915034610234578160031936011261023457359061161f6118ec565b9082845260fb60205261163760018286200154611e40565b82845260fb60209081528185206001600160a01b039093168086529290528084205460ff1615611665578380f35b82845260fb6020528084208285526020528320600160ff1982541617905533917f2f8788117e7eff1d82e926ec794901d17c78024a50270940304540a733656f0d8480a48180808380f35b8391503461023457602036600319011261023457359161012f548310156102fe57506116dd60209261189f565b905491519160018060a01b039160031b1c168152f35b83915034610234576020366003190112610234578160209360019235815260fb85522001549051908152f35b8391503461023457816003193601126102345780356001600160a01b038116929083900361149e5760243591611753611c3b565b61175b611f4b565b611766841515611a14565b611771831515611a60565b82471061180a5761178e69d3c21bcecceda1000000841115611aab565b8480808086885af161179e611b07565b50156117d257507f94b2de810873337ed265c5f8cf98c9cffefa06b8607f9a2f1fbaebdfbcfbef1c9160209151908152a280f35b6020606492519162461bcd60e51b83528201526013602482015272115512081d1c985b9cd9995c8819985a5b1959606a1b6044820152fd5b6020606492519162461bcd60e51b8352820152601860248201527f496e73756666696369656e74204554482062616c616e636500000000000000006044820152fd5b915034610234576020366003190112610234573563ffffffff60e01b81168091036102345760209250637965db0b60e01b811490811561188e575b5015158152f35b6301ffc9a760e01b14905083611887565b61012f80548210156118d6576000527f232da9e50dad2971456a78fb5cd6ff6b75019984d6e918139ce990999420f9790190600090565b634e487b7160e01b600052603260045260246000fd5b602435906001600160a01b038216820361190257565b600080fd5b600435906001600160a01b038216820361190257565b6060810190811067ffffffffffffffff82111761193957604052565b634e487b7160e01b600052604160045260246000fd5b6040810190811067ffffffffffffffff82111761193957604052565b6080810190811067ffffffffffffffff82111761193957604052565b90601f8019910116810190811067ffffffffffffffff82111761193957604052565b67ffffffffffffffff811161193957601f01601f191660200190565b60005b8381106119d85750506000910152565b81810151838201526020016119c8565b60409160208252611a0881518092816020860152602086860191016119c5565b601f01601f1916010190565b15611a1b57565b60405162461bcd60e51b815260206004820152601960248201527f496e76616c696420726563697069656e742061646472657373000000000000006044820152606490fd5b15611a6757565b606460405162461bcd60e51b815260206004820152602060248201527f416d6f756e74206d7573742062652067726561746572207468616e207a65726f6044820152fd5b15611ab257565b60405162461bcd60e51b815260206004820152602760248201527f416d6f756e742065786365656473206d6178696d756d207769746864726177616044820152661b081b1a5b5a5d60ca1b6064820152608490fd5b3d15611b32573d90611b18826119a9565b91611b266040519384611987565b82523d6000602084013e565b606090565b15611b3e57565b60405162461bcd60e51b8152602060048201526013602482015272151bdad95b881b9bdd081cdd5c1c1bdc9d1959606a1b6044820152606490fd5b15611b8057565b60405162461bcd60e51b815260206004820152602c60248201527f46756e6374696f6e206d7573742062652063616c6c6564207468726f7567682060448201526b19195b1959d85d1958d85b1b60a21b6064820152608490fd5b15611be157565b60405162461bcd60e51b815260206004820152602c60248201527f46756e6374696f6e206d7573742062652063616c6c6564207468726f7567682060448201526b6163746976652070726f787960a01b6064820152608490fd5b3360009081527f9e6744e618de81da41bac79d16db1c0ff299a7089220b2457c7e39ade770194460209081526040808320549092906000805160206124b48339815191529060ff1615611c8e5750505050565b611c9733612323565b845191611ca38361196b565b60428352848301936060368637835115611e2c576030855383519060019160011015611e2c5790607860218601536041915b818311611dbe57505050611d7c57611d2a938593611d6293611d53604894611d789951988576020b1b1b2b9b9a1b7b73a3937b61d1030b1b1b7bab73a1604d1b8b9788015282519283916037890191016119c5565b8401917001034b99036b4b9b9b4b733903937b6329607d1b6037840152518093868401906119c5565b01036028810185520183611987565b5162461bcd60e51b8152918291600483016119e8565b0390fd5b60648486519062461bcd60e51b825280600483015260248201527f537472696e67733a20686578206c656e67746820696e73756666696369656e746044820152fd5b909192600f81166010811015611e18576f181899199a1a9b1b9c1cb0b131b232b360811b901a611dee8588612312565b5360041c928015611e0457600019019190611cd5565b634e487b7160e01b82526011600452602482fd5b634e487b7160e01b83526032600452602483fd5b634e487b7160e01b81526032600452602490fd5b600081815260209060fb8252604092838220338352835260ff848320541615611e695750505050565b611e7233612323565b845191611e7e8361196b565b60428352848301936060368637835115611e2c576030855383519060019160011015611e2c5790607860218601536041915b818311611f0557505050611d7c57611d2a938593611d6293611d53604894611d789951988576020b1b1b2b9b9a1b7b73a3937b61d1030b1b1b7bab73a1604d1b8b9788015282519283916037890191016119c5565b909192600f81166010811015611e18576f181899199a1a9b1b9c1cb0b131b232b360811b901a611f358588612312565b5360041c928015611e0457600019019190611eb0565b60ff60335416611f5757565b60405162461bcd60e51b815260206004820152601060248201526f14185d5cd8589b194e881c185d5cd95960821b6044820152606490fd5b6001600160a01b031660008181527fc88390e7e62175be0932452175b6a7222b6b094ab0ef984a5153c620345d8975602052604081205490919060ff1615611fd5575050565b81805260fb6020526040822081835260205260408220600160ff1982541617905533917f2f8788117e7eff1d82e926ec794901d17c78024a50270940304540a733656f0d8180a4565b6001600160a01b031660008181527f9e6744e618de81da41bac79d16db1c0ff299a7089220b2457c7e39ade770194460205260408120549091906000805160206124b48339815191529060ff161561207557505050565b80835260fb6020526040832082845260205260408320600160ff198254161790557f2f8788117e7eff1d82e926ec794901d17c78024a50270940304540a733656f0d339380a4565b9060009180835260fb602052604083209160018060a01b03169182845260205260ff6040842054166120ee57505050565b80835260fb602052604083208284526020526040832060ff1981541690557ff6391f5c32d9c69d2a47ea670b442974b53935d1edc7fd64eb21e047a839171b339380a4565b1561213a57565b60405162461bcd60e51b815260206004820152602b60248201527f496e697469616c697a61626c653a20636f6e7472616374206973206e6f74206960448201526a6e697469616c697a696e6760a81b6064820152608490fd5b60018060a01b0316906121ec6040516121ab8161194f565b6020938482527f5361666545524332303a206c6f772d6c6576656c2063616c6c206661696c6564858301526000808587829751910182855af1610d0d611b07565b80519182159184831561225e575b5050509050156122075750565b6084906040519062461bcd60e51b82526004820152602a60248201527f5361666545524332303a204552433230206f7065726174696f6e20646964206e6044820152691bdd081cdd58d8d9595960b21b6064820152fd5b9193818094500103126101f1578201519081151582036102fe5750803880846121fa565b803b156122b7576000805160206124d483398151915280546001600160a01b0319166001600160a01b03909216919091179055565b60405162461bcd60e51b815260206004820152602d60248201527f455243313936373a206e657720696d706c656d656e746174696f6e206973206e60448201526c1bdd08184818dbdb9d1c9858dd609a1b6064820152608490fd5b9081518110156118d6570160200190565b604051906123308261191d565b602a82526020820160403682378251156118d657603090538151600190600110156118d657607860218401536029905b8082116123b45750506123705790565b606460405162461bcd60e51b815260206004820152602060248201527f537472696e67733a20686578206c656e67746820696e73756666696369656e746044820152fd5b9091600f8116601081101561240d576f181899199a1a9b1b9c1cb0b131b232b360811b901a6123e38486612312565b5360041c9180156123f8576000190190612360565b60246000634e487b7160e01b81526011600452fd5b60246000634e487b7160e01b81526032600452fd5b919290156124845750815115612436575090565b3b1561243f5790565b60405162461bcd60e51b815260206004820152601d60248201527f416464726573733a2063616c6c20746f206e6f6e2d636f6e74726163740000006044820152606490fd5b8251909150156124975750805190602001fd5b60405162461bcd60e51b8152908190611d7890600483016119e856fe71e15edd14fd3418eb6412e352e9213f5344899ecebf19a3e57e7d605e2472b2360894a13ba1a3210667c828492db98dca3e2076cc3735a920a3ca505d382bbca2646970667358221220b37bd355c3f55d2db3dce37732883c78891d395f7fe333e5dd0303b744bd8ccc64736f6c63430008190033",
  "linkReferences": {},
  "deployedLinkReferences": {}
}