{
  "_format": "hh-sol-artifact-1",
  "contractName": "TimelockControllerUpgradeable",
  "sourceName": "@openzeppelin/contracts-upgradeable/governance/TimelockControllerUpgradeable.sol",
  "abi": [
    {
      "anonymous": false,
      "inputs": [
        {
          "indexed": true,
          "internalType": "bytes32",
          "name": "id",
          "type": "bytes32"
        },
        {
          "indexed": true,
          "internalType": "uint256",
          "name": "index",
          "type": "uint256"
        },
        {
          "indexed": false,
          "internalType": "address",
          "name": "target",
          "type": "address"
        },
        {
          "indexed": false,
          "internalType": "uint256",
          "name": "value",
          "type": "uint256"
        },
        {
          "indexed": false,
          "internalType": "bytes",
          "name": "data",
          "type": "bytes"
        }
      ],
      "name": "CallExecuted",
      "type": "event"
    },
    {
      "anonymous": false,
      "inputs": [
        {
          "indexed": true,
          "internalType": "bytes32",
          "name": "id",
          "type": "bytes32"
        },
        {
          "indexed": false,
          "internalType": "bytes32",
          "name": "salt",
          "type": "bytes32"
        }
      ],
      "name": "CallSalt",
      "type": "event"
    },
    {
      "anonymous": false,
      "inputs": [
        {
          "indexed": true,
          "internalType": "bytes32",
          "name": "id",
          "type": "bytes32"
        },
        {
          "indexed": true,
          "internalType": "uint256",
          "name": "index",
          "type": "uint256"
        },
        {
          "indexed": false,
          "internalType": "address",
          "name": "target",
          "type": "address"
        },
        {
          "indexed": false,
          "internalType": "uint256",
          "name": "value",
          "type": "uint256"
        },
        {
          "indexed": false,
          "internalType": "bytes",
          "name": "data",
          "type": "bytes"
        },
        {
          "indexed": false,
          "internalType": "bytes32",
          "name": "predecessor",
          "type": "bytes32"
        },
        {
          "indexed": false,
          "internalType": "uint256",
          "name": "delay",
          "type": "uint256"
        }
      ],
      "name": "CallScheduled",
      "type": "event"
    },
    {
      "anonymous": false,
      "inputs": [
        {
          "indexed": true,
          "internalType": "bytes32",
          "name": "id",
          "type": "bytes32"
        }
      ],
      "name": "Cancelled",
      "type": "event"
    },
    {
      "anonymous": false,
      "inputs": [
        {
          "indexed": false,
          "internalType": "uint8",
          "name": "version",
          "type": "uint8"
        }
      ],
      "name": "Initialized",
      "type": "event"
    },
    {
      "anonymous": false,
      "inputs": [
        {
          "indexed": false,
          "internalType": "uint256",
          "name": "oldDuration",
          "type": "uint256"
        },
        {
          "indexed": false,
          "internalType": "uint256",
          "name": "newDuration",
          "type": "uint256"
        }
      ],
      "name": "MinDelayChange",
      "type": "event"
    },
    {
      "anonymous": false,
      "inputs": [
        {
          "indexed": true,
          "internalType": "bytes32",
          "name": "role",
          "type": "bytes32"
        },
        {
          "indexed": true,
          "internalType": "bytes32",
          "name": "previousAdminRole",
          "type": "bytes32"
        },
        {
          "indexed": true,
          "internalType": "bytes32",
          "name": "newAdminRole",
          "type": "bytes32"
        }
      ],
      "name": "RoleAdminChanged",
      "type": "event"
    },
    {
      "anonymous": false,
      "inputs": [
        {
          "indexed": true,
          "internalType": "bytes32",
          "name": "role",
          "type": "bytes32"
        },
        {
          "indexed": true,
          "internalType": "address",
          "name": "account",
          "type": "address"
        },
        {
          "indexed": true,
          "internalType": "address",
          "name": "sender",
          "type": "address"
        }
      ],
      "name": "RoleGranted",
      "type": "event"
    },
    {
      "anonymous": false,
      "inputs": [
        {
          "indexed": true,
          "internalType": "bytes32",
          "name": "role",
          "type": "bytes32"
        },
        {
          "indexed": true,
          "internalType": "address",
          "name": "account",
          "type": "address"
        },
        {
          "indexed": true,
          "internalType": "address",
          "name": "sender",
          "type": "address"
        }
      ],
      "name": "RoleRevoked",
      "type": "event"
    },
    {
      "inputs": [],
      "name": "CANCELLER_ROLE",
      "outputs": [
        {
          "internalType": "bytes32",
          "name": "",
          "type": "bytes32"
        }
      ],
      "stateMutability": "view",
      "type": "function"
    },
    {
      "inputs": [],
      "name": "DEFAULT_ADMIN_ROLE",
      "outputs": [
        {
          "internalType": "bytes32",
          "name": "",
          "type": "bytes32"
        }
      ],
      "stateMutability": "view",
      "type": "function"
    },
    {
      "inputs": [],
      "name": "EXECUTOR_ROLE",
      "outputs": [
        {
          "internalType": "bytes32",
          "name": "",
          "type": "bytes32"
        }
      ],
      "stateMutability": "view",
      "type": "function"
    },
    {
      "inputs": [],
      "name": "PROPOSER_ROLE",
      "outputs": [
        {
          "internalType": "bytes32",
          "name": "",
          "type": "bytes32"
        }
      ],
      "stateMutability": "view",
      "type": "function"
    },
    {
      "inputs": [],
      "name": "TIMELOCK_ADMIN_ROLE",
      "outputs": [
        {
          "internalType": "bytes32",
          "name": "",
          "type": "bytes32"
        }
      ],
      "stateMutability": "view",
      "type": "function"
    },
    {
      "inputs": [
        {
          "internalType": "bytes32",
          "name": "id",
          "type": "bytes32"
        }
      ],
      "name": "cancel",
      "outputs": [],
      "stateMutability": "nonpayable",
      "type": "function"
    },
    {
      "inputs": [
        {
          "internalType": "address",
          "name": "target",
          "type": "address"
        },
        {
          "internalType": "uint256",
          "name": "value",
          "type": "uint256"
        },
        {
          "internalType": "bytes",
          "name": "payload",
          "type": "bytes"
        },
        {
          "internalType": "bytes32",
          "name": "predecessor",
          "type": "bytes32"
        },
        {
          "internalType": "bytes32",
          "name": "salt",
          "type": "bytes32"
        }
      ],
      "name": "execute",
      "outputs": [],
      "stateMutability": "payable",
      "type": "function"
    },
    {
      "inputs": [
        {
          "internalType": "address[]",
          "name": "targets",
          "type": "address[]"
        },
        {
          "internalType": "uint256[]",
          "name": "values",
          "type": "uint256[]"
        },
        {
          "internalType": "bytes[]",
          "name": "payloads",
          "type": "bytes[]"
        },
        {
          "internalType": "bytes32",
          "name": "predecessor",
          "type": "bytes32"
        },
        {
          "internalType": "bytes32",
          "name": "salt",
          "type": "bytes32"
        }
      ],
      "name": "executeBatch",
      "outputs": [],
      "stateMutability": "payable",
      "type": "function"
    },
    {
      "inputs": [],
      "name": "getMinDelay",
      "outputs": [
        {
          "internalType": "uint256",
          "name": "",
          "type": "uint256"
        }
      ],
      "stateMutability": "view",
      "type": "function"
    },
    {
      "inputs": [
        {
          "internalType": "bytes32",
          "name": "role",
          "type": "bytes32"
        }
      ],
      "name": "getRoleAdmin",
      "outputs": [
        {
          "internalType": "bytes32",
          "name": "",
          "type": "bytes32"
        }
      ],
      "stateMutability": "view",
      "type": "function"
    },
    {
      "inputs": [
        {
          "internalType": "bytes32",
          "name": "id",
          "type": "bytes32"
        }
      ],
      "name": "getTimestamp",
      "outputs": [
        {
          "internalType": "uint256",
          "name": "",
          "type": "uint256"
        }
      ],
      "stateMutability": "view",
      "type": "function"
    },
    {
      "inputs": [
        {
          "internalType": "bytes32",
          "name": "role",
          "type": "bytes32"
        },
        {
          "internalType": "address",
          "name": "account",
          "type": "address"
        }
      ],
      "name": "grantRole",
      "outputs": [],
      "stateMutability": "nonpayable",
      "type": "function"
    },
    {
      "inputs": [
        {
          "internalType": "bytes32",
          "name": "role",
          "type": "bytes32"
        },
        {
          "internalType": "address",
          "name": "account",
          "type": "address"
        }
      ],
      "name": "hasRole",
      "outputs": [
        {
          "internalType": "bool",
          "name": "",
          "type": "bool"
        }
      ],
      "stateMutability": "view",
      "type": "function"
    },
    {
      "inputs": [
        {
          "internalType": "address",
          "name": "target",
          "type": "address"
        },
        {
          "internalType": "uint256",
          "name": "value",
          "type": "uint256"
        },
        {
          "internalType": "bytes",
          "name": "data",
          "type": "bytes"
        },
        {
          "internalType": "bytes32",
          "name": "predecessor",
          "type": "bytes32"
        },
        {
          "internalType": "bytes32",
          "name": "salt",
          "type": "bytes32"
        }
      ],
      "name": "hashOperation",
      "outputs": [
        {
          "internalType": "bytes32",
          "name": "",
          "type": "bytes32"
        }
      ],
      "stateMutability": "pure",
      "type": "function"
    },
    {
      "inputs": [
        {
          "internalType": "address[]",
          "name": "targets",
          "type": "address[]"
        },
        {
          "internalType": "uint256[]",
          "name": "values",
          "type": "uint256[]"
        },
        {
          "internalType": "bytes[]",
          "name": "payloads",
          "type": "bytes[]"
        },
        {
          "internalType": "bytes32",
          "name": "predecessor",
          "type": "bytes32"
        },
        {
          "internalType": "bytes32",
          "name": "salt",
          "type": "bytes32"
        }
      ],
      "name": "hashOperationBatch",
      "outputs": [
        {
          "internalType": "bytes32",
          "name": "",
          "type": "bytes32"
        }
      ],
      "stateMutability": "pure",
      "type": "function"
    },
    {
      "inputs": [
        {
          "internalType": "bytes32",
          "name": "id",
          "type": "bytes32"
        }
      ],
      "name": "isOperation",
      "outputs": [
        {
          "internalType": "bool",
          "name": "",
          "type": "bool"
        }
      ],
      "stateMutability": "view",
      "type": "function"
    },
    {
      "inputs": [
        {
          "internalType": "bytes32",
          "name": "id",
          "type": "bytes32"
        }
      ],
      "name": "isOperationDone",
      "outputs": [
        {
          "internalType": "bool",
          "name": "",
          "type": "bool"
        }
      ],
      "stateMutability": "view",
      "type": "function"
    },
    {
      "inputs": [
        {
          "internalType": "bytes32",
          "name": "id",
          "type": "bytes32"
        }
      ],
      "name": "isOperationPending",
      "outputs": [
        {
          "internalType": "bool",
          "name": "",
          "type": "bool"
        }
      ],
      "stateMutability": "view",
      "type": "function"
    },
    {
      "inputs": [
        {
          "internalType": "bytes32",
          "name": "id",
          "type": "bytes32"
        }
      ],
      "name": "isOperationReady",
      "outputs": [
        {
          "internalType": "bool",
          "name": "",
          "type": "bool"
        }
      ],
      "stateMutability": "view",
      "type": "function"
    },
    {
      "inputs": [
        {
          "internalType": "address",
          "name": "",
          "type": "address"
        },
        {
          "internalType": "address",
          "name": "",
          "type": "address"
        },
        {
          "internalType": "uint256[]",
          "name": "",
          "type": "uint256[]"
        },
        {
          "internalType": "uint256[]",
          "name": "",
          "type": "uint256[]"
        },
        {
          "internalType": "bytes",
          "name": "",
          "type": "bytes"
        }
      ],
      "name": "onERC1155BatchReceived",
      "outputs": [
        {
          "internalType": "bytes4",
          "name": "",
          "type": "bytes4"
        }
      ],
      "stateMutability": "nonpayable",
      "type": "function"
    },
    {
      "inputs": [
        {
          "internalType": "address",
          "name": "",
          "type": "address"
        },
        {
          "internalType": "address",
          "name": "",
          "type": "address"
        },
        {
          "internalType": "uint256",
          "name": "",
          "type": "uint256"
        },
        {
          "internalType": "uint256",
          "name": "",
          "type": "uint256"
        },
        {
          "internalType": "bytes",
          "name": "",
          "type": "bytes"
        }
      ],
      "name": "onERC1155Received",
      "outputs": [
        {
          "internalType": "bytes4",
          "name": "",
          "type": "bytes4"
        }
      ],
      "stateMutability": "nonpayable",
      "type": "function"
    },
    {
      "inputs": [
        {
          "internalType": "address",
          "name": "",
          "type": "address"
        },
        {
          "internalType": "address",
          "name": "",
          "type": "address"
        },
        {
          "internalType": "uint256",
          "name": "",
          "type": "uint256"
        },
        {
          "internalType": "bytes",
          "name": "",
          "type": "bytes"
        }
      ],
      "name": "onERC721Received",
      "outputs": [
        {
          "internalType": "bytes4",
          "name": "",
          "type": "bytes4"
        }
      ],
      "stateMutability": "nonpayable",
      "type": "function"
    },
    {
      "inputs": [
        {
          "internalType": "bytes32",
          "name": "role",
          "type": "bytes32"
        },
        {
          "internalType": "address",
          "name": "account",
          "type": "address"
        }
      ],
      "name": "renounceRole",
      "outputs": [],
      "stateMutability": "nonpayable",
      "type": "function"
    },
    {
      "inputs": [
        {
          "internalType": "bytes32",
          "name": "role",
          "type": "bytes32"
        },
        {
          "internalType": "address",
          "name": "account",
          "type": "address"
        }
      ],
      "name": "revokeRole",
      "outputs": [],
      "stateMutability": "nonpayable",
      "type": "function"
    },
    {
      "inputs": [
        {
          "internalType": "address",
          "name": "target",
          "type": "address"
        },
        {
          "internalType": "uint256",
          "name": "value",
          "type": "uint256"
        },
        {
          "internalType": "bytes",
          "name": "data",
          "type": "bytes"
        },
        {
          "internalType": "bytes32",
          "name": "predecessor",
          "type": "bytes32"
        },
        {
          "internalType": "bytes32",
          "name": "salt",
          "type": "bytes32"
        },
        {
          "internalType": "uint256",
          "name": "delay",
          "type": "uint256"
        }
      ],
      "name": "schedule",
      "outputs": [],
      "stateMutability": "nonpayable",
      "type": "function"
    },
    {
      "inputs": [
        {
          "internalType": "address[]",
          "name": "targets",
          "type": "address[]"
        },
        {
          "internalType": "uint256[]",
          "name": "values",
          "type": "uint256[]"
        },
        {
          "internalType": "bytes[]",
          "name": "payloads",
          "type": "bytes[]"
        },
        {
          "internalType": "bytes32",
          "name": "predecessor",
          "type": "bytes32"
        },
        {
          "internalType": "bytes32",
          "name": "salt",
          "type": "bytes32"
        },
        {
          "internalType": "uint256",
          "name": "delay",
          "type": "uint256"
        }
      ],
      "name": "scheduleBatch",
      "outputs": [],
      "stateMutability": "nonpayable",
      "type": "function"
    },
    {
      "inputs": [
        {
          "internalType": "bytes4",
          "name": "interfaceId",
          "type": "bytes4"
        }
      ],
      "name": "supportsInterface",
      "outputs": [
        {
          "internalType": "bool",
          "name": "",
          "type": "bool"
        }
      ],
      "stateMutability": "view",
      "type": "function"
    },
    {
      "inputs": [
        {
          "internalType": "uint256",
          "name": "newDelay",
          "type": "uint256"
        }
      ],
      "name": "updateDelay",
      "outputs": [],
      "stateMutability": "nonpayable",
      "type": "function"
    },
    {
      "stateMutability": "payable",
      "type": "receive"
    }
  ],
  "bytecode": "0x60808060405234601557611d45908161001b8239f35b600080fdfe608060405260048036101561001d575b50361561001b57600080fd5b005b600090813560e01c90816301d5062a14610dd357816301ffc9a714610d6357816307bd026514610d3a5781630d3cf6fc14610cff578163134008d314610c5c57816313bc9f2014610c3e578163150b7a0214610be8578163248a9ca314610bbb5781632ab0f52914610b8e5781632f2ff15d14610ade57816331d5075014610ab257816336568abe14610a21578163584b153e146109ea57816364d623531461093c5781638065657f1461091c5781638f2a0bb0146107cc5781638f61f4f51461079157816391d1485414610747578163a217fddf1461072b578163b08e51c0146106f0578163b1c5f427146106c5578163bc197c811461063a578163c4d252f514610355578163d45c44351461032b578163d547741f146102eb578163e38335e5146101d8578163f23a6e611461017a575063f27a0c920361000f57346101775780600319360112610177576020609854604051908152f35b80fd5b9050346101d45760a03660031901126101d457610195610eb0565b5061019e610ecb565b506084356001600160401b0381116101d0576101bd9250369101610fc9565b5060405163f23a6e6160e01b8152602090f35b8280fd5b5080fd5b8261024c60ff6040610245846101ed36611040565b92848688849f989c979a9e8f90859f8e899f600080516020611cf0833981519152909a999a526065602052818120818052602052205416156102dd575b610235848314611200565b610240868314611200565b6112d3565b97886119f6565b875b818110610262578861025f89611b3b565b80f35b8080897fc2617efa69bab66782fa219543714338489c4e9e178271560a91b82c3f612b5889896102d46102bb868f6102b4828f928f908f60019f6102a9916102ae93611258565b61127e565b97611258565b3595611292565b906102c882828787611a8c565b60405194859485611160565b0390a30161024e565b6102e63361173d565b61022a565b9050346101d45760403660031901126101d45761025f903561030b610ecb565b9080845260656020526103266001604086200154339061187d565b611b59565b9050346101d45760203660031901126101d457602091604091358152609783522054604051908152f35b9050346101d4576020806003193601126101d0578135917ffd643c72710c63c0180259aba6b2d05451e3591a24e58b62239378085726f7838085526065835260408520338652835260ff6040862054161561045957506103c383600052609760205260016040600020541190565b156103fd5750609790828452528160408120557fbaa1eb22f2a492ba1a5fea61b8df4d27c6c8b5f3971e63bb58fa14ff72eedb708280a280f35b6084916040519162461bcd60e51b8352820152603160248201527f54696d656c6f636b436f6e74726f6c6c65723a206f7065726174696f6e2063616044820152701b9b9bdd0818994818d85b98d95b1b1959607a1b6064820152fd5b8461046333611be0565b916040519061047182610f5c565b604282528582019260603685378251156106275760308453825190600191600110156106145790607860218501536041915b8183116105a9575050506105675760449392916105356048610559936040519384916105268b84019876020b1b1b2b9b9a1b7b73a3937b61d1030b1b1b7bab73a1604d1b8a526104fd8d8251928391603789019101611517565b8401917001034b99036b4b9b9b4b733903937b6329607d1b603784015251809386840190611517565b01036028810184520182610f8d565b60405195869462461bcd60e51b865285015251809281602486015285850190611517565b601f01601f19168101030190fd5b60648486806040519262461bcd60e51b845283015260248201527f537472696e67733a20686578206c656e67746820696e73756666696369656e746044820152fd5b909192600f81166010811015610601576f181899199a1a9b1b9c1cb0b131b232b360811b901a6105d98587611bcf565b53871c9280156105ee576000190191906104a3565b634e487b7160e01b825260118852602482fd5b634e487b7160e01b835260328952602483fd5b634e487b7160e01b815260328752602490fd5b634e487b7160e01b815260328652602490fd5b9050346101d45760a03660031901126101d457610655610eb0565b5061065e610ecb565b506001600160401b036044358181116106c15761067e90369084016110a1565b506064358181116106c15761069690369084016110a1565b506084359081116101d0576106ae9250369101610fc9565b5060405163bc197c8160e01b8152602090f35b8380fd5b82346101775760206106e86106d936611040565b969590959491949392936112d3565b604051908152f35b823461017757806003193601126101775760206040517ffd643c72710c63c0180259aba6b2d05451e3591a24e58b62239378085726f7838152f35b8234610177578060031936011261017757602090604051908152f35b9050346101d45760403660031901126101d457604060209260ff9261076a610ecb565b90358252606585528282206001600160a01b03909116825284522054604051911615158152f35b823461017757806003193601126101775760206040517fb09aa5aeb3702cfd50b6b62bc4532604938f21248a27a1d5ca736082b6819cc18152f35b9050346101d45760c03660031901126101d4576001600160401b039080358281116106c1576107fe9036908301611010565b92602435818111610918576108169036908501611010565b9190936044359182116109145761083284918693369101611010565b6064949194359161085489848489856084359d8e9560a4359b61022a3361153a565b9861085f858b611411565b898b5b8281106108a6578c828c80610875578280f35b60207f20fda5fd27a1ea7bf5b9567f143ac5470bb059374a27e8f67cb44f946f6d038791604051908152a281808280f35b806001927f4cf4410cc57040e44862ef0f45f3dd5a5e02db8eb8add648d4b0e236f1d07dca8b8b6109098f8c6108fc8f928e6108f58f8f906108ef6102a98f8097948195611258565b99611258565b3597611292565b9060405196879687611128565b0390a3018a90610862565b8680fd5b8580fd5b82346101775760206106e861093036610f0e565b949390939291926111ab565b9050346101d45760203660031901126101d45780359030330361099257507f11c24f4ead16507c69ac467fbd5e4eed5fb5c699626d2cc6d66421df253886d560406098548151908152836020820152a160985580f35b60849060206040519162461bcd60e51b8352820152602b60248201527f54696d656c6f636b436f6e74726f6c6c65723a2063616c6c6572206d7573742060448201526a62652074696d656c6f636b60a81b6064820152fd5b8234610177576020366003190112610177576020610a178335600052609760205260016040600020541190565b6040519015158152f35b823461017757604036600319011261017757610a3b610ecb565b336001600160a01b03821603610a565761025f919235611b59565b60405162461bcd60e51b8152602081850152602f60248201527f416363657373436f6e74726f6c3a2063616e206f6e6c792072656e6f756e636560448201526e103937b632b9903337b91039b2b63360891b6064820152608490fd5b8234610177576020366003190112610177576020610a1783356000526097602052604060002054151590565b9050346101d45760403660031901126101d45735610afa610ecb565b8183526065602052610b146001604085200154339061187d565b8183526065602052604083209060018060a01b03169081845260205260ff60408420541615610b41578280f35b81835260656020526040832081845260205260408320600160ff1982541617905533917f2f8788117e7eff1d82e926ec794901d17c78024a50270940304540a733656f0d8480a438808280f35b8234610177576020366003190112610177576020610a178335600052609760205260016040600020541490565b9050346101d45760203660031901126101d457604060209260019235815260658452200154604051908152f35b9050346101d45760803660031901126101d457610c03610eb0565b50610c0c610ecb565b506064356001600160401b0381116101d057610c2b9250369101610fc9565b50604051630a85bd0160e11b8152602090f35b8234610177576020366003190112610177576020610a178335611187565b8261025f610cdd82610ce97fc2617efa69bab66782fa219543714338489c4e9e178271560a91b82c3f612b58610cd4610c9436610f0e565b600080516020611cf08339815191528a999597929994939452606560205260408a208a805260205260ff60408b20541615610cf1575b88848489896111ab565b988997886119f6565b6102c882828787611a8c565b0390a3611b3b565b610cfa3361173d565b610cca565b823461017757806003193601126101775760206040517f5f58e3a2316349923ce3780f8d587db2d72378aed66a8261c916544fa6846ca58152f35b82346101775780600319360112610177576020604051600080516020611cf08339815191528152f35b9050346101d45760203660031901126101d4573563ffffffff60e01b81168091036101d457602090630271189760e51b8114908115610da8575b506040519015158152f35b637965db0b60e01b811491508115610dc2575b5082610d9d565b6301ffc9a760e01b14905082610dbb565b9050346101d45760c03660031901126101d457610dee610eb0565b826024356044356001600160401b0381116101d0577f4cf4410cc57040e44862ef0f45f3dd5a5e02db8eb8add648d4b0e236f1d07dca94610e3191369101610ee1565b94909160643594610e736084359660a43590610e4c3361153a565b610e5a89828c8a89896111ab565b998a97610e67848a611411565b60405196879687611128565b0390a380610e7f578280f35b60207f20fda5fd27a1ea7bf5b9567f143ac5470bb059374a27e8f67cb44f946f6d038791604051908152a238808280f35b600435906001600160a01b0382168203610ec657565b600080fd5b602435906001600160a01b0382168203610ec657565b9181601f84011215610ec6578235916001600160401b038311610ec65760208381860195010111610ec657565b60a0600319820112610ec6576004356001600160a01b0381168103610ec6579160243591604435906001600160401b038211610ec657610f5091600401610ee1565b90916064359060843590565b608081019081106001600160401b03821117610f7757604052565b634e487b7160e01b600052604160045260246000fd5b90601f801991011681019081106001600160401b03821117610f7757604052565b6001600160401b038111610f7757601f01601f191660200190565b81601f82011215610ec657803590610fe082610fae565b92610fee6040519485610f8d565b82845260208383010111610ec657816000926020809301838601378301015290565b9181601f84011215610ec6578235916001600160401b038311610ec6576020808501948460051b010111610ec657565b9060a0600319830112610ec6576001600160401b03600435818111610ec6578361106c91600401611010565b93909392602435838111610ec6578261108791600401611010565b93909392604435918211610ec657610f5091600401611010565b81601f82011215610ec6578035916020916001600160401b038411610f77578360051b90604051946110d585840187610f8d565b85528380860192820101928311610ec6578301905b8282106110f8575050505090565b813581529083019083016110ea565b908060209392818452848401376000828201840152601f01601f1916010190565b929093611156926080959897969860018060a01b03168552602085015260a0604085015260a0840191611107565b9460608201520152565b611184949260609260018060a01b0316825260208201528160408201520191611107565b90565b60005260976020526040600020546001811190816111a3575090565b905042101590565b946111e16111fa94959293604051968795602087019960018060a01b03168a52604087015260a0606087015260c0860191611107565b91608084015260a083015203601f198101835282610f8d565b51902090565b1561120757565b60405162461bcd60e51b815260206004820152602360248201527f54696d656c6f636b436f6e74726f6c6c65723a206c656e677468206d69736d616044820152620e8c6d60eb1b6064820152608490fd5b91908110156112685760051b0190565b634e487b7160e01b600052603260045260246000fd5b356001600160a01b0381168103610ec65790565b91908110156112685760051b81013590601e1981360301821215610ec65701908135916001600160401b038311610ec6576020018236038113610ec6579190565b969294909695919560405196602091828901998060c08b0160a08d525260e08a01919060005b8181106113e957505050601f19898203810160408b0152888252976001600160fb1b038111610ec6579089969495939897929160051b80928a830137019380888601878703606089015252604085019460408260051b82010195836000925b848410611380575050505050506111fa9550608084015260a083015203908101835282610f8d565b9193969850919398999496603f198282030184528935601e1984360301811215610ec65783018681019190356001600160401b038111610ec6578036038313610ec6576113d288928392600195611107565b9b0194019401918b98969394919a9997959a611358565b90919283359060018060a01b038216809203610ec657908152850192850191906001016112f9565b90611429826000526097602052604060002054151590565b6114ba57609854811061146657420190814211611450576000526097602052604060002055565b634e487b7160e01b600052601160045260246000fd5b60405162461bcd60e51b815260206004820152602660248201527f54696d656c6f636b436f6e74726f6c6c65723a20696e73756666696369656e746044820152652064656c617960d01b6064820152608490fd5b60405162461bcd60e51b815260206004820152602f60248201527f54696d656c6f636b436f6e74726f6c6c65723a206f7065726174696f6e20616c60448201526e1c9958591e481cd8da19591d5b1959608a1b6064820152608490fd5b60005b83811061152a5750506000910152565b818101518382015260200161151a565b6001600160a01b031660008181527fafe71ff1fe81c59ca16af21c02420893e650adae4948ece1623218f842885477602090815260408083205490937fb09aa5aeb3702cfd50b6b62bc4532604938f21248a27a1d5ca736082b6819cc19160ff16156115a7575050505050565b6115b090611be0565b908451906115bd82610f5c565b604282528382019460603687378251156117295760308653825190600191600110156117295790607860218501536041915b8183116116bb57505050611679578461165560486105599360449798519889916116468984019876020b1b1b2b9b9a1b7b73a3937b61d1030b1b1b7bab73a1604d1b8a526104fd815180928d603789019101611517565b01036028810189520187610f8d565b5194859362461bcd60e51b8552600485015251809281602486015285850190611517565b60648386519062461bcd60e51b825280600483015260248201527f537472696e67733a20686578206c656e67746820696e73756666696369656e746044820152fd5b909192600f81166010811015611715576f181899199a1a9b1b9c1cb0b131b232b360811b901a6116eb8587611bcf565b5360041c928015611701576000190191906115ef565b634e487b7160e01b82526011600452602482fd5b634e487b7160e01b83526032600452602483fd5b634e487b7160e01b81526032600452602490fd5b6001600160a01b031660008181527f7dc9f88e569f94faad6fa0d44dd44858caf3f34f1bd1c985800aedf5793aad8b60209081526040808320549093600080516020611cf08339815191529160ff1615611798575050505050565b6117a190611be0565b908451906117ae82610f5c565b604282528382019460603687378251156117295760308653825190600191600110156117295790607860218501536041915b81831161183757505050611679578461165560486105599360449798519889916116468984019876020b1b1b2b9b9a1b7b73a3937b61d1030b1b1b7bab73a1604d1b8a526104fd815180928d603789019101611517565b909192600f81166010811015611715576f181899199a1a9b1b9c1cb0b131b232b360811b901a6118678587611bcf565b5360041c928015611701576000190191906117e0565b600090808252602090606582526040938484209060018060a01b031690818552835260ff8585205416156118b2575050505050565b6118bb90611be0565b908451906118c882610f5c565b604282528382019460603687378251156117295760308653825190600191600110156117295790607860218501536041915b81831161195157505050611679578461165560486105599360449798519889916116468984019876020b1b1b2b9b9a1b7b73a3937b61d1030b1b1b7bab73a1604d1b8a526104fd815180928d603789019101611517565b909192600f81166010811015611715576f181899199a1a9b1b9c1cb0b131b232b360811b901a6119818587611bcf565b5360041c928015611701576000190191906118fa565b1561199e57565b60405162461bcd60e51b815260206004820152602a60248201527f54696d656c6f636b436f6e74726f6c6c65723a206f7065726174696f6e206973604482015269206e6f7420726561647960b01b6064820152608490fd5b611a02611a0791611187565b611997565b8015908115611a6d575b5015611a1957565b60405162461bcd60e51b815260206004820152602660248201527f54696d656c6f636b436f6e74726f6c6c65723a206d697373696e6720646570656044820152656e64656e637960d01b6064820152608490fd5b611a869150600052609760205260016040600020541490565b38611a11565b90926000938493826040519384928337810185815203925af13d15611b36573d611ab581610fae565b90611ac36040519283610f8d565b8152600060203d92013e5b15611ad557565b60405162461bcd60e51b815260206004820152603360248201527f54696d656c6f636b436f6e74726f6c6c65723a20756e6465726c79696e6720746044820152721c985b9cd858dd1a5bdb881c995d995c9d1959606a1b6064820152608490fd5b611ace565b611b47611a0282611187565b60005260976020526001604060002055565b906000918083526065602052604083209160018060a01b03169182845260205260ff604084205416611b8a57505050565b8083526065602052604083208284526020526040832060ff1981541690557ff6391f5c32d9c69d2a47ea670b442974b53935d1edc7fd64eb21e047a839171b339380a4565b908151811015611268570160200190565b60405190606082018281106001600160401b03821117610f7757604052602a8252602082016040368237825115611268576030905381516001906001101561126857607860218401536029905b808211611c81575050611c3d5790565b606460405162461bcd60e51b815260206004820152602060248201527f537472696e67733a20686578206c656e67746820696e73756666696369656e746044820152fd5b9091600f81166010811015611cda576f181899199a1a9b1b9c1cb0b131b232b360811b901a611cb08486611bcf565b5360041c918015611cc5576000190190611c2d565b60246000634e487b7160e01b81526011600452fd5b60246000634e487b7160e01b81526032600452fdfed8aa0f3194971a2a116679f7c2090f6939c8d4e01a2a8d7e41d55e5351469e63a2646970667358221220f435f3759664764188eb0ba224d2059061fbcb3728182f0b57d8dda87645777664736f6c63430008190033",
  "linkReferences": {},
  "deployedLinkReferences": {}
}