{"contracts/treasury/HYPEYTreasury.sol":{"HYPEYTreasury":{"abi":[{"inputs":[],"stateMutability":"nonpayable","type":"constructor"},{"anonymous":false,"inputs":[{"indexed":false,"internalType":"address","name":"previousAdmin","type":"address"},{"indexed":false,"internalType":"address","name":"newAdmin","type":"address"}],"name":"AdminChanged","type":"event"},{"anonymous":false,"inputs":[{"indexed":true,"internalType":"address","name":"beacon","type":"address"}],"name":"BeaconUpgraded","type":"event"},{"anonymous":false,"inputs":[{"indexed":true,"internalType":"address","name":"from","type":"address"},{"indexed":false,"internalType":"uint256","name":"amount","type":"uint256"}],"name":"ETHDeposited","type":"event"},{"anonymous":false,"inputs":[{"indexed":true,"internalType":"address","name":"to","type":"address"},{"indexed":false,"internalType":"uint256","name":"amount","type":"uint256"}],"name":"ETHWithdrawn","type":"event"},{"anonymous":false,"inputs":[{"indexed":false,"internalType":"uint8","name":"version","type":"uint8"}],"name":"Initialized","type":"event"},{"anonymous":false,"inputs":[{"indexed":false,"internalType":"address","name":"account","type":"address"}],"name":"Paused","type":"event"},{"anonymous":false,"inputs":[{"indexed":true,"internalType":"bytes32","name":"role","type":"bytes32"},{"indexed":true,"internalType":"bytes32","name":"previousAdminRole","type":"bytes32"},{"indexed":true,"internalType":"bytes32","name":"newAdminRole","type":"bytes32"}],"name":"RoleAdminChanged","type":"event"},{"anonymous":false,"inputs":[{"indexed":true,"internalType":"bytes32","name":"role","type":"bytes32"},{"indexed":true,"internalType":"address","name":"account","type":"address"},{"indexed":true,"internalType":"address","name":"sender","type":"address"}],"name":"RoleGranted","type":"event"},{"anonymous":false,"inputs":[{"indexed":true,"internalType":"bytes32","name":"role","type":"bytes32"},{"indexed":true,"internalType":"address","name":"account","type":"address"},{"indexed":true,"internalType":"address","name":"sender","type":"address"}],"name":"RoleRevoked","type":"event"},{"anonymous":false,"inputs":[{"indexed":true,"internalType":"address","name":"token","type":"address"},{"indexed":false,"internalType":"bool","name":"enabled","type":"bool"}],"name":"TokenSupported","type":"event"},{"anonymous":false,"inputs":[{"indexed":true,"internalType":"address","name":"token","type":"address"},{"indexed":true,"internalType":"address","name":"from","type":"address"},{"indexed":false,"internalType":"uint256","name":"amount","type":"uint256"}],"name":"TokensDeposited","type":"event"},{"anonymous":false,"inputs":[{"indexed":true,"internalType":"address","name":"token","type":"address"},{"indexed":true,"internalType":"address","name":"to","type":"address"},{"indexed":false,"internalType":"uint256","name":"amount","type":"uint256"}],"name":"TokensWithdrawn","type":"event"},{"anonymous":false,"inputs":[{"indexed":true,"internalType":"address","name":"admin","type":"address"},{"indexed":true,"internalType":"address","name":"timelock","type":"address"}],"name":"TreasuryInitialized","type":"event"},{"anonymous":false,"inputs":[{"indexed":false,"internalType":"address","name":"account","type":"address"}],"name":"Unpaused","type":"event"},{"anonymous":false,"inputs":[{"indexed":true,"internalType":"address","name":"implementation","type":"address"}],"name":"Upgraded","type":"event"},{"stateMutability":"payable","type":"fallback"},{"inputs":[],"name":"DEFAULT_ADMIN_ROLE","outputs":[{"internalType":"bytes32","name":"","type":"bytes32"}],"stateMutability":"view","type":"function"},{"inputs":[],"name":"MAX_SUPPORTED_TOKENS","outputs":[{"internalType":"uint256","name":"","type":"uint256"}],"stateMutability":"view","type":"function"},{"inputs":[],"name":"MULTISIG_ADMIN_ROLE","outputs":[{"internalType":"bytes32","name":"","type":"bytes32"}],"stateMutability":"view","type":"function"},{"inputs":[{"internalType":"address","name":"token","type":"address"}],"name":"addSupportedToken","outputs":[],"stateMutability":"nonpayable","type":"function"},{"inputs":[],"name":"builder","outputs":[{"internalType":"string","name":"","type":"string"}],"stateMutability":"pure","type":"function"},{"inputs":[{"internalType":"address","name":"token","type":"address"},{"internalType":"uint256","name":"amount","type":"uint256"}],"name":"depositToken","outputs":[],"stateMutability":"nonpayable","type":"function"},{"inputs":[{"internalType":"address payable","name":"to","type":"address"},{"internalType":"uint256","name":"amount","type":"uint256"}],"name":"disburseETH","outputs":[],"stateMutability":"nonpayable","type":"function"},{"inputs":[{"internalType":"address","name":"token","type":"address"},{"internalType":"address","name":"to","type":"address"},{"internalType":"uint256","name":"amount","type":"uint256"}],"name":"disburseToken","outputs":[],"stateMutability":"nonpayable","type":"function"},{"inputs":[{"internalType":"address","name":"token","type":"address"}],"name":"getERC20Balance","outputs":[{"internalType":"uint256","name":"","type":"uint256"}],"stateMutability":"view","type":"function"},{"inputs":[],"name":"getETHBalance","outputs":[{"internalType":"uint256","name":"","type":"uint256"}],"stateMutability":"view","type":"function"},{"inputs":[{"internalType":"bytes32","name":"role","type":"bytes32"}],"name":"getRoleAdmin","outputs":[{"internalType":"bytes32","name":"","type":"bytes32"}],"stateMutability":"view","type":"function"},{"inputs":[],"name":"getSupportedTokens","outputs":[{"internalType":"address[]","name":"","type":"address[]"}],"stateMutability":"view","type":"function"},{"inputs":[{"internalType":"bytes32","name":"role","type":"bytes32"},{"internalType":"address","name":"account","type":"address"}],"name":"grantRole","outputs":[],"stateMutability":"nonpayable","type":"function"},{"inputs":[{"internalType":"bytes32","name":"role","type":"bytes32"},{"internalType":"address","name":"account","type":"address"}],"name":"hasRole","outputs":[{"internalType":"bool","name":"","type":"bool"}],"stateMutability":"view","type":"function"},{"inputs":[{"internalType":"address","name":"admin","type":"address"},{"internalType":"address","name":"timelockAddress","type":"address"}],"name":"initialize","outputs":[],"stateMutability":"nonpayable","type":"function"},{"inputs":[],"name":"ownerInitialized","outputs":[{"internalType":"bool","name":"","type":"bool"}],"stateMutability":"view","type":"function"},{"inputs":[],"name":"pause","outputs":[],"stateMutability":"nonpayable","type":"function"},{"inputs":[],"name":"paused","outputs":[{"internalType":"bool","name":"","type":"bool"}],"stateMutability":"view","type":"function"},{"inputs":[],"name":"proxiableUUID","outputs":[{"internalType":"bytes32","name":"","type":"bytes32"}],"stateMutability":"view","type":"function"},{"inputs":[{"internalType":"address","name":"token","type":"address"}],"name":"removeSupportedToken","outputs":[],"stateMutability":"nonpayable","type":"function"},{"inputs":[{"internalType":"bytes32","name":"role","type":"bytes32"},{"internalType":"address","name":"account","type":"address"}],"name":"renounceRole","outputs":[],"stateMutability":"nonpayable","type":"function"},{"inputs":[{"internalType":"bytes32","name":"role","type":"bytes32"},{"internalType":"address","name":"account","type":"address"}],"name":"revokeRole","outputs":[],"stateMutability":"nonpayable","type":"function"},{"inputs":[{"internalType":"uint256","name":"","type":"uint256"}],"name":"supportedTokenList","outputs":[{"internalType":"address","name":"","type":"address"}],"stateMutability":"view","type":"function"},{"inputs":[{"internalType":"address","name":"","type":"address"}],"name":"supportedTokens","outputs":[{"internalType":"bool","name":"","type":"bool"}],"stateMutability":"view","type":"function"},{"inputs":[{"internalType":"bytes4","name":"interfaceId","type":"bytes4"}],"name":"supportsInterface","outputs":[{"internalType":"bool","name":"","type":"bool"}],"stateMutability":"view","type":"function"},{"inputs":[],"name":"timelock","outputs":[{"internalType":"contract TimelockControllerUpgradeable","name":"","type":"address"}],"stateMutability":"view","type":"function"},{"inputs":[],"name":"trustedInitializer","outputs":[{"internalType":"address","name":"","type":"address"}],"stateMutability":"view","type":"function"},{"inputs":[],"name":"unpause","outputs":[],"stateMutability":"nonpayable","type":"function"},{"inputs":[{"internalType":"address","name":"newImplementation","type":"address"}],"name":"upgradeTo","outputs":[],"stateMutability":"nonpayable","type":"function"},{"inputs":[{"internalType":"address","name":"newImplementation","type":"address"},{"internalType":"bytes","name":"data","type":"bytes"}],"name":"upgradeToAndCall","outputs":[],"stateMutability":"payable","type":"function"},{"stateMutability":"payable","type":"receive"}],"evm":{"bytecode":{"linkReferences":{},"object":"60c080604052346100f057306080523360a0526000549060ff8260081c1661009e575060ff80821603610063575b60405161252990816100f682396080518181816109ee01528181610b1801526111c2015260a0518181816104590152610e980152f35b60ff90811916176000557f7f26b83ff96e1f2b6a682f133852f6798a09c465da95921460cefb3847402498602060405160ff8152a13861002d565b62461bcd60e51b815260206004820152602760248201527f496e697469616c697a61626c653a20636f6e747261637420697320696e697469604482015266616c697a696e6760c81b6064820152608490fd5b600080fdfe60806040908082526004908136101561004e575b50503615610022573461002257005b513481527f6c703791f399558807424f489ccd811c72b4ff0b74af547264fad7c646776df060203392a2005b600091823560e01c91826301ffc9a71461184c575081631933868a1461171f578163248a9ca3146116f35781632b60c822146116b05781632f2ff15d14611602578163338b5dea1461153357816336568abe146114a25781633659cfe61461119a5781633f4ba83a14611103578163485cc95514610e365781634f1ef28614610a9b57816352d1902d146109d85781635c975abb146109b457816368c4ac26146109755781636d69fcaf146107e45781636e947298146107c9578163763191901461063f57816376c751c61461052b5781638456cb59146104d057816391d14854146104885781639e85f9aa14610444578163a217fddf14610429578163b588d22514610395578163ba7c095714610379578163bebc214514610354578163c8f50b4c1461032b578163d33219b414610301578163d3c7c2c714610238578163d547741f146101f5575063d7e84fbf146101a85780610013565b90346101f157816003193601126101f15780516101ed916101c88261194f565b600e82526d544f50415920444556205445414d60901b602083015251918291826119e8565b0390f35b5080fd5b90508234610234578060031936011261023457610231913561022c600161021a6118ec565b9383875260fb60205286200154611e40565b6120bd565b80f35b8280fd5b5050346102fe57806003193601126102fe5790805191829061012f918254808652602080960190819484527f232da9e50dad2971456a78fb5cd6ff6b75019984d6e918139ce990999420f97990845b8181106102e1575050508161029d910382611987565b83519485948186019282875251809352850193925b8281106102c157505050500390f35b83516001600160a01b0316855286955093810193928101926001016102b2565b82546001600160a01b031684529288019260019283019201610287565b80fd5b8284346101f157816003193601126101f15761012d5490516001600160a01b039091168152602090f35b8284346101f157816003193601126101f157602090516000805160206124b48339815191528152f35b8284346101f157816003193601126101f15760209060ff610130541690519015158152f35b8284346101f157816003193601126101f1576020905160328152f35b8284346101f1576020928360031936011261023457836001600160a01b036103bb611907565b169160248451809481936370a0823160e01b835230908301525afa92831561041e5780936103ec575b505051908152f35b909192508382813d8311610417575b6104058183611987565b810103126102fe5750519083806103e4565b503d6103fb565b8251903d90823e3d90fd5b8284346101f157816003193601126101f15751908152602090f35b8284346101f157816003193601126101f157517f00000000000000000000000000000000000000000000000000000000000000006001600160a01b03168152602090f35b839150346102345781600319360112610234578160209360ff926104aa6118ec565b9035825260fb86528282206001600160a01b039091168252855220549151911615158152f35b8284346101f157816003193601126101f15760207f62e78cea01bee320cd4e420270b5ea74000d11b0c9f74754ebdbfc544b05a2589161050e611c3b565b610516611f4b565b600160ff19603354161760335551338152a180f35b9050823461023457606036600319011261023457610547611907565b61054f6118ec565b916044359161055c611c3b565b610564611f4b565b6001600160a01b0390811680875261012e6020528287205490949061058b9060ff16611b37565b1693610598851515611a14565b6105a3831515611a60565b6105b969d3c21bcecceda1000000841115611aab565b81519063a9059cbb60e01b602083015285602483015283604483015260448252608082019082821067ffffffffffffffff83111761062c5750916106247f6337ed398c0e8467698c581374fdce4db14922df487b5a39483079f5f59b60a49492602094835286612193565b51908152a380f35b634e487b7160e01b885260419052602487fd5b905082346102345760203660031901126102345761065b611907565b90610664611c3b565b60018060a01b038092169182855261012e8060205261068860ff8488205416611b37565b838652602052818520805460ff19169055845b61012f80548083101561079957908391866106b58561189f565b949054600395861b1c16146106cf5750505060010161069b565b91949596909392600019928381019081116107865790610702856106f56107209461189f565b9054908a1b1c169161189f565b90919060018060a01b038084549260031b9316831b921b1916179055565b83549081156107735750917fd86c88b4a367d9b81a6e00c9d3f7d01657bffef358fa8968c91c045ae99f0d5295939160209593019261075e8461189f565b81939154921b1b19169055555b51848152a280f35b634e487b7160e01b895260319052602488fd5b634e487b7160e01b8a526011835260248afd5b505050507fd86c88b4a367d9b81a6e00c9d3f7d01657bffef358fa8968c91c045ae99f0d5291925060209061076b565b8284346101f157816003193601126101f15751478152602090f35b8284346101f15760208060031936011261023457610800611907565b91610809611c3b565b6001600160a01b03831692831561093a5783855261012e80845260ff83872054166108f75761012f906032825410156108b6578587528452828620805460ff19166001179055805490680100000000000000008210156108a35791610702827fd86c88b4a367d9b81a6e00c9d3f7d01657bffef358fa8968c91c045ae99f0d52969594600161089a9501905561189f565b5160018152a280f35b634e487b7160e01b875260418852602487fd5b606488868087519262461bcd60e51b845283015260248201527f4d6178696d756d20737570706f7274656420746f6b656e7320726561636865646044820152fd5b825162461bcd60e51b8152808801859052601760248201527f546f6b656e20616c726561647920737570706f727465640000000000000000006044820152606490fd5b815162461bcd60e51b81528087018490526015602482015274496e76616c696420746f6b656e206164647265737360581b6044820152606490fd5b8284346101f15760203660031901126101f15760209160ff9082906001600160a01b036109a0611907565b16815261012e855220541690519015158152f35b8284346101f157816003193601126101f15760209060ff6033541690519015158152f35b919050346102fe57806003193601126102fe57507f00000000000000000000000000000000000000000000000000000000000000006001600160a01b03163003610a3357602082516000805160206124d48339815191528152f35b6020608492519162461bcd60e51b8352820152603860248201527f555550535570677261646561626c653a206d757374206e6f742062652063616c60448201527f6c6564207468726f7567682064656c656761746563616c6c00000000000000006064820152fd5b8284806003193601126101f157610ab0611907565b9060249081359067ffffffffffffffff8211610e325736602383011215610e32578186013591610adf836119a9565b90610aec83519283611987565b8382526020938483019136878383010111610e2e57818992888893018537840101526001600160a01b037f0000000000000000000000000000000000000000000000000000000000000000811690610b4630831415611b79565b610b636000805160206124d4833981519152928284541614611bda565b610b6b611c3b565b8061012d54163303610df0576000805160206124b4833981519152895260fb8652848920328a52865260ff858a20541615610dae577f4910fdfa16fed3260ed0e7147f7cc6da11a60208b5b9406d12a635614ffd91435460ff1615610bdc5750505050505050610231919250612282565b87939496989597169086516352d1902d60e01b815288818c81865afa879181610d7b575b50610c5e57875162461bcd60e51b8152808c018a9052602e818c01527f45524331393637557067726164653a206e657720696d706c656d656e7461746960448201526d6f6e206973206e6f74205555505360901b6064820152608490fd5b99929498919396959903610d2757505090869291610c7b85612282565b7fbc7cd75a20ee27fd9adebab32041f755214dbc6bffa90cc0225b39da2e5c2d3b8480a2855115801590610d1f575b610cb8575b50505050505080f35b610d1395660819985a5b195960ca1b837f416464726573733a206c6f772d6c6576656c2064656c65676174652063616c6c86955198610cf68a61191d565b60278a528901528701525190845af4610d0d611b07565b91612422565b50818080838180610caf565b506001610caa565b845162461bcd60e51b81529182018790526029908201527f45524331393637557067726164653a20756e737570706f727465642070726f786044820152681a58589b195555525160ba1b6064820152608490fd5b9091508981813d8311610da7575b610d938183611987565b81010312610da35751908c610c00565b8780fd5b503d610d89565b845162461bcd60e51b8152808b01879052601f818901527f55706772616465207265717569726573206d756c74697369672061646d696e006044820152606490fd5b845162461bcd60e51b8152808b018790526019818901527855706772616465206f6e6c79207669612074696d656c6f636b60381b6044820152606490fd5b8880fd5b8480fd5b83915034610234578160031936011261023457610e51611907565b90610e5a6118ec565b92845460ff8160081c1615938480956110f6575b80156110df575b156110855760ff1982811660011788559185611074575b506001600160a01b03907f00000000000000000000000000000000000000000000000000000000000000008216330361103157818116968715610ff6578216948515610fb3575090610f4491610f0b60ff8a5460081c16610eec81612133565b610ef581612133565b610efe81612133565b8560335416603355612133565b61012d80546001600160a01b0319168717815590610f3190610f2c81611f8f565b61201e565b610f3d82825416611f8f565b541661201e565b60016101309182541617905551927f28c014722fc954327ed915fa752532701baa2ab85333078b3442d2f3e9e9306a8580a3610f7e575080f35b60207f7f26b83ff96e1f2b6a682f133852f6798a09c465da95921460cefb38474024989161ff0019845416845560018152a180f35b606490602086519162461bcd60e51b8352820152601860248201527f496e76616c69642074696d656c6f636b206164647265737300000000000000006044820152fd5b845162461bcd60e51b81526020818801526015602482015274496e76616c69642061646d696e206164647265737360581b6044820152606490fd5b835162461bcd60e51b8152602081870152601860248201527f556e617574686f72697a656420696e697469616c697a657200000000000000006044820152606490fd5b61ffff191661010117875587610e8c565b825162461bcd60e51b8152602081860152602e60248201527f496e697469616c697a61626c653a20636f6e747261637420697320616c72656160448201526d191e481a5b9a5d1a585b1a5e995960921b6064820152608490fd5b50303b158015610e755750600160ff831614610e75565b50600160ff831610610e6e565b8391503461023457826003193601126102345761111e611c3b565b6033549060ff821615611160575060ff1916603355513381527f5db9ee0a495bf2e6ff9c91a7834c1ba4fdd244a5e8aa4e537bd38aeae4b073aa90602090a180f35b606490602084519162461bcd60e51b8352820152601460248201527314185d5cd8589b194e881b9bdd081c185d5cd95960621b6044820152fd5b905082346102345760208060031936011261149e576111b7611907565b916001600160a01b037f00000000000000000000000000000000000000000000000000000000000000008116906111f030831415611b79565b61120d6000805160206124d4833981519152928284541614611bda565b611215611c3b565b8061012d5416330361145f576000805160206124b4833981519152875260fb8452828720328852845260ff83882054161561141c578251918483019183831067ffffffffffffffff841117611409578285528884527f4910fdfa16fed3260ed0e7147f7cc6da11a60208b5b9406d12a635614ffd91435460ff16156112a4575050505050506102319150612282565b8693949596169085516352d1902d60e01b815287818a81865afa8a91816113d6575b5061132557865162461bcd60e51b8152808a01899052602e60248201527f45524331393637557067726164653a206e657720696d706c656d656e7461746960448201526d6f6e206973206e6f74205555505360901b6064820152608490fd5b979192939594970361138157509086929161133f85612282565b7fbc7cd75a20ee27fd9adebab32041f755214dbc6bffa90cc0225b39da2e5c2d3b8480a285511580159061137a57610cb85750505050505080f35b5082610caa565b835162461bcd60e51b8152908101869052602960248201527f45524331393637557067726164653a20756e737570706f727465642070726f786044820152681a58589b195555525160ba1b6064820152608490fd5b9091508881813d8311611402575b6113ee8183611987565b810103126113fe5751908b6112c6565b8a80fd5b503d6113e4565b634e487b7160e01b895260418852602489fd5b825162461bcd60e51b8152808701859052601f60248201527f55706772616465207265717569726573206d756c74697369672061646d696e006044820152606490fd5b825162461bcd60e51b8152808701859052601960248201527855706772616465206f6e6c79207669612074696d656c6f636b60381b6044820152606490fd5b8380fd5b9050346101f157826003193601126101f1576114bc6118ec565b90336001600160a01b038316036114d8579061023191356120bd565b608490602085519162461bcd60e51b8352820152602f60248201527f416363657373436f6e74726f6c3a2063616e206f6e6c792072656e6f756e636560448201526e103937b632b9903337b91039b2b63360891b6064820152fd5b8391503461023457816003193601126102345761154e611907565b6001600160a01b031680845261012e60205282842054602435939192906115779060ff16611b37565b81516323b872dd60e01b6020820152336024820152306044820152606480820186905281529060a082019067ffffffffffffffff8211838310176115ef575082526115c29083612193565b519182527fcbc4a4091b012bb1329c38bbbb15455f5cac5aa3673da0a7f38cd61a4f49551760203393a380f35b634e487b7160e01b875260419052602486fd5b83915034610234578160031936011261023457359061161f6118ec565b9082845260fb60205261163760018286200154611e40565b82845260fb60209081528185206001600160a01b039093168086529290528084205460ff1615611665578380f35b82845260fb6020528084208285526020528320600160ff1982541617905533917f2f8788117e7eff1d82e926ec794901d17c78024a50270940304540a733656f0d8480a48180808380f35b8391503461023457602036600319011261023457359161012f548310156102fe57506116dd60209261189f565b905491519160018060a01b039160031b1c168152f35b83915034610234576020366003190112610234578160209360019235815260fb85522001549051908152f35b8391503461023457816003193601126102345780356001600160a01b038116929083900361149e5760243591611753611c3b565b61175b611f4b565b611766841515611a14565b611771831515611a60565b82471061180a5761178e69d3c21bcecceda1000000841115611aab565b8480808086885af161179e611b07565b50156117d257507f94b2de810873337ed265c5f8cf98c9cffefa06b8607f9a2f1fbaebdfbcfbef1c9160209151908152a280f35b6020606492519162461bcd60e51b83528201526013602482015272115512081d1c985b9cd9995c8819985a5b1959606a1b6044820152fd5b6020606492519162461bcd60e51b8352820152601860248201527f496e73756666696369656e74204554482062616c616e636500000000000000006044820152fd5b915034610234576020366003190112610234573563ffffffff60e01b81168091036102345760209250637965db0b60e01b811490811561188e575b5015158152f35b6301ffc9a760e01b14905083611887565b61012f80548210156118d6576000527f232da9e50dad2971456a78fb5cd6ff6b75019984d6e918139ce990999420f9790190600090565b634e487b7160e01b600052603260045260246000fd5b602435906001600160a01b038216820361190257565b600080fd5b600435906001600160a01b038216820361190257565b6060810190811067ffffffffffffffff82111761193957604052565b634e487b7160e01b600052604160045260246000fd5b6040810190811067ffffffffffffffff82111761193957604052565b6080810190811067ffffffffffffffff82111761193957604052565b90601f8019910116810190811067ffffffffffffffff82111761193957604052565b67ffffffffffffffff811161193957601f01601f191660200190565b60005b8381106119d85750506000910152565b81810151838201526020016119c8565b60409160208252611a0881518092816020860152602086860191016119c5565b601f01601f1916010190565b15611a1b57565b60405162461bcd60e51b815260206004820152601960248201527f496e76616c696420726563697069656e742061646472657373000000000000006044820152606490fd5b15611a6757565b606460405162461bcd60e51b815260206004820152602060248201527f416d6f756e74206d7573742062652067726561746572207468616e207a65726f6044820152fd5b15611ab257565b60405162461bcd60e51b815260206004820152602760248201527f416d6f756e742065786365656473206d6178696d756d207769746864726177616044820152661b081b1a5b5a5d60ca1b6064820152608490fd5b3d15611b32573d90611b18826119a9565b91611b266040519384611987565b82523d6000602084013e565b606090565b15611b3e57565b60405162461bcd60e51b8152602060048201526013602482015272151bdad95b881b9bdd081cdd5c1c1bdc9d1959606a1b6044820152606490fd5b15611b8057565b60405162461bcd60e51b815260206004820152602c60248201527f46756e6374696f6e206d7573742062652063616c6c6564207468726f7567682060448201526b19195b1959d85d1958d85b1b60a21b6064820152608490fd5b15611be157565b60405162461bcd60e51b815260206004820152602c60248201527f46756e6374696f6e206d7573742062652063616c6c6564207468726f7567682060448201526b6163746976652070726f787960a01b6064820152608490fd5b3360009081527f9e6744e618de81da41bac79d16db1c0ff299a7089220b2457c7e39ade770194460209081526040808320549092906000805160206124b48339815191529060ff1615611c8e5750505050565b611c9733612323565b845191611ca38361196b565b60428352848301936060368637835115611e2c576030855383519060019160011015611e2c5790607860218601536041915b818311611dbe57505050611d7c57611d2a938593611d6293611d53604894611d789951988576020b1b1b2b9b9a1b7b73a3937b61d1030b1b1b7bab73a1604d1b8b9788015282519283916037890191016119c5565b8401917001034b99036b4b9b9b4b733903937b6329607d1b6037840152518093868401906119c5565b01036028810185520183611987565b5162461bcd60e51b8152918291600483016119e8565b0390fd5b60648486519062461bcd60e51b825280600483015260248201527f537472696e67733a20686578206c656e67746820696e73756666696369656e746044820152fd5b909192600f81166010811015611e18576f181899199a1a9b1b9c1cb0b131b232b360811b901a611dee8588612312565b5360041c928015611e0457600019019190611cd5565b634e487b7160e01b82526011600452602482fd5b634e487b7160e01b83526032600452602483fd5b634e487b7160e01b81526032600452602490fd5b600081815260209060fb8252604092838220338352835260ff848320541615611e695750505050565b611e7233612323565b845191611e7e8361196b565b60428352848301936060368637835115611e2c576030855383519060019160011015611e2c5790607860218601536041915b818311611f0557505050611d7c57611d2a938593611d6293611d53604894611d789951988576020b1b1b2b9b9a1b7b73a3937b61d1030b1b1b7bab73a1604d1b8b9788015282519283916037890191016119c5565b909192600f81166010811015611e18576f181899199a1a9b1b9c1cb0b131b232b360811b901a611f358588612312565b5360041c928015611e0457600019019190611eb0565b60ff60335416611f5757565b60405162461bcd60e51b815260206004820152601060248201526f14185d5cd8589b194e881c185d5cd95960821b6044820152606490fd5b6001600160a01b031660008181527fc88390e7e62175be0932452175b6a7222b6b094ab0ef984a5153c620345d8975602052604081205490919060ff1615611fd5575050565b81805260fb6020526040822081835260205260408220600160ff1982541617905533917f2f8788117e7eff1d82e926ec794901d17c78024a50270940304540a733656f0d8180a4565b6001600160a01b031660008181527f9e6744e618de81da41bac79d16db1c0ff299a7089220b2457c7e39ade770194460205260408120549091906000805160206124b48339815191529060ff161561207557505050565b80835260fb6020526040832082845260205260408320600160ff198254161790557f2f8788117e7eff1d82e926ec794901d17c78024a50270940304540a733656f0d339380a4565b9060009180835260fb602052604083209160018060a01b03169182845260205260ff6040842054166120ee57505050565b80835260fb602052604083208284526020526040832060ff1981541690557ff6391f5c32d9c69d2a47ea670b442974b53935d1edc7fd64eb21e047a839171b339380a4565b1561213a57565b60405162461bcd60e51b815260206004820152602b60248201527f496e697469616c697a61626c653a20636f6e7472616374206973206e6f74206960448201526a6e697469616c697a696e6760a81b6064820152608490fd5b60018060a01b0316906121ec6040516121ab8161194f565b6020938482527f5361666545524332303a206c6f772d6c6576656c2063616c6c206661696c6564858301526000808587829751910182855af1610d0d611b07565b80519182159184831561225e575b5050509050156122075750565b6084906040519062461bcd60e51b82526004820152602a60248201527f5361666545524332303a204552433230206f7065726174696f6e20646964206e6044820152691bdd081cdd58d8d9595960b21b6064820152fd5b9193818094500103126101f1578201519081151582036102fe5750803880846121fa565b803b156122b7576000805160206124d483398151915280546001600160a01b0319166001600160a01b03909216919091179055565b60405162461bcd60e51b815260206004820152602d60248201527f455243313936373a206e657720696d706c656d656e746174696f6e206973206e60448201526c1bdd08184818dbdb9d1c9858dd609a1b6064820152608490fd5b9081518110156118d6570160200190565b604051906123308261191d565b602a82526020820160403682378251156118d657603090538151600190600110156118d657607860218401536029905b8082116123b45750506123705790565b606460405162461bcd60e51b815260206004820152602060248201527f537472696e67733a20686578206c656e67746820696e73756666696369656e746044820152fd5b9091600f8116601081101561240d576f181899199a1a9b1b9c1cb0b131b232b360811b901a6123e38486612312565b5360041c9180156123f8576000190190612360565b60246000634e487b7160e01b81526011600452fd5b60246000634e487b7160e01b81526032600452fd5b919290156124845750815115612436575090565b3b1561243f5790565b60405162461bcd60e51b815260206004820152601d60248201527f416464726573733a2063616c6c20746f206e6f6e2d636f6e74726163740000006044820152606490fd5b8251909150156124975750805190602001fd5b60405162461bcd60e51b8152908190611d7890600483016119e856fe71e15edd14fd3418eb6412e352e9213f5344899ecebf19a3e57e7d605e2472b2360894a13ba1a3210667c828492db98dca3e2076cc3735a920a3ca505d382bbca2646970667358221220b37bd355c3f55d2db3dce37732883c78891d395f7fe333e5dd0303b744bd8ccc64736f6c63430008190033","opcodes":"PUSH1 0xC0 DUP1 PUSH1 0x40 MSTORE CALLVALUE PUSH2 0xF0 JUMPI ADDRESS PUSH1 0x80 MSTORE CALLER PUSH1 0xA0 MSTORE PUSH1 0x0 SLOAD SWAP1 PUSH1 0xFF DUP3 PUSH1 0x8 SHR AND PUSH2 0x9E JUMPI POP PUSH1 0xFF DUP1 DUP3 AND SUB PUSH2 0x63 JUMPI JUMPDEST PUSH1 0x40 MLOAD PUSH2 0x2529 SWAP1 DUP2 PUSH2 0xF6 DUP3 CODECOPY PUSH1 0x80 MLOAD DUP2 DUP2 DUP2 PUSH2 0x9EE ADD MSTORE DUP2 DUP2 PUSH2 0xB18 ADD MSTORE PUSH2 0x11C2 ADD MSTORE PUSH1 0xA0 MLOAD DUP2 DUP2 DUP2 PUSH2 0x459 ADD MSTORE PUSH2 0xE98 ADD MSTORE RETURN JUMPDEST PUSH1 0xFF SWAP1 DUP2 NOT AND OR PUSH1 0x0 SSTORE PUSH32 0x7F26B83FF96E1F2B6A682F133852F6798A09C465DA95921460CEFB3847402498 PUSH1 0x20 PUSH1 0x40 MLOAD PUSH1 0xFF DUP2 MSTORE LOG1 CODESIZE PUSH2 0x2D JUMP JUMPDEST PUSH3 0x461BCD PUSH1 0xE5 SHL DUP2 MSTORE PUSH1 0x20 PUSH1 0x4 DUP3 ADD MSTORE PUSH1 0x27 PUSH1 0x24 DUP3 ADD MSTORE PUSH32 0x496E697469616C697A61626C653A20636F6E747261637420697320696E697469 PUSH1 0x44 DUP3 ADD MSTORE PUSH7 0x616C697A696E67 PUSH1 0xC8 SHL PUSH1 0x64 DUP3 ADD MSTORE PUSH1 0x84 SWAP1 REVERT JUMPDEST PUSH1 0x0 DUP1 REVERT INVALID PUSH1 0x80 PUSH1 0x40 SWAP1 DUP1 DUP3 MSTORE PUSH1 0x4 SWAP1 DUP2 CALLDATASIZE LT ISZERO PUSH2 0x4E JUMPI JUMPDEST POP POP CALLDATASIZE ISZERO PUSH2 0x22 JUMPI CALLVALUE PUSH2 0x22 JUMPI STOP JUMPDEST MLOAD CALLVALUE DUP2 MSTORE PUSH32 0x6C703791F399558807424F489CCD811C72B4FF0B74AF547264FAD7C646776DF0 PUSH1 0x20 CALLER SWAP3 LOG2 STOP JUMPDEST PUSH1 0x0 SWAP2 DUP3 CALLDATALOAD PUSH1 0xE0 SHR SWAP2 DUP3 PUSH4 0x1FFC9A7 EQ PUSH2 0x184C JUMPI POP DUP2 PUSH4 0x1933868A EQ PUSH2 0x171F JUMPI DUP2 PUSH4 0x248A9CA3 EQ PUSH2 0x16F3 JUMPI DUP2 PUSH4 0x2B60C822 EQ PUSH2 0x16B0 JUMPI DUP2 PUSH4 0x2F2FF15D EQ PUSH2 0x1602 JUMPI DUP2 PUSH4 0x338B5DEA EQ PUSH2 0x1533 JUMPI DUP2 PUSH4 0x36568ABE EQ PUSH2 0x14A2 JUMPI DUP2 PUSH4 0x3659CFE6 EQ PUSH2 0x119A JUMPI DUP2 PUSH4 0x3F4BA83A EQ PUSH2 0x1103 JUMPI DUP2 PUSH4 0x485CC955 EQ PUSH2 0xE36 JUMPI DUP2 PUSH4 0x4F1EF286 EQ PUSH2 0xA9B JUMPI DUP2 PUSH4 0x52D1902D EQ PUSH2 0x9D8 JUMPI DUP2 PUSH4 0x5C975ABB EQ PUSH2 0x9B4 JUMPI DUP2 PUSH4 0x68C4AC26 EQ PUSH2 0x975 JUMPI DUP2 PUSH4 0x6D69FCAF EQ PUSH2 0x7E4 JUMPI DUP2 PUSH4 0x6E947298 EQ PUSH2 0x7C9 JUMPI DUP2 PUSH4 0x76319190 EQ PUSH2 0x63F JUMPI DUP2 PUSH4 0x76C751C6 EQ PUSH2 0x52B JUMPI DUP2 PUSH4 0x8456CB59 EQ PUSH2 0x4D0 JUMPI DUP2 PUSH4 0x91D14854 EQ PUSH2 0x488 JUMPI DUP2 PUSH4 0x9E85F9AA EQ PUSH2 0x444 JUMPI DUP2 PUSH4 0xA217FDDF EQ PUSH2 0x429 JUMPI DUP2 PUSH4 0xB588D225 EQ PUSH2 0x395 JUMPI DUP2 PUSH4 0xBA7C0957 EQ PUSH2 0x379 JUMPI DUP2 PUSH4 0xBEBC2145 EQ PUSH2 0x354 JUMPI DUP2 PUSH4 0xC8F50B4C EQ PUSH2 0x32B JUMPI DUP2 PUSH4 0xD33219B4 EQ PUSH2 0x301 JUMPI DUP2 PUSH4 0xD3C7C2C7 EQ PUSH2 0x238 JUMPI DUP2 PUSH4 0xD547741F EQ PUSH2 0x1F5 JUMPI POP PUSH4 0xD7E84FBF EQ PUSH2 0x1A8 JUMPI DUP1 PUSH2 0x13 JUMP JUMPDEST SWAP1 CALLVALUE PUSH2 0x1F1 JUMPI DUP2 PUSH1 0x3 NOT CALLDATASIZE ADD SLT PUSH2 0x1F1 JUMPI DUP1 MLOAD PUSH2 0x1ED SWAP2 PUSH2 0x1C8 DUP3 PUSH2 0x194F JUMP JUMPDEST PUSH1 0xE DUP3 MSTORE PUSH14 0x544F50415920444556205445414D PUSH1 0x90 SHL PUSH1 0x20 DUP4 ADD MSTORE MLOAD SWAP2 DUP3 SWAP2 DUP3 PUSH2 0x19E8 JUMP JUMPDEST SUB SWAP1 RETURN JUMPDEST POP DUP1 REVERT JUMPDEST SWAP1 POP DUP3 CALLVALUE PUSH2 0x234 JUMPI DUP1 PUSH1 0x3 NOT CALLDATASIZE ADD SLT PUSH2 0x234 JUMPI PUSH2 0x231 SWAP2 CALLDATALOAD PUSH2 0x22C PUSH1 0x1 PUSH2 0x21A PUSH2 0x18EC JUMP JUMPDEST SWAP4 DUP4 DUP8 MSTORE PUSH1 0xFB PUSH1 0x20 MSTORE DUP7 KECCAK256 ADD SLOAD PUSH2 0x1E40 JUMP JUMPDEST PUSH2 0x20BD JUMP JUMPDEST DUP1 RETURN JUMPDEST DUP3 DUP1 REVERT JUMPDEST POP POP CALLVALUE PUSH2 0x2FE JUMPI DUP1 PUSH1 0x3 NOT CALLDATASIZE ADD SLT PUSH2 0x2FE JUMPI SWAP1 DUP1 MLOAD SWAP2 DUP3 SWAP1 PUSH2 0x12F SWAP2 DUP3 SLOAD DUP1 DUP7 MSTORE PUSH1 0x20 DUP1 SWAP7 ADD SWAP1 DUP2 SWAP5 DUP5 MSTORE PUSH32 0x232DA9E50DAD2971456A78FB5CD6FF6B75019984D6E918139CE990999420F979 SWAP1 DUP5 JUMPDEST DUP2 DUP2 LT PUSH2 0x2E1 JUMPI POP POP POP DUP2 PUSH2 0x29D SWAP2 SUB DUP3 PUSH2 0x1987 JUMP JUMPDEST DUP4 MLOAD SWAP5 DUP6 SWAP5 DUP2 DUP7 ADD SWAP3 DUP3 DUP8 MSTORE MLOAD DUP1 SWAP4 MSTORE DUP6 ADD SWAP4 SWAP3 JUMPDEST DUP3 DUP2 LT PUSH2 0x2C1 JUMPI POP POP POP POP SUB SWAP1 RETURN JUMPDEST DUP4 MLOAD PUSH1 0x1 PUSH1 0x1 PUSH1 0xA0 SHL SUB AND DUP6 MSTORE DUP7 SWAP6 POP SWAP4 DUP2 ADD SWAP4 SWAP3 DUP2 ADD SWAP3 PUSH1 0x1 ADD PUSH2 0x2B2 JUMP JUMPDEST DUP3 SLOAD PUSH1 0x1 PUSH1 0x1 PUSH1 0xA0 SHL SUB AND DUP5 MSTORE SWAP3 DUP9 ADD SWAP3 PUSH1 0x1 SWAP3 DUP4 ADD SWAP3 ADD PUSH2 0x287 JUMP JUMPDEST DUP1 REVERT JUMPDEST DUP3 DUP5 CALLVALUE PUSH2 0x1F1 JUMPI DUP2 PUSH1 0x3 NOT CALLDATASIZE ADD SLT PUSH2 0x1F1 JUMPI PUSH2 0x12D SLOAD SWAP1 MLOAD PUSH1 0x1 PUSH1 0x1 PUSH1 0xA0 SHL SUB SWAP1 SWAP2 AND DUP2 MSTORE PUSH1 0x20 SWAP1 RETURN JUMPDEST DUP3 DUP5 CALLVALUE PUSH2 0x1F1 JUMPI DUP2 PUSH1 0x3 NOT CALLDATASIZE ADD SLT PUSH2 0x1F1 JUMPI PUSH1 0x20 SWAP1 MLOAD PUSH1 0x0 DUP1 MLOAD PUSH1 0x20 PUSH2 0x24B4 DUP4 CODECOPY DUP2 MLOAD SWAP2 MSTORE DUP2 MSTORE RETURN JUMPDEST DUP3 DUP5 CALLVALUE PUSH2 0x1F1 JUMPI DUP2 PUSH1 0x3 NOT CALLDATASIZE ADD SLT PUSH2 0x1F1 JUMPI PUSH1 0x20 SWAP1 PUSH1 0xFF PUSH2 0x130 SLOAD AND SWAP1 MLOAD SWAP1 ISZERO ISZERO DUP2 MSTORE RETURN JUMPDEST DUP3 DUP5 CALLVALUE PUSH2 0x1F1 JUMPI DUP2 PUSH1 0x3 NOT CALLDATASIZE ADD SLT PUSH2 0x1F1 JUMPI PUSH1 0x20 SWAP1 MLOAD PUSH1 0x32 DUP2 MSTORE RETURN JUMPDEST DUP3 DUP5 CALLVALUE PUSH2 0x1F1 JUMPI PUSH1 0x20 SWAP3 DUP4 PUSH1 0x3 NOT CALLDATASIZE ADD SLT PUSH2 0x234 JUMPI DUP4 PUSH1 0x1 PUSH1 0x1 PUSH1 0xA0 SHL SUB PUSH2 0x3BB PUSH2 0x1907 JUMP JUMPDEST AND SWAP2 PUSH1 0x24 DUP5 MLOAD DUP1 SWAP5 DUP2 SWAP4 PUSH4 0x70A08231 PUSH1 0xE0 SHL DUP4 MSTORE ADDRESS SWAP1 DUP4 ADD MSTORE GAS STATICCALL SWAP3 DUP4 ISZERO PUSH2 0x41E JUMPI DUP1 SWAP4 PUSH2 0x3EC JUMPI JUMPDEST POP POP MLOAD SWAP1 DUP2 MSTORE RETURN JUMPDEST SWAP1 SWAP2 SWAP3 POP DUP4 DUP3 DUP2 RETURNDATASIZE DUP4 GT PUSH2 0x417 JUMPI JUMPDEST PUSH2 0x405 DUP2 DUP4 PUSH2 0x1987 JUMP JUMPDEST DUP2 ADD SUB SLT PUSH2 0x2FE JUMPI POP MLOAD SWAP1 DUP4 DUP1 PUSH2 0x3E4 JUMP JUMPDEST POP RETURNDATASIZE PUSH2 0x3FB JUMP JUMPDEST DUP3 MLOAD SWAP1 RETURNDATASIZE SWAP1 DUP3 RETURNDATACOPY RETURNDATASIZE SWAP1 REVERT JUMPDEST DUP3 DUP5 CALLVALUE PUSH2 0x1F1 JUMPI DUP2 PUSH1 0x3 NOT CALLDATASIZE ADD SLT PUSH2 0x1F1 JUMPI MLOAD SWAP1 DUP2 MSTORE PUSH1 0x20 SWAP1 RETURN JUMPDEST DUP3 DUP5 CALLVALUE PUSH2 0x1F1 JUMPI DUP2 PUSH1 0x3 NOT CALLDATASIZE ADD SLT PUSH2 0x1F1 JUMPI MLOAD PUSH32 0x0 PUSH1 0x1 PUSH1 0x1 PUSH1 0xA0 SHL SUB AND DUP2 MSTORE PUSH1 0x20 SWAP1 RETURN JUMPDEST DUP4 SWAP2 POP CALLVALUE PUSH2 0x234 JUMPI DUP2 PUSH1 0x3 NOT CALLDATASIZE ADD SLT PUSH2 0x234 JUMPI DUP2 PUSH1 0x20 SWAP4 PUSH1 0xFF SWAP3 PUSH2 0x4AA PUSH2 0x18EC JUMP JUMPDEST SWAP1 CALLDATALOAD DUP3 MSTORE PUSH1 0xFB DUP7 MSTORE DUP3 DUP3 KECCAK256 PUSH1 0x1 PUSH1 0x1 PUSH1 0xA0 SHL SUB SWAP1 SWAP2 AND DUP3 MSTORE DUP6 MSTORE KECCAK256 SLOAD SWAP2 MLOAD SWAP2 AND ISZERO ISZERO DUP2 MSTORE RETURN JUMPDEST DUP3 DUP5 CALLVALUE PUSH2 0x1F1 JUMPI DUP2 PUSH1 0x3 NOT CALLDATASIZE ADD SLT PUSH2 0x1F1 JUMPI PUSH1 0x20 PUSH32 0x62E78CEA01BEE320CD4E420270B5EA74000D11B0C9F74754EBDBFC544B05A258 SWAP2 PUSH2 0x50E PUSH2 0x1C3B JUMP JUMPDEST PUSH2 0x516 PUSH2 0x1F4B JUMP JUMPDEST PUSH1 0x1 PUSH1 0xFF NOT PUSH1 0x33 SLOAD AND OR PUSH1 0x33 SSTORE MLOAD CALLER DUP2 MSTORE LOG1 DUP1 RETURN JUMPDEST SWAP1 POP DUP3 CALLVALUE PUSH2 0x234 JUMPI PUSH1 0x60 CALLDATASIZE PUSH1 0x3 NOT ADD SLT PUSH2 0x234 JUMPI PUSH2 0x547 PUSH2 0x1907 JUMP JUMPDEST PUSH2 0x54F PUSH2 0x18EC JUMP JUMPDEST SWAP2 PUSH1 0x44 CALLDATALOAD SWAP2 PUSH2 0x55C PUSH2 0x1C3B JUMP JUMPDEST PUSH2 0x564 PUSH2 0x1F4B JUMP JUMPDEST PUSH1 0x1 PUSH1 0x1 PUSH1 0xA0 SHL SUB SWAP1 DUP2 AND DUP1 DUP8 MSTORE PUSH2 0x12E PUSH1 0x20 MSTORE DUP3 DUP8 KECCAK256 SLOAD SWAP1 SWAP5 SWAP1 PUSH2 0x58B SWAP1 PUSH1 0xFF AND PUSH2 0x1B37 JUMP JUMPDEST AND SWAP4 PUSH2 0x598 DUP6 ISZERO ISZERO PUSH2 0x1A14 JUMP JUMPDEST PUSH2 0x5A3 DUP4 ISZERO ISZERO PUSH2 0x1A60 JUMP JUMPDEST PUSH2 0x5B9 PUSH10 0xD3C21BCECCEDA1000000 DUP5 GT ISZERO PUSH2 0x1AAB JUMP JUMPDEST DUP2 MLOAD SWAP1 PUSH4 0xA9059CBB PUSH1 0xE0 SHL PUSH1 0x20 DUP4 ADD MSTORE DUP6 PUSH1 0x24 DUP4 ADD MSTORE DUP4 PUSH1 0x44 DUP4 ADD MSTORE PUSH1 0x44 DUP3 MSTORE PUSH1 0x80 DUP3 ADD SWAP1 DUP3 DUP3 LT PUSH8 0xFFFFFFFFFFFFFFFF DUP4 GT OR PUSH2 0x62C JUMPI POP SWAP2 PUSH2 0x624 PUSH32 0x6337ED398C0E8467698C581374FDCE4DB14922DF487B5A39483079F5F59B60A4 SWAP5 SWAP3 PUSH1 0x20 SWAP5 DUP4 MSTORE DUP7 PUSH2 0x2193 JUMP JUMPDEST MLOAD SWAP1 DUP2 MSTORE LOG3 DUP1 RETURN JUMPDEST PUSH4 0x4E487B71 PUSH1 0xE0 SHL DUP9 MSTORE PUSH1 0x41 SWAP1 MSTORE PUSH1 0x24 DUP8 REVERT JUMPDEST SWAP1 POP DUP3 CALLVALUE PUSH2 0x234 JUMPI PUSH1 0x20 CALLDATASIZE PUSH1 0x3 NOT ADD SLT PUSH2 0x234 JUMPI PUSH2 0x65B PUSH2 0x1907 JUMP JUMPDEST SWAP1 PUSH2 0x664 PUSH2 0x1C3B JUMP JUMPDEST PUSH1 0x1 DUP1 PUSH1 0xA0 SHL SUB DUP1 SWAP3 AND SWAP2 DUP3 DUP6 MSTORE PUSH2 0x12E DUP1 PUSH1 0x20 MSTORE PUSH2 0x688 PUSH1 0xFF DUP5 DUP9 KECCAK256 SLOAD AND PUSH2 0x1B37 JUMP JUMPDEST DUP4 DUP7 MSTORE PUSH1 0x20 MSTORE DUP2 DUP6 KECCAK256 DUP1 SLOAD PUSH1 0xFF NOT AND SWAP1 SSTORE DUP5 JUMPDEST PUSH2 0x12F DUP1 SLOAD DUP1 DUP4 LT ISZERO PUSH2 0x799 JUMPI SWAP1 DUP4 SWAP2 DUP7 PUSH2 0x6B5 DUP6 PUSH2 0x189F JUMP JUMPDEST SWAP5 SWAP1 SLOAD PUSH1 0x3 SWAP6 DUP7 SHL SHR AND EQ PUSH2 0x6CF JUMPI POP POP POP PUSH1 0x1 ADD PUSH2 0x69B JUMP JUMPDEST SWAP2 SWAP5 SWAP6 SWAP7 SWAP1 SWAP4 SWAP3 PUSH1 0x0 NOT SWAP3 DUP4 DUP2 ADD SWAP1 DUP2 GT PUSH2 0x786 JUMPI SWAP1 PUSH2 0x702 DUP6 PUSH2 0x6F5 PUSH2 0x720 SWAP5 PUSH2 0x189F JUMP JUMPDEST SWAP1 SLOAD SWAP1 DUP11 SHL SHR AND SWAP2 PUSH2 0x189F JUMP JUMPDEST SWAP1 SWAP2 SWAP1 PUSH1 0x1 DUP1 PUSH1 0xA0 SHL SUB DUP1 DUP5 SLOAD SWAP3 PUSH1 0x3 SHL SWAP4 AND DUP4 SHL SWAP3 SHL NOT AND OR SWAP1 SSTORE JUMP JUMPDEST DUP4 SLOAD SWAP1 DUP2 ISZERO PUSH2 0x773 JUMPI POP SWAP2 PUSH32 0xD86C88B4A367D9B81A6E00C9D3F7D01657BFFEF358FA8968C91C045AE99F0D52 SWAP6 SWAP4 SWAP2 PUSH1 0x20 SWAP6 SWAP4 ADD SWAP3 PUSH2 0x75E DUP5 PUSH2 0x189F JUMP JUMPDEST DUP2 SWAP4 SWAP2 SLOAD SWAP3 SHL SHL NOT AND SWAP1 SSTORE SSTORE JUMPDEST MLOAD DUP5 DUP2 MSTORE LOG2 DUP1 RETURN JUMPDEST PUSH4 0x4E487B71 PUSH1 0xE0 SHL DUP10 MSTORE PUSH1 0x31 SWAP1 MSTORE PUSH1 0x24 DUP9 REVERT JUMPDEST PUSH4 0x4E487B71 PUSH1 0xE0 SHL DUP11 MSTORE PUSH1 0x11 DUP4 MSTORE PUSH1 0x24 DUP11 REVERT JUMPDEST POP POP POP POP PUSH32 0xD86C88B4A367D9B81A6E00C9D3F7D01657BFFEF358FA8968C91C045AE99F0D52 SWAP2 SWAP3 POP PUSH1 0x20 SWAP1 PUSH2 0x76B JUMP JUMPDEST DUP3 DUP5 CALLVALUE PUSH2 0x1F1 JUMPI DUP2 PUSH1 0x3 NOT CALLDATASIZE ADD SLT PUSH2 0x1F1 JUMPI MLOAD SELFBALANCE DUP2 MSTORE PUSH1 0x20 SWAP1 RETURN JUMPDEST DUP3 DUP5 CALLVALUE PUSH2 0x1F1 JUMPI PUSH1 0x20 DUP1 PUSH1 0x3 NOT CALLDATASIZE ADD SLT PUSH2 0x234 JUMPI PUSH2 0x800 PUSH2 0x1907 JUMP JUMPDEST SWAP2 PUSH2 0x809 PUSH2 0x1C3B JUMP JUMPDEST PUSH1 0x1 PUSH1 0x1 PUSH1 0xA0 SHL SUB DUP4 AND SWAP3 DUP4 ISZERO PUSH2 0x93A JUMPI DUP4 DUP6 MSTORE PUSH2 0x12E DUP1 DUP5 MSTORE PUSH1 0xFF DUP4 DUP8 KECCAK256 SLOAD AND PUSH2 0x8F7 JUMPI PUSH2 0x12F SWAP1 PUSH1 0x32 DUP3 SLOAD LT ISZERO PUSH2 0x8B6 JUMPI DUP6 DUP8 MSTORE DUP5 MSTORE DUP3 DUP7 KECCAK256 DUP1 SLOAD PUSH1 0xFF NOT AND PUSH1 0x1 OR SWAP1 SSTORE DUP1 SLOAD SWAP1 PUSH9 0x10000000000000000 DUP3 LT ISZERO PUSH2 0x8A3 JUMPI SWAP2 PUSH2 0x702 DUP3 PUSH32 0xD86C88B4A367D9B81A6E00C9D3F7D01657BFFEF358FA8968C91C045AE99F0D52 SWAP7 SWAP6 SWAP5 PUSH1 0x1 PUSH2 0x89A SWAP6 ADD SWAP1 SSTORE PUSH2 0x189F JUMP JUMPDEST MLOAD PUSH1 0x1 DUP2 MSTORE LOG2 DUP1 RETURN JUMPDEST PUSH4 0x4E487B71 PUSH1 0xE0 SHL DUP8 MSTORE PUSH1 0x41 DUP9 MSTORE PUSH1 0x24 DUP8 REVERT JUMPDEST PUSH1 0x64 DUP9 DUP7 DUP1 DUP8 MLOAD SWAP3 PUSH3 0x461BCD PUSH1 0xE5 SHL DUP5 MSTORE DUP4 ADD MSTORE PUSH1 0x24 DUP3 ADD MSTORE PUSH32 0x4D6178696D756D20737570706F7274656420746F6B656E732072656163686564 PUSH1 0x44 DUP3 ADD MSTORE REVERT JUMPDEST DUP3 MLOAD PUSH3 0x461BCD PUSH1 0xE5 SHL DUP2 MSTORE DUP1 DUP9 ADD DUP6 SWAP1 MSTORE PUSH1 0x17 PUSH1 0x24 DUP3 ADD MSTORE PUSH32 0x546F6B656E20616C726561647920737570706F72746564000000000000000000 PUSH1 0x44 DUP3 ADD MSTORE PUSH1 0x64 SWAP1 REVERT JUMPDEST DUP2 MLOAD PUSH3 0x461BCD PUSH1 0xE5 SHL DUP2 MSTORE DUP1 DUP8 ADD DUP5 SWAP1 MSTORE PUSH1 0x15 PUSH1 0x24 DUP3 ADD MSTORE PUSH21 0x496E76616C696420746F6B656E2061646472657373 PUSH1 0x58 SHL PUSH1 0x44 DUP3 ADD MSTORE PUSH1 0x64 SWAP1 REVERT JUMPDEST DUP3 DUP5 CALLVALUE PUSH2 0x1F1 JUMPI PUSH1 0x20 CALLDATASIZE PUSH1 0x3 NOT ADD SLT PUSH2 0x1F1 JUMPI PUSH1 0x20 SWAP2 PUSH1 0xFF SWAP1 DUP3 SWAP1 PUSH1 0x1 PUSH1 0x1 PUSH1 0xA0 SHL SUB PUSH2 0x9A0 PUSH2 0x1907 JUMP JUMPDEST AND DUP2 MSTORE PUSH2 0x12E DUP6 MSTORE KECCAK256 SLOAD AND SWAP1 MLOAD SWAP1 ISZERO ISZERO DUP2 MSTORE RETURN JUMPDEST DUP3 DUP5 CALLVALUE PUSH2 0x1F1 JUMPI DUP2 PUSH1 0x3 NOT CALLDATASIZE ADD SLT PUSH2 0x1F1 JUMPI PUSH1 0x20 SWAP1 PUSH1 0xFF PUSH1 0x33 SLOAD AND SWAP1 MLOAD SWAP1 ISZERO ISZERO DUP2 MSTORE RETURN JUMPDEST SWAP2 SWAP1 POP CALLVALUE PUSH2 0x2FE JUMPI DUP1 PUSH1 0x3 NOT CALLDATASIZE ADD SLT PUSH2 0x2FE JUMPI POP PUSH32 0x0 PUSH1 0x1 PUSH1 0x1 PUSH1 0xA0 SHL SUB AND ADDRESS SUB PUSH2 0xA33 JUMPI PUSH1 0x20 DUP3 MLOAD PUSH1 0x0 DUP1 MLOAD PUSH1 0x20 PUSH2 0x24D4 DUP4 CODECOPY DUP2 MLOAD SWAP2 MSTORE DUP2 MSTORE RETURN JUMPDEST PUSH1 0x20 PUSH1 0x84 SWAP3 MLOAD SWAP2 PUSH3 0x461BCD PUSH1 0xE5 SHL DUP4 MSTORE DUP3 ADD MSTORE PUSH1 0x38 PUSH1 0x24 DUP3 ADD MSTORE PUSH32 0x555550535570677261646561626C653A206D757374206E6F742062652063616C PUSH1 0x44 DUP3 ADD MSTORE PUSH32 0x6C6564207468726F7567682064656C656761746563616C6C0000000000000000 PUSH1 0x64 DUP3 ADD MSTORE REVERT JUMPDEST DUP3 DUP5 DUP1 PUSH1 0x3 NOT CALLDATASIZE ADD SLT PUSH2 0x1F1 JUMPI PUSH2 0xAB0 PUSH2 0x1907 JUMP JUMPDEST SWAP1 PUSH1 0x24 SWAP1 DUP2 CALLDATALOAD SWAP1 PUSH8 0xFFFFFFFFFFFFFFFF DUP3 GT PUSH2 0xE32 JUMPI CALLDATASIZE PUSH1 0x23 DUP4 ADD SLT ISZERO PUSH2 0xE32 JUMPI DUP2 DUP7 ADD CALLDATALOAD SWAP2 PUSH2 0xADF DUP4 PUSH2 0x19A9 JUMP JUMPDEST SWAP1 PUSH2 0xAEC DUP4 MLOAD SWAP3 DUP4 PUSH2 0x1987 JUMP JUMPDEST DUP4 DUP3 MSTORE PUSH1 0x20 SWAP4 DUP5 DUP4 ADD SWAP2 CALLDATASIZE DUP8 DUP4 DUP4 ADD ADD GT PUSH2 0xE2E JUMPI DUP2 DUP10 SWAP3 DUP9 DUP9 SWAP4 ADD DUP6 CALLDATACOPY DUP5 ADD ADD MSTORE PUSH1 0x1 PUSH1 0x1 PUSH1 0xA0 SHL SUB PUSH32 0x0 DUP2 AND SWAP1 PUSH2 0xB46 ADDRESS DUP4 EQ ISZERO PUSH2 0x1B79 JUMP JUMPDEST PUSH2 0xB63 PUSH1 0x0 DUP1 MLOAD PUSH1 0x20 PUSH2 0x24D4 DUP4 CODECOPY DUP2 MLOAD SWAP2 MSTORE SWAP3 DUP3 DUP5 SLOAD AND EQ PUSH2 0x1BDA JUMP JUMPDEST PUSH2 0xB6B PUSH2 0x1C3B JUMP JUMPDEST DUP1 PUSH2 0x12D SLOAD AND CALLER SUB PUSH2 0xDF0 JUMPI PUSH1 0x0 DUP1 MLOAD PUSH1 0x20 PUSH2 0x24B4 DUP4 CODECOPY DUP2 MLOAD SWAP2 MSTORE DUP10 MSTORE PUSH1 0xFB DUP7 MSTORE DUP5 DUP10 KECCAK256 ORIGIN DUP11 MSTORE DUP7 MSTORE PUSH1 0xFF DUP6 DUP11 KECCAK256 SLOAD AND ISZERO PUSH2 0xDAE JUMPI PUSH32 0x4910FDFA16FED3260ED0E7147F7CC6DA11A60208B5B9406D12A635614FFD9143 SLOAD PUSH1 0xFF AND ISZERO PUSH2 0xBDC JUMPI POP POP POP POP POP POP POP PUSH2 0x231 SWAP2 SWAP3 POP PUSH2 0x2282 JUMP JUMPDEST DUP8 SWAP4 SWAP5 SWAP7 SWAP9 SWAP6 SWAP8 AND SWAP1 DUP7 MLOAD PUSH4 0x52D1902D PUSH1 0xE0 SHL DUP2 MSTORE DUP9 DUP2 DUP13 DUP2 DUP7 GAS STATICCALL DUP8 SWAP2 DUP2 PUSH2 0xD7B JUMPI JUMPDEST POP PUSH2 0xC5E JUMPI DUP8 MLOAD PUSH3 0x461BCD PUSH1 0xE5 SHL DUP2 MSTORE DUP1 DUP13 ADD DUP11 SWAP1 MSTORE PUSH1 0x2E DUP2 DUP13 ADD MSTORE PUSH32 0x45524331393637557067726164653A206E657720696D706C656D656E74617469 PUSH1 0x44 DUP3 ADD MSTORE PUSH14 0x6F6E206973206E6F742055555053 PUSH1 0x90 SHL PUSH1 0x64 DUP3 ADD MSTORE PUSH1 0x84 SWAP1 REVERT JUMPDEST SWAP10 SWAP3 SWAP5 SWAP9 SWAP2 SWAP4 SWAP7 SWAP6 SWAP10 SUB PUSH2 0xD27 JUMPI POP POP SWAP1 DUP7 SWAP3 SWAP2 PUSH2 0xC7B DUP6 PUSH2 0x2282 JUMP JUMPDEST PUSH32 0xBC7CD75A20EE27FD9ADEBAB32041F755214DBC6BFFA90CC0225B39DA2E5C2D3B DUP5 DUP1 LOG2 DUP6 MLOAD ISZERO DUP1 ISZERO SWAP1 PUSH2 0xD1F JUMPI JUMPDEST PUSH2 0xCB8 JUMPI JUMPDEST POP POP POP POP POP POP DUP1 RETURN JUMPDEST PUSH2 0xD13 SWAP6 PUSH7 0x819985A5B1959 PUSH1 0xCA SHL DUP4 PUSH32 0x416464726573733A206C6F772D6C6576656C2064656C65676174652063616C6C DUP7 SWAP6 MLOAD SWAP9 PUSH2 0xCF6 DUP11 PUSH2 0x191D JUMP JUMPDEST PUSH1 0x27 DUP11 MSTORE DUP10 ADD MSTORE DUP8 ADD MSTORE MLOAD SWAP1 DUP5 GAS DELEGATECALL PUSH2 0xD0D PUSH2 0x1B07 JUMP JUMPDEST SWAP2 PUSH2 0x2422 JUMP JUMPDEST POP DUP2 DUP1 DUP1 DUP4 DUP2 DUP1 PUSH2 0xCAF JUMP JUMPDEST POP PUSH1 0x1 PUSH2 0xCAA JUMP JUMPDEST DUP5 MLOAD PUSH3 0x461BCD PUSH1 0xE5 SHL DUP2 MSTORE SWAP2 DUP3 ADD DUP8 SWAP1 MSTORE PUSH1 0x29 SWAP1 DUP3 ADD MSTORE PUSH32 0x45524331393637557067726164653A20756E737570706F727465642070726F78 PUSH1 0x44 DUP3 ADD MSTORE PUSH9 0x1A58589B1955555251 PUSH1 0xBA SHL PUSH1 0x64 DUP3 ADD MSTORE PUSH1 0x84 SWAP1 REVERT JUMPDEST SWAP1 SWAP2 POP DUP10 DUP2 DUP2 RETURNDATASIZE DUP4 GT PUSH2 0xDA7 JUMPI JUMPDEST PUSH2 0xD93 DUP2 DUP4 PUSH2 0x1987 JUMP JUMPDEST DUP2 ADD SUB SLT PUSH2 0xDA3 JUMPI MLOAD SWAP1 DUP13 PUSH2 0xC00 JUMP JUMPDEST DUP8 DUP1 REVERT JUMPDEST POP RETURNDATASIZE PUSH2 0xD89 JUMP JUMPDEST DUP5 MLOAD PUSH3 0x461BCD PUSH1 0xE5 SHL DUP2 MSTORE DUP1 DUP12 ADD DUP8 SWAP1 MSTORE PUSH1 0x1F DUP2 DUP10 ADD MSTORE PUSH32 0x55706772616465207265717569726573206D756C74697369672061646D696E00 PUSH1 0x44 DUP3 ADD MSTORE PUSH1 0x64 SWAP1 REVERT JUMPDEST DUP5 MLOAD PUSH3 0x461BCD PUSH1 0xE5 SHL DUP2 MSTORE DUP1 DUP12 ADD DUP8 SWAP1 MSTORE PUSH1 0x19 DUP2 DUP10 ADD MSTORE PUSH25 0x55706772616465206F6E6C79207669612074696D656C6F636B PUSH1 0x38 SHL PUSH1 0x44 DUP3 ADD MSTORE PUSH1 0x64 SWAP1 REVERT JUMPDEST DUP9 DUP1 REVERT JUMPDEST DUP5 DUP1 REVERT JUMPDEST DUP4 SWAP2 POP CALLVALUE PUSH2 0x234 JUMPI DUP2 PUSH1 0x3 NOT CALLDATASIZE ADD SLT PUSH2 0x234 JUMPI PUSH2 0xE51 PUSH2 0x1907 JUMP JUMPDEST SWAP1 PUSH2 0xE5A PUSH2 0x18EC JUMP JUMPDEST SWAP3 DUP5 SLOAD PUSH1 0xFF DUP2 PUSH1 0x8 SHR AND ISZERO SWAP4 DUP5 DUP1 SWAP6 PUSH2 0x10F6 JUMPI JUMPDEST DUP1 ISZERO PUSH2 0x10DF JUMPI JUMPDEST ISZERO PUSH2 0x1085 JUMPI PUSH1 0xFF NOT DUP3 DUP2 AND PUSH1 0x1 OR DUP9 SSTORE SWAP2 DUP6 PUSH2 0x1074 JUMPI JUMPDEST POP PUSH1 0x1 PUSH1 0x1 PUSH1 0xA0 SHL SUB SWAP1 PUSH32 0x0 DUP3 AND CALLER SUB PUSH2 0x1031 JUMPI DUP2 DUP2 AND SWAP7 DUP8 ISZERO PUSH2 0xFF6 JUMPI DUP3 AND SWAP5 DUP6 ISZERO PUSH2 0xFB3 JUMPI POP SWAP1 PUSH2 0xF44 SWAP2 PUSH2 0xF0B PUSH1 0xFF DUP11 SLOAD PUSH1 0x8 SHR AND PUSH2 0xEEC DUP2 PUSH2 0x2133 JUMP JUMPDEST PUSH2 0xEF5 DUP2 PUSH2 0x2133 JUMP JUMPDEST PUSH2 0xEFE DUP2 PUSH2 0x2133 JUMP JUMPDEST DUP6 PUSH1 0x33 SLOAD AND PUSH1 0x33 SSTORE PUSH2 0x2133 JUMP JUMPDEST PUSH2 0x12D DUP1 SLOAD PUSH1 0x1 PUSH1 0x1 PUSH1 0xA0 SHL SUB NOT AND DUP8 OR DUP2 SSTORE SWAP1 PUSH2 0xF31 SWAP1 PUSH2 0xF2C DUP2 PUSH2 0x1F8F JUMP JUMPDEST PUSH2 0x201E JUMP JUMPDEST PUSH2 0xF3D DUP3 DUP3 SLOAD AND PUSH2 0x1F8F JUMP JUMPDEST SLOAD AND PUSH2 0x201E JUMP JUMPDEST PUSH1 0x1 PUSH2 0x130 SWAP2 DUP3 SLOAD AND OR SWAP1 SSTORE MLOAD SWAP3 PUSH32 0x28C014722FC954327ED915FA752532701BAA2AB85333078B3442D2F3E9E9306A DUP6 DUP1 LOG3 PUSH2 0xF7E JUMPI POP DUP1 RETURN JUMPDEST PUSH1 0x20 PUSH32 0x7F26B83FF96E1F2B6A682F133852F6798A09C465DA95921460CEFB3847402498 SWAP2 PUSH2 0xFF00 NOT DUP5 SLOAD AND DUP5 SSTORE PUSH1 0x1 DUP2 MSTORE LOG1 DUP1 RETURN JUMPDEST PUSH1 0x64 SWAP1 PUSH1 0x20 DUP7 MLOAD SWAP2 PUSH3 0x461BCD PUSH1 0xE5 SHL DUP4 MSTORE DUP3 ADD MSTORE PUSH1 0x18 PUSH1 0x24 DUP3 ADD MSTORE PUSH32 0x496E76616C69642074696D656C6F636B20616464726573730000000000000000 PUSH1 0x44 DUP3 ADD MSTORE REVERT JUMPDEST DUP5 MLOAD PUSH3 0x461BCD PUSH1 0xE5 SHL DUP2 MSTORE PUSH1 0x20 DUP2 DUP9 ADD MSTORE PUSH1 0x15 PUSH1 0x24 DUP3 ADD MSTORE PUSH21 0x496E76616C69642061646D696E2061646472657373 PUSH1 0x58 SHL PUSH1 0x44 DUP3 ADD MSTORE PUSH1 0x64 SWAP1 REVERT JUMPDEST DUP4 MLOAD PUSH3 0x461BCD PUSH1 0xE5 SHL DUP2 MSTORE PUSH1 0x20 DUP2 DUP8 ADD MSTORE PUSH1 0x18 PUSH1 0x24 DUP3 ADD MSTORE PUSH32 0x556E617574686F72697A656420696E697469616C697A65720000000000000000 PUSH1 0x44 DUP3 ADD MSTORE PUSH1 0x64 SWAP1 REVERT JUMPDEST PUSH2 0xFFFF NOT AND PUSH2 0x101 OR DUP8 SSTORE DUP8 PUSH2 0xE8C JUMP JUMPDEST DUP3 MLOAD PUSH3 0x461BCD PUSH1 0xE5 SHL DUP2 MSTORE PUSH1 0x20 DUP2 DUP7 ADD MSTORE PUSH1 0x2E PUSH1 0x24 DUP3 ADD MSTORE PUSH32 0x496E697469616C697A61626C653A20636F6E747261637420697320616C726561 PUSH1 0x44 DUP3 ADD MSTORE PUSH14 0x191E481A5B9A5D1A585B1A5E9959 PUSH1 0x92 SHL PUSH1 0x64 DUP3 ADD MSTORE PUSH1 0x84 SWAP1 REVERT JUMPDEST POP ADDRESS EXTCODESIZE ISZERO DUP1 ISZERO PUSH2 0xE75 JUMPI POP PUSH1 0x1 PUSH1 0xFF DUP4 AND EQ PUSH2 0xE75 JUMP JUMPDEST POP PUSH1 0x1 PUSH1 0xFF DUP4 AND LT PUSH2 0xE6E JUMP JUMPDEST DUP4 SWAP2 POP CALLVALUE PUSH2 0x234 JUMPI DUP3 PUSH1 0x3 NOT CALLDATASIZE ADD SLT PUSH2 0x234 JUMPI PUSH2 0x111E PUSH2 0x1C3B JUMP JUMPDEST PUSH1 0x33 SLOAD SWAP1 PUSH1 0xFF DUP3 AND ISZERO PUSH2 0x1160 JUMPI POP PUSH1 0xFF NOT AND PUSH1 0x33 SSTORE MLOAD CALLER DUP2 MSTORE PUSH32 0x5DB9EE0A495BF2E6FF9C91A7834C1BA4FDD244A5E8AA4E537BD38AEAE4B073AA SWAP1 PUSH1 0x20 SWAP1 LOG1 DUP1 RETURN JUMPDEST PUSH1 0x64 SWAP1 PUSH1 0x20 DUP5 MLOAD SWAP2 PUSH3 0x461BCD PUSH1 0xE5 SHL DUP4 MSTORE DUP3 ADD MSTORE PUSH1 0x14 PUSH1 0x24 DUP3 ADD MSTORE PUSH20 0x14185D5CD8589B194E881B9BDD081C185D5CD959 PUSH1 0x62 SHL PUSH1 0x44 DUP3 ADD MSTORE REVERT JUMPDEST SWAP1 POP DUP3 CALLVALUE PUSH2 0x234 JUMPI PUSH1 0x20 DUP1 PUSH1 0x3 NOT CALLDATASIZE ADD SLT PUSH2 0x149E JUMPI PUSH2 0x11B7 PUSH2 0x1907 JUMP JUMPDEST SWAP2 PUSH1 0x1 PUSH1 0x1 PUSH1 0xA0 SHL SUB PUSH32 0x0 DUP2 AND SWAP1 PUSH2 0x11F0 ADDRESS DUP4 EQ ISZERO PUSH2 0x1B79 JUMP JUMPDEST PUSH2 0x120D PUSH1 0x0 DUP1 MLOAD PUSH1 0x20 PUSH2 0x24D4 DUP4 CODECOPY DUP2 MLOAD SWAP2 MSTORE SWAP3 DUP3 DUP5 SLOAD AND EQ PUSH2 0x1BDA JUMP JUMPDEST PUSH2 0x1215 PUSH2 0x1C3B JUMP JUMPDEST DUP1 PUSH2 0x12D SLOAD AND CALLER SUB PUSH2 0x145F JUMPI PUSH1 0x0 DUP1 MLOAD PUSH1 0x20 PUSH2 0x24B4 DUP4 CODECOPY DUP2 MLOAD SWAP2 MSTORE DUP8 MSTORE PUSH1 0xFB DUP5 MSTORE DUP3 DUP8 KECCAK256 ORIGIN DUP9 MSTORE DUP5 MSTORE PUSH1 0xFF DUP4 DUP9 KECCAK256 SLOAD AND ISZERO PUSH2 0x141C JUMPI DUP3 MLOAD SWAP2 DUP5 DUP4 ADD SWAP2 DUP4 DUP4 LT PUSH8 0xFFFFFFFFFFFFFFFF DUP5 GT OR PUSH2 0x1409 JUMPI DUP3 DUP6 MSTORE DUP9 DUP5 MSTORE PUSH32 0x4910FDFA16FED3260ED0E7147F7CC6DA11A60208B5B9406D12A635614FFD9143 SLOAD PUSH1 0xFF AND ISZERO PUSH2 0x12A4 JUMPI POP POP POP POP POP POP PUSH2 0x231 SWAP2 POP PUSH2 0x2282 JUMP JUMPDEST DUP7 SWAP4 SWAP5 SWAP6 SWAP7 AND SWAP1 DUP6 MLOAD PUSH4 0x52D1902D PUSH1 0xE0 SHL DUP2 MSTORE DUP8 DUP2 DUP11 DUP2 DUP7 GAS STATICCALL DUP11 SWAP2 DUP2 PUSH2 0x13D6 JUMPI JUMPDEST POP PUSH2 0x1325 JUMPI DUP7 MLOAD PUSH3 0x461BCD PUSH1 0xE5 SHL DUP2 MSTORE DUP1 DUP11 ADD DUP10 SWAP1 MSTORE PUSH1 0x2E PUSH1 0x24 DUP3 ADD MSTORE PUSH32 0x45524331393637557067726164653A206E657720696D706C656D656E74617469 PUSH1 0x44 DUP3 ADD MSTORE PUSH14 0x6F6E206973206E6F742055555053 PUSH1 0x90 SHL PUSH1 0x64 DUP3 ADD MSTORE PUSH1 0x84 SWAP1 REVERT JUMPDEST SWAP8 SWAP2 SWAP3 SWAP4 SWAP6 SWAP5 SWAP8 SUB PUSH2 0x1381 JUMPI POP SWAP1 DUP7 SWAP3 SWAP2 PUSH2 0x133F DUP6 PUSH2 0x2282 JUMP JUMPDEST PUSH32 0xBC7CD75A20EE27FD9ADEBAB32041F755214DBC6BFFA90CC0225B39DA2E5C2D3B DUP5 DUP1 LOG2 DUP6 MLOAD ISZERO DUP1 ISZERO SWAP1 PUSH2 0x137A JUMPI PUSH2 0xCB8 JUMPI POP POP POP POP POP POP DUP1 RETURN JUMPDEST POP DUP3 PUSH2 0xCAA JUMP JUMPDEST DUP4 MLOAD PUSH3 0x461BCD PUSH1 0xE5 SHL DUP2 MSTORE SWAP1 DUP2 ADD DUP7 SWAP1 MSTORE PUSH1 0x29 PUSH1 0x24 DUP3 ADD MSTORE PUSH32 0x45524331393637557067726164653A20756E737570706F727465642070726F78 PUSH1 0x44 DUP3 ADD MSTORE PUSH9 0x1A58589B1955555251 PUSH1 0xBA SHL PUSH1 0x64 DUP3 ADD MSTORE PUSH1 0x84 SWAP1 REVERT JUMPDEST SWAP1 SWAP2 POP DUP9 DUP2 DUP2 RETURNDATASIZE DUP4 GT PUSH2 0x1402 JUMPI JUMPDEST PUSH2 0x13EE DUP2 DUP4 PUSH2 0x1987 JUMP JUMPDEST DUP2 ADD SUB SLT PUSH2 0x13FE JUMPI MLOAD SWAP1 DUP12 PUSH2 0x12C6 JUMP JUMPDEST DUP11 DUP1 REVERT JUMPDEST POP RETURNDATASIZE PUSH2 0x13E4 JUMP JUMPDEST PUSH4 0x4E487B71 PUSH1 0xE0 SHL DUP10 MSTORE PUSH1 0x41 DUP9 MSTORE PUSH1 0x24 DUP10 REVERT JUMPDEST DUP3 MLOAD PUSH3 0x461BCD PUSH1 0xE5 SHL DUP2 MSTORE DUP1 DUP8 ADD DUP6 SWAP1 MSTORE PUSH1 0x1F PUSH1 0x24 DUP3 ADD MSTORE PUSH32 0x55706772616465207265717569726573206D756C74697369672061646D696E00 PUSH1 0x44 DUP3 ADD MSTORE PUSH1 0x64 SWAP1 REVERT JUMPDEST DUP3 MLOAD PUSH3 0x461BCD PUSH1 0xE5 SHL DUP2 MSTORE DUP1 DUP8 ADD DUP6 SWAP1 MSTORE PUSH1 0x19 PUSH1 0x24 DUP3 ADD MSTORE PUSH25 0x55706772616465206F6E6C79207669612074696D656C6F636B PUSH1 0x38 SHL PUSH1 0x44 DUP3 ADD MSTORE PUSH1 0x64 SWAP1 REVERT JUMPDEST DUP4 DUP1 REVERT JUMPDEST SWAP1 POP CALLVALUE PUSH2 0x1F1 JUMPI DUP3 PUSH1 0x3 NOT CALLDATASIZE ADD SLT PUSH2 0x1F1 JUMPI PUSH2 0x14BC PUSH2 0x18EC JUMP JUMPDEST SWAP1 CALLER PUSH1 0x1 PUSH1 0x1 PUSH1 0xA0 SHL SUB DUP4 AND SUB PUSH2 0x14D8 JUMPI SWAP1 PUSH2 0x231 SWAP2 CALLDATALOAD PUSH2 0x20BD JUMP JUMPDEST PUSH1 0x84 SWAP1 PUSH1 0x20 DUP6 MLOAD SWAP2 PUSH3 0x461BCD PUSH1 0xE5 SHL DUP4 MSTORE DUP3 ADD MSTORE PUSH1 0x2F PUSH1 0x24 DUP3 ADD MSTORE PUSH32 0x416363657373436F6E74726F6C3A2063616E206F6E6C792072656E6F756E6365 PUSH1 0x44 DUP3 ADD MSTORE PUSH15 0x103937B632B9903337B91039B2B633 PUSH1 0x89 SHL PUSH1 0x64 DUP3 ADD MSTORE REVERT JUMPDEST DUP4 SWAP2 POP CALLVALUE PUSH2 0x234 JUMPI DUP2 PUSH1 0x3 NOT CALLDATASIZE ADD SLT PUSH2 0x234 JUMPI PUSH2 0x154E PUSH2 0x1907 JUMP JUMPDEST PUSH1 0x1 PUSH1 0x1 PUSH1 0xA0 SHL SUB AND DUP1 DUP5 MSTORE PUSH2 0x12E PUSH1 0x20 MSTORE DUP3 DUP5 KECCAK256 SLOAD PUSH1 0x24 CALLDATALOAD SWAP4 SWAP2 SWAP3 SWAP1 PUSH2 0x1577 SWAP1 PUSH1 0xFF AND PUSH2 0x1B37 JUMP JUMPDEST DUP2 MLOAD PUSH4 0x23B872DD PUSH1 0xE0 SHL PUSH1 0x20 DUP3 ADD MSTORE CALLER PUSH1 0x24 DUP3 ADD MSTORE ADDRESS PUSH1 0x44 DUP3 ADD MSTORE PUSH1 0x64 DUP1 DUP3 ADD DUP7 SWAP1 MSTORE DUP2 MSTORE SWAP1 PUSH1 0xA0 DUP3 ADD SWAP1 PUSH8 0xFFFFFFFFFFFFFFFF DUP3 GT DUP4 DUP4 LT OR PUSH2 0x15EF JUMPI POP DUP3 MSTORE PUSH2 0x15C2 SWAP1 DUP4 PUSH2 0x2193 JUMP JUMPDEST MLOAD SWAP2 DUP3 MSTORE PUSH32 0xCBC4A4091B012BB1329C38BBBB15455F5CAC5AA3673DA0A7F38CD61A4F495517 PUSH1 0x20 CALLER SWAP4 LOG3 DUP1 RETURN JUMPDEST PUSH4 0x4E487B71 PUSH1 0xE0 SHL DUP8 MSTORE PUSH1 0x41 SWAP1 MSTORE PUSH1 0x24 DUP7 REVERT JUMPDEST DUP4 SWAP2 POP CALLVALUE PUSH2 0x234 JUMPI DUP2 PUSH1 0x3 NOT CALLDATASIZE ADD SLT PUSH2 0x234 JUMPI CALLDATALOAD SWAP1 PUSH2 0x161F PUSH2 0x18EC JUMP JUMPDEST SWAP1 DUP3 DUP5 MSTORE PUSH1 0xFB PUSH1 0x20 MSTORE PUSH2 0x1637 PUSH1 0x1 DUP3 DUP7 KECCAK256 ADD SLOAD PUSH2 0x1E40 JUMP JUMPDEST DUP3 DUP5 MSTORE PUSH1 0xFB PUSH1 0x20 SWAP1 DUP2 MSTORE DUP2 DUP6 KECCAK256 PUSH1 0x1 PUSH1 0x1 PUSH1 0xA0 SHL SUB SWAP1 SWAP4 AND DUP1 DUP7 MSTORE SWAP3 SWAP1 MSTORE DUP1 DUP5 KECCAK256 SLOAD PUSH1 0xFF AND ISZERO PUSH2 0x1665 JUMPI DUP4 DUP1 RETURN JUMPDEST DUP3 DUP5 MSTORE PUSH1 0xFB PUSH1 0x20 MSTORE DUP1 DUP5 KECCAK256 DUP3 DUP6 MSTORE PUSH1 0x20 MSTORE DUP4 KECCAK256 PUSH1 0x1 PUSH1 0xFF NOT DUP3 SLOAD AND OR SWAP1 SSTORE CALLER SWAP2 PUSH32 0x2F8788117E7EFF1D82E926EC794901D17C78024A50270940304540A733656F0D DUP5 DUP1 LOG4 DUP2 DUP1 DUP1 DUP4 DUP1 RETURN JUMPDEST DUP4 SWAP2 POP CALLVALUE PUSH2 0x234 JUMPI PUSH1 0x20 CALLDATASIZE PUSH1 0x3 NOT ADD SLT PUSH2 0x234 JUMPI CALLDATALOAD SWAP2 PUSH2 0x12F SLOAD DUP4 LT ISZERO PUSH2 0x2FE JUMPI POP PUSH2 0x16DD PUSH1 0x20 SWAP3 PUSH2 0x189F JUMP JUMPDEST SWAP1 SLOAD SWAP2 MLOAD SWAP2 PUSH1 0x1 DUP1 PUSH1 0xA0 SHL SUB SWAP2 PUSH1 0x3 SHL SHR AND DUP2 MSTORE RETURN JUMPDEST DUP4 SWAP2 POP CALLVALUE PUSH2 0x234 JUMPI PUSH1 0x20 CALLDATASIZE PUSH1 0x3 NOT ADD SLT PUSH2 0x234 JUMPI DUP2 PUSH1 0x20 SWAP4 PUSH1 0x1 SWAP3 CALLDATALOAD DUP2 MSTORE PUSH1 0xFB DUP6 MSTORE KECCAK256 ADD SLOAD SWAP1 MLOAD SWAP1 DUP2 MSTORE RETURN JUMPDEST DUP4 SWAP2 POP CALLVALUE PUSH2 0x234 JUMPI DUP2 PUSH1 0x3 NOT CALLDATASIZE ADD SLT PUSH2 0x234 JUMPI DUP1 CALLDATALOAD PUSH1 0x1 PUSH1 0x1 PUSH1 0xA0 SHL SUB DUP2 AND SWAP3 SWAP1 DUP4 SWAP1 SUB PUSH2 0x149E JUMPI PUSH1 0x24 CALLDATALOAD SWAP2 PUSH2 0x1753 PUSH2 0x1C3B JUMP JUMPDEST PUSH2 0x175B PUSH2 0x1F4B JUMP JUMPDEST PUSH2 0x1766 DUP5 ISZERO ISZERO PUSH2 0x1A14 JUMP JUMPDEST PUSH2 0x1771 DUP4 ISZERO ISZERO PUSH2 0x1A60 JUMP JUMPDEST DUP3 SELFBALANCE LT PUSH2 0x180A JUMPI PUSH2 0x178E PUSH10 0xD3C21BCECCEDA1000000 DUP5 GT ISZERO PUSH2 0x1AAB JUMP JUMPDEST DUP5 DUP1 DUP1 DUP1 DUP7 DUP9 GAS CALL PUSH2 0x179E PUSH2 0x1B07 JUMP JUMPDEST POP ISZERO PUSH2 0x17D2 JUMPI POP PUSH32 0x94B2DE810873337ED265C5F8CF98C9CFFEFA06B8607F9A2F1FBAEBDFBCFBEF1C SWAP2 PUSH1 0x20 SWAP2 MLOAD SWAP1 DUP2 MSTORE LOG2 DUP1 RETURN JUMPDEST PUSH1 0x20 PUSH1 0x64 SWAP3 MLOAD SWAP2 PUSH3 0x461BCD PUSH1 0xE5 SHL DUP4 MSTORE DUP3 ADD MSTORE PUSH1 0x13 PUSH1 0x24 DUP3 ADD MSTORE PUSH19 0x115512081D1C985B9CD9995C8819985A5B1959 PUSH1 0x6A SHL PUSH1 0x44 DUP3 ADD MSTORE REVERT JUMPDEST PUSH1 0x20 PUSH1 0x64 SWAP3 MLOAD SWAP2 PUSH3 0x461BCD PUSH1 0xE5 SHL DUP4 MSTORE DUP3 ADD MSTORE PUSH1 0x18 PUSH1 0x24 DUP3 ADD MSTORE PUSH32 0x496E73756666696369656E74204554482062616C616E63650000000000000000 PUSH1 0x44 DUP3 ADD MSTORE REVERT JUMPDEST SWAP2 POP CALLVALUE PUSH2 0x234 JUMPI PUSH1 0x20 CALLDATASIZE PUSH1 0x3 NOT ADD SLT PUSH2 0x234 JUMPI CALLDATALOAD PUSH4 0xFFFFFFFF PUSH1 0xE0 SHL DUP2 AND DUP1 SWAP2 SUB PUSH2 0x234 JUMPI PUSH1 0x20 SWAP3 POP PUSH4 0x7965DB0B PUSH1 0xE0 SHL DUP2 EQ SWAP1 DUP2 ISZERO PUSH2 0x188E JUMPI JUMPDEST POP ISZERO ISZERO DUP2 MSTORE RETURN JUMPDEST PUSH4 0x1FFC9A7 PUSH1 0xE0 SHL EQ SWAP1 POP DUP4 PUSH2 0x1887 JUMP JUMPDEST PUSH2 0x12F DUP1 SLOAD DUP3 LT ISZERO PUSH2 0x18D6 JUMPI PUSH1 0x0 MSTORE PUSH32 0x232DA9E50DAD2971456A78FB5CD6FF6B75019984D6E918139CE990999420F979 ADD SWAP1 PUSH1 0x0 SWAP1 JUMP JUMPDEST PUSH4 0x4E487B71 PUSH1 0xE0 SHL PUSH1 0x0 MSTORE PUSH1 0x32 PUSH1 0x4 MSTORE PUSH1 0x24 PUSH1 0x0 REVERT JUMPDEST PUSH1 0x24 CALLDATALOAD SWAP1 PUSH1 0x1 PUSH1 0x1 PUSH1 0xA0 SHL SUB DUP3 AND DUP3 SUB PUSH2 0x1902 JUMPI JUMP JUMPDEST PUSH1 0x0 DUP1 REVERT JUMPDEST PUSH1 0x4 CALLDATALOAD SWAP1 PUSH1 0x1 PUSH1 0x1 PUSH1 0xA0 SHL SUB DUP3 AND DUP3 SUB PUSH2 0x1902 JUMPI JUMP JUMPDEST PUSH1 0x60 DUP2 ADD SWAP1 DUP2 LT PUSH8 0xFFFFFFFFFFFFFFFF DUP3 GT OR PUSH2 0x1939 JUMPI PUSH1 0x40 MSTORE JUMP JUMPDEST PUSH4 0x4E487B71 PUSH1 0xE0 SHL PUSH1 0x0 MSTORE PUSH1 0x41 PUSH1 0x4 MSTORE PUSH1 0x24 PUSH1 0x0 REVERT JUMPDEST PUSH1 0x40 DUP2 ADD SWAP1 DUP2 LT PUSH8 0xFFFFFFFFFFFFFFFF DUP3 GT OR PUSH2 0x1939 JUMPI PUSH1 0x40 MSTORE JUMP JUMPDEST PUSH1 0x80 DUP2 ADD SWAP1 DUP2 LT PUSH8 0xFFFFFFFFFFFFFFFF DUP3 GT OR PUSH2 0x1939 JUMPI PUSH1 0x40 MSTORE JUMP JUMPDEST SWAP1 PUSH1 0x1F DUP1 NOT SWAP2 ADD AND DUP2 ADD SWAP1 DUP2 LT PUSH8 0xFFFFFFFFFFFFFFFF DUP3 GT OR PUSH2 0x1939 JUMPI PUSH1 0x40 MSTORE JUMP JUMPDEST PUSH8 0xFFFFFFFFFFFFFFFF DUP2 GT PUSH2 0x1939 JUMPI PUSH1 0x1F ADD PUSH1 0x1F NOT AND PUSH1 0x20 ADD SWAP1 JUMP JUMPDEST PUSH1 0x0 JUMPDEST DUP4 DUP2 LT PUSH2 0x19D8 JUMPI POP POP PUSH1 0x0 SWAP2 ADD MSTORE JUMP JUMPDEST DUP2 DUP2 ADD MLOAD DUP4 DUP3 ADD MSTORE PUSH1 0x20 ADD PUSH2 0x19C8 JUMP JUMPDEST PUSH1 0x40 SWAP2 PUSH1 0x20 DUP3 MSTORE PUSH2 0x1A08 DUP2 MLOAD DUP1 SWAP3 DUP2 PUSH1 0x20 DUP7 ADD MSTORE PUSH1 0x20 DUP7 DUP7 ADD SWAP2 ADD PUSH2 0x19C5 JUMP JUMPDEST PUSH1 0x1F ADD PUSH1 0x1F NOT AND ADD ADD SWAP1 JUMP JUMPDEST ISZERO PUSH2 0x1A1B JUMPI JUMP JUMPDEST PUSH1 0x40 MLOAD PUSH3 0x461BCD PUSH1 0xE5 SHL DUP2 MSTORE PUSH1 0x20 PUSH1 0x4 DUP3 ADD MSTORE PUSH1 0x19 PUSH1 0x24 DUP3 ADD MSTORE PUSH32 0x496E76616C696420726563697069656E74206164647265737300000000000000 PUSH1 0x44 DUP3 ADD MSTORE PUSH1 0x64 SWAP1 REVERT JUMPDEST ISZERO PUSH2 0x1A67 JUMPI JUMP JUMPDEST PUSH1 0x64 PUSH1 0x40 MLOAD PUSH3 0x461BCD PUSH1 0xE5 SHL DUP2 MSTORE PUSH1 0x20 PUSH1 0x4 DUP3 ADD MSTORE PUSH1 0x20 PUSH1 0x24 DUP3 ADD MSTORE PUSH32 0x416D6F756E74206D7573742062652067726561746572207468616E207A65726F PUSH1 0x44 DUP3 ADD MSTORE REVERT JUMPDEST ISZERO PUSH2 0x1AB2 JUMPI JUMP JUMPDEST PUSH1 0x40 MLOAD PUSH3 0x461BCD PUSH1 0xE5 SHL DUP2 MSTORE PUSH1 0x20 PUSH1 0x4 DUP3 ADD MSTORE PUSH1 0x27 PUSH1 0x24 DUP3 ADD MSTORE PUSH32 0x416D6F756E742065786365656473206D6178696D756D20776974686472617761 PUSH1 0x44 DUP3 ADD MSTORE PUSH7 0x1B081B1A5B5A5D PUSH1 0xCA SHL PUSH1 0x64 DUP3 ADD MSTORE PUSH1 0x84 SWAP1 REVERT JUMPDEST RETURNDATASIZE ISZERO PUSH2 0x1B32 JUMPI RETURNDATASIZE SWAP1 PUSH2 0x1B18 DUP3 PUSH2 0x19A9 JUMP JUMPDEST SWAP2 PUSH2 0x1B26 PUSH1 0x40 MLOAD SWAP4 DUP5 PUSH2 0x1987 JUMP JUMPDEST DUP3 MSTORE RETURNDATASIZE PUSH1 0x0 PUSH1 0x20 DUP5 ADD RETURNDATACOPY JUMP JUMPDEST PUSH1 0x60 SWAP1 JUMP JUMPDEST ISZERO PUSH2 0x1B3E JUMPI JUMP JUMPDEST PUSH1 0x40 MLOAD PUSH3 0x461BCD PUSH1 0xE5 SHL DUP2 MSTORE PUSH1 0x20 PUSH1 0x4 DUP3 ADD MSTORE PUSH1 0x13 PUSH1 0x24 DUP3 ADD MSTORE PUSH19 0x151BDAD95B881B9BDD081CDD5C1C1BDC9D1959 PUSH1 0x6A SHL PUSH1 0x44 DUP3 ADD MSTORE PUSH1 0x64 SWAP1 REVERT JUMPDEST ISZERO PUSH2 0x1B80 JUMPI JUMP JUMPDEST PUSH1 0x40 MLOAD PUSH3 0x461BCD PUSH1 0xE5 SHL DUP2 MSTORE PUSH1 0x20 PUSH1 0x4 DUP3 ADD MSTORE PUSH1 0x2C PUSH1 0x24 DUP3 ADD MSTORE PUSH32 0x46756E6374696F6E206D7573742062652063616C6C6564207468726F75676820 PUSH1 0x44 DUP3 ADD MSTORE PUSH12 0x19195B1959D85D1958D85B1B PUSH1 0xA2 SHL PUSH1 0x64 DUP3 ADD MSTORE PUSH1 0x84 SWAP1 REVERT JUMPDEST ISZERO PUSH2 0x1BE1 JUMPI JUMP JUMPDEST PUSH1 0x40 MLOAD PUSH3 0x461BCD PUSH1 0xE5 SHL DUP2 MSTORE PUSH1 0x20 PUSH1 0x4 DUP3 ADD MSTORE PUSH1 0x2C PUSH1 0x24 DUP3 ADD MSTORE PUSH32 0x46756E6374696F6E206D7573742062652063616C6C6564207468726F75676820 PUSH1 0x44 DUP3 ADD MSTORE PUSH12 0x6163746976652070726F7879 PUSH1 0xA0 SHL PUSH1 0x64 DUP3 ADD MSTORE PUSH1 0x84 SWAP1 REVERT JUMPDEST CALLER PUSH1 0x0 SWAP1 DUP2 MSTORE PUSH32 0x9E6744E618DE81DA41BAC79D16DB1C0FF299A7089220B2457C7E39ADE7701944 PUSH1 0x20 SWAP1 DUP2 MSTORE PUSH1 0x40 DUP1 DUP4 KECCAK256 SLOAD SWAP1 SWAP3 SWAP1 PUSH1 0x0 DUP1 MLOAD PUSH1 0x20 PUSH2 0x24B4 DUP4 CODECOPY DUP2 MLOAD SWAP2 MSTORE SWAP1 PUSH1 0xFF AND ISZERO PUSH2 0x1C8E JUMPI POP POP POP POP JUMP JUMPDEST PUSH2 0x1C97 CALLER PUSH2 0x2323 JUMP JUMPDEST DUP5 MLOAD SWAP2 PUSH2 0x1CA3 DUP4 PUSH2 0x196B JUMP JUMPDEST PUSH1 0x42 DUP4 MSTORE DUP5 DUP4 ADD SWAP4 PUSH1 0x60 CALLDATASIZE DUP7 CALLDATACOPY DUP4 MLOAD ISZERO PUSH2 0x1E2C JUMPI PUSH1 0x30 DUP6 MSTORE8 DUP4 MLOAD SWAP1 PUSH1 0x1 SWAP2 PUSH1 0x1 LT ISZERO PUSH2 0x1E2C JUMPI SWAP1 PUSH1 0x78 PUSH1 0x21 DUP7 ADD MSTORE8 PUSH1 0x41 SWAP2 JUMPDEST DUP2 DUP4 GT PUSH2 0x1DBE JUMPI POP POP POP PUSH2 0x1D7C JUMPI PUSH2 0x1D2A SWAP4 DUP6 SWAP4 PUSH2 0x1D62 SWAP4 PUSH2 0x1D53 PUSH1 0x48 SWAP5 PUSH2 0x1D78 SWAP10 MLOAD SWAP9 DUP6 PUSH23 0x20B1B1B2B9B9A1B7B73A3937B61D1030B1B1B7BAB73A1 PUSH1 0x4D SHL DUP12 SWAP8 DUP9 ADD MSTORE DUP3 MLOAD SWAP3 DUP4 SWAP2 PUSH1 0x37 DUP10 ADD SWAP2 ADD PUSH2 0x19C5 JUMP JUMPDEST DUP5 ADD SWAP2 PUSH17 0x1034B99036B4B9B9B4B733903937B6329 PUSH1 0x7D SHL PUSH1 0x37 DUP5 ADD MSTORE MLOAD DUP1 SWAP4 DUP7 DUP5 ADD SWAP1 PUSH2 0x19C5 JUMP JUMPDEST ADD SUB PUSH1 0x28 DUP2 ADD DUP6 MSTORE ADD DUP4 PUSH2 0x1987 JUMP JUMPDEST MLOAD PUSH3 0x461BCD PUSH1 0xE5 SHL DUP2 MSTORE SWAP2 DUP3 SWAP2 PUSH1 0x4 DUP4 ADD PUSH2 0x19E8 JUMP JUMPDEST SUB SWAP1 REVERT JUMPDEST PUSH1 0x64 DUP5 DUP7 MLOAD SWAP1 PUSH3 0x461BCD PUSH1 0xE5 SHL DUP3 MSTORE DUP1 PUSH1 0x4 DUP4 ADD MSTORE PUSH1 0x24 DUP3 ADD MSTORE PUSH32 0x537472696E67733A20686578206C656E67746820696E73756666696369656E74 PUSH1 0x44 DUP3 ADD MSTORE REVERT JUMPDEST SWAP1 SWAP2 SWAP3 PUSH1 0xF DUP2 AND PUSH1 0x10 DUP2 LT ISZERO PUSH2 0x1E18 JUMPI PUSH16 0x181899199A1A9B1B9C1CB0B131B232B3 PUSH1 0x81 SHL SWAP1 BYTE PUSH2 0x1DEE DUP6 DUP9 PUSH2 0x2312 JUMP JUMPDEST MSTORE8 PUSH1 0x4 SHR SWAP3 DUP1 ISZERO PUSH2 0x1E04 JUMPI PUSH1 0x0 NOT ADD SWAP2 SWAP1 PUSH2 0x1CD5 JUMP JUMPDEST PUSH4 0x4E487B71 PUSH1 0xE0 SHL DUP3 MSTORE PUSH1 0x11 PUSH1 0x4 MSTORE PUSH1 0x24 DUP3 REVERT JUMPDEST PUSH4 0x4E487B71 PUSH1 0xE0 SHL DUP4 MSTORE PUSH1 0x32 PUSH1 0x4 MSTORE PUSH1 0x24 DUP4 REVERT JUMPDEST PUSH4 0x4E487B71 PUSH1 0xE0 SHL DUP2 MSTORE PUSH1 0x32 PUSH1 0x4 MSTORE PUSH1 0x24 SWAP1 REVERT JUMPDEST PUSH1 0x0 DUP2 DUP2 MSTORE PUSH1 0x20 SWAP1 PUSH1 0xFB DUP3 MSTORE PUSH1 0x40 SWAP3 DUP4 DUP3 KECCAK256 CALLER DUP4 MSTORE DUP4 MSTORE PUSH1 0xFF DUP5 DUP4 KECCAK256 SLOAD AND ISZERO PUSH2 0x1E69 JUMPI POP POP POP POP JUMP JUMPDEST PUSH2 0x1E72 CALLER PUSH2 0x2323 JUMP JUMPDEST DUP5 MLOAD SWAP2 PUSH2 0x1E7E DUP4 PUSH2 0x196B JUMP JUMPDEST PUSH1 0x42 DUP4 MSTORE DUP5 DUP4 ADD SWAP4 PUSH1 0x60 CALLDATASIZE DUP7 CALLDATACOPY DUP4 MLOAD ISZERO PUSH2 0x1E2C JUMPI PUSH1 0x30 DUP6 MSTORE8 DUP4 MLOAD SWAP1 PUSH1 0x1 SWAP2 PUSH1 0x1 LT ISZERO PUSH2 0x1E2C JUMPI SWAP1 PUSH1 0x78 PUSH1 0x21 DUP7 ADD MSTORE8 PUSH1 0x41 SWAP2 JUMPDEST DUP2 DUP4 GT PUSH2 0x1F05 JUMPI POP POP POP PUSH2 0x1D7C JUMPI PUSH2 0x1D2A SWAP4 DUP6 SWAP4 PUSH2 0x1D62 SWAP4 PUSH2 0x1D53 PUSH1 0x48 SWAP5 PUSH2 0x1D78 SWAP10 MLOAD SWAP9 DUP6 PUSH23 0x20B1B1B2B9B9A1B7B73A3937B61D1030B1B1B7BAB73A1 PUSH1 0x4D SHL DUP12 SWAP8 DUP9 ADD MSTORE DUP3 MLOAD SWAP3 DUP4 SWAP2 PUSH1 0x37 DUP10 ADD SWAP2 ADD PUSH2 0x19C5 JUMP JUMPDEST SWAP1 SWAP2 SWAP3 PUSH1 0xF DUP2 AND PUSH1 0x10 DUP2 LT ISZERO PUSH2 0x1E18 JUMPI PUSH16 0x181899199A1A9B1B9C1CB0B131B232B3 PUSH1 0x81 SHL SWAP1 BYTE PUSH2 0x1F35 DUP6 DUP9 PUSH2 0x2312 JUMP JUMPDEST MSTORE8 PUSH1 0x4 SHR SWAP3 DUP1 ISZERO PUSH2 0x1E04 JUMPI PUSH1 0x0 NOT ADD SWAP2 SWAP1 PUSH2 0x1EB0 JUMP JUMPDEST PUSH1 0xFF PUSH1 0x33 SLOAD AND PUSH2 0x1F57 JUMPI JUMP JUMPDEST PUSH1 0x40 MLOAD PUSH3 0x461BCD PUSH1 0xE5 SHL DUP2 MSTORE PUSH1 0x20 PUSH1 0x4 DUP3 ADD MSTORE PUSH1 0x10 PUSH1 0x24 DUP3 ADD MSTORE PUSH16 0x14185D5CD8589B194E881C185D5CD959 PUSH1 0x82 SHL PUSH1 0x44 DUP3 ADD MSTORE PUSH1 0x64 SWAP1 REVERT JUMPDEST PUSH1 0x1 PUSH1 0x1 PUSH1 0xA0 SHL SUB AND PUSH1 0x0 DUP2 DUP2 MSTORE PUSH32 0xC88390E7E62175BE0932452175B6A7222B6B094AB0EF984A5153C620345D8975 PUSH1 0x20 MSTORE PUSH1 0x40 DUP2 KECCAK256 SLOAD SWAP1 SWAP2 SWAP1 PUSH1 0xFF AND ISZERO PUSH2 0x1FD5 JUMPI POP POP JUMP JUMPDEST DUP2 DUP1 MSTORE PUSH1 0xFB PUSH1 0x20 MSTORE PUSH1 0x40 DUP3 KECCAK256 DUP2 DUP4 MSTORE PUSH1 0x20 MSTORE PUSH1 0x40 DUP3 KECCAK256 PUSH1 0x1 PUSH1 0xFF NOT DUP3 SLOAD AND OR SWAP1 SSTORE CALLER SWAP2 PUSH32 0x2F8788117E7EFF1D82E926EC794901D17C78024A50270940304540A733656F0D DUP2 DUP1 LOG4 JUMP JUMPDEST PUSH1 0x1 PUSH1 0x1 PUSH1 0xA0 SHL SUB AND PUSH1 0x0 DUP2 DUP2 MSTORE PUSH32 0x9E6744E618DE81DA41BAC79D16DB1C0FF299A7089220B2457C7E39ADE7701944 PUSH1 0x20 MSTORE PUSH1 0x40 DUP2 KECCAK256 SLOAD SWAP1 SWAP2 SWAP1 PUSH1 0x0 DUP1 MLOAD PUSH1 0x20 PUSH2 0x24B4 DUP4 CODECOPY DUP2 MLOAD SWAP2 MSTORE SWAP1 PUSH1 0xFF AND ISZERO PUSH2 0x2075 JUMPI POP POP POP JUMP JUMPDEST DUP1 DUP4 MSTORE PUSH1 0xFB PUSH1 0x20 MSTORE PUSH1 0x40 DUP4 KECCAK256 DUP3 DUP5 MSTORE PUSH1 0x20 MSTORE PUSH1 0x40 DUP4 KECCAK256 PUSH1 0x1 PUSH1 0xFF NOT DUP3 SLOAD AND OR SWAP1 SSTORE PUSH32 0x2F8788117E7EFF1D82E926EC794901D17C78024A50270940304540A733656F0D CALLER SWAP4 DUP1 LOG4 JUMP JUMPDEST SWAP1 PUSH1 0x0 SWAP2 DUP1 DUP4 MSTORE PUSH1 0xFB PUSH1 0x20 MSTORE PUSH1 0x40 DUP4 KECCAK256 SWAP2 PUSH1 0x1 DUP1 PUSH1 0xA0 SHL SUB AND SWAP2 DUP3 DUP5 MSTORE PUSH1 0x20 MSTORE PUSH1 0xFF PUSH1 0x40 DUP5 KECCAK256 SLOAD AND PUSH2 0x20EE JUMPI POP POP POP JUMP JUMPDEST DUP1 DUP4 MSTORE PUSH1 0xFB PUSH1 0x20 MSTORE PUSH1 0x40 DUP4 KECCAK256 DUP3 DUP5 MSTORE PUSH1 0x20 MSTORE PUSH1 0x40 DUP4 KECCAK256 PUSH1 0xFF NOT DUP2 SLOAD AND SWAP1 SSTORE PUSH32 0xF6391F5C32D9C69D2A47EA670B442974B53935D1EDC7FD64EB21E047A839171B CALLER SWAP4 DUP1 LOG4 JUMP JUMPDEST ISZERO PUSH2 0x213A JUMPI JUMP JUMPDEST PUSH1 0x40 MLOAD PUSH3 0x461BCD PUSH1 0xE5 SHL DUP2 MSTORE PUSH1 0x20 PUSH1 0x4 DUP3 ADD MSTORE PUSH1 0x2B PUSH1 0x24 DUP3 ADD MSTORE PUSH32 0x496E697469616C697A61626C653A20636F6E7472616374206973206E6F742069 PUSH1 0x44 DUP3 ADD MSTORE PUSH11 0x6E697469616C697A696E67 PUSH1 0xA8 SHL PUSH1 0x64 DUP3 ADD MSTORE PUSH1 0x84 SWAP1 REVERT JUMPDEST PUSH1 0x1 DUP1 PUSH1 0xA0 SHL SUB AND SWAP1 PUSH2 0x21EC PUSH1 0x40 MLOAD PUSH2 0x21AB DUP2 PUSH2 0x194F JUMP JUMPDEST PUSH1 0x20 SWAP4 DUP5 DUP3 MSTORE PUSH32 0x5361666545524332303A206C6F772D6C6576656C2063616C6C206661696C6564 DUP6 DUP4 ADD MSTORE PUSH1 0x0 DUP1 DUP6 DUP8 DUP3 SWAP8 MLOAD SWAP2 ADD DUP3 DUP6 GAS CALL PUSH2 0xD0D PUSH2 0x1B07 JUMP JUMPDEST DUP1 MLOAD SWAP2 DUP3 ISZERO SWAP2 DUP5 DUP4 ISZERO PUSH2 0x225E JUMPI JUMPDEST POP POP POP SWAP1 POP ISZERO PUSH2 0x2207 JUMPI POP JUMP JUMPDEST PUSH1 0x84 SWAP1 PUSH1 0x40 MLOAD SWAP1 PUSH3 0x461BCD PUSH1 0xE5 SHL DUP3 MSTORE PUSH1 0x4 DUP3 ADD MSTORE PUSH1 0x2A PUSH1 0x24 DUP3 ADD MSTORE PUSH32 0x5361666545524332303A204552433230206F7065726174696F6E20646964206E PUSH1 0x44 DUP3 ADD MSTORE PUSH10 0x1BDD081CDD58D8D95959 PUSH1 0xB2 SHL PUSH1 0x64 DUP3 ADD MSTORE REVERT JUMPDEST SWAP2 SWAP4 DUP2 DUP1 SWAP5 POP ADD SUB SLT PUSH2 0x1F1 JUMPI DUP3 ADD MLOAD SWAP1 DUP2 ISZERO ISZERO DUP3 SUB PUSH2 0x2FE JUMPI POP DUP1 CODESIZE DUP1 DUP5 PUSH2 0x21FA JUMP JUMPDEST DUP1 EXTCODESIZE ISZERO PUSH2 0x22B7 JUMPI PUSH1 0x0 DUP1 MLOAD PUSH1 0x20 PUSH2 0x24D4 DUP4 CODECOPY DUP2 MLOAD SWAP2 MSTORE DUP1 SLOAD PUSH1 0x1 PUSH1 0x1 PUSH1 0xA0 SHL SUB NOT AND PUSH1 0x1 PUSH1 0x1 PUSH1 0xA0 SHL SUB SWAP1 SWAP3 AND SWAP2 SWAP1 SWAP2 OR SWAP1 SSTORE JUMP JUMPDEST PUSH1 0x40 MLOAD PUSH3 0x461BCD PUSH1 0xE5 SHL DUP2 MSTORE PUSH1 0x20 PUSH1 0x4 DUP3 ADD MSTORE PUSH1 0x2D PUSH1 0x24 DUP3 ADD MSTORE PUSH32 0x455243313936373A206E657720696D706C656D656E746174696F6E206973206E PUSH1 0x44 DUP3 ADD MSTORE PUSH13 0x1BDD08184818DBDB9D1C9858DD PUSH1 0x9A SHL PUSH1 0x64 DUP3 ADD MSTORE PUSH1 0x84 SWAP1 REVERT JUMPDEST SWAP1 DUP2 MLOAD DUP2 LT ISZERO PUSH2 0x18D6 JUMPI ADD PUSH1 0x20 ADD SWAP1 JUMP JUMPDEST PUSH1 0x40 MLOAD SWAP1 PUSH2 0x2330 DUP3 PUSH2 0x191D JUMP JUMPDEST PUSH1 0x2A DUP3 MSTORE PUSH1 0x20 DUP3 ADD PUSH1 0x40 CALLDATASIZE DUP3 CALLDATACOPY DUP3 MLOAD ISZERO PUSH2 0x18D6 JUMPI PUSH1 0x30 SWAP1 MSTORE8 DUP2 MLOAD PUSH1 0x1 SWAP1 PUSH1 0x1 LT ISZERO PUSH2 0x18D6 JUMPI PUSH1 0x78 PUSH1 0x21 DUP5 ADD MSTORE8 PUSH1 0x29 SWAP1 JUMPDEST DUP1 DUP3 GT PUSH2 0x23B4 JUMPI POP POP PUSH2 0x2370 JUMPI SWAP1 JUMP JUMPDEST PUSH1 0x64 PUSH1 0x40 MLOAD PUSH3 0x461BCD PUSH1 0xE5 SHL DUP2 MSTORE PUSH1 0x20 PUSH1 0x4 DUP3 ADD MSTORE PUSH1 0x20 PUSH1 0x24 DUP3 ADD MSTORE PUSH32 0x537472696E67733A20686578206C656E67746820696E73756666696369656E74 PUSH1 0x44 DUP3 ADD MSTORE REVERT JUMPDEST SWAP1 SWAP2 PUSH1 0xF DUP2 AND PUSH1 0x10 DUP2 LT ISZERO PUSH2 0x240D JUMPI PUSH16 0x181899199A1A9B1B9C1CB0B131B232B3 PUSH1 0x81 SHL SWAP1 BYTE PUSH2 0x23E3 DUP5 DUP7 PUSH2 0x2312 JUMP JUMPDEST MSTORE8 PUSH1 0x4 SHR SWAP2 DUP1 ISZERO PUSH2 0x23F8 JUMPI PUSH1 0x0 NOT ADD SWAP1 PUSH2 0x2360 JUMP JUMPDEST PUSH1 0x24 PUSH1 0x0 PUSH4 0x4E487B71 PUSH1 0xE0 SHL DUP2 MSTORE PUSH1 0x11 PUSH1 0x4 MSTORE REVERT JUMPDEST PUSH1 0x24 PUSH1 0x0 PUSH4 0x4E487B71 PUSH1 0xE0 SHL DUP2 MSTORE PUSH1 0x32 PUSH1 0x4 MSTORE REVERT JUMPDEST SWAP2 SWAP3 SWAP1 ISZERO PUSH2 0x2484 JUMPI POP DUP2 MLOAD ISZERO PUSH2 0x2436 JUMPI POP SWAP1 JUMP JUMPDEST EXTCODESIZE ISZERO PUSH2 0x243F JUMPI SWAP1 JUMP JUMPDEST PUSH1 0x40 MLOAD PUSH3 0x461BCD PUSH1 0xE5 SHL DUP2 MSTORE PUSH1 0x20 PUSH1 0x4 DUP3 ADD MSTORE PUSH1 0x1D PUSH1 0x24 DUP3 ADD MSTORE PUSH32 0x416464726573733A2063616C6C20746F206E6F6E2D636F6E7472616374000000 PUSH1 0x44 DUP3 ADD MSTORE PUSH1 0x64 SWAP1 REVERT JUMPDEST DUP3 MLOAD SWAP1 SWAP2 POP ISZERO PUSH2 0x2497 JUMPI POP DUP1 MLOAD SWAP1 PUSH1 0x20 ADD REVERT JUMPDEST PUSH1 0x40 MLOAD PUSH3 0x461BCD PUSH1 0xE5 SHL DUP2 MSTORE SWAP1 DUP2 SWAP1 PUSH2 0x1D78 SWAP1 PUSH1 0x4 DUP4 ADD PUSH2 0x19E8 JUMP INVALID PUSH18 0xE15EDD14FD3418EB6412E352E9213F534489 SWAP15 0xCE 0xBF NOT LOG3 0xE5 PUSH31 0x7D605E2472B2360894A13BA1A3210667C828492DB98DCA3E2076CC3735A920 LOG3 0xCA POP TSTORE CODESIZE 0x2B 0xBC LOG2 PUSH5 0x6970667358 0x22 SLT KECCAK256 0xB3 PUSH28 0xD355C3F55D2DB3DCE37732883C78891D395F7FE333E5DD0303B744BD DUP13 0xCC PUSH5 0x736F6C6343 STOP ADDMOD NOT STOP CALLER "},"methodIdentifiers":{"DEFAULT_ADMIN_ROLE()":"a217fddf","MAX_SUPPORTED_TOKENS()":"ba7c0957","MULTISIG_ADMIN_ROLE()":"c8f50b4c","addSupportedToken(address)":"6d69fcaf","builder()":"d7e84fbf","depositToken(address,uint256)":"338b5dea","disburseETH(address,uint256)":"1933868a","disburseToken(address,address,uint256)":"76c751c6","getERC20Balance(address)":"b588d225","getETHBalance()":"6e947298","getRoleAdmin(bytes32)":"248a9ca3","getSupportedTokens()":"d3c7c2c7","grantRole(bytes32,address)":"2f2ff15d","hasRole(bytes32,address)":"91d14854","initialize(address,address)":"485cc955","ownerInitialized()":"bebc2145","pause()":"8456cb59","paused()":"5c975abb","proxiableUUID()":"52d1902d","removeSupportedToken(address)":"76319190","renounceRole(bytes32,address)":"36568abe","revokeRole(bytes32,address)":"d547741f","supportedTokenList(uint256)":"2b60c822","supportedTokens(address)":"68c4ac26","supportsInterface(bytes4)":"01ffc9a7","timelock()":"d33219b4","trustedInitializer()":"9e85f9aa","unpause()":"3f4ba83a","upgradeTo(address)":"3659cfe6","upgradeToAndCall(address,bytes)":"4f1ef286"}},"storageLayout":{"storage":[{"astId":1895,"contract":"contracts/treasury/HYPEYTreasury.sol:HYPEYTreasury","label":"_initialized","offset":0,"slot":"0","type":"t_uint8"},{"astId":1898,"contract":"contracts/treasury/HYPEYTreasury.sol:HYPEYTreasury","label":"_initializing","offset":1,"slot":"0","type":"t_bool"},{"astId":3889,"contract":"contracts/treasury/HYPEYTreasury.sol:HYPEYTreasury","label":"__gap","offset":0,"slot":"1","type":"t_array(t_uint256)50_storage"},{"astId":2216,"contract":"contracts/treasury/HYPEYTreasury.sol:HYPEYTreasury","label":"_paused","offset":0,"slot":"51","type":"t_bool"},{"astId":2321,"contract":"contracts/treasury/HYPEYTreasury.sol:HYPEYTreasury","label":"__gap","offset":0,"slot":"52","type":"t_array(t_uint256)49_storage"},{"astId":1877,"contract":"contracts/treasury/HYPEYTreasury.sol:HYPEYTreasury","label":"__gap","offset":0,"slot":"101","type":"t_array(t_uint256)50_storage"},{"astId":2193,"contract":"contracts/treasury/HYPEYTreasury.sol:HYPEYTreasury","label":"__gap","offset":0,"slot":"151","type":"t_array(t_uint256)50_storage"},{"astId":4801,"contract":"contracts/treasury/HYPEYTreasury.sol:HYPEYTreasury","label":"__gap","offset":0,"slot":"201","type":"t_array(t_uint256)50_storage"},{"astId":28,"contract":"contracts/treasury/HYPEYTreasury.sol:HYPEYTreasury","label":"_roles","offset":0,"slot":"251","type":"t_mapping(t_bytes32,t_struct(RoleData)23_storage)"},{"astId":335,"contract":"contracts/treasury/HYPEYTreasury.sol:HYPEYTreasury","label":"__gap","offset":0,"slot":"252","type":"t_array(t_uint256)49_storage"},{"astId":6642,"contract":"contracts/treasury/HYPEYTreasury.sol:HYPEYTreasury","label":"timelock","offset":0,"slot":"301","type":"t_contract(TimelockControllerUpgradeable)1522"},{"astId":6646,"contract":"contracts/treasury/HYPEYTreasury.sol:HYPEYTreasury","label":"supportedTokens","offset":0,"slot":"302","type":"t_mapping(t_address,t_bool)"},{"astId":6649,"contract":"contracts/treasury/HYPEYTreasury.sol:HYPEYTreasury","label":"supportedTokenList","offset":0,"slot":"303","type":"t_array(t_address)dyn_storage"},{"astId":6654,"contract":"contracts/treasury/HYPEYTreasury.sol:HYPEYTreasury","label":"ownerInitialized","offset":0,"slot":"304","type":"t_bool"}],"types":{"t_address":{"encoding":"inplace","label":"address","numberOfBytes":"20"},"t_array(t_address)dyn_storage":{"base":"t_address","encoding":"dynamic_array","label":"address[]","numberOfBytes":"32"},"t_array(t_uint256)49_storage":{"base":"t_uint256","encoding":"inplace","label":"uint256[49]","numberOfBytes":"1568"},"t_array(t_uint256)50_storage":{"base":"t_uint256","encoding":"inplace","label":"uint256[50]","numberOfBytes":"1600"},"t_bool":{"encoding":"inplace","label":"bool","numberOfBytes":"1"},"t_bytes32":{"encoding":"inplace","label":"bytes32","numberOfBytes":"32"},"t_contract(TimelockControllerUpgradeable)1522":{"encoding":"inplace","label":"contract TimelockControllerUpgradeable","numberOfBytes":"20"},"t_mapping(t_address,t_bool)":{"encoding":"mapping","key":"t_address","label":"mapping(address => bool)","numberOfBytes":"32","value":"t_bool"},"t_mapping(t_bytes32,t_struct(RoleData)23_storage)":{"encoding":"mapping","key":"t_bytes32","label":"mapping(bytes32 => struct AccessControlUpgradeable.RoleData)","numberOfBytes":"32","value":"t_struct(RoleData)23_storage"},"t_struct(RoleData)23_storage":{"encoding":"inplace","label":"struct AccessControlUpgradeable.RoleData","members":[{"astId":20,"contract":"contracts/treasury/HYPEYTreasury.sol:HYPEYTreasury","label":"members","offset":0,"slot":"0","type":"t_mapping(t_address,t_bool)"},{"astId":22,"contract":"contracts/treasury/HYPEYTreasury.sol:HYPEYTreasury","label":"adminRole","offset":0,"slot":"1","type":"t_bytes32"}],"numberOfBytes":"64"},"t_uint256":{"encoding":"inplace","label":"uint256","numberOfBytes":"32"},"t_uint8":{"encoding":"inplace","label":"uint8","numberOfBytes":"1"}}}}}}