{"contracts/vesting/HypeyVesting.sol":{"HypeyVesting":{"abi":[{"inputs":[],"stateMutability":"nonpayable","type":"constructor"},{"anonymous":false,"inputs":[{"indexed":false,"internalType":"address","name":"previousAdmin","type":"address"},{"indexed":false,"internalType":"address","name":"newAdmin","type":"address"}],"name":"AdminChanged","type":"event"},{"anonymous":false,"inputs":[{"indexed":true,"internalType":"address","name":"to","type":"address"},{"indexed":false,"internalType":"uint256","name":"amount","type":"uint256"}],"name":"AdminWithdraw","type":"event"},{"anonymous":false,"inputs":[{"indexed":true,"internalType":"address","name":"beacon","type":"address"}],"name":"BeaconUpgraded","type":"event"},{"anonymous":false,"inputs":[{"indexed":false,"internalType":"uint8","name":"version","type":"uint8"}],"name":"Initialized","type":"event"},{"anonymous":false,"inputs":[{"indexed":false,"internalType":"bytes32","name":"newMerkleRoot","type":"bytes32"}],"name":"MerkleRootUpdated","type":"event"},{"anonymous":false,"inputs":[{"indexed":true,"internalType":"address","name":"previousOwner","type":"address"},{"indexed":true,"internalType":"address","name":"newOwner","type":"address"}],"name":"OwnershipTransferred","type":"event"},{"anonymous":false,"inputs":[{"indexed":false,"internalType":"address","name":"account","type":"address"}],"name":"Paused","type":"event"},{"anonymous":false,"inputs":[{"indexed":true,"internalType":"bytes32","name":"role","type":"bytes32"},{"indexed":true,"internalType":"bytes32","name":"previousAdminRole","type":"bytes32"},{"indexed":true,"internalType":"bytes32","name":"newAdminRole","type":"bytes32"}],"name":"RoleAdminChanged","type":"event"},{"anonymous":false,"inputs":[{"indexed":true,"internalType":"bytes32","name":"role","type":"bytes32"},{"indexed":true,"internalType":"address","name":"account","type":"address"},{"indexed":true,"internalType":"address","name":"sender","type":"address"}],"name":"RoleGranted","type":"event"},{"anonymous":false,"inputs":[{"indexed":true,"internalType":"bytes32","name":"role","type":"bytes32"},{"indexed":true,"internalType":"address","name":"account","type":"address"},{"indexed":true,"internalType":"address","name":"sender","type":"address"}],"name":"RoleRevoked","type":"event"},{"anonymous":false,"inputs":[{"indexed":true,"internalType":"address","name":"beneficiary","type":"address"},{"indexed":false,"internalType":"uint256","name":"index","type":"uint256"},{"indexed":false,"internalType":"uint256","name":"amount","type":"uint256"}],"name":"TokensClaimed","type":"event"},{"anonymous":false,"inputs":[{"indexed":true,"internalType":"address","name":"from","type":"address"},{"indexed":false,"internalType":"uint256","name":"amount","type":"uint256"}],"name":"TokensDeposited","type":"event"},{"anonymous":false,"inputs":[{"indexed":false,"internalType":"address","name":"account","type":"address"}],"name":"Unpaused","type":"event"},{"anonymous":false,"inputs":[{"indexed":true,"internalType":"address","name":"implementation","type":"address"}],"name":"Upgraded","type":"event"},{"anonymous":false,"inputs":[{"indexed":true,"internalType":"address","name":"beneficiary","type":"address"},{"indexed":false,"internalType":"uint256","name":"index","type":"uint256"},{"indexed":false,"internalType":"uint256","name":"totalAmount","type":"uint256"}],"name":"VestingCreated","type":"event"},{"anonymous":false,"inputs":[{"indexed":true,"internalType":"address","name":"token","type":"address"},{"indexed":true,"internalType":"address","name":"owner","type":"address"},{"indexed":true,"internalType":"address","name":"timelock","type":"address"}],"name":"VestingInitialized","type":"event"},{"inputs":[],"name":"DEFAULT_ADMIN_ROLE","outputs":[{"internalType":"bytes32","name":"","type":"bytes32"}],"stateMutability":"view","type":"function"},{"inputs":[],"name":"MULTISIG_ADMIN_ROLE","outputs":[{"internalType":"bytes32","name":"","type":"bytes32"}],"stateMutability":"view","type":"function"},{"inputs":[{"internalType":"address[]","name":"beneficiaries","type":"address[]"},{"internalType":"uint256[]","name":"totalAmounts","type":"uint256[]"},{"internalType":"uint256[]","name":"starts","type":"uint256[]"},{"internalType":"uint256[]","name":"cliffDurations","type":"uint256[]"},{"internalType":"uint256[]","name":"durations","type":"uint256[]"},{"internalType":"uint256[]","name":"slicePeriodSeconds","type":"uint256[]"},{"internalType":"uint256[]","name":"cliffUnlockPercents","type":"uint256[]"}],"name":"addBatchVestingSchedules","outputs":[],"stateMutability":"nonpayable","type":"function"},{"inputs":[{"internalType":"address","name":"beneficiary","type":"address"},{"internalType":"uint256","name":"totalAmount","type":"uint256"},{"internalType":"uint256","name":"start","type":"uint256"},{"internalType":"uint256","name":"cliffDuration","type":"uint256"},{"internalType":"uint256","name":"duration","type":"uint256"},{"internalType":"uint256","name":"slicePeriodSeconds","type":"uint256"},{"internalType":"uint256","name":"cliffUnlockPercent","type":"uint256"}],"name":"addVestingSchedule","outputs":[],"stateMutability":"nonpayable","type":"function"},{"inputs":[{"internalType":"address","name":"beneficiary","type":"address"},{"internalType":"uint256","name":"totalAmount","type":"uint256"},{"internalType":"uint256","name":"start","type":"uint256"},{"internalType":"uint256","name":"cliffDuration","type":"uint256"},{"internalType":"uint256","name":"duration","type":"uint256"},{"internalType":"uint256","name":"slicePeriodSeconds","type":"uint256"},{"internalType":"uint256","name":"cliffUnlockPercent","type":"uint256"},{"internalType":"bytes32[]","name":"merkleProof","type":"bytes32[]"}],"name":"addVestingScheduleWithProof","outputs":[],"stateMutability":"nonpayable","type":"function"},{"inputs":[{"internalType":"address","name":"to","type":"address"},{"internalType":"uint256","name":"amount","type":"uint256"}],"name":"adminWithdraw","outputs":[],"stateMutability":"nonpayable","type":"function"},{"inputs":[],"name":"builder","outputs":[{"internalType":"string","name":"","type":"string"}],"stateMutability":"pure","type":"function"},{"inputs":[{"internalType":"uint256","name":"index","type":"uint256"}],"name":"claim","outputs":[],"stateMutability":"nonpayable","type":"function"},{"inputs":[{"internalType":"address","name":"beneficiary","type":"address"},{"internalType":"uint256","name":"index","type":"uint256"}],"name":"claimFor","outputs":[],"stateMutability":"nonpayable","type":"function"},{"inputs":[{"components":[{"internalType":"bool","name":"initialized","type":"bool"},{"internalType":"uint256","name":"totalAmount","type":"uint256"},{"internalType":"uint256","name":"released","type":"uint256"},{"internalType":"uint256","name":"start","type":"uint256"},{"internalType":"uint256","name":"cliff","type":"uint256"},{"internalType":"uint256","name":"duration","type":"uint256"},{"internalType":"uint256","name":"slicePeriodSeconds","type":"uint256"},{"internalType":"uint256","name":"cliffUnlockPercent","type":"uint256"}],"internalType":"struct HypeyVesting.VestingSchedule","name":"schedule","type":"tuple"}],"name":"computeReleasableAmount","outputs":[{"internalType":"uint256","name":"","type":"uint256"}],"stateMutability":"view","type":"function"},{"inputs":[{"internalType":"uint256","name":"amount","type":"uint256"}],"name":"depositTokens","outputs":[],"stateMutability":"nonpayable","type":"function"},{"inputs":[],"name":"getPoolBalance","outputs":[{"internalType":"uint256","name":"","type":"uint256"}],"stateMutability":"view","type":"function"},{"inputs":[{"internalType":"bytes32","name":"role","type":"bytes32"}],"name":"getRoleAdmin","outputs":[{"internalType":"bytes32","name":"","type":"bytes32"}],"stateMutability":"view","type":"function"},{"inputs":[{"internalType":"address","name":"beneficiary","type":"address"}],"name":"getTotalLocked","outputs":[{"internalType":"uint256","name":"total","type":"uint256"}],"stateMutability":"view","type":"function"},{"inputs":[{"internalType":"address","name":"beneficiary","type":"address"}],"name":"getUserPoolStatus","outputs":[{"internalType":"uint256","name":"poolBalance","type":"uint256"},{"internalType":"uint256","name":"totalLocked","type":"uint256"}],"stateMutability":"view","type":"function"},{"inputs":[{"internalType":"address","name":"beneficiary","type":"address"}],"name":"getVestingInfo","outputs":[{"components":[{"internalType":"bool","name":"initialized","type":"bool"},{"internalType":"uint256","name":"totalAmount","type":"uint256"},{"internalType":"uint256","name":"released","type":"uint256"},{"internalType":"uint256","name":"start","type":"uint256"},{"internalType":"uint256","name":"cliff","type":"uint256"},{"internalType":"uint256","name":"duration","type":"uint256"},{"internalType":"uint256","name":"slicePeriodSeconds","type":"uint256"},{"internalType":"uint256","name":"cliffUnlockPercent","type":"uint256"}],"internalType":"struct HypeyVesting.VestingSchedule[]","name":"schedules","type":"tuple[]"},{"internalType":"uint256[]","name":"releasable","type":"uint256[]"}],"stateMutability":"view","type":"function"},{"inputs":[{"internalType":"bytes32","name":"role","type":"bytes32"},{"internalType":"address","name":"account","type":"address"}],"name":"grantRole","outputs":[],"stateMutability":"nonpayable","type":"function"},{"inputs":[{"internalType":"bytes32","name":"role","type":"bytes32"},{"internalType":"address","name":"account","type":"address"}],"name":"hasRole","outputs":[{"internalType":"bool","name":"","type":"bool"}],"stateMutability":"view","type":"function"},{"inputs":[{"internalType":"address","name":"tokenAddress","type":"address"},{"internalType":"address","name":"_owner","type":"address"},{"internalType":"address payable","name":"timelockAddress","type":"address"}],"name":"initialize","outputs":[],"stateMutability":"nonpayable","type":"function"},{"inputs":[],"name":"merkleRoot","outputs":[{"internalType":"bytes32","name":"","type":"bytes32"}],"stateMutability":"view","type":"function"},{"inputs":[],"name":"owner","outputs":[{"internalType":"address","name":"","type":"address"}],"stateMutability":"view","type":"function"},{"inputs":[],"name":"ownerInitialized","outputs":[{"internalType":"bool","name":"","type":"bool"}],"stateMutability":"view","type":"function"},{"inputs":[],"name":"pause","outputs":[],"stateMutability":"nonpayable","type":"function"},{"inputs":[],"name":"paused","outputs":[{"internalType":"bool","name":"","type":"bool"}],"stateMutability":"view","type":"function"},{"inputs":[],"name":"proxiableUUID","outputs":[{"internalType":"bytes32","name":"","type":"bytes32"}],"stateMutability":"view","type":"function"},{"inputs":[],"name":"renounceOwnership","outputs":[],"stateMutability":"nonpayable","type":"function"},{"inputs":[{"internalType":"bytes32","name":"role","type":"bytes32"},{"internalType":"address","name":"account","type":"address"}],"name":"renounceRole","outputs":[],"stateMutability":"nonpayable","type":"function"},{"inputs":[{"internalType":"bytes32","name":"role","type":"bytes32"},{"internalType":"address","name":"account","type":"address"}],"name":"revokeRole","outputs":[],"stateMutability":"nonpayable","type":"function"},{"inputs":[{"internalType":"bytes32","name":"newRoot","type":"bytes32"}],"name":"setMerkleRoot","outputs":[],"stateMutability":"nonpayable","type":"function"},{"inputs":[{"internalType":"bytes4","name":"interfaceId","type":"bytes4"}],"name":"supportsInterface","outputs":[{"internalType":"bool","name":"","type":"bool"}],"stateMutability":"view","type":"function"},{"inputs":[],"name":"timelock","outputs":[{"internalType":"contract TimelockControllerUpgradeable","name":"","type":"address"}],"stateMutability":"view","type":"function"},{"inputs":[],"name":"token","outputs":[{"internalType":"contract IERC20Upgradeable","name":"","type":"address"}],"stateMutability":"view","type":"function"},{"inputs":[{"internalType":"address","name":"newOwner","type":"address"}],"name":"transferOwnership","outputs":[],"stateMutability":"nonpayable","type":"function"},{"inputs":[],"name":"trustedInitializer","outputs":[{"internalType":"address","name":"","type":"address"}],"stateMutability":"view","type":"function"},{"inputs":[],"name":"unpause","outputs":[],"stateMutability":"nonpayable","type":"function"},{"inputs":[{"internalType":"address","name":"newImplementation","type":"address"}],"name":"upgradeTo","outputs":[],"stateMutability":"nonpayable","type":"function"},{"inputs":[{"internalType":"address","name":"newImplementation","type":"address"},{"internalType":"bytes","name":"data","type":"bytes"}],"name":"upgradeToAndCall","outputs":[],"stateMutability":"payable","type":"function"},{"inputs":[{"internalType":"address","name":"","type":"address"},{"internalType":"uint256","name":"","type":"uint256"}],"name":"vestingSchedules","outputs":[{"internalType":"bool","name":"initialized","type":"bool"},{"internalType":"uint256","name":"totalAmount","type":"uint256"},{"internalType":"uint256","name":"released","type":"uint256"},{"internalType":"uint256","name":"start","type":"uint256"},{"internalType":"uint256","name":"cliff","type":"uint256"},{"internalType":"uint256","name":"duration","type":"uint256"},{"internalType":"uint256","name":"slicePeriodSeconds","type":"uint256"},{"internalType":"uint256","name":"cliffUnlockPercent","type":"uint256"}],"stateMutability":"view","type":"function"}],"evm":{"bytecode":{"linkReferences":{},"object":"60c080604052346100f057306080523360a0526000549060ff8260081c1661009e575060ff80821603610063575b60405161392d90816100f68239608051818181611228015281816113550152611dab015260a05181818161079c01526110480152f35b60ff90811916176000557f7f26b83ff96e1f2b6a682f133852f6798a09c465da95921460cefb3847402498602060405160ff8152a13861002d565b62461bcd60e51b815260206004820152602760248201527f496e697469616c697a61626c653a20636f6e747261637420697320696e697469604482015266616c697a696e6760c81b6064820152608490fd5b600080fdfe61020080604052600436101561001457600080fd5b60003560e01c90816301ffc9a7146129e85750806305c77a3c14612971578063077a259c146124f45780630de05659146122e4578063248a9ca3146122b45780632eb4a7ab146122955780632f2ff15d146121f557806334f2c7471461210257806336568abe146120705780633659cfe614611d86578063379607f514611b535780633f4ba83a14611abf578063401d44821461191457806345626bd61461186d57806348904881146116825780634f1ef286146112d957806352d1902d146112155780635c975abb146111f2578063715018a6146111955780637cb64759146111485780638456cb59146110ee5780638da5cb5b146110c557806391d14854146110775780639e85f9aa14611032578063a217fddf14611016578063abd70aa214610f8c578063b970362614610c35578063bebc214514610c11578063c0c53b8b14610724578063c8f50b4c146106fb578063d33219b4146106cd578063d547741f1461068d578063d701460c14610616578063d7e84fbf146105a2578063dd49756e146104a6578063f2fde38b14610417578063fb897ce4146101f15763fc0c546a146101c257600080fd5b346101ec5760003660031901126101ec5761015f546040516001600160a01b039091168152602090f35b600080fd5b346101ec576020806003193601126101ec576001600160a01b03610213612a3b565b16806000526101628083526040600020549261022e84612fd7565b9361023c6040519586612b1f565b80855261024881612fd7565b601f199390840160005b8181106103c157505061026482612fd7565b946102726040519687612b1f565b82865261027e83612fd7565b868501950136863760005b83811061035e57505050506040519384936040850160408652825180915260609084606088019401916000905b8282106102fa57505050508482038584015251808252908201929160005b8281106102e357505050500390f35b8351855286955093810193928101926001016102d4565b835180511515875280880151888801526040808201519088015280820151878301526080808201519088015260a0808201519088015260c0808201519088015260e090810151908701528998506101009095019492860192600191909101906102b6565b600190826000999798995283865261038361037d826040600020612a98565b50612e9e565b61038d828961317d565b52610398818861317d565b506103ac6103a6828961317d565b51613022565b6103b6828b61317d565b520196959496610289565b8490604098969798516103d381612aca565b60008152600083820152600060408201526000606082015260006080820152600060a0820152600060c0820152600060e08201528282890101520196959496610252565b346101ec5760203660031901126101ec57610430612a3b565b610438613565565b6001600160a01b0381161561045257610450906135bd565b005b60405162461bcd60e51b815260206004820152602660248201527f4f776e61626c653a206e6577206f776e657220697320746865207a65726f206160448201526564647265737360d01b6064820152608490fd5b346101ec576020806003193601126101ec576004359060008160018060a01b0361015f54166064604051809481936323b872dd60e01b83523360048401523060248401528860448401525af190811561059657600091610569575b5015610534577f59062170a285eb80e8c6b8ced60428442a51910635005233fc4ce084a475845e906040519283523392a2005b6064906040519062461bcd60e51b82526004820152600e60248201526d11195c1bdcda5d0819985a5b195960921b6044820152fd5b6105899150823d841161058f575b6105818183612b1f565b810190612efd565b83610501565b503d610577565b6040513d6000823e3d90fd5b346101ec5760003660031901126101ec57604051604081019080821067ffffffffffffffff831117610600576105fc91604052600e81526d544f50415920444556205445414d60901b602082015260405191829182612b80565b0390f35b634e487b7160e01b600052604160045260246000fd5b346101ec576101003660031901126101ec5760405161063481612aca565b60043580151581036101ec578161068591602093526024358382015260443560408201526064356060820152608435608082015260a43560a082015260c43560c082015260e43560e0820152613022565b604051908152f35b346101ec5760403660031901126101ec576104506004356106ac612a51565b908060005261012d6020526106c8600160406000200154613396565b6134e6565b346101ec5760003660031901126101ec576101615460405160089190911c6001600160a01b03168152602090f35b346101ec5760003660031901126101ec5760206040516000805160206138b88339815191528152f35b346101ec5760603660031901126101ec5761073d612a3b565b610745612a51565b6044803591906001600160a01b0390818416908185036101ec576000549460ff6008968181891c161595868097610c05575b8015610bef575b15610b945760019960ff1992888c85831617600055610b82575b50817f0000000000000000000000000000000000000000000000000000000000000000163303610b3e578116978815610b0257818116958615610ac6578715610a8257506107f4846000548c1c166107ef81613606565b613606565b6107fd336135bd565b61082a846000548c1c1661081081613606565b61081981613606565b84606554166065556107ef81613606565b61015f80546001600160a01b0319168a179055338603610a73575b5060008581527fa581b17bfc4d6578e300cafbf34fd2dc1fef0270d8c73f88a99dcde2859a66396020908152604090912054909961012d9291851615610a39575b6000805160206138b88339815191529586600052838c526040600020886000528c528560406000205416156109ff575b6101618054610100600160a81b03191691831b610100600160a81b0316919091178082556000808052858e52604080822092851c8616808352928f529020548716156109c3575b5054901c169284600052818a526040600020846000528a526040600020541615610987575b50505050604051937fb66992478f7ac920287599c0c595e781dea4aae4d7de20364f24157a65c985fb600080a461095557005b7f7f26b83ff96e1f2b6a682f133852f6798a09c465da95921460cefb38474024989261ff0019600054166000558152a1005b8360005288526040600020826000528852886040600020918254161790553391600080516020613898833981519152600080a486808080610922565b60008052848d526040600020816000528d528d60406000209087825416179055339060006000805160206138988339815191528180a48d6108fd565b86600052838c526040600020886000528c5260406000208d86825416179055338888600080516020613898833981519152600080a46108b6565b60008052828b526040600020876000528b5260406000208c85825416179055338760006000805160206138988339815191528180a4610886565b610a7c906135bd565b8a610845565b6064907f496e76616c69642074696d656c6f636b206164647265737300000000000000006040519162461bcd60e51b83526020600484015260186024840152820152fd5b60649074496e76616c6964206f776e6572206164647265737360581b6040519162461bcd60e51b83526020600484015260156024840152820152fd5b60405162461bcd60e51b8152602060048201526015602482015274496e76616c696420746f6b656e206164647265737360581b81880152606490fd5b60405162461bcd60e51b815260206004820152601860248201527f556e617574686f72697a656420696e697469616c697a6572000000000000000081880152606490fd5b61ffff1916610101176000558b610798565b60405162461bcd60e51b815260206004820152602e60248201527f496e697469616c697a61626c653a20636f6e747261637420697320616c726561818701526d191e481a5b9a5d1a585b1a5e995960921b6064820152608490fd5b50303b15801561077e575060018383161461077e565b50600183831610610777565b346101ec5760003660031901126101ec57602060ff61016154166040519015158152f35b346101ec576101003660031901126101ec57610c4f612a3b565b60e43567ffffffffffffffff81116101ec57610c6f903690600401612a67565b9161016054918215610f515760405160208101906bffffffffffffffffffffffff198460601b168252602435603482015260443560548201526064356074820152608435609482015260a43560b482015260c43560d482015260d48152610cd581612aca565b51902090610ce285612fd7565b94610cf06040519687612b1f565b808652602086019060051b8201913683116101ec57905b828210610f4157505050906000915b8451831015610d5c57610d29838661317d565b519081811015610d4957600052602052600160406000205b920191610d16565b9060005260205260016040600020610d41565b8303610f0557610d766001600160a01b0382161515612c2e565b608435151580610efa575b610d8a90612c7a565b610d99606460c4351115612cc6565b610da66024351515612d04565b60443515610eab57610dbe6084356064351115612da7565b60018060a01b03811660005261016280602052610e326040600020610de7606435604435612bb9565b9060405191610df583612aca565b600183526024356020840152600060408401526044356060840152608083015260843560a083015260a43560c083015260c43560e0830152612e07565b60018060a01b038216600052602052604060002054906000198201918211610e95576040805192835260243560208401526001600160a01b03909116917f9ade76f4385de306666dfb21a52b27d52db0fde8ad0f515fa261f532cac60d219190a2005b634e487b7160e01b600052601160045260246000fd5b60405162461bcd60e51b815260206004820152602160248201527f53746172742074696d65206d7573742062652067726561746572207468616e206044820152600360fc1b6064820152608490fd5b5060a4351515610d81565b60405162461bcd60e51b815260206004820152601460248201527324b73b30b634b21036b2b935b63290383937b7b360611b6044820152606490fd5b8135815260209182019101610d07565b60405162461bcd60e51b815260206004820152601360248201527213595c9adb19481c9bdbdd081b9bdd081cd95d606a1b6044820152606490fd5b346101ec5760003660031901126101ec5761015f546040516370a0823160e01b815230600482015290602090829060249082906001600160a01b03165afa801561059657600090610fe3575b602090604051908152f35b506020813d60201161100e575b81610ffd60209383612b1f565b810103126101ec5760209051610fd8565b3d9150610ff0565b346101ec5760003660031901126101ec57602060405160008152f35b346101ec5760003660031901126101ec576040517f00000000000000000000000000000000000000000000000000000000000000006001600160a01b03168152602090f35b346101ec5760403660031901126101ec57611090612a51565b60043560005261012d60205260406000209060018060a01b0316600052602052602060ff604060002054166040519015158152f35b346101ec5760003660031901126101ec576033546040516001600160a01b039091168152602090f35b346101ec5760003660031901126101ec57611107613191565b61110f6134a2565b600160ff1960655416176065557f62e78cea01bee320cd4e420270b5ea74000d11b0c9f74754ebdbfc544b05a2586020604051338152a1005b346101ec5760203660031901126101ec577f90004c04698bc3322499a575ed3752dd4abf33e0a7294c06a787a0fe01bea9416020600435611187613565565b8061016055604051908152a1005b346101ec5760003660031901126101ec576111ae613565565b603380546001600160a01b031981169091556000906001600160a01b03167f8be0079c531659141344cd1fd0a4f28419497f9722a3daafe3b4186f6b6457e08280a3005b346101ec5760003660031901126101ec57602060ff606554166040519015158152f35b346101ec5760003660031901126101ec577f00000000000000000000000000000000000000000000000000000000000000006001600160a01b0316300361126e5760206040516000805160206138d88339815191528152f35b60405162461bcd60e51b815260206004820152603860248201527f555550535570677261646561626c653a206d757374206e6f742062652063616c60448201527f6c6564207468726f7567682064656c656761746563616c6c00000000000000006064820152608490fd5b60403660031901126101ec576112ed612a3b565b602490813567ffffffffffffffff81116101ec57366023820112156101ec5780600401359061131b82612b41565b6113286040519182612b1f565b82815260209283820192368783830101116101ec5781600092888793018637830101526001600160a01b037f000000000000000000000000000000000000000000000000000000000000000081169061138330831415612f15565b6113a06000805160206138d8833981519152928284541614612f76565b806101615460081c163303611642576000805160206138b883398151915260005261012d8552604060002032600052855260ff60406000205416156115fe577f4910fdfa16fed3260ed0e7147f7cc6da11a60208b5b9406d12a635614ffd91435460ff16156114185750505050506104509150613666565b859293949516906040516352d1902d60e01b81528681600481865afa600091816115cf575b5061149d5760405162461bcd60e51b815260048101889052602e818a01527f45524331393637557067726164653a206e657720696d706c656d656e7461746960448201526d6f6e206973206e6f74205555505360901b6064820152608490fd5b969192939594960361157a57506114b382613666565b7fbc7cd75a20ee27fd9adebab32041f755214dbc6bffa90cc0225b39da2e5c2d3b600080a2825115801590611572575b6114e957005b60008061045095604051956114fd87612ae7565b602787527f416464726573733a206c6f772d6c6576656c2064656c65676174652063616c6c86880152660819985a5b195960ca1b60408801525190845af4903d15611569573d61154c81612b41565b9061155a6040519283612b1f565b8152600081943d92013e613806565b60609250613806565b5060016114e3565b8360296084926040519262461bcd60e51b845260048401528201527f45524331393637557067726164653a20756e737570706f727465642070726f786044820152681a58589b195555525160ba1b6064820152fd5b9091508781813d83116115f7575b6115e78183612b1f565b810103126101ec5751908961143d565b503d6115dd565b60405162461bcd60e51b815260048101869052601f818901527f55706772616465207265717569726573206d756c74697369672061646d696e006044820152606490fd5b60405162461bcd60e51b8152600481018690526019818901527855706772616465206f6e6c79207669612074696d656c6f636b60381b6044820152606490fd5b346101ec5760e03660031901126101ec5761169b612a3b565b6024356044356064356084359160a4359160c435956116b8613191565b6001600160a01b0316956116cd871515612c2e565b8515938461181957428410156116e281612d5c565b868411806117d4576117226117289261171d61177f998b1515806117cb575b61170a90612c7a565b6117176064891115612cc6565b15612d04565b612d5c565b15612da7565b87600052610162958660205261174360406000209486612bb9565b6040519561175087612aca565b60018752896020880152600060408801526060870152608086015260a085015260c084015260e0830152612e07565b82600052602052604060002054906000198201918211610e95577f9ade76f4385de306666dfb21a52b27d52db0fde8ad0f515fa261f532cac60d219160409182519182526020820152a2005b50861515611701565b60405162461bcd60e51b815260206004820152601a60248201527f436c696666206c6f6e676572207468616e206475726174696f6e0000000000006044820152606490fd5b60405162461bcd60e51b815260206004820152602660248201527f546f74616c20616d6f756e74206d7573742062652067726561746572207468616044820152656e207a65726f60d01b6064820152608490fd5b346101ec5760403660031901126101ec57611886612a3b565b6001600160a01b0316600090815261016260205260409020805460243591908210156101ec57610100916118b991612a98565b5060ff815416906001810154906002810154600382015460048301549060058401549260076006860154950154956040519715158852602088015260408701526060860152608085015260a084015260c083015260e0820152f35b346101ec5760403660031901126101ec5761192d612a3b565b60243590611939613191565b61015f546040516370a0823160e01b81523060048201526020926001600160a01b03929091908316908481602481855afa8015610596578691600091611a8e575b5010611a495760405163a9059cbb60e01b81526001600160a01b038316600482015260248101869052908490829060449082906000905af190811561059657600091611a2c575b50156119f55760405193845216917fba443e8671971c36cdeb74f87321041daff421230cbc5e36cb835269ed1d8b7e9190a2005b60405162461bcd60e51b815260048101849052600f60248201526e15da5d1a191c985dc819985a5b1959608a1b6044820152606490fd5b611a439150843d861161058f576105818183612b1f565b856119c1565b60405162461bcd60e51b815260048101859052601960248201527f496e73756666696369656e7420706f6f6c2062616c616e6365000000000000006044820152606490fd5b809250868092503d8311611ab8575b611aa78183612b1f565b810103126101ec578590518761197a565b503d611a9d565b346101ec5760003660031901126101ec57611ad8613191565b60655460ff811615611b175760ff19166065557f5db9ee0a495bf2e6ff9c91a7834c1ba4fdd244a5e8aa4e537bd38aeae4b073aa6020604051338152a1005b60405162461bcd60e51b815260206004820152601460248201527314185d5cd8589b194e881b9bdd081c185d5cd95960621b6044820152606490fd5b346101ec576020806003193601126101ec5760043590611b716134a2565b611b796134a2565b611b84331515612c2e565b33600052610162808252604060002054831015611d4157336000528152611baf826040600020612a98565b509060ff82541615611cfd57611bcc611bc783612e9e565b613022565b918215611cb857600201611be1838254612bb9565b905561015f5460405163a9059cbb60e01b815233600482015260248101849052908290829060449082906000906001600160a01b03165af190811561059657600091611c9b575b5015611c5f576040519283528201527f9923b4306c6c030f2bdfbf156517d5983b87e15b96176da122cd4f2effa4ba7b60403392a2005b6064906040519062461bcd60e51b825260048201526015602482015274151bdad95b881d1c985b9cd9995c8819985a5b1959605a1b6044820152fd5b611cb29150823d841161058f576105818183612b1f565b84611c28565b60405162461bcd60e51b815260048101839052601d60248201527f4e6f20746f6b656e7320617661696c61626c6520666f7220636c61696d0000006044820152606490fd5b6064906040519062461bcd60e51b82526004820152601a60248201527f56657374696e67207363686564756c65206e6f7420666f756e640000000000006044820152fd5b60405162461bcd60e51b815260048101839052601e60248201527f496e76616c69642076657374696e67207363686564756c6520696e64657800006044820152606490fd5b346101ec576020806003193601126101ec57611da0612a3b565b6001600160a01b03917f00000000000000000000000000000000000000000000000000000000000000008316611dd830821415612f15565b611df56000805160206138d8833981519152918583541614612f76565b836101615460081c16330361202f576000805160206138b883398151915260005261012d8252604060002032600052825260ff6040600020541615611fea57604051908282019482861067ffffffffffffffff87111761060057856040526000835260ff7f4910fdfa16fed3260ed0e7147f7cc6da11a60208b5b9406d12a635614ffd91435416600014611e9157505050506104509150613666565b8492939416906040516352d1902d60e01b81528581600481865afa60009181611fbb575b50611f165760405162461bcd60e51b815260048101879052602e60248201527f45524331393637557067726164653a206e657720696d706c656d656e7461746960448201526d6f6e206973206e6f74205555505360901b6064820152608490fd5b94939403611f6457611f2782613666565b7fbc7cd75a20ee27fd9adebab32041f755214dbc6bffa90cc0225b39da2e5c2d3b600080a2825115801590611f5c576114e957005b5060006114e3565b60405162461bcd60e51b815260048101849052602960248201527f45524331393637557067726164653a20756e737570706f727465642070726f786044820152681a58589b195555525160ba1b6064820152608490fd5b9091508681813d8311611fe3575b611fd38183612b1f565b810103126101ec57519088611eb5565b503d611fc9565b60405162461bcd60e51b815260048101839052601f60248201527f55706772616465207265717569726573206d756c74697369672061646d696e006044820152606490fd5b60405162461bcd60e51b815260048101839052601960248201527855706772616465206f6e6c79207669612074696d656c6f636b60381b6044820152606490fd5b346101ec5760403660031901126101ec57612089612a51565b336001600160a01b038216036120a557610450906004356134e6565b60405162461bcd60e51b815260206004820152602f60248201527f416363657373436f6e74726f6c3a2063616e206f6e6c792072656e6f756e636560448201526e103937b632b9903337b91039b2b63360891b6064820152608490fd5b346101ec576020806003193601126101ec57602461211e612a3b565b61015f546040516370a0823160e01b8152306004820152926000926001600160a01b039290918691869190829086165afa938415610596576000946121c6575b50166000526101628352604060002092600084545b80821061218a575050604080945051928352820152f35b90926121be6001916121b8836121a0888b612a98565b50015460026121af898c612a98565b50015490612bac565b90612bb9565b930190612173565b9093508481813d83116121ee575b6121de8183612b1f565b810103126101ec5751928561215e565b503d6121d4565b346101ec5760403660031901126101ec57600435612211612a51565b8160005261012d8060205261222d600160406000200154613396565b826000528060205260406000209160018060a01b0316918260005260205260ff604060002054161561225b57005b826000526020526040600020816000526020526040600020600160ff198254161790553391600080516020613898833981519152600080a4005b346101ec5760003660031901126101ec57602061016054604051908152f35b346101ec5760203660031901126101ec5760043560005261012d6020526020600160406000200154604051908152f35b346101ec5760403660031901126101ec576122fd612a3b565b6024356123086134a2565b6001600160a01b038281169261231f841515612c2e565b83600052610162906020918083526040600020548510156124af5785600052825261234e846040600020612a98565b509260ff8454161561246a57612366611bc785612e9e565b938415612425576123be9284926002879301612383848254612bb9565b905561015f541690600060405180968195829463a9059cbb60e01b84526004840160209093929193604081019460018060a01b031681520152565b03925af190811561059657600091612408575b5015611c5f57916040917f9923b4306c6c030f2bdfbf156517d5983b87e15b96176da122cd4f2effa4ba7b938351928352820152a2005b61241f9150823d841161058f576105818183612b1f565b856123d1565b60405162461bcd60e51b815260048101859052601d60248201527f4e6f20746f6b656e7320617661696c61626c6520666f7220636c61696d0000006044820152606490fd5b60405162461bcd60e51b815260048101849052601a60248201527f56657374696e67207363686564756c65206e6f7420666f756e640000000000006044820152606490fd5b60405162461bcd60e51b815260048101849052601e60248201527f496e76616c69642076657374696e67207363686564756c6520696e64657800006044820152606490fd5b346101ec5760e03660031901126101ec5767ffffffffffffffff6004358181116101ec57612526903690600401612a67565b6024358381116101ec5761253e903690600401612a67565b6101e052926044358181116101ec5761255b903690600401612a67565b6101a0526080526064358181116101ec5761257a903690600401612a67565b60c05260a0526084358181116101ec57612598903690600401612a67565b6101405260e05260a4358181116101ec576125b7903690600401612a67565b610160526101005260c435116101ec576125d63660c435600401612a67565b61018052610120526125e6613191565b6125f46101e0518214612bc6565b6126026101a0518214612bc6565b61260f60c0518214612bc6565b61261d610140518214612bc6565b61262b610160518214612bc6565b612639610180518214612bc6565b801561293d57606481116128ff5760006101c0525b806101c0511061265a57005b61268260018060a01b0361267a6126756101c0518587612c0a565b612c1a565b161515612c2e565b6126956101c0516101405160e051612c0a565b351515806128dd575b6126a790612c7a565b6126c860646126c06101c0516101805161012051612c0a565b351115612cc6565b6126e46126dc6101c0516101e05186612c0a565b351515612d04565b612703426126fb6101c0516101a051608051612c0a565b351015612d5c565b6127346127186101c05160c05160a051612c0a565b3561272c6101c0516101405160e051612c0a565b351015612da7565b6101c0516001600160a01b039061275090612675908486612c0a565b1660005261016260205261283460406000206127736101c0516101e05187612c0a565b35906127886101c0516101a051608051612c0a565b356127b961279f6101c0516101a051608051612c0a565b356127b26101c05160c05160a051612c0a565b3590612bb9565b6127cc6101c0516101405160e051612c0a565b356127e16101c0516101605161010051612c0a565b35916127f76101c0516101805161012051612c0a565b35936040519661280688612aca565b600188526020880152600060408801526060870152608086015260a085015260c084015260e0830152612e07565b6128456126756101c0518385612c0a565b6101c0516001600160a01b039061286190612675908587612c0a565b166000526101626020526040600020549081600019810111610e955760407f9ade76f4385de306666dfb21a52b27d52db0fde8ad0f515fa261f532cac60d21916128b26101c0516101e05189612c0a565b825160001990950185523560208501526001600160a01b031692a260016101c051016101c05261264e565b506126a76128f56101c0516101605161010051612c0a565b351515905061269e565b60405162461bcd60e51b8152602060048201526016602482015275546f6f206d616e792062656e6566696369617269657360501b6044820152606490fd5b60405162461bcd60e51b815260206004820152600c60248201526b456d7074792061727261797360a01b6044820152606490fd5b346101ec5760203660031901126101ec5761298a612a3b565b6001600160a01b0316600090815261016260205260408120805482915b8184106129b957602083604051908152f35b90916129de6001916121b8836129cf8887612a98565b50015460026121af8988612a98565b93019291906129a7565b346101ec5760203660031901126101ec576004359063ffffffff60e01b82168092036101ec57602091637965db0b60e01b8114908115612a2a575b5015158152f35b6301ffc9a760e01b14905083612a23565b600435906001600160a01b03821682036101ec57565b602435906001600160a01b03821682036101ec57565b9181601f840112156101ec5782359167ffffffffffffffff83116101ec576020808501948460051b0101116101ec57565b8054821015612ab45760005260206000209060031b0190600090565b634e487b7160e01b600052603260045260246000fd5b610100810190811067ffffffffffffffff82111761060057604052565b6060810190811067ffffffffffffffff82111761060057604052565b6080810190811067ffffffffffffffff82111761060057604052565b90601f8019910116810190811067ffffffffffffffff82111761060057604052565b67ffffffffffffffff811161060057601f01601f191660200190565b60005b838110612b705750506000910152565b8181015183820152602001612b60565b60409160208252612ba08151809281602086015260208686019101612b5d565b601f01601f1916010190565b91908203918211610e9557565b91908201809211610e9557565b15612bcd57565b60405162461bcd60e51b8152602060048201526015602482015274082e4e4c2f240d8cadccee8d040dad2e6dac2e8c6d605b1b6044820152606490fd5b9190811015612ab45760051b0190565b356001600160a01b03811681036101ec5790565b15612c3557565b60405162461bcd60e51b815260206004820152601b60248201527f496e76616c69642062656e6566696369617279206164647265737300000000006044820152606490fd5b15612c8157565b60405162461bcd60e51b815260206004820152601960248201527f496e76616c6964206475726174696f6e206f7220736c696365000000000000006044820152606490fd5b15612ccd57565b60405162461bcd60e51b815260206004820152600f60248201526e496e76616c696420636c696666202560881b6044820152606490fd5b15612d0b57565b60405162461bcd60e51b815260206004820152602360248201527f546f74616c20616d6f756e74206d75737420626520677265617465722074686160448201526206e20360ec1b6064820152608490fd5b15612d6357565b606460405162461bcd60e51b815260206004820152602060248201527f53746172742074696d652063616e6e6f7420626520696e2074686520706173746044820152fd5b15612dae57565b60405162461bcd60e51b815260206004820152602b60248201527f436c696666206475726174696f6e2063616e6e6f742065786365656420746f7460448201526a30b610323ab930ba34b7b760a91b6064820152608490fd5b80546801000000000000000081101561060057612e2991600182018155612a98565b919091612e885760e08160079251151560ff801986541691161784556020810151600185015560408101516002850155606081015160038501556080810151600485015560a0810151600585015560c081015160068501550151910155565b634e487b7160e01b600052600060045260246000fd5b90604051612eab81612aca565b60e06007829460ff8154161515845260018101546020850152600281015460408501526003810154606085015260048101546080850152600581015460a0850152600681015460c08501520154910152565b908160209103126101ec575180151581036101ec5790565b15612f1c57565b60405162461bcd60e51b815260206004820152602c60248201527f46756e6374696f6e206d7573742062652063616c6c6564207468726f7567682060448201526b19195b1959d85d1958d85b1b60a21b6064820152608490fd5b15612f7d57565b60405162461bcd60e51b815260206004820152602c60248201527f46756e6374696f6e206d7573742062652063616c6c6564207468726f7567682060448201526b6163746976652070726f787960a01b6064820152608490fd5b67ffffffffffffffff81116106005760051b60200190565b81810292918115918404141715610e9557565b811561300c570490565b634e487b7160e01b600052601260045260246000fd5b8051158015613171575b61316b57608081019081514210600014613047575050600090565b6060810180519061305e60a0840192835190612bb9565b421061307e57505061307b91506040602082015191015190612bac565b90565b600093514210158061315e575b61313b575b61309b905142612bac565b60208301916130bc835160646130b560e088015183612fef565b0490612bac565b91806130f5575b505050518083116130ec575b5060400151808211156130e55761307b91612bac565b5050600090565b915060406130cf565b6131139061310960c0870191825190613002565b9251905190613002565b9182156130c3579161312d6121b892613132959794612fef565b613002565b913880806130c3565b925061309b6064613155602085015160e086015190612fef565b04939050613090565b5060e0830151151561308b565b50600090565b5060208101511561302c565b8051821015612ab45760209160051b010190565b3360009081527ff7eb0daba1366a953481591555412f50097a7418b48cd07b54c80a4fe83e658460209081526040808320549092906000805160206138b88339815191529060ff16156131e45750505050565b6131ed33613707565b8451916131f983612b03565b604283528483019360603686378351156133825760308553835190600191600110156133825790607860218601536041915b818311613314575050506132d2576132809385936132b8936132a96048946132ce9951988576020b1b1b2b9b9a1b7b73a3937b61d1030b1b1b7bab73a1604d1b8b978801528251928391603789019101612b5d565b8401917001034b99036b4b9b9b4b733903937b6329607d1b603784015251809386840190612b5d565b01036028810185520183612b1f565b5162461bcd60e51b815291829160048301612b80565b0390fd5b60648486519062461bcd60e51b825280600483015260248201527f537472696e67733a20686578206c656e67746820696e73756666696369656e746044820152fd5b909192600f8116601081101561336e576f181899199a1a9b1b9c1cb0b131b232b360811b901a61334485886136f6565b5360041c92801561335a5760001901919061322b565b634e487b7160e01b82526011600452602482fd5b634e487b7160e01b83526032600452602483fd5b634e487b7160e01b81526032600452602490fd5b600081815260209061012d8252604092838220338352835260ff8483205416156133c05750505050565b6133c933613707565b8451916133d583612b03565b604283528483019360603686378351156133825760308553835190600191600110156133825790607860218601536041915b81831161345c575050506132d2576132809385936132b8936132a96048946132ce9951988576020b1b1b2b9b9a1b7b73a3937b61d1030b1b1b7bab73a1604d1b8b978801528251928391603789019101612b5d565b909192600f8116601081101561336e576f181899199a1a9b1b9c1cb0b131b232b360811b901a61348c85886136f6565b5360041c92801561335a57600019019190613407565b60ff606554166134ae57565b60405162461bcd60e51b815260206004820152601060248201526f14185d5cd8589b194e881c185d5cd95960821b6044820152606490fd5b9060009180835261012d80602052604084209260018060a01b03169283855260205260ff60408520541661351b575b50505050565b818452602052604083208284526020526040832060ff1981541690557ff6391f5c32d9c69d2a47ea670b442974b53935d1edc7fd64eb21e047a839171b339380a438808080613515565b6033546001600160a01b0316330361357957565b606460405162461bcd60e51b815260206004820152602060248201527f4f776e61626c653a2063616c6c6572206973206e6f7420746865206f776e65726044820152fd5b603380546001600160a01b039283166001600160a01b0319821681179092559091167f8be0079c531659141344cd1fd0a4f28419497f9722a3daafe3b4186f6b6457e0600080a3565b1561360d57565b60405162461bcd60e51b815260206004820152602b60248201527f496e697469616c697a61626c653a20636f6e7472616374206973206e6f74206960448201526a6e697469616c697a696e6760a81b6064820152608490fd5b803b1561369b576000805160206138d883398151915280546001600160a01b0319166001600160a01b03909216919091179055565b60405162461bcd60e51b815260206004820152602d60248201527f455243313936373a206e657720696d706c656d656e746174696f6e206973206e60448201526c1bdd08184818dbdb9d1c9858dd609a1b6064820152608490fd5b908151811015612ab4570160200190565b6040519061371482612ae7565b602a8252602082016040368237825115612ab45760309053815160019060011015612ab457607860218401536029905b8082116137985750506137545790565b606460405162461bcd60e51b815260206004820152602060248201527f537472696e67733a20686578206c656e67746820696e73756666696369656e746044820152fd5b9091600f811660108110156137f1576f181899199a1a9b1b9c1cb0b131b232b360811b901a6137c784866136f6565b5360041c9180156137dc576000190190613744565b60246000634e487b7160e01b81526011600452fd5b60246000634e487b7160e01b81526032600452fd5b91929015613868575081511561381a575090565b3b156138235790565b60405162461bcd60e51b815260206004820152601d60248201527f416464726573733a2063616c6c20746f206e6f6e2d636f6e74726163740000006044820152606490fd5b82519091501561387b5750805190602001fd5b60405162461bcd60e51b81529081906132ce9060048301612b8056fe2f8788117e7eff1d82e926ec794901d17c78024a50270940304540a733656f0d71e15edd14fd3418eb6412e352e9213f5344899ecebf19a3e57e7d605e2472b2360894a13ba1a3210667c828492db98dca3e2076cc3735a920a3ca505d382bbca2646970667358221220d5c0d3d93ee81639129a99f92b93799b25d5e273afe6552f05275ad46e0752b064736f6c63430008190033","opcodes":"PUSH1 0xC0 DUP1 PUSH1 0x40 MSTORE CALLVALUE PUSH2 0xF0 JUMPI ADDRESS PUSH1 0x80 MSTORE CALLER PUSH1 0xA0 MSTORE PUSH1 0x0 SLOAD SWAP1 PUSH1 0xFF DUP3 PUSH1 0x8 SHR AND PUSH2 0x9E JUMPI POP PUSH1 0xFF DUP1 DUP3 AND SUB PUSH2 0x63 JUMPI JUMPDEST PUSH1 0x40 MLOAD PUSH2 0x392D SWAP1 DUP2 PUSH2 0xF6 DUP3 CODECOPY PUSH1 0x80 MLOAD DUP2 DUP2 DUP2 PUSH2 0x1228 ADD MSTORE DUP2 DUP2 PUSH2 0x1355 ADD MSTORE PUSH2 0x1DAB ADD MSTORE PUSH1 0xA0 MLOAD DUP2 DUP2 DUP2 PUSH2 0x79C ADD MSTORE PUSH2 0x1048 ADD MSTORE RETURN JUMPDEST PUSH1 0xFF SWAP1 DUP2 NOT AND OR PUSH1 0x0 SSTORE PUSH32 0x7F26B83FF96E1F2B6A682F133852F6798A09C465DA95921460CEFB3847402498 PUSH1 0x20 PUSH1 0x40 MLOAD PUSH1 0xFF DUP2 MSTORE LOG1 CODESIZE PUSH2 0x2D JUMP JUMPDEST PUSH3 0x461BCD PUSH1 0xE5 SHL DUP2 MSTORE PUSH1 0x20 PUSH1 0x4 DUP3 ADD MSTORE PUSH1 0x27 PUSH1 0x24 DUP3 ADD MSTORE PUSH32 0x496E697469616C697A61626C653A20636F6E747261637420697320696E697469 PUSH1 0x44 DUP3 ADD MSTORE PUSH7 0x616C697A696E67 PUSH1 0xC8 SHL PUSH1 0x64 DUP3 ADD MSTORE PUSH1 0x84 SWAP1 REVERT JUMPDEST PUSH1 0x0 DUP1 REVERT INVALID PUSH2 0x200 DUP1 PUSH1 0x40 MSTORE PUSH1 0x4 CALLDATASIZE LT ISZERO PUSH2 0x14 JUMPI PUSH1 0x0 DUP1 REVERT JUMPDEST PUSH1 0x0 CALLDATALOAD PUSH1 0xE0 SHR SWAP1 DUP2 PUSH4 0x1FFC9A7 EQ PUSH2 0x29E8 JUMPI POP DUP1 PUSH4 0x5C77A3C EQ PUSH2 0x2971 JUMPI DUP1 PUSH4 0x77A259C EQ PUSH2 0x24F4 JUMPI DUP1 PUSH4 0xDE05659 EQ PUSH2 0x22E4 JUMPI DUP1 PUSH4 0x248A9CA3 EQ PUSH2 0x22B4 JUMPI DUP1 PUSH4 0x2EB4A7AB EQ PUSH2 0x2295 JUMPI DUP1 PUSH4 0x2F2FF15D EQ PUSH2 0x21F5 JUMPI DUP1 PUSH4 0x34F2C747 EQ PUSH2 0x2102 JUMPI DUP1 PUSH4 0x36568ABE EQ PUSH2 0x2070 JUMPI DUP1 PUSH4 0x3659CFE6 EQ PUSH2 0x1D86 JUMPI DUP1 PUSH4 0x379607F5 EQ PUSH2 0x1B53 JUMPI DUP1 PUSH4 0x3F4BA83A EQ PUSH2 0x1ABF JUMPI DUP1 PUSH4 0x401D4482 EQ PUSH2 0x1914 JUMPI DUP1 PUSH4 0x45626BD6 EQ PUSH2 0x186D JUMPI DUP1 PUSH4 0x48904881 EQ PUSH2 0x1682 JUMPI DUP1 PUSH4 0x4F1EF286 EQ PUSH2 0x12D9 JUMPI DUP1 PUSH4 0x52D1902D EQ PUSH2 0x1215 JUMPI DUP1 PUSH4 0x5C975ABB EQ PUSH2 0x11F2 JUMPI DUP1 PUSH4 0x715018A6 EQ PUSH2 0x1195 JUMPI DUP1 PUSH4 0x7CB64759 EQ PUSH2 0x1148 JUMPI DUP1 PUSH4 0x8456CB59 EQ PUSH2 0x10EE JUMPI DUP1 PUSH4 0x8DA5CB5B EQ PUSH2 0x10C5 JUMPI DUP1 PUSH4 0x91D14854 EQ PUSH2 0x1077 JUMPI DUP1 PUSH4 0x9E85F9AA EQ PUSH2 0x1032 JUMPI DUP1 PUSH4 0xA217FDDF EQ PUSH2 0x1016 JUMPI DUP1 PUSH4 0xABD70AA2 EQ PUSH2 0xF8C JUMPI DUP1 PUSH4 0xB9703626 EQ PUSH2 0xC35 JUMPI DUP1 PUSH4 0xBEBC2145 EQ PUSH2 0xC11 JUMPI DUP1 PUSH4 0xC0C53B8B EQ PUSH2 0x724 JUMPI DUP1 PUSH4 0xC8F50B4C EQ PUSH2 0x6FB JUMPI DUP1 PUSH4 0xD33219B4 EQ PUSH2 0x6CD JUMPI DUP1 PUSH4 0xD547741F EQ PUSH2 0x68D JUMPI DUP1 PUSH4 0xD701460C EQ PUSH2 0x616 JUMPI DUP1 PUSH4 0xD7E84FBF EQ PUSH2 0x5A2 JUMPI DUP1 PUSH4 0xDD49756E EQ PUSH2 0x4A6 JUMPI DUP1 PUSH4 0xF2FDE38B EQ PUSH2 0x417 JUMPI DUP1 PUSH4 0xFB897CE4 EQ PUSH2 0x1F1 JUMPI PUSH4 0xFC0C546A EQ PUSH2 0x1C2 JUMPI PUSH1 0x0 DUP1 REVERT JUMPDEST CALLVALUE PUSH2 0x1EC JUMPI PUSH1 0x0 CALLDATASIZE PUSH1 0x3 NOT ADD SLT PUSH2 0x1EC JUMPI PUSH2 0x15F SLOAD PUSH1 0x40 MLOAD PUSH1 0x1 PUSH1 0x1 PUSH1 0xA0 SHL SUB SWAP1 SWAP2 AND DUP2 MSTORE PUSH1 0x20 SWAP1 RETURN JUMPDEST PUSH1 0x0 DUP1 REVERT JUMPDEST CALLVALUE PUSH2 0x1EC JUMPI PUSH1 0x20 DUP1 PUSH1 0x3 NOT CALLDATASIZE ADD SLT PUSH2 0x1EC JUMPI PUSH1 0x1 PUSH1 0x1 PUSH1 0xA0 SHL SUB PUSH2 0x213 PUSH2 0x2A3B JUMP JUMPDEST AND DUP1 PUSH1 0x0 MSTORE PUSH2 0x162 DUP1 DUP4 MSTORE PUSH1 0x40 PUSH1 0x0 KECCAK256 SLOAD SWAP3 PUSH2 0x22E DUP5 PUSH2 0x2FD7 JUMP JUMPDEST SWAP4 PUSH2 0x23C PUSH1 0x40 MLOAD SWAP6 DUP7 PUSH2 0x2B1F JUMP JUMPDEST DUP1 DUP6 MSTORE PUSH2 0x248 DUP2 PUSH2 0x2FD7 JUMP JUMPDEST PUSH1 0x1F NOT SWAP4 SWAP1 DUP5 ADD PUSH1 0x0 JUMPDEST DUP2 DUP2 LT PUSH2 0x3C1 JUMPI POP POP PUSH2 0x264 DUP3 PUSH2 0x2FD7 JUMP JUMPDEST SWAP5 PUSH2 0x272 PUSH1 0x40 MLOAD SWAP7 DUP8 PUSH2 0x2B1F JUMP JUMPDEST DUP3 DUP7 MSTORE PUSH2 0x27E DUP4 PUSH2 0x2FD7 JUMP JUMPDEST DUP7 DUP6 ADD SWAP6 ADD CALLDATASIZE DUP7 CALLDATACOPY PUSH1 0x0 JUMPDEST DUP4 DUP2 LT PUSH2 0x35E JUMPI POP POP POP POP PUSH1 0x40 MLOAD SWAP4 DUP5 SWAP4 PUSH1 0x40 DUP6 ADD PUSH1 0x40 DUP7 MSTORE DUP3 MLOAD DUP1 SWAP2 MSTORE PUSH1 0x60 SWAP1 DUP5 PUSH1 0x60 DUP9 ADD SWAP5 ADD SWAP2 PUSH1 0x0 SWAP1 JUMPDEST DUP3 DUP3 LT PUSH2 0x2FA JUMPI POP POP POP POP DUP5 DUP3 SUB DUP6 DUP5 ADD MSTORE MLOAD DUP1 DUP3 MSTORE SWAP1 DUP3 ADD SWAP3 SWAP2 PUSH1 0x0 JUMPDEST DUP3 DUP2 LT PUSH2 0x2E3 JUMPI POP POP POP POP SUB SWAP1 RETURN JUMPDEST DUP4 MLOAD DUP6 MSTORE DUP7 SWAP6 POP SWAP4 DUP2 ADD SWAP4 SWAP3 DUP2 ADD SWAP3 PUSH1 0x1 ADD PUSH2 0x2D4 JUMP JUMPDEST DUP4 MLOAD DUP1 MLOAD ISZERO ISZERO DUP8 MSTORE DUP1 DUP9 ADD MLOAD DUP9 DUP9 ADD MSTORE PUSH1 0x40 DUP1 DUP3 ADD MLOAD SWAP1 DUP9 ADD MSTORE DUP1 DUP3 ADD MLOAD DUP8 DUP4 ADD MSTORE PUSH1 0x80 DUP1 DUP3 ADD MLOAD SWAP1 DUP9 ADD MSTORE PUSH1 0xA0 DUP1 DUP3 ADD MLOAD SWAP1 DUP9 ADD MSTORE PUSH1 0xC0 DUP1 DUP3 ADD MLOAD SWAP1 DUP9 ADD MSTORE PUSH1 0xE0 SWAP1 DUP2 ADD MLOAD SWAP1 DUP8 ADD MSTORE DUP10 SWAP9 POP PUSH2 0x100 SWAP1 SWAP6 ADD SWAP5 SWAP3 DUP7 ADD SWAP3 PUSH1 0x1 SWAP2 SWAP1 SWAP2 ADD SWAP1 PUSH2 0x2B6 JUMP JUMPDEST PUSH1 0x1 SWAP1 DUP3 PUSH1 0x0 SWAP10 SWAP8 SWAP9 SWAP10 MSTORE DUP4 DUP7 MSTORE PUSH2 0x383 PUSH2 0x37D DUP3 PUSH1 0x40 PUSH1 0x0 KECCAK256 PUSH2 0x2A98 JUMP JUMPDEST POP PUSH2 0x2E9E JUMP JUMPDEST PUSH2 0x38D DUP3 DUP10 PUSH2 0x317D JUMP JUMPDEST MSTORE PUSH2 0x398 DUP2 DUP9 PUSH2 0x317D JUMP JUMPDEST POP PUSH2 0x3AC PUSH2 0x3A6 DUP3 DUP10 PUSH2 0x317D JUMP JUMPDEST MLOAD PUSH2 0x3022 JUMP JUMPDEST PUSH2 0x3B6 DUP3 DUP12 PUSH2 0x317D JUMP JUMPDEST MSTORE ADD SWAP7 SWAP6 SWAP5 SWAP7 PUSH2 0x289 JUMP JUMPDEST DUP5 SWAP1 PUSH1 0x40 SWAP9 SWAP7 SWAP8 SWAP9 MLOAD PUSH2 0x3D3 DUP2 PUSH2 0x2ACA JUMP JUMPDEST PUSH1 0x0 DUP2 MSTORE PUSH1 0x0 DUP4 DUP3 ADD MSTORE PUSH1 0x0 PUSH1 0x40 DUP3 ADD MSTORE PUSH1 0x0 PUSH1 0x60 DUP3 ADD MSTORE PUSH1 0x0 PUSH1 0x80 DUP3 ADD MSTORE PUSH1 0x0 PUSH1 0xA0 DUP3 ADD MSTORE PUSH1 0x0 PUSH1 0xC0 DUP3 ADD MSTORE PUSH1 0x0 PUSH1 0xE0 DUP3 ADD MSTORE DUP3 DUP3 DUP10 ADD ADD MSTORE ADD SWAP7 SWAP6 SWAP5 SWAP7 PUSH2 0x252 JUMP JUMPDEST CALLVALUE PUSH2 0x1EC JUMPI PUSH1 0x20 CALLDATASIZE PUSH1 0x3 NOT ADD SLT PUSH2 0x1EC JUMPI PUSH2 0x430 PUSH2 0x2A3B JUMP JUMPDEST PUSH2 0x438 PUSH2 0x3565 JUMP JUMPDEST PUSH1 0x1 PUSH1 0x1 PUSH1 0xA0 SHL SUB DUP2 AND ISZERO PUSH2 0x452 JUMPI PUSH2 0x450 SWAP1 PUSH2 0x35BD JUMP JUMPDEST STOP JUMPDEST PUSH1 0x40 MLOAD PUSH3 0x461BCD PUSH1 0xE5 SHL DUP2 MSTORE PUSH1 0x20 PUSH1 0x4 DUP3 ADD MSTORE PUSH1 0x26 PUSH1 0x24 DUP3 ADD MSTORE PUSH32 0x4F776E61626C653A206E6577206F776E657220697320746865207A65726F2061 PUSH1 0x44 DUP3 ADD MSTORE PUSH6 0x646472657373 PUSH1 0xD0 SHL PUSH1 0x64 DUP3 ADD MSTORE PUSH1 0x84 SWAP1 REVERT JUMPDEST CALLVALUE PUSH2 0x1EC JUMPI PUSH1 0x20 DUP1 PUSH1 0x3 NOT CALLDATASIZE ADD SLT PUSH2 0x1EC JUMPI PUSH1 0x4 CALLDATALOAD SWAP1 PUSH1 0x0 DUP2 PUSH1 0x1 DUP1 PUSH1 0xA0 SHL SUB PUSH2 0x15F SLOAD AND PUSH1 0x64 PUSH1 0x40 MLOAD DUP1 SWAP5 DUP2 SWAP4 PUSH4 0x23B872DD PUSH1 0xE0 SHL DUP4 MSTORE CALLER PUSH1 0x4 DUP5 ADD MSTORE ADDRESS PUSH1 0x24 DUP5 ADD MSTORE DUP9 PUSH1 0x44 DUP5 ADD MSTORE GAS CALL SWAP1 DUP2 ISZERO PUSH2 0x596 JUMPI PUSH1 0x0 SWAP2 PUSH2 0x569 JUMPI JUMPDEST POP ISZERO PUSH2 0x534 JUMPI PUSH32 0x59062170A285EB80E8C6B8CED60428442A51910635005233FC4CE084A475845E SWAP1 PUSH1 0x40 MLOAD SWAP3 DUP4 MSTORE CALLER SWAP3 LOG2 STOP JUMPDEST PUSH1 0x64 SWAP1 PUSH1 0x40 MLOAD SWAP1 PUSH3 0x461BCD PUSH1 0xE5 SHL DUP3 MSTORE PUSH1 0x4 DUP3 ADD MSTORE PUSH1 0xE PUSH1 0x24 DUP3 ADD MSTORE PUSH14 0x11195C1BDCDA5D0819985A5B1959 PUSH1 0x92 SHL PUSH1 0x44 DUP3 ADD MSTORE REVERT JUMPDEST PUSH2 0x589 SWAP2 POP DUP3 RETURNDATASIZE DUP5 GT PUSH2 0x58F JUMPI JUMPDEST PUSH2 0x581 DUP2 DUP4 PUSH2 0x2B1F JUMP JUMPDEST DUP2 ADD SWAP1 PUSH2 0x2EFD JUMP JUMPDEST DUP4 PUSH2 0x501 JUMP JUMPDEST POP RETURNDATASIZE PUSH2 0x577 JUMP JUMPDEST PUSH1 0x40 MLOAD RETURNDATASIZE PUSH1 0x0 DUP3 RETURNDATACOPY RETURNDATASIZE SWAP1 REVERT JUMPDEST CALLVALUE PUSH2 0x1EC JUMPI PUSH1 0x0 CALLDATASIZE PUSH1 0x3 NOT ADD SLT PUSH2 0x1EC JUMPI PUSH1 0x40 MLOAD PUSH1 0x40 DUP2 ADD SWAP1 DUP1 DUP3 LT PUSH8 0xFFFFFFFFFFFFFFFF DUP4 GT OR PUSH2 0x600 JUMPI PUSH2 0x5FC SWAP2 PUSH1 0x40 MSTORE PUSH1 0xE DUP2 MSTORE PUSH14 0x544F50415920444556205445414D PUSH1 0x90 SHL PUSH1 0x20 DUP3 ADD MSTORE PUSH1 0x40 MLOAD SWAP2 DUP3 SWAP2 DUP3 PUSH2 0x2B80 JUMP JUMPDEST SUB SWAP1 RETURN JUMPDEST PUSH4 0x4E487B71 PUSH1 0xE0 SHL PUSH1 0x0 MSTORE PUSH1 0x41 PUSH1 0x4 MSTORE PUSH1 0x24 PUSH1 0x0 REVERT JUMPDEST CALLVALUE PUSH2 0x1EC JUMPI PUSH2 0x100 CALLDATASIZE PUSH1 0x3 NOT ADD SLT PUSH2 0x1EC JUMPI PUSH1 0x40 MLOAD PUSH2 0x634 DUP2 PUSH2 0x2ACA JUMP JUMPDEST PUSH1 0x4 CALLDATALOAD DUP1 ISZERO ISZERO DUP2 SUB PUSH2 0x1EC JUMPI DUP2 PUSH2 0x685 SWAP2 PUSH1 0x20 SWAP4 MSTORE PUSH1 0x24 CALLDATALOAD DUP4 DUP3 ADD MSTORE PUSH1 0x44 CALLDATALOAD PUSH1 0x40 DUP3 ADD MSTORE PUSH1 0x64 CALLDATALOAD PUSH1 0x60 DUP3 ADD MSTORE PUSH1 0x84 CALLDATALOAD PUSH1 0x80 DUP3 ADD MSTORE PUSH1 0xA4 CALLDATALOAD PUSH1 0xA0 DUP3 ADD MSTORE PUSH1 0xC4 CALLDATALOAD PUSH1 0xC0 DUP3 ADD MSTORE PUSH1 0xE4 CALLDATALOAD PUSH1 0xE0 DUP3 ADD MSTORE PUSH2 0x3022 JUMP JUMPDEST PUSH1 0x40 MLOAD SWAP1 DUP2 MSTORE RETURN JUMPDEST CALLVALUE PUSH2 0x1EC JUMPI PUSH1 0x40 CALLDATASIZE PUSH1 0x3 NOT ADD SLT PUSH2 0x1EC JUMPI PUSH2 0x450 PUSH1 0x4 CALLDATALOAD PUSH2 0x6AC PUSH2 0x2A51 JUMP JUMPDEST SWAP1 DUP1 PUSH1 0x0 MSTORE PUSH2 0x12D PUSH1 0x20 MSTORE PUSH2 0x6C8 PUSH1 0x1 PUSH1 0x40 PUSH1 0x0 KECCAK256 ADD SLOAD PUSH2 0x3396 JUMP JUMPDEST PUSH2 0x34E6 JUMP JUMPDEST CALLVALUE PUSH2 0x1EC JUMPI PUSH1 0x0 CALLDATASIZE PUSH1 0x3 NOT ADD SLT PUSH2 0x1EC JUMPI PUSH2 0x161 SLOAD PUSH1 0x40 MLOAD PUSH1 0x8 SWAP2 SWAP1 SWAP2 SHR PUSH1 0x1 PUSH1 0x1 PUSH1 0xA0 SHL SUB AND DUP2 MSTORE PUSH1 0x20 SWAP1 RETURN JUMPDEST CALLVALUE PUSH2 0x1EC JUMPI PUSH1 0x0 CALLDATASIZE PUSH1 0x3 NOT ADD SLT PUSH2 0x1EC JUMPI PUSH1 0x20 PUSH1 0x40 MLOAD PUSH1 0x0 DUP1 MLOAD PUSH1 0x20 PUSH2 0x38B8 DUP4 CODECOPY DUP2 MLOAD SWAP2 MSTORE DUP2 MSTORE RETURN JUMPDEST CALLVALUE PUSH2 0x1EC JUMPI PUSH1 0x60 CALLDATASIZE PUSH1 0x3 NOT ADD SLT PUSH2 0x1EC JUMPI PUSH2 0x73D PUSH2 0x2A3B JUMP JUMPDEST PUSH2 0x745 PUSH2 0x2A51 JUMP JUMPDEST PUSH1 0x44 DUP1 CALLDATALOAD SWAP2 SWAP1 PUSH1 0x1 PUSH1 0x1 PUSH1 0xA0 SHL SUB SWAP1 DUP2 DUP5 AND SWAP1 DUP2 DUP6 SUB PUSH2 0x1EC JUMPI PUSH1 0x0 SLOAD SWAP5 PUSH1 0xFF PUSH1 0x8 SWAP7 DUP2 DUP2 DUP10 SHR AND ISZERO SWAP6 DUP7 DUP1 SWAP8 PUSH2 0xC05 JUMPI JUMPDEST DUP1 ISZERO PUSH2 0xBEF JUMPI JUMPDEST ISZERO PUSH2 0xB94 JUMPI PUSH1 0x1 SWAP10 PUSH1 0xFF NOT SWAP3 DUP9 DUP13 DUP6 DUP4 AND OR PUSH1 0x0 SSTORE PUSH2 0xB82 JUMPI JUMPDEST POP DUP2 PUSH32 0x0 AND CALLER SUB PUSH2 0xB3E JUMPI DUP2 AND SWAP8 DUP9 ISZERO PUSH2 0xB02 JUMPI DUP2 DUP2 AND SWAP6 DUP7 ISZERO PUSH2 0xAC6 JUMPI DUP8 ISZERO PUSH2 0xA82 JUMPI POP PUSH2 0x7F4 DUP5 PUSH1 0x0 SLOAD DUP13 SHR AND PUSH2 0x7EF DUP2 PUSH2 0x3606 JUMP JUMPDEST PUSH2 0x3606 JUMP JUMPDEST PUSH2 0x7FD CALLER PUSH2 0x35BD JUMP JUMPDEST PUSH2 0x82A DUP5 PUSH1 0x0 SLOAD DUP13 SHR AND PUSH2 0x810 DUP2 PUSH2 0x3606 JUMP JUMPDEST PUSH2 0x819 DUP2 PUSH2 0x3606 JUMP JUMPDEST DUP5 PUSH1 0x65 SLOAD AND PUSH1 0x65 SSTORE PUSH2 0x7EF DUP2 PUSH2 0x3606 JUMP JUMPDEST PUSH2 0x15F DUP1 SLOAD PUSH1 0x1 PUSH1 0x1 PUSH1 0xA0 SHL SUB NOT AND DUP11 OR SWAP1 SSTORE CALLER DUP7 SUB PUSH2 0xA73 JUMPI JUMPDEST POP PUSH1 0x0 DUP6 DUP2 MSTORE PUSH32 0xA581B17BFC4D6578E300CAFBF34FD2DC1FEF0270D8C73F88A99DCDE2859A6639 PUSH1 0x20 SWAP1 DUP2 MSTORE PUSH1 0x40 SWAP1 SWAP2 KECCAK256 SLOAD SWAP1 SWAP10 PUSH2 0x12D SWAP3 SWAP2 DUP6 AND ISZERO PUSH2 0xA39 JUMPI JUMPDEST PUSH1 0x0 DUP1 MLOAD PUSH1 0x20 PUSH2 0x38B8 DUP4 CODECOPY DUP2 MLOAD SWAP2 MSTORE SWAP6 DUP7 PUSH1 0x0 MSTORE DUP4 DUP13 MSTORE PUSH1 0x40 PUSH1 0x0 KECCAK256 DUP9 PUSH1 0x0 MSTORE DUP13 MSTORE DUP6 PUSH1 0x40 PUSH1 0x0 KECCAK256 SLOAD AND ISZERO PUSH2 0x9FF JUMPI JUMPDEST PUSH2 0x161 DUP1 SLOAD PUSH2 0x100 PUSH1 0x1 PUSH1 0xA8 SHL SUB NOT AND SWAP2 DUP4 SHL PUSH2 0x100 PUSH1 0x1 PUSH1 0xA8 SHL SUB AND SWAP2 SWAP1 SWAP2 OR DUP1 DUP3 SSTORE PUSH1 0x0 DUP1 DUP1 MSTORE DUP6 DUP15 MSTORE PUSH1 0x40 DUP1 DUP3 KECCAK256 SWAP3 DUP6 SHR DUP7 AND DUP1 DUP4 MSTORE SWAP3 DUP16 MSTORE SWAP1 KECCAK256 SLOAD DUP8 AND ISZERO PUSH2 0x9C3 JUMPI JUMPDEST POP SLOAD SWAP1 SHR AND SWAP3 DUP5 PUSH1 0x0 MSTORE DUP2 DUP11 MSTORE PUSH1 0x40 PUSH1 0x0 KECCAK256 DUP5 PUSH1 0x0 MSTORE DUP11 MSTORE PUSH1 0x40 PUSH1 0x0 KECCAK256 SLOAD AND ISZERO PUSH2 0x987 JUMPI JUMPDEST POP POP POP POP PUSH1 0x40 MLOAD SWAP4 PUSH32 0xB66992478F7AC920287599C0C595E781DEA4AAE4D7DE20364F24157A65C985FB PUSH1 0x0 DUP1 LOG4 PUSH2 0x955 JUMPI STOP JUMPDEST PUSH32 0x7F26B83FF96E1F2B6A682F133852F6798A09C465DA95921460CEFB3847402498 SWAP3 PUSH2 0xFF00 NOT PUSH1 0x0 SLOAD AND PUSH1 0x0 SSTORE DUP2 MSTORE LOG1 STOP JUMPDEST DUP4 PUSH1 0x0 MSTORE DUP9 MSTORE PUSH1 0x40 PUSH1 0x0 KECCAK256 DUP3 PUSH1 0x0 MSTORE DUP9 MSTORE DUP9 PUSH1 0x40 PUSH1 0x0 KECCAK256 SWAP2 DUP3 SLOAD AND OR SWAP1 SSTORE CALLER SWAP2 PUSH1 0x0 DUP1 MLOAD PUSH1 0x20 PUSH2 0x3898 DUP4 CODECOPY DUP2 MLOAD SWAP2 MSTORE PUSH1 0x0 DUP1 LOG4 DUP7 DUP1 DUP1 DUP1 PUSH2 0x922 JUMP JUMPDEST PUSH1 0x0 DUP1 MSTORE DUP5 DUP14 MSTORE PUSH1 0x40 PUSH1 0x0 KECCAK256 DUP2 PUSH1 0x0 MSTORE DUP14 MSTORE DUP14 PUSH1 0x40 PUSH1 0x0 KECCAK256 SWAP1 DUP8 DUP3 SLOAD AND OR SWAP1 SSTORE CALLER SWAP1 PUSH1 0x0 PUSH1 0x0 DUP1 MLOAD PUSH1 0x20 PUSH2 0x3898 DUP4 CODECOPY DUP2 MLOAD SWAP2 MSTORE DUP2 DUP1 LOG4 DUP14 PUSH2 0x8FD JUMP JUMPDEST DUP7 PUSH1 0x0 MSTORE DUP4 DUP13 MSTORE PUSH1 0x40 PUSH1 0x0 KECCAK256 DUP9 PUSH1 0x0 MSTORE DUP13 MSTORE PUSH1 0x40 PUSH1 0x0 KECCAK256 DUP14 DUP7 DUP3 SLOAD AND OR SWAP1 SSTORE CALLER DUP9 DUP9 PUSH1 0x0 DUP1 MLOAD PUSH1 0x20 PUSH2 0x3898 DUP4 CODECOPY DUP2 MLOAD SWAP2 MSTORE PUSH1 0x0 DUP1 LOG4 PUSH2 0x8B6 JUMP JUMPDEST PUSH1 0x0 DUP1 MSTORE DUP3 DUP12 MSTORE PUSH1 0x40 PUSH1 0x0 KECCAK256 DUP8 PUSH1 0x0 MSTORE DUP12 MSTORE PUSH1 0x40 PUSH1 0x0 KECCAK256 DUP13 DUP6 DUP3 SLOAD AND OR SWAP1 SSTORE CALLER DUP8 PUSH1 0x0 PUSH1 0x0 DUP1 MLOAD PUSH1 0x20 PUSH2 0x3898 DUP4 CODECOPY DUP2 MLOAD SWAP2 MSTORE DUP2 DUP1 LOG4 PUSH2 0x886 JUMP JUMPDEST PUSH2 0xA7C SWAP1 PUSH2 0x35BD JUMP JUMPDEST DUP11 PUSH2 0x845 JUMP JUMPDEST PUSH1 0x64 SWAP1 PUSH32 0x496E76616C69642074696D656C6F636B20616464726573730000000000000000 PUSH1 0x40 MLOAD SWAP2 PUSH3 0x461BCD PUSH1 0xE5 SHL DUP4 MSTORE PUSH1 0x20 PUSH1 0x4 DUP5 ADD MSTORE PUSH1 0x18 PUSH1 0x24 DUP5 ADD MSTORE DUP3 ADD MSTORE REVERT JUMPDEST PUSH1 0x64 SWAP1 PUSH21 0x496E76616C6964206F776E65722061646472657373 PUSH1 0x58 SHL PUSH1 0x40 MLOAD SWAP2 PUSH3 0x461BCD PUSH1 0xE5 SHL DUP4 MSTORE PUSH1 0x20 PUSH1 0x4 DUP5 ADD MSTORE PUSH1 0x15 PUSH1 0x24 DUP5 ADD MSTORE DUP3 ADD MSTORE REVERT JUMPDEST PUSH1 0x40 MLOAD PUSH3 0x461BCD PUSH1 0xE5 SHL DUP2 MSTORE PUSH1 0x20 PUSH1 0x4 DUP3 ADD MSTORE PUSH1 0x15 PUSH1 0x24 DUP3 ADD MSTORE PUSH21 0x496E76616C696420746F6B656E2061646472657373 PUSH1 0x58 SHL DUP2 DUP9 ADD MSTORE PUSH1 0x64 SWAP1 REVERT JUMPDEST PUSH1 0x40 MLOAD PUSH3 0x461BCD PUSH1 0xE5 SHL DUP2 MSTORE PUSH1 0x20 PUSH1 0x4 DUP3 ADD MSTORE PUSH1 0x18 PUSH1 0x24 DUP3 ADD MSTORE PUSH32 0x556E617574686F72697A656420696E697469616C697A65720000000000000000 DUP2 DUP9 ADD MSTORE PUSH1 0x64 SWAP1 REVERT JUMPDEST PUSH2 0xFFFF NOT AND PUSH2 0x101 OR PUSH1 0x0 SSTORE DUP12 PUSH2 0x798 JUMP JUMPDEST PUSH1 0x40 MLOAD PUSH3 0x461BCD PUSH1 0xE5 SHL DUP2 MSTORE PUSH1 0x20 PUSH1 0x4 DUP3 ADD MSTORE PUSH1 0x2E PUSH1 0x24 DUP3 ADD MSTORE PUSH32 0x496E697469616C697A61626C653A20636F6E747261637420697320616C726561 DUP2 DUP8 ADD MSTORE PUSH14 0x191E481A5B9A5D1A585B1A5E9959 PUSH1 0x92 SHL PUSH1 0x64 DUP3 ADD MSTORE PUSH1 0x84 SWAP1 REVERT JUMPDEST POP ADDRESS EXTCODESIZE ISZERO DUP1 ISZERO PUSH2 0x77E JUMPI POP PUSH1 0x1 DUP4 DUP4 AND EQ PUSH2 0x77E JUMP JUMPDEST POP PUSH1 0x1 DUP4 DUP4 AND LT PUSH2 0x777 JUMP JUMPDEST CALLVALUE PUSH2 0x1EC JUMPI PUSH1 0x0 CALLDATASIZE PUSH1 0x3 NOT ADD SLT PUSH2 0x1EC JUMPI PUSH1 0x20 PUSH1 0xFF PUSH2 0x161 SLOAD AND PUSH1 0x40 MLOAD SWAP1 ISZERO ISZERO DUP2 MSTORE RETURN JUMPDEST CALLVALUE PUSH2 0x1EC JUMPI PUSH2 0x100 CALLDATASIZE PUSH1 0x3 NOT ADD SLT PUSH2 0x1EC JUMPI PUSH2 0xC4F PUSH2 0x2A3B JUMP JUMPDEST PUSH1 0xE4 CALLDATALOAD PUSH8 0xFFFFFFFFFFFFFFFF DUP2 GT PUSH2 0x1EC JUMPI PUSH2 0xC6F SWAP1 CALLDATASIZE SWAP1 PUSH1 0x4 ADD PUSH2 0x2A67 JUMP JUMPDEST SWAP2 PUSH2 0x160 SLOAD SWAP2 DUP3 ISZERO PUSH2 0xF51 JUMPI PUSH1 0x40 MLOAD PUSH1 0x20 DUP2 ADD SWAP1 PUSH12 0xFFFFFFFFFFFFFFFFFFFFFFFF NOT DUP5 PUSH1 0x60 SHL AND DUP3 MSTORE PUSH1 0x24 CALLDATALOAD PUSH1 0x34 DUP3 ADD MSTORE PUSH1 0x44 CALLDATALOAD PUSH1 0x54 DUP3 ADD MSTORE PUSH1 0x64 CALLDATALOAD PUSH1 0x74 DUP3 ADD MSTORE PUSH1 0x84 CALLDATALOAD PUSH1 0x94 DUP3 ADD MSTORE PUSH1 0xA4 CALLDATALOAD PUSH1 0xB4 DUP3 ADD MSTORE PUSH1 0xC4 CALLDATALOAD PUSH1 0xD4 DUP3 ADD MSTORE PUSH1 0xD4 DUP2 MSTORE PUSH2 0xCD5 DUP2 PUSH2 0x2ACA JUMP JUMPDEST MLOAD SWAP1 KECCAK256 SWAP1 PUSH2 0xCE2 DUP6 PUSH2 0x2FD7 JUMP JUMPDEST SWAP5 PUSH2 0xCF0 PUSH1 0x40 MLOAD SWAP7 DUP8 PUSH2 0x2B1F JUMP JUMPDEST DUP1 DUP7 MSTORE PUSH1 0x20 DUP7 ADD SWAP1 PUSH1 0x5 SHL DUP3 ADD SWAP2 CALLDATASIZE DUP4 GT PUSH2 0x1EC JUMPI SWAP1 JUMPDEST DUP3 DUP3 LT PUSH2 0xF41 JUMPI POP POP POP SWAP1 PUSH1 0x0 SWAP2 JUMPDEST DUP5 MLOAD DUP4 LT ISZERO PUSH2 0xD5C JUMPI PUSH2 0xD29 DUP4 DUP7 PUSH2 0x317D JUMP JUMPDEST MLOAD SWAP1 DUP2 DUP2 LT ISZERO PUSH2 0xD49 JUMPI PUSH1 0x0 MSTORE PUSH1 0x20 MSTORE PUSH1 0x1 PUSH1 0x40 PUSH1 0x0 KECCAK256 JUMPDEST SWAP3 ADD SWAP2 PUSH2 0xD16 JUMP JUMPDEST SWAP1 PUSH1 0x0 MSTORE PUSH1 0x20 MSTORE PUSH1 0x1 PUSH1 0x40 PUSH1 0x0 KECCAK256 PUSH2 0xD41 JUMP JUMPDEST DUP4 SUB PUSH2 0xF05 JUMPI PUSH2 0xD76 PUSH1 0x1 PUSH1 0x1 PUSH1 0xA0 SHL SUB DUP3 AND ISZERO ISZERO PUSH2 0x2C2E JUMP JUMPDEST PUSH1 0x84 CALLDATALOAD ISZERO ISZERO DUP1 PUSH2 0xEFA JUMPI JUMPDEST PUSH2 0xD8A SWAP1 PUSH2 0x2C7A JUMP JUMPDEST PUSH2 0xD99 PUSH1 0x64 PUSH1 0xC4 CALLDATALOAD GT ISZERO PUSH2 0x2CC6 JUMP JUMPDEST PUSH2 0xDA6 PUSH1 0x24 CALLDATALOAD ISZERO ISZERO PUSH2 0x2D04 JUMP JUMPDEST PUSH1 0x44 CALLDATALOAD ISZERO PUSH2 0xEAB JUMPI PUSH2 0xDBE PUSH1 0x84 CALLDATALOAD PUSH1 0x64 CALLDATALOAD GT ISZERO PUSH2 0x2DA7 JUMP JUMPDEST PUSH1 0x1 DUP1 PUSH1 0xA0 SHL SUB DUP2 AND PUSH1 0x0 MSTORE PUSH2 0x162 DUP1 PUSH1 0x20 MSTORE PUSH2 0xE32 PUSH1 0x40 PUSH1 0x0 KECCAK256 PUSH2 0xDE7 PUSH1 0x64 CALLDATALOAD PUSH1 0x44 CALLDATALOAD PUSH2 0x2BB9 JUMP JUMPDEST SWAP1 PUSH1 0x40 MLOAD SWAP2 PUSH2 0xDF5 DUP4 PUSH2 0x2ACA JUMP JUMPDEST PUSH1 0x1 DUP4 MSTORE PUSH1 0x24 CALLDATALOAD PUSH1 0x20 DUP5 ADD MSTORE PUSH1 0x0 PUSH1 0x40 DUP5 ADD MSTORE PUSH1 0x44 CALLDATALOAD PUSH1 0x60 DUP5 ADD MSTORE PUSH1 0x80 DUP4 ADD MSTORE PUSH1 0x84 CALLDATALOAD PUSH1 0xA0 DUP4 ADD MSTORE PUSH1 0xA4 CALLDATALOAD PUSH1 0xC0 DUP4 ADD MSTORE PUSH1 0xC4 CALLDATALOAD PUSH1 0xE0 DUP4 ADD MSTORE PUSH2 0x2E07 JUMP JUMPDEST PUSH1 0x1 DUP1 PUSH1 0xA0 SHL SUB DUP3 AND PUSH1 0x0 MSTORE PUSH1 0x20 MSTORE PUSH1 0x40 PUSH1 0x0 KECCAK256 SLOAD SWAP1 PUSH1 0x0 NOT DUP3 ADD SWAP2 DUP3 GT PUSH2 0xE95 JUMPI PUSH1 0x40 DUP1 MLOAD SWAP3 DUP4 MSTORE PUSH1 0x24 CALLDATALOAD PUSH1 0x20 DUP5 ADD MSTORE PUSH1 0x1 PUSH1 0x1 PUSH1 0xA0 SHL SUB SWAP1 SWAP2 AND SWAP2 PUSH32 0x9ADE76F4385DE306666DFB21A52B27D52DB0FDE8AD0F515FA261F532CAC60D21 SWAP2 SWAP1 LOG2 STOP JUMPDEST PUSH4 0x4E487B71 PUSH1 0xE0 SHL PUSH1 0x0 MSTORE PUSH1 0x11 PUSH1 0x4 MSTORE PUSH1 0x24 PUSH1 0x0 REVERT JUMPDEST PUSH1 0x40 MLOAD PUSH3 0x461BCD PUSH1 0xE5 SHL DUP2 MSTORE PUSH1 0x20 PUSH1 0x4 DUP3 ADD MSTORE PUSH1 0x21 PUSH1 0x24 DUP3 ADD MSTORE PUSH32 0x53746172742074696D65206D7573742062652067726561746572207468616E20 PUSH1 0x44 DUP3 ADD MSTORE PUSH1 0x3 PUSH1 0xFC SHL PUSH1 0x64 DUP3 ADD MSTORE PUSH1 0x84 SWAP1 REVERT JUMPDEST POP PUSH1 0xA4 CALLDATALOAD ISZERO ISZERO PUSH2 0xD81 JUMP JUMPDEST PUSH1 0x40 MLOAD PUSH3 0x461BCD PUSH1 0xE5 SHL DUP2 MSTORE PUSH1 0x20 PUSH1 0x4 DUP3 ADD MSTORE PUSH1 0x14 PUSH1 0x24 DUP3 ADD MSTORE PUSH20 0x24B73B30B634B21036B2B935B63290383937B7B3 PUSH1 0x61 SHL PUSH1 0x44 DUP3 ADD MSTORE PUSH1 0x64 SWAP1 REVERT JUMPDEST DUP2 CALLDATALOAD DUP2 MSTORE PUSH1 0x20 SWAP2 DUP3 ADD SWAP2 ADD PUSH2 0xD07 JUMP JUMPDEST PUSH1 0x40 MLOAD PUSH3 0x461BCD PUSH1 0xE5 SHL DUP2 MSTORE PUSH1 0x20 PUSH1 0x4 DUP3 ADD MSTORE PUSH1 0x13 PUSH1 0x24 DUP3 ADD MSTORE PUSH19 0x13595C9ADB19481C9BDBDD081B9BDD081CD95D PUSH1 0x6A SHL PUSH1 0x44 DUP3 ADD MSTORE PUSH1 0x64 SWAP1 REVERT JUMPDEST CALLVALUE PUSH2 0x1EC JUMPI PUSH1 0x0 CALLDATASIZE PUSH1 0x3 NOT ADD SLT PUSH2 0x1EC JUMPI PUSH2 0x15F SLOAD PUSH1 0x40 MLOAD PUSH4 0x70A08231 PUSH1 0xE0 SHL DUP2 MSTORE ADDRESS PUSH1 0x4 DUP3 ADD MSTORE SWAP1 PUSH1 0x20 SWAP1 DUP3 SWAP1 PUSH1 0x24 SWAP1 DUP3 SWAP1 PUSH1 0x1 PUSH1 0x1 PUSH1 0xA0 SHL SUB AND GAS STATICCALL DUP1 ISZERO PUSH2 0x596 JUMPI PUSH1 0x0 SWAP1 PUSH2 0xFE3 JUMPI JUMPDEST PUSH1 0x20 SWAP1 PUSH1 0x40 MLOAD SWAP1 DUP2 MSTORE RETURN JUMPDEST POP PUSH1 0x20 DUP2 RETURNDATASIZE PUSH1 0x20 GT PUSH2 0x100E JUMPI JUMPDEST DUP2 PUSH2 0xFFD PUSH1 0x20 SWAP4 DUP4 PUSH2 0x2B1F JUMP JUMPDEST DUP2 ADD SUB SLT PUSH2 0x1EC JUMPI PUSH1 0x20 SWAP1 MLOAD PUSH2 0xFD8 JUMP JUMPDEST RETURNDATASIZE SWAP2 POP PUSH2 0xFF0 JUMP JUMPDEST CALLVALUE PUSH2 0x1EC JUMPI PUSH1 0x0 CALLDATASIZE PUSH1 0x3 NOT ADD SLT PUSH2 0x1EC JUMPI PUSH1 0x20 PUSH1 0x40 MLOAD PUSH1 0x0 DUP2 MSTORE RETURN JUMPDEST CALLVALUE PUSH2 0x1EC JUMPI PUSH1 0x0 CALLDATASIZE PUSH1 0x3 NOT ADD SLT PUSH2 0x1EC JUMPI PUSH1 0x40 MLOAD PUSH32 0x0 PUSH1 0x1 PUSH1 0x1 PUSH1 0xA0 SHL SUB AND DUP2 MSTORE PUSH1 0x20 SWAP1 RETURN JUMPDEST CALLVALUE PUSH2 0x1EC JUMPI PUSH1 0x40 CALLDATASIZE PUSH1 0x3 NOT ADD SLT PUSH2 0x1EC JUMPI PUSH2 0x1090 PUSH2 0x2A51 JUMP JUMPDEST PUSH1 0x4 CALLDATALOAD PUSH1 0x0 MSTORE PUSH2 0x12D PUSH1 0x20 MSTORE PUSH1 0x40 PUSH1 0x0 KECCAK256 SWAP1 PUSH1 0x1 DUP1 PUSH1 0xA0 SHL SUB AND PUSH1 0x0 MSTORE PUSH1 0x20 MSTORE PUSH1 0x20 PUSH1 0xFF PUSH1 0x40 PUSH1 0x0 KECCAK256 SLOAD AND PUSH1 0x40 MLOAD SWAP1 ISZERO ISZERO DUP2 MSTORE RETURN JUMPDEST CALLVALUE PUSH2 0x1EC JUMPI PUSH1 0x0 CALLDATASIZE PUSH1 0x3 NOT ADD SLT PUSH2 0x1EC JUMPI PUSH1 0x33 SLOAD PUSH1 0x40 MLOAD PUSH1 0x1 PUSH1 0x1 PUSH1 0xA0 SHL SUB SWAP1 SWAP2 AND DUP2 MSTORE PUSH1 0x20 SWAP1 RETURN JUMPDEST CALLVALUE PUSH2 0x1EC JUMPI PUSH1 0x0 CALLDATASIZE PUSH1 0x3 NOT ADD SLT PUSH2 0x1EC JUMPI PUSH2 0x1107 PUSH2 0x3191 JUMP JUMPDEST PUSH2 0x110F PUSH2 0x34A2 JUMP JUMPDEST PUSH1 0x1 PUSH1 0xFF NOT PUSH1 0x65 SLOAD AND OR PUSH1 0x65 SSTORE PUSH32 0x62E78CEA01BEE320CD4E420270B5EA74000D11B0C9F74754EBDBFC544B05A258 PUSH1 0x20 PUSH1 0x40 MLOAD CALLER DUP2 MSTORE LOG1 STOP JUMPDEST CALLVALUE PUSH2 0x1EC JUMPI PUSH1 0x20 CALLDATASIZE PUSH1 0x3 NOT ADD SLT PUSH2 0x1EC JUMPI PUSH32 0x90004C04698BC3322499A575ED3752DD4ABF33E0A7294C06A787A0FE01BEA941 PUSH1 0x20 PUSH1 0x4 CALLDATALOAD PUSH2 0x1187 PUSH2 0x3565 JUMP JUMPDEST DUP1 PUSH2 0x160 SSTORE PUSH1 0x40 MLOAD SWAP1 DUP2 MSTORE LOG1 STOP JUMPDEST CALLVALUE PUSH2 0x1EC JUMPI PUSH1 0x0 CALLDATASIZE PUSH1 0x3 NOT ADD SLT PUSH2 0x1EC JUMPI PUSH2 0x11AE PUSH2 0x3565 JUMP JUMPDEST PUSH1 0x33 DUP1 SLOAD PUSH1 0x1 PUSH1 0x1 PUSH1 0xA0 SHL SUB NOT DUP2 AND SWAP1 SWAP2 SSTORE PUSH1 0x0 SWAP1 PUSH1 0x1 PUSH1 0x1 PUSH1 0xA0 SHL SUB AND PUSH32 0x8BE0079C531659141344CD1FD0A4F28419497F9722A3DAAFE3B4186F6B6457E0 DUP3 DUP1 LOG3 STOP JUMPDEST CALLVALUE PUSH2 0x1EC JUMPI PUSH1 0x0 CALLDATASIZE PUSH1 0x3 NOT ADD SLT PUSH2 0x1EC JUMPI PUSH1 0x20 PUSH1 0xFF PUSH1 0x65 SLOAD AND PUSH1 0x40 MLOAD SWAP1 ISZERO ISZERO DUP2 MSTORE RETURN JUMPDEST CALLVALUE PUSH2 0x1EC JUMPI PUSH1 0x0 CALLDATASIZE PUSH1 0x3 NOT ADD SLT PUSH2 0x1EC JUMPI PUSH32 0x0 PUSH1 0x1 PUSH1 0x1 PUSH1 0xA0 SHL SUB AND ADDRESS SUB PUSH2 0x126E JUMPI PUSH1 0x20 PUSH1 0x40 MLOAD PUSH1 0x0 DUP1 MLOAD PUSH1 0x20 PUSH2 0x38D8 DUP4 CODECOPY DUP2 MLOAD SWAP2 MSTORE DUP2 MSTORE RETURN JUMPDEST PUSH1 0x40 MLOAD PUSH3 0x461BCD PUSH1 0xE5 SHL DUP2 MSTORE PUSH1 0x20 PUSH1 0x4 DUP3 ADD MSTORE PUSH1 0x38 PUSH1 0x24 DUP3 ADD MSTORE PUSH32 0x555550535570677261646561626C653A206D757374206E6F742062652063616C PUSH1 0x44 DUP3 ADD MSTORE PUSH32 0x6C6564207468726F7567682064656C656761746563616C6C0000000000000000 PUSH1 0x64 DUP3 ADD MSTORE PUSH1 0x84 SWAP1 REVERT JUMPDEST PUSH1 0x40 CALLDATASIZE PUSH1 0x3 NOT ADD SLT PUSH2 0x1EC JUMPI PUSH2 0x12ED PUSH2 0x2A3B JUMP JUMPDEST PUSH1 0x24 SWAP1 DUP2 CALLDATALOAD PUSH8 0xFFFFFFFFFFFFFFFF DUP2 GT PUSH2 0x1EC JUMPI CALLDATASIZE PUSH1 0x23 DUP3 ADD SLT ISZERO PUSH2 0x1EC JUMPI DUP1 PUSH1 0x4 ADD CALLDATALOAD SWAP1 PUSH2 0x131B DUP3 PUSH2 0x2B41 JUMP JUMPDEST PUSH2 0x1328 PUSH1 0x40 MLOAD SWAP2 DUP3 PUSH2 0x2B1F JUMP JUMPDEST DUP3 DUP2 MSTORE PUSH1 0x20 SWAP3 DUP4 DUP3 ADD SWAP3 CALLDATASIZE DUP8 DUP4 DUP4 ADD ADD GT PUSH2 0x1EC JUMPI DUP2 PUSH1 0x0 SWAP3 DUP9 DUP8 SWAP4 ADD DUP7 CALLDATACOPY DUP4 ADD ADD MSTORE PUSH1 0x1 PUSH1 0x1 PUSH1 0xA0 SHL SUB PUSH32 0x0 DUP2 AND SWAP1 PUSH2 0x1383 ADDRESS DUP4 EQ ISZERO PUSH2 0x2F15 JUMP JUMPDEST PUSH2 0x13A0 PUSH1 0x0 DUP1 MLOAD PUSH1 0x20 PUSH2 0x38D8 DUP4 CODECOPY DUP2 MLOAD SWAP2 MSTORE SWAP3 DUP3 DUP5 SLOAD AND EQ PUSH2 0x2F76 JUMP JUMPDEST DUP1 PUSH2 0x161 SLOAD PUSH1 0x8 SHR AND CALLER SUB PUSH2 0x1642 JUMPI PUSH1 0x0 DUP1 MLOAD PUSH1 0x20 PUSH2 0x38B8 DUP4 CODECOPY DUP2 MLOAD SWAP2 MSTORE PUSH1 0x0 MSTORE PUSH2 0x12D DUP6 MSTORE PUSH1 0x40 PUSH1 0x0 KECCAK256 ORIGIN PUSH1 0x0 MSTORE DUP6 MSTORE PUSH1 0xFF PUSH1 0x40 PUSH1 0x0 KECCAK256 SLOAD AND ISZERO PUSH2 0x15FE JUMPI PUSH32 0x4910FDFA16FED3260ED0E7147F7CC6DA11A60208B5B9406D12A635614FFD9143 SLOAD PUSH1 0xFF AND ISZERO PUSH2 0x1418 JUMPI POP POP POP POP POP PUSH2 0x450 SWAP2 POP PUSH2 0x3666 JUMP JUMPDEST DUP6 SWAP3 SWAP4 SWAP5 SWAP6 AND SWAP1 PUSH1 0x40 MLOAD PUSH4 0x52D1902D PUSH1 0xE0 SHL DUP2 MSTORE DUP7 DUP2 PUSH1 0x4 DUP2 DUP7 GAS STATICCALL PUSH1 0x0 SWAP2 DUP2 PUSH2 0x15CF JUMPI JUMPDEST POP PUSH2 0x149D JUMPI PUSH1 0x40 MLOAD PUSH3 0x461BCD PUSH1 0xE5 SHL DUP2 MSTORE PUSH1 0x4 DUP2 ADD DUP9 SWAP1 MSTORE PUSH1 0x2E DUP2 DUP11 ADD MSTORE PUSH32 0x45524331393637557067726164653A206E657720696D706C656D656E74617469 PUSH1 0x44 DUP3 ADD MSTORE PUSH14 0x6F6E206973206E6F742055555053 PUSH1 0x90 SHL PUSH1 0x64 DUP3 ADD MSTORE PUSH1 0x84 SWAP1 REVERT JUMPDEST SWAP7 SWAP2 SWAP3 SWAP4 SWAP6 SWAP5 SWAP7 SUB PUSH2 0x157A JUMPI POP PUSH2 0x14B3 DUP3 PUSH2 0x3666 JUMP JUMPDEST PUSH32 0xBC7CD75A20EE27FD9ADEBAB32041F755214DBC6BFFA90CC0225B39DA2E5C2D3B PUSH1 0x0 DUP1 LOG2 DUP3 MLOAD ISZERO DUP1 ISZERO SWAP1 PUSH2 0x1572 JUMPI JUMPDEST PUSH2 0x14E9 JUMPI STOP JUMPDEST PUSH1 0x0 DUP1 PUSH2 0x450 SWAP6 PUSH1 0x40 MLOAD SWAP6 PUSH2 0x14FD DUP8 PUSH2 0x2AE7 JUMP JUMPDEST PUSH1 0x27 DUP8 MSTORE PUSH32 0x416464726573733A206C6F772D6C6576656C2064656C65676174652063616C6C DUP7 DUP9 ADD MSTORE PUSH7 0x819985A5B1959 PUSH1 0xCA SHL PUSH1 0x40 DUP9 ADD MSTORE MLOAD SWAP1 DUP5 GAS DELEGATECALL SWAP1 RETURNDATASIZE ISZERO PUSH2 0x1569 JUMPI RETURNDATASIZE PUSH2 0x154C DUP2 PUSH2 0x2B41 JUMP JUMPDEST SWAP1 PUSH2 0x155A PUSH1 0x40 MLOAD SWAP3 DUP4 PUSH2 0x2B1F JUMP JUMPDEST DUP2 MSTORE PUSH1 0x0 DUP2 SWAP5 RETURNDATASIZE SWAP3 ADD RETURNDATACOPY PUSH2 0x3806 JUMP JUMPDEST PUSH1 0x60 SWAP3 POP PUSH2 0x3806 JUMP JUMPDEST POP PUSH1 0x1 PUSH2 0x14E3 JUMP JUMPDEST DUP4 PUSH1 0x29 PUSH1 0x84 SWAP3 PUSH1 0x40 MLOAD SWAP3 PUSH3 0x461BCD PUSH1 0xE5 SHL DUP5 MSTORE PUSH1 0x4 DUP5 ADD MSTORE DUP3 ADD MSTORE PUSH32 0x45524331393637557067726164653A20756E737570706F727465642070726F78 PUSH1 0x44 DUP3 ADD MSTORE PUSH9 0x1A58589B1955555251 PUSH1 0xBA SHL PUSH1 0x64 DUP3 ADD MSTORE REVERT JUMPDEST SWAP1 SWAP2 POP DUP8 DUP2 DUP2 RETURNDATASIZE DUP4 GT PUSH2 0x15F7 JUMPI JUMPDEST PUSH2 0x15E7 DUP2 DUP4 PUSH2 0x2B1F JUMP JUMPDEST DUP2 ADD SUB SLT PUSH2 0x1EC JUMPI MLOAD SWAP1 DUP10 PUSH2 0x143D JUMP JUMPDEST POP RETURNDATASIZE PUSH2 0x15DD JUMP JUMPDEST PUSH1 0x40 MLOAD PUSH3 0x461BCD PUSH1 0xE5 SHL DUP2 MSTORE PUSH1 0x4 DUP2 ADD DUP7 SWAP1 MSTORE PUSH1 0x1F DUP2 DUP10 ADD MSTORE PUSH32 0x55706772616465207265717569726573206D756C74697369672061646D696E00 PUSH1 0x44 DUP3 ADD MSTORE PUSH1 0x64 SWAP1 REVERT JUMPDEST PUSH1 0x40 MLOAD PUSH3 0x461BCD PUSH1 0xE5 SHL DUP2 MSTORE PUSH1 0x4 DUP2 ADD DUP7 SWAP1 MSTORE PUSH1 0x19 DUP2 DUP10 ADD MSTORE PUSH25 0x55706772616465206F6E6C79207669612074696D656C6F636B PUSH1 0x38 SHL PUSH1 0x44 DUP3 ADD MSTORE PUSH1 0x64 SWAP1 REVERT JUMPDEST CALLVALUE PUSH2 0x1EC JUMPI PUSH1 0xE0 CALLDATASIZE PUSH1 0x3 NOT ADD SLT PUSH2 0x1EC JUMPI PUSH2 0x169B PUSH2 0x2A3B JUMP JUMPDEST PUSH1 0x24 CALLDATALOAD PUSH1 0x44 CALLDATALOAD PUSH1 0x64 CALLDATALOAD PUSH1 0x84 CALLDATALOAD SWAP2 PUSH1 0xA4 CALLDATALOAD SWAP2 PUSH1 0xC4 CALLDATALOAD SWAP6 PUSH2 0x16B8 PUSH2 0x3191 JUMP JUMPDEST PUSH1 0x1 PUSH1 0x1 PUSH1 0xA0 SHL SUB AND SWAP6 PUSH2 0x16CD DUP8 ISZERO ISZERO PUSH2 0x2C2E JUMP JUMPDEST DUP6 ISZERO SWAP4 DUP5 PUSH2 0x1819 JUMPI TIMESTAMP DUP5 LT ISZERO PUSH2 0x16E2 DUP2 PUSH2 0x2D5C JUMP JUMPDEST DUP7 DUP5 GT DUP1 PUSH2 0x17D4 JUMPI PUSH2 0x1722 PUSH2 0x1728 SWAP3 PUSH2 0x171D PUSH2 0x177F SWAP10 DUP12 ISZERO ISZERO DUP1 PUSH2 0x17CB JUMPI JUMPDEST PUSH2 0x170A SWAP1 PUSH2 0x2C7A JUMP JUMPDEST PUSH2 0x1717 PUSH1 0x64 DUP10 GT ISZERO PUSH2 0x2CC6 JUMP JUMPDEST ISZERO PUSH2 0x2D04 JUMP JUMPDEST PUSH2 0x2D5C JUMP JUMPDEST ISZERO PUSH2 0x2DA7 JUMP JUMPDEST DUP8 PUSH1 0x0 MSTORE PUSH2 0x162 SWAP6 DUP7 PUSH1 0x20 MSTORE PUSH2 0x1743 PUSH1 0x40 PUSH1 0x0 KECCAK256 SWAP5 DUP7 PUSH2 0x2BB9 JUMP JUMPDEST PUSH1 0x40 MLOAD SWAP6 PUSH2 0x1750 DUP8 PUSH2 0x2ACA JUMP JUMPDEST PUSH1 0x1 DUP8 MSTORE DUP10 PUSH1 0x20 DUP9 ADD MSTORE PUSH1 0x0 PUSH1 0x40 DUP9 ADD MSTORE PUSH1 0x60 DUP8 ADD MSTORE PUSH1 0x80 DUP7 ADD MSTORE PUSH1 0xA0 DUP6 ADD MSTORE PUSH1 0xC0 DUP5 ADD MSTORE PUSH1 0xE0 DUP4 ADD MSTORE PUSH2 0x2E07 JUMP JUMPDEST DUP3 PUSH1 0x0 MSTORE PUSH1 0x20 MSTORE PUSH1 0x40 PUSH1 0x0 KECCAK256 SLOAD SWAP1 PUSH1 0x0 NOT DUP3 ADD SWAP2 DUP3 GT PUSH2 0xE95 JUMPI PUSH32 0x9ADE76F4385DE306666DFB21A52B27D52DB0FDE8AD0F515FA261F532CAC60D21 SWAP2 PUSH1 0x40 SWAP2 DUP3 MLOAD SWAP2 DUP3 MSTORE PUSH1 0x20 DUP3 ADD MSTORE LOG2 STOP JUMPDEST POP DUP7 ISZERO ISZERO PUSH2 0x1701 JUMP JUMPDEST PUSH1 0x40 MLOAD PUSH3 0x461BCD PUSH1 0xE5 SHL DUP2 MSTORE PUSH1 0x20 PUSH1 0x4 DUP3 ADD MSTORE PUSH1 0x1A PUSH1 0x24 DUP3 ADD MSTORE PUSH32 0x436C696666206C6F6E676572207468616E206475726174696F6E000000000000 PUSH1 0x44 DUP3 ADD MSTORE PUSH1 0x64 SWAP1 REVERT JUMPDEST PUSH1 0x40 MLOAD PUSH3 0x461BCD PUSH1 0xE5 SHL DUP2 MSTORE PUSH1 0x20 PUSH1 0x4 DUP3 ADD MSTORE PUSH1 0x26 PUSH1 0x24 DUP3 ADD MSTORE PUSH32 0x546F74616C20616D6F756E74206D757374206265206772656174657220746861 PUSH1 0x44 DUP3 ADD MSTORE PUSH6 0x6E207A65726F PUSH1 0xD0 SHL PUSH1 0x64 DUP3 ADD MSTORE PUSH1 0x84 SWAP1 REVERT JUMPDEST CALLVALUE PUSH2 0x1EC JUMPI PUSH1 0x40 CALLDATASIZE PUSH1 0x3 NOT ADD SLT PUSH2 0x1EC JUMPI PUSH2 0x1886 PUSH2 0x2A3B JUMP JUMPDEST PUSH1 0x1 PUSH1 0x1 PUSH1 0xA0 SHL SUB AND PUSH1 0x0 SWAP1 DUP2 MSTORE PUSH2 0x162 PUSH1 0x20 MSTORE PUSH1 0x40 SWAP1 KECCAK256 DUP1 SLOAD PUSH1 0x24 CALLDATALOAD SWAP2 SWAP1 DUP3 LT ISZERO PUSH2 0x1EC JUMPI PUSH2 0x100 SWAP2 PUSH2 0x18B9 SWAP2 PUSH2 0x2A98 JUMP JUMPDEST POP PUSH1 0xFF DUP2 SLOAD AND SWAP1 PUSH1 0x1 DUP2 ADD SLOAD SWAP1 PUSH1 0x2 DUP2 ADD SLOAD PUSH1 0x3 DUP3 ADD SLOAD PUSH1 0x4 DUP4 ADD SLOAD SWAP1 PUSH1 0x5 DUP5 ADD SLOAD SWAP3 PUSH1 0x7 PUSH1 0x6 DUP7 ADD SLOAD SWAP6 ADD SLOAD SWAP6 PUSH1 0x40 MLOAD SWAP8 ISZERO ISZERO DUP9 MSTORE PUSH1 0x20 DUP9 ADD MSTORE PUSH1 0x40 DUP8 ADD MSTORE PUSH1 0x60 DUP7 ADD MSTORE PUSH1 0x80 DUP6 ADD MSTORE PUSH1 0xA0 DUP5 ADD MSTORE PUSH1 0xC0 DUP4 ADD MSTORE PUSH1 0xE0 DUP3 ADD MSTORE RETURN JUMPDEST CALLVALUE PUSH2 0x1EC JUMPI PUSH1 0x40 CALLDATASIZE PUSH1 0x3 NOT ADD SLT PUSH2 0x1EC JUMPI PUSH2 0x192D PUSH2 0x2A3B JUMP JUMPDEST PUSH1 0x24 CALLDATALOAD SWAP1 PUSH2 0x1939 PUSH2 0x3191 JUMP JUMPDEST PUSH2 0x15F SLOAD PUSH1 0x40 MLOAD PUSH4 0x70A08231 PUSH1 0xE0 SHL DUP2 MSTORE ADDRESS PUSH1 0x4 DUP3 ADD MSTORE PUSH1 0x20 SWAP3 PUSH1 0x1 PUSH1 0x1 PUSH1 0xA0 SHL SUB SWAP3 SWAP1 SWAP2 SWAP1 DUP4 AND SWAP1 DUP5 DUP2 PUSH1 0x24 DUP2 DUP6 GAS STATICCALL DUP1 ISZERO PUSH2 0x596 JUMPI DUP7 SWAP2 PUSH1 0x0 SWAP2 PUSH2 0x1A8E JUMPI JUMPDEST POP LT PUSH2 0x1A49 JUMPI PUSH1 0x40 MLOAD PUSH4 0xA9059CBB PUSH1 0xE0 SHL DUP2 MSTORE PUSH1 0x1 PUSH1 0x1 PUSH1 0xA0 SHL SUB DUP4 AND PUSH1 0x4 DUP3 ADD MSTORE PUSH1 0x24 DUP2 ADD DUP7 SWAP1 MSTORE SWAP1 DUP5 SWAP1 DUP3 SWAP1 PUSH1 0x44 SWAP1 DUP3 SWAP1 PUSH1 0x0 SWAP1 GAS CALL SWAP1 DUP2 ISZERO PUSH2 0x596 JUMPI PUSH1 0x0 SWAP2 PUSH2 0x1A2C JUMPI JUMPDEST POP ISZERO PUSH2 0x19F5 JUMPI PUSH1 0x40 MLOAD SWAP4 DUP5 MSTORE AND SWAP2 PUSH32 0xBA443E8671971C36CDEB74F87321041DAFF421230CBC5E36CB835269ED1D8B7E SWAP2 SWAP1 LOG2 STOP JUMPDEST PUSH1 0x40 MLOAD PUSH3 0x461BCD PUSH1 0xE5 SHL DUP2 MSTORE PUSH1 0x4 DUP2 ADD DUP5 SWAP1 MSTORE PUSH1 0xF PUSH1 0x24 DUP3 ADD MSTORE PUSH15 0x15DA5D1A191C985DC819985A5B1959 PUSH1 0x8A SHL PUSH1 0x44 DUP3 ADD MSTORE PUSH1 0x64 SWAP1 REVERT JUMPDEST PUSH2 0x1A43 SWAP2 POP DUP5 RETURNDATASIZE DUP7 GT PUSH2 0x58F JUMPI PUSH2 0x581 DUP2 DUP4 PUSH2 0x2B1F JUMP JUMPDEST DUP6 PUSH2 0x19C1 JUMP JUMPDEST PUSH1 0x40 MLOAD PUSH3 0x461BCD PUSH1 0xE5 SHL DUP2 MSTORE PUSH1 0x4 DUP2 ADD DUP6 SWAP1 MSTORE PUSH1 0x19 PUSH1 0x24 DUP3 ADD MSTORE PUSH32 0x496E73756666696369656E7420706F6F6C2062616C616E636500000000000000 PUSH1 0x44 DUP3 ADD MSTORE PUSH1 0x64 SWAP1 REVERT JUMPDEST DUP1 SWAP3 POP DUP7 DUP1 SWAP3 POP RETURNDATASIZE DUP4 GT PUSH2 0x1AB8 JUMPI JUMPDEST PUSH2 0x1AA7 DUP2 DUP4 PUSH2 0x2B1F JUMP JUMPDEST DUP2 ADD SUB SLT PUSH2 0x1EC JUMPI DUP6 SWAP1 MLOAD DUP8 PUSH2 0x197A JUMP JUMPDEST POP RETURNDATASIZE PUSH2 0x1A9D JUMP JUMPDEST CALLVALUE PUSH2 0x1EC JUMPI PUSH1 0x0 CALLDATASIZE PUSH1 0x3 NOT ADD SLT PUSH2 0x1EC JUMPI PUSH2 0x1AD8 PUSH2 0x3191 JUMP JUMPDEST PUSH1 0x65 SLOAD PUSH1 0xFF DUP2 AND ISZERO PUSH2 0x1B17 JUMPI PUSH1 0xFF NOT AND PUSH1 0x65 SSTORE PUSH32 0x5DB9EE0A495BF2E6FF9C91A7834C1BA4FDD244A5E8AA4E537BD38AEAE4B073AA PUSH1 0x20 PUSH1 0x40 MLOAD CALLER DUP2 MSTORE LOG1 STOP JUMPDEST PUSH1 0x40 MLOAD PUSH3 0x461BCD PUSH1 0xE5 SHL DUP2 MSTORE PUSH1 0x20 PUSH1 0x4 DUP3 ADD MSTORE PUSH1 0x14 PUSH1 0x24 DUP3 ADD MSTORE PUSH20 0x14185D5CD8589B194E881B9BDD081C185D5CD959 PUSH1 0x62 SHL PUSH1 0x44 DUP3 ADD MSTORE PUSH1 0x64 SWAP1 REVERT JUMPDEST CALLVALUE PUSH2 0x1EC JUMPI PUSH1 0x20 DUP1 PUSH1 0x3 NOT CALLDATASIZE ADD SLT PUSH2 0x1EC JUMPI PUSH1 0x4 CALLDATALOAD SWAP1 PUSH2 0x1B71 PUSH2 0x34A2 JUMP JUMPDEST PUSH2 0x1B79 PUSH2 0x34A2 JUMP JUMPDEST PUSH2 0x1B84 CALLER ISZERO ISZERO PUSH2 0x2C2E JUMP JUMPDEST CALLER PUSH1 0x0 MSTORE PUSH2 0x162 DUP1 DUP3 MSTORE PUSH1 0x40 PUSH1 0x0 KECCAK256 SLOAD DUP4 LT ISZERO PUSH2 0x1D41 JUMPI CALLER PUSH1 0x0 MSTORE DUP2 MSTORE PUSH2 0x1BAF DUP3 PUSH1 0x40 PUSH1 0x0 KECCAK256 PUSH2 0x2A98 JUMP JUMPDEST POP SWAP1 PUSH1 0xFF DUP3 SLOAD AND ISZERO PUSH2 0x1CFD JUMPI PUSH2 0x1BCC PUSH2 0x1BC7 DUP4 PUSH2 0x2E9E JUMP JUMPDEST PUSH2 0x3022 JUMP JUMPDEST SWAP2 DUP3 ISZERO PUSH2 0x1CB8 JUMPI PUSH1 0x2 ADD PUSH2 0x1BE1 DUP4 DUP3 SLOAD PUSH2 0x2BB9 JUMP JUMPDEST SWAP1 SSTORE PUSH2 0x15F SLOAD PUSH1 0x40 MLOAD PUSH4 0xA9059CBB PUSH1 0xE0 SHL DUP2 MSTORE CALLER PUSH1 0x4 DUP3 ADD MSTORE PUSH1 0x24 DUP2 ADD DUP5 SWAP1 MSTORE SWAP1 DUP3 SWAP1 DUP3 SWAP1 PUSH1 0x44 SWAP1 DUP3 SWAP1 PUSH1 0x0 SWAP1 PUSH1 0x1 PUSH1 0x1 PUSH1 0xA0 SHL SUB AND GAS CALL SWAP1 DUP2 ISZERO PUSH2 0x596 JUMPI PUSH1 0x0 SWAP2 PUSH2 0x1C9B JUMPI JUMPDEST POP ISZERO PUSH2 0x1C5F JUMPI PUSH1 0x40 MLOAD SWAP3 DUP4 MSTORE DUP3 ADD MSTORE PUSH32 0x9923B4306C6C030F2BDFBF156517D5983B87E15B96176DA122CD4F2EFFA4BA7B PUSH1 0x40 CALLER SWAP3 LOG2 STOP JUMPDEST PUSH1 0x64 SWAP1 PUSH1 0x40 MLOAD SWAP1 PUSH3 0x461BCD PUSH1 0xE5 SHL DUP3 MSTORE PUSH1 0x4 DUP3 ADD MSTORE PUSH1 0x15 PUSH1 0x24 DUP3 ADD MSTORE PUSH21 0x151BDAD95B881D1C985B9CD9995C8819985A5B1959 PUSH1 0x5A SHL PUSH1 0x44 DUP3 ADD MSTORE REVERT JUMPDEST PUSH2 0x1CB2 SWAP2 POP DUP3 RETURNDATASIZE DUP5 GT PUSH2 0x58F JUMPI PUSH2 0x581 DUP2 DUP4 PUSH2 0x2B1F JUMP JUMPDEST DUP5 PUSH2 0x1C28 JUMP JUMPDEST PUSH1 0x40 MLOAD PUSH3 0x461BCD PUSH1 0xE5 SHL DUP2 MSTORE PUSH1 0x4 DUP2 ADD DUP4 SWAP1 MSTORE PUSH1 0x1D PUSH1 0x24 DUP3 ADD MSTORE PUSH32 0x4E6F20746F6B656E7320617661696C61626C6520666F7220636C61696D000000 PUSH1 0x44 DUP3 ADD MSTORE PUSH1 0x64 SWAP1 REVERT JUMPDEST PUSH1 0x64 SWAP1 PUSH1 0x40 MLOAD SWAP1 PUSH3 0x461BCD PUSH1 0xE5 SHL DUP3 MSTORE PUSH1 0x4 DUP3 ADD MSTORE PUSH1 0x1A PUSH1 0x24 DUP3 ADD MSTORE PUSH32 0x56657374696E67207363686564756C65206E6F7420666F756E64000000000000 PUSH1 0x44 DUP3 ADD MSTORE REVERT JUMPDEST PUSH1 0x40 MLOAD PUSH3 0x461BCD PUSH1 0xE5 SHL DUP2 MSTORE PUSH1 0x4 DUP2 ADD DUP4 SWAP1 MSTORE PUSH1 0x1E PUSH1 0x24 DUP3 ADD MSTORE PUSH32 0x496E76616C69642076657374696E67207363686564756C6520696E6465780000 PUSH1 0x44 DUP3 ADD MSTORE PUSH1 0x64 SWAP1 REVERT JUMPDEST CALLVALUE PUSH2 0x1EC JUMPI PUSH1 0x20 DUP1 PUSH1 0x3 NOT CALLDATASIZE ADD SLT PUSH2 0x1EC JUMPI PUSH2 0x1DA0 PUSH2 0x2A3B JUMP JUMPDEST PUSH1 0x1 PUSH1 0x1 PUSH1 0xA0 SHL SUB SWAP2 PUSH32 0x0 DUP4 AND PUSH2 0x1DD8 ADDRESS DUP3 EQ ISZERO PUSH2 0x2F15 JUMP JUMPDEST PUSH2 0x1DF5 PUSH1 0x0 DUP1 MLOAD PUSH1 0x20 PUSH2 0x38D8 DUP4 CODECOPY DUP2 MLOAD SWAP2 MSTORE SWAP2 DUP6 DUP4 SLOAD AND EQ PUSH2 0x2F76 JUMP JUMPDEST DUP4 PUSH2 0x161 SLOAD PUSH1 0x8 SHR AND CALLER SUB PUSH2 0x202F JUMPI PUSH1 0x0 DUP1 MLOAD PUSH1 0x20 PUSH2 0x38B8 DUP4 CODECOPY DUP2 MLOAD SWAP2 MSTORE PUSH1 0x0 MSTORE PUSH2 0x12D DUP3 MSTORE PUSH1 0x40 PUSH1 0x0 KECCAK256 ORIGIN PUSH1 0x0 MSTORE DUP3 MSTORE PUSH1 0xFF PUSH1 0x40 PUSH1 0x0 KECCAK256 SLOAD AND ISZERO PUSH2 0x1FEA JUMPI PUSH1 0x40 MLOAD SWAP1 DUP3 DUP3 ADD SWAP5 DUP3 DUP7 LT PUSH8 0xFFFFFFFFFFFFFFFF DUP8 GT OR PUSH2 0x600 JUMPI DUP6 PUSH1 0x40 MSTORE PUSH1 0x0 DUP4 MSTORE PUSH1 0xFF PUSH32 0x4910FDFA16FED3260ED0E7147F7CC6DA11A60208B5B9406D12A635614FFD9143 SLOAD AND PUSH1 0x0 EQ PUSH2 0x1E91 JUMPI POP POP POP POP PUSH2 0x450 SWAP2 POP PUSH2 0x3666 JUMP JUMPDEST DUP5 SWAP3 SWAP4 SWAP5 AND SWAP1 PUSH1 0x40 MLOAD PUSH4 0x52D1902D PUSH1 0xE0 SHL DUP2 MSTORE DUP6 DUP2 PUSH1 0x4 DUP2 DUP7 GAS STATICCALL PUSH1 0x0 SWAP2 DUP2 PUSH2 0x1FBB JUMPI JUMPDEST POP PUSH2 0x1F16 JUMPI PUSH1 0x40 MLOAD PUSH3 0x461BCD PUSH1 0xE5 SHL DUP2 MSTORE PUSH1 0x4 DUP2 ADD DUP8 SWAP1 MSTORE PUSH1 0x2E PUSH1 0x24 DUP3 ADD MSTORE PUSH32 0x45524331393637557067726164653A206E657720696D706C656D656E74617469 PUSH1 0x44 DUP3 ADD MSTORE PUSH14 0x6F6E206973206E6F742055555053 PUSH1 0x90 SHL PUSH1 0x64 DUP3 ADD MSTORE PUSH1 0x84 SWAP1 REVERT JUMPDEST SWAP5 SWAP4 SWAP5 SUB PUSH2 0x1F64 JUMPI PUSH2 0x1F27 DUP3 PUSH2 0x3666 JUMP JUMPDEST PUSH32 0xBC7CD75A20EE27FD9ADEBAB32041F755214DBC6BFFA90CC0225B39DA2E5C2D3B PUSH1 0x0 DUP1 LOG2 DUP3 MLOAD ISZERO DUP1 ISZERO SWAP1 PUSH2 0x1F5C JUMPI PUSH2 0x14E9 JUMPI STOP JUMPDEST POP PUSH1 0x0 PUSH2 0x14E3 JUMP JUMPDEST PUSH1 0x40 MLOAD PUSH3 0x461BCD PUSH1 0xE5 SHL DUP2 MSTORE PUSH1 0x4 DUP2 ADD DUP5 SWAP1 MSTORE PUSH1 0x29 PUSH1 0x24 DUP3 ADD MSTORE PUSH32 0x45524331393637557067726164653A20756E737570706F727465642070726F78 PUSH1 0x44 DUP3 ADD MSTORE PUSH9 0x1A58589B1955555251 PUSH1 0xBA SHL PUSH1 0x64 DUP3 ADD MSTORE PUSH1 0x84 SWAP1 REVERT JUMPDEST SWAP1 SWAP2 POP DUP7 DUP2 DUP2 RETURNDATASIZE DUP4 GT PUSH2 0x1FE3 JUMPI JUMPDEST PUSH2 0x1FD3 DUP2 DUP4 PUSH2 0x2B1F JUMP JUMPDEST DUP2 ADD SUB SLT PUSH2 0x1EC JUMPI MLOAD SWAP1 DUP9 PUSH2 0x1EB5 JUMP JUMPDEST POP RETURNDATASIZE PUSH2 0x1FC9 JUMP JUMPDEST PUSH1 0x40 MLOAD PUSH3 0x461BCD PUSH1 0xE5 SHL DUP2 MSTORE PUSH1 0x4 DUP2 ADD DUP4 SWAP1 MSTORE PUSH1 0x1F PUSH1 0x24 DUP3 ADD MSTORE PUSH32 0x55706772616465207265717569726573206D756C74697369672061646D696E00 PUSH1 0x44 DUP3 ADD MSTORE PUSH1 0x64 SWAP1 REVERT JUMPDEST PUSH1 0x40 MLOAD PUSH3 0x461BCD PUSH1 0xE5 SHL DUP2 MSTORE PUSH1 0x4 DUP2 ADD DUP4 SWAP1 MSTORE PUSH1 0x19 PUSH1 0x24 DUP3 ADD MSTORE PUSH25 0x55706772616465206F6E6C79207669612074696D656C6F636B PUSH1 0x38 SHL PUSH1 0x44 DUP3 ADD MSTORE PUSH1 0x64 SWAP1 REVERT JUMPDEST CALLVALUE PUSH2 0x1EC JUMPI PUSH1 0x40 CALLDATASIZE PUSH1 0x3 NOT ADD SLT PUSH2 0x1EC JUMPI PUSH2 0x2089 PUSH2 0x2A51 JUMP JUMPDEST CALLER PUSH1 0x1 PUSH1 0x1 PUSH1 0xA0 SHL SUB DUP3 AND SUB PUSH2 0x20A5 JUMPI PUSH2 0x450 SWAP1 PUSH1 0x4 CALLDATALOAD PUSH2 0x34E6 JUMP JUMPDEST PUSH1 0x40 MLOAD PUSH3 0x461BCD PUSH1 0xE5 SHL DUP2 MSTORE PUSH1 0x20 PUSH1 0x4 DUP3 ADD MSTORE PUSH1 0x2F PUSH1 0x24 DUP3 ADD MSTORE PUSH32 0x416363657373436F6E74726F6C3A2063616E206F6E6C792072656E6F756E6365 PUSH1 0x44 DUP3 ADD MSTORE PUSH15 0x103937B632B9903337B91039B2B633 PUSH1 0x89 SHL PUSH1 0x64 DUP3 ADD MSTORE PUSH1 0x84 SWAP1 REVERT JUMPDEST CALLVALUE PUSH2 0x1EC JUMPI PUSH1 0x20 DUP1 PUSH1 0x3 NOT CALLDATASIZE ADD SLT PUSH2 0x1EC JUMPI PUSH1 0x24 PUSH2 0x211E PUSH2 0x2A3B JUMP JUMPDEST PUSH2 0x15F SLOAD PUSH1 0x40 MLOAD PUSH4 0x70A08231 PUSH1 0xE0 SHL DUP2 MSTORE ADDRESS PUSH1 0x4 DUP3 ADD MSTORE SWAP3 PUSH1 0x0 SWAP3 PUSH1 0x1 PUSH1 0x1 PUSH1 0xA0 SHL SUB SWAP3 SWAP1 SWAP2 DUP7 SWAP2 DUP7 SWAP2 SWAP1 DUP3 SWAP1 DUP7 AND GAS STATICCALL SWAP4 DUP5 ISZERO PUSH2 0x596 JUMPI PUSH1 0x0 SWAP5 PUSH2 0x21C6 JUMPI JUMPDEST POP AND PUSH1 0x0 MSTORE PUSH2 0x162 DUP4 MSTORE PUSH1 0x40 PUSH1 0x0 KECCAK256 SWAP3 PUSH1 0x0 DUP5 SLOAD JUMPDEST DUP1 DUP3 LT PUSH2 0x218A JUMPI POP POP PUSH1 0x40 DUP1 SWAP5 POP MLOAD SWAP3 DUP4 MSTORE DUP3 ADD MSTORE RETURN JUMPDEST SWAP1 SWAP3 PUSH2 0x21BE PUSH1 0x1 SWAP2 PUSH2 0x21B8 DUP4 PUSH2 0x21A0 DUP9 DUP12 PUSH2 0x2A98 JUMP JUMPDEST POP ADD SLOAD PUSH1 0x2 PUSH2 0x21AF DUP10 DUP13 PUSH2 0x2A98 JUMP JUMPDEST POP ADD SLOAD SWAP1 PUSH2 0x2BAC JUMP JUMPDEST SWAP1 PUSH2 0x2BB9 JUMP JUMPDEST SWAP4 ADD SWAP1 PUSH2 0x2173 JUMP JUMPDEST SWAP1 SWAP4 POP DUP5 DUP2 DUP2 RETURNDATASIZE DUP4 GT PUSH2 0x21EE JUMPI JUMPDEST PUSH2 0x21DE DUP2 DUP4 PUSH2 0x2B1F JUMP JUMPDEST DUP2 ADD SUB SLT PUSH2 0x1EC JUMPI MLOAD SWAP3 DUP6 PUSH2 0x215E JUMP JUMPDEST POP RETURNDATASIZE PUSH2 0x21D4 JUMP JUMPDEST CALLVALUE PUSH2 0x1EC JUMPI PUSH1 0x40 CALLDATASIZE PUSH1 0x3 NOT ADD SLT PUSH2 0x1EC JUMPI PUSH1 0x4 CALLDATALOAD PUSH2 0x2211 PUSH2 0x2A51 JUMP JUMPDEST DUP2 PUSH1 0x0 MSTORE PUSH2 0x12D DUP1 PUSH1 0x20 MSTORE PUSH2 0x222D PUSH1 0x1 PUSH1 0x40 PUSH1 0x0 KECCAK256 ADD SLOAD PUSH2 0x3396 JUMP JUMPDEST DUP3 PUSH1 0x0 MSTORE DUP1 PUSH1 0x20 MSTORE PUSH1 0x40 PUSH1 0x0 KECCAK256 SWAP2 PUSH1 0x1 DUP1 PUSH1 0xA0 SHL SUB AND SWAP2 DUP3 PUSH1 0x0 MSTORE PUSH1 0x20 MSTORE PUSH1 0xFF PUSH1 0x40 PUSH1 0x0 KECCAK256 SLOAD AND ISZERO PUSH2 0x225B JUMPI STOP JUMPDEST DUP3 PUSH1 0x0 MSTORE PUSH1 0x20 MSTORE PUSH1 0x40 PUSH1 0x0 KECCAK256 DUP2 PUSH1 0x0 MSTORE PUSH1 0x20 MSTORE PUSH1 0x40 PUSH1 0x0 KECCAK256 PUSH1 0x1 PUSH1 0xFF NOT DUP3 SLOAD AND OR SWAP1 SSTORE CALLER SWAP2 PUSH1 0x0 DUP1 MLOAD PUSH1 0x20 PUSH2 0x3898 DUP4 CODECOPY DUP2 MLOAD SWAP2 MSTORE PUSH1 0x0 DUP1 LOG4 STOP JUMPDEST CALLVALUE PUSH2 0x1EC JUMPI PUSH1 0x0 CALLDATASIZE PUSH1 0x3 NOT ADD SLT PUSH2 0x1EC JUMPI PUSH1 0x20 PUSH2 0x160 SLOAD PUSH1 0x40 MLOAD SWAP1 DUP2 MSTORE RETURN JUMPDEST CALLVALUE PUSH2 0x1EC JUMPI PUSH1 0x20 CALLDATASIZE PUSH1 0x3 NOT ADD SLT PUSH2 0x1EC JUMPI PUSH1 0x4 CALLDATALOAD PUSH1 0x0 MSTORE PUSH2 0x12D PUSH1 0x20 MSTORE PUSH1 0x20 PUSH1 0x1 PUSH1 0x40 PUSH1 0x0 KECCAK256 ADD SLOAD PUSH1 0x40 MLOAD SWAP1 DUP2 MSTORE RETURN JUMPDEST CALLVALUE PUSH2 0x1EC JUMPI PUSH1 0x40 CALLDATASIZE PUSH1 0x3 NOT ADD SLT PUSH2 0x1EC JUMPI PUSH2 0x22FD PUSH2 0x2A3B JUMP JUMPDEST PUSH1 0x24 CALLDATALOAD PUSH2 0x2308 PUSH2 0x34A2 JUMP JUMPDEST PUSH1 0x1 PUSH1 0x1 PUSH1 0xA0 SHL SUB DUP3 DUP2 AND SWAP3 PUSH2 0x231F DUP5 ISZERO ISZERO PUSH2 0x2C2E JUMP JUMPDEST DUP4 PUSH1 0x0 MSTORE PUSH2 0x162 SWAP1 PUSH1 0x20 SWAP2 DUP1 DUP4 MSTORE PUSH1 0x40 PUSH1 0x0 KECCAK256 SLOAD DUP6 LT ISZERO PUSH2 0x24AF JUMPI DUP6 PUSH1 0x0 MSTORE DUP3 MSTORE PUSH2 0x234E DUP5 PUSH1 0x40 PUSH1 0x0 KECCAK256 PUSH2 0x2A98 JUMP JUMPDEST POP SWAP3 PUSH1 0xFF DUP5 SLOAD AND ISZERO PUSH2 0x246A JUMPI PUSH2 0x2366 PUSH2 0x1BC7 DUP6 PUSH2 0x2E9E JUMP JUMPDEST SWAP4 DUP5 ISZERO PUSH2 0x2425 JUMPI PUSH2 0x23BE SWAP3 DUP5 SWAP3 PUSH1 0x2 DUP8 SWAP4 ADD PUSH2 0x2383 DUP5 DUP3 SLOAD PUSH2 0x2BB9 JUMP JUMPDEST SWAP1 SSTORE PUSH2 0x15F SLOAD AND SWAP1 PUSH1 0x0 PUSH1 0x40 MLOAD DUP1 SWAP7 DUP2 SWAP6 DUP3 SWAP5 PUSH4 0xA9059CBB PUSH1 0xE0 SHL DUP5 MSTORE PUSH1 0x4 DUP5 ADD PUSH1 0x20 SWAP1 SWAP4 SWAP3 SWAP2 SWAP4 PUSH1 0x40 DUP2 ADD SWAP5 PUSH1 0x1 DUP1 PUSH1 0xA0 SHL SUB AND DUP2 MSTORE ADD MSTORE JUMP JUMPDEST SUB SWAP3 GAS CALL SWAP1 DUP2 ISZERO PUSH2 0x596 JUMPI PUSH1 0x0 SWAP2 PUSH2 0x2408 JUMPI JUMPDEST POP ISZERO PUSH2 0x1C5F JUMPI SWAP2 PUSH1 0x40 SWAP2 PUSH32 0x9923B4306C6C030F2BDFBF156517D5983B87E15B96176DA122CD4F2EFFA4BA7B SWAP4 DUP4 MLOAD SWAP3 DUP4 MSTORE DUP3 ADD MSTORE LOG2 STOP JUMPDEST PUSH2 0x241F SWAP2 POP DUP3 RETURNDATASIZE DUP5 GT PUSH2 0x58F JUMPI PUSH2 0x581 DUP2 DUP4 PUSH2 0x2B1F JUMP JUMPDEST DUP6 PUSH2 0x23D1 JUMP JUMPDEST PUSH1 0x40 MLOAD PUSH3 0x461BCD PUSH1 0xE5 SHL DUP2 MSTORE PUSH1 0x4 DUP2 ADD DUP6 SWAP1 MSTORE PUSH1 0x1D PUSH1 0x24 DUP3 ADD MSTORE PUSH32 0x4E6F20746F6B656E7320617661696C61626C6520666F7220636C61696D000000 PUSH1 0x44 DUP3 ADD MSTORE PUSH1 0x64 SWAP1 REVERT JUMPDEST PUSH1 0x40 MLOAD PUSH3 0x461BCD PUSH1 0xE5 SHL DUP2 MSTORE PUSH1 0x4 DUP2 ADD DUP5 SWAP1 MSTORE PUSH1 0x1A PUSH1 0x24 DUP3 ADD MSTORE PUSH32 0x56657374696E67207363686564756C65206E6F7420666F756E64000000000000 PUSH1 0x44 DUP3 ADD MSTORE PUSH1 0x64 SWAP1 REVERT JUMPDEST PUSH1 0x40 MLOAD PUSH3 0x461BCD PUSH1 0xE5 SHL DUP2 MSTORE PUSH1 0x4 DUP2 ADD DUP5 SWAP1 MSTORE PUSH1 0x1E PUSH1 0x24 DUP3 ADD MSTORE PUSH32 0x496E76616C69642076657374696E67207363686564756C6520696E6465780000 PUSH1 0x44 DUP3 ADD MSTORE PUSH1 0x64 SWAP1 REVERT JUMPDEST CALLVALUE PUSH2 0x1EC JUMPI PUSH1 0xE0 CALLDATASIZE PUSH1 0x3 NOT ADD SLT PUSH2 0x1EC JUMPI PUSH8 0xFFFFFFFFFFFFFFFF PUSH1 0x4 CALLDATALOAD DUP2 DUP2 GT PUSH2 0x1EC JUMPI PUSH2 0x2526 SWAP1 CALLDATASIZE SWAP1 PUSH1 0x4 ADD PUSH2 0x2A67 JUMP JUMPDEST PUSH1 0x24 CALLDATALOAD DUP4 DUP2 GT PUSH2 0x1EC JUMPI PUSH2 0x253E SWAP1 CALLDATASIZE SWAP1 PUSH1 0x4 ADD PUSH2 0x2A67 JUMP JUMPDEST PUSH2 0x1E0 MSTORE SWAP3 PUSH1 0x44 CALLDATALOAD DUP2 DUP2 GT PUSH2 0x1EC JUMPI PUSH2 0x255B SWAP1 CALLDATASIZE SWAP1 PUSH1 0x4 ADD PUSH2 0x2A67 JUMP JUMPDEST PUSH2 0x1A0 MSTORE PUSH1 0x80 MSTORE PUSH1 0x64 CALLDATALOAD DUP2 DUP2 GT PUSH2 0x1EC JUMPI PUSH2 0x257A SWAP1 CALLDATASIZE SWAP1 PUSH1 0x4 ADD PUSH2 0x2A67 JUMP JUMPDEST PUSH1 0xC0 MSTORE PUSH1 0xA0 MSTORE PUSH1 0x84 CALLDATALOAD DUP2 DUP2 GT PUSH2 0x1EC JUMPI PUSH2 0x2598 SWAP1 CALLDATASIZE SWAP1 PUSH1 0x4 ADD PUSH2 0x2A67 JUMP JUMPDEST PUSH2 0x140 MSTORE PUSH1 0xE0 MSTORE PUSH1 0xA4 CALLDATALOAD DUP2 DUP2 GT PUSH2 0x1EC JUMPI PUSH2 0x25B7 SWAP1 CALLDATASIZE SWAP1 PUSH1 0x4 ADD PUSH2 0x2A67 JUMP JUMPDEST PUSH2 0x160 MSTORE PUSH2 0x100 MSTORE PUSH1 0xC4 CALLDATALOAD GT PUSH2 0x1EC JUMPI PUSH2 0x25D6 CALLDATASIZE PUSH1 0xC4 CALLDATALOAD PUSH1 0x4 ADD PUSH2 0x2A67 JUMP JUMPDEST PUSH2 0x180 MSTORE PUSH2 0x120 MSTORE PUSH2 0x25E6 PUSH2 0x3191 JUMP JUMPDEST PUSH2 0x25F4 PUSH2 0x1E0 MLOAD DUP3 EQ PUSH2 0x2BC6 JUMP JUMPDEST PUSH2 0x2602 PUSH2 0x1A0 MLOAD DUP3 EQ PUSH2 0x2BC6 JUMP JUMPDEST PUSH2 0x260F PUSH1 0xC0 MLOAD DUP3 EQ PUSH2 0x2BC6 JUMP JUMPDEST PUSH2 0x261D PUSH2 0x140 MLOAD DUP3 EQ PUSH2 0x2BC6 JUMP JUMPDEST PUSH2 0x262B PUSH2 0x160 MLOAD DUP3 EQ PUSH2 0x2BC6 JUMP JUMPDEST PUSH2 0x2639 PUSH2 0x180 MLOAD DUP3 EQ PUSH2 0x2BC6 JUMP JUMPDEST DUP1 ISZERO PUSH2 0x293D JUMPI PUSH1 0x64 DUP2 GT PUSH2 0x28FF JUMPI PUSH1 0x0 PUSH2 0x1C0 MSTORE JUMPDEST DUP1 PUSH2 0x1C0 MLOAD LT PUSH2 0x265A JUMPI STOP JUMPDEST PUSH2 0x2682 PUSH1 0x1 DUP1 PUSH1 0xA0 SHL SUB PUSH2 0x267A PUSH2 0x2675 PUSH2 0x1C0 MLOAD DUP6 DUP8 PUSH2 0x2C0A JUMP JUMPDEST PUSH2 0x2C1A JUMP JUMPDEST AND ISZERO ISZERO PUSH2 0x2C2E JUMP JUMPDEST PUSH2 0x2695 PUSH2 0x1C0 MLOAD PUSH2 0x140 MLOAD PUSH1 0xE0 MLOAD PUSH2 0x2C0A JUMP JUMPDEST CALLDATALOAD ISZERO ISZERO DUP1 PUSH2 0x28DD JUMPI JUMPDEST PUSH2 0x26A7 SWAP1 PUSH2 0x2C7A JUMP JUMPDEST PUSH2 0x26C8 PUSH1 0x64 PUSH2 0x26C0 PUSH2 0x1C0 MLOAD PUSH2 0x180 MLOAD PUSH2 0x120 MLOAD PUSH2 0x2C0A JUMP JUMPDEST CALLDATALOAD GT ISZERO PUSH2 0x2CC6 JUMP JUMPDEST PUSH2 0x26E4 PUSH2 0x26DC PUSH2 0x1C0 MLOAD PUSH2 0x1E0 MLOAD DUP7 PUSH2 0x2C0A JUMP JUMPDEST CALLDATALOAD ISZERO ISZERO PUSH2 0x2D04 JUMP JUMPDEST PUSH2 0x2703 TIMESTAMP PUSH2 0x26FB PUSH2 0x1C0 MLOAD PUSH2 0x1A0 MLOAD PUSH1 0x80 MLOAD PUSH2 0x2C0A JUMP JUMPDEST CALLDATALOAD LT ISZERO PUSH2 0x2D5C JUMP JUMPDEST PUSH2 0x2734 PUSH2 0x2718 PUSH2 0x1C0 MLOAD PUSH1 0xC0 MLOAD PUSH1 0xA0 MLOAD PUSH2 0x2C0A JUMP JUMPDEST CALLDATALOAD PUSH2 0x272C PUSH2 0x1C0 MLOAD PUSH2 0x140 MLOAD PUSH1 0xE0 MLOAD PUSH2 0x2C0A JUMP JUMPDEST CALLDATALOAD LT ISZERO PUSH2 0x2DA7 JUMP JUMPDEST PUSH2 0x1C0 MLOAD PUSH1 0x1 PUSH1 0x1 PUSH1 0xA0 SHL SUB SWAP1 PUSH2 0x2750 SWAP1 PUSH2 0x2675 SWAP1 DUP5 DUP7 PUSH2 0x2C0A JUMP JUMPDEST AND PUSH1 0x0 MSTORE PUSH2 0x162 PUSH1 0x20 MSTORE PUSH2 0x2834 PUSH1 0x40 PUSH1 0x0 KECCAK256 PUSH2 0x2773 PUSH2 0x1C0 MLOAD PUSH2 0x1E0 MLOAD DUP8 PUSH2 0x2C0A JUMP JUMPDEST CALLDATALOAD SWAP1 PUSH2 0x2788 PUSH2 0x1C0 MLOAD PUSH2 0x1A0 MLOAD PUSH1 0x80 MLOAD PUSH2 0x2C0A JUMP JUMPDEST CALLDATALOAD PUSH2 0x27B9 PUSH2 0x279F PUSH2 0x1C0 MLOAD PUSH2 0x1A0 MLOAD PUSH1 0x80 MLOAD PUSH2 0x2C0A JUMP JUMPDEST CALLDATALOAD PUSH2 0x27B2 PUSH2 0x1C0 MLOAD PUSH1 0xC0 MLOAD PUSH1 0xA0 MLOAD PUSH2 0x2C0A JUMP JUMPDEST CALLDATALOAD SWAP1 PUSH2 0x2BB9 JUMP JUMPDEST PUSH2 0x27CC PUSH2 0x1C0 MLOAD PUSH2 0x140 MLOAD PUSH1 0xE0 MLOAD PUSH2 0x2C0A JUMP JUMPDEST CALLDATALOAD PUSH2 0x27E1 PUSH2 0x1C0 MLOAD PUSH2 0x160 MLOAD PUSH2 0x100 MLOAD PUSH2 0x2C0A JUMP JUMPDEST CALLDATALOAD SWAP2 PUSH2 0x27F7 PUSH2 0x1C0 MLOAD PUSH2 0x180 MLOAD PUSH2 0x120 MLOAD PUSH2 0x2C0A JUMP JUMPDEST CALLDATALOAD SWAP4 PUSH1 0x40 MLOAD SWAP7 PUSH2 0x2806 DUP9 PUSH2 0x2ACA JUMP JUMPDEST PUSH1 0x1 DUP9 MSTORE PUSH1 0x20 DUP9 ADD MSTORE PUSH1 0x0 PUSH1 0x40 DUP9 ADD MSTORE PUSH1 0x60 DUP8 ADD MSTORE PUSH1 0x80 DUP7 ADD MSTORE PUSH1 0xA0 DUP6 ADD MSTORE PUSH1 0xC0 DUP5 ADD MSTORE PUSH1 0xE0 DUP4 ADD MSTORE PUSH2 0x2E07 JUMP JUMPDEST PUSH2 0x2845 PUSH2 0x2675 PUSH2 0x1C0 MLOAD DUP4 DUP6 PUSH2 0x2C0A JUMP JUMPDEST PUSH2 0x1C0 MLOAD PUSH1 0x1 PUSH1 0x1 PUSH1 0xA0 SHL SUB SWAP1 PUSH2 0x2861 SWAP1 PUSH2 0x2675 SWAP1 DUP6 DUP8 PUSH2 0x2C0A JUMP JUMPDEST AND PUSH1 0x0 MSTORE PUSH2 0x162 PUSH1 0x20 MSTORE PUSH1 0x40 PUSH1 0x0 KECCAK256 SLOAD SWAP1 DUP2 PUSH1 0x0 NOT DUP2 ADD GT PUSH2 0xE95 JUMPI PUSH1 0x40 PUSH32 0x9ADE76F4385DE306666DFB21A52B27D52DB0FDE8AD0F515FA261F532CAC60D21 SWAP2 PUSH2 0x28B2 PUSH2 0x1C0 MLOAD PUSH2 0x1E0 MLOAD DUP10 PUSH2 0x2C0A JUMP JUMPDEST DUP3 MLOAD PUSH1 0x0 NOT SWAP1 SWAP6 ADD DUP6 MSTORE CALLDATALOAD PUSH1 0x20 DUP6 ADD MSTORE PUSH1 0x1 PUSH1 0x1 PUSH1 0xA0 SHL SUB AND SWAP3 LOG2 PUSH1 0x1 PUSH2 0x1C0 MLOAD ADD PUSH2 0x1C0 MSTORE PUSH2 0x264E JUMP JUMPDEST POP PUSH2 0x26A7 PUSH2 0x28F5 PUSH2 0x1C0 MLOAD PUSH2 0x160 MLOAD PUSH2 0x100 MLOAD PUSH2 0x2C0A JUMP JUMPDEST CALLDATALOAD ISZERO ISZERO SWAP1 POP PUSH2 0x269E JUMP JUMPDEST PUSH1 0x40 MLOAD PUSH3 0x461BCD PUSH1 0xE5 SHL DUP2 MSTORE PUSH1 0x20 PUSH1 0x4 DUP3 ADD MSTORE PUSH1 0x16 PUSH1 0x24 DUP3 ADD MSTORE PUSH22 0x546F6F206D616E792062656E65666963696172696573 PUSH1 0x50 SHL PUSH1 0x44 DUP3 ADD MSTORE PUSH1 0x64 SWAP1 REVERT JUMPDEST PUSH1 0x40 MLOAD PUSH3 0x461BCD PUSH1 0xE5 SHL DUP2 MSTORE PUSH1 0x20 PUSH1 0x4 DUP3 ADD MSTORE PUSH1 0xC PUSH1 0x24 DUP3 ADD MSTORE PUSH12 0x456D70747920617272617973 PUSH1 0xA0 SHL PUSH1 0x44 DUP3 ADD MSTORE PUSH1 0x64 SWAP1 REVERT JUMPDEST CALLVALUE PUSH2 0x1EC JUMPI PUSH1 0x20 CALLDATASIZE PUSH1 0x3 NOT ADD SLT PUSH2 0x1EC JUMPI PUSH2 0x298A PUSH2 0x2A3B JUMP JUMPDEST PUSH1 0x1 PUSH1 0x1 PUSH1 0xA0 SHL SUB AND PUSH1 0x0 SWAP1 DUP2 MSTORE PUSH2 0x162 PUSH1 0x20 MSTORE PUSH1 0x40 DUP2 KECCAK256 DUP1 SLOAD DUP3 SWAP2 JUMPDEST DUP2 DUP5 LT PUSH2 0x29B9 JUMPI PUSH1 0x20 DUP4 PUSH1 0x40 MLOAD SWAP1 DUP2 MSTORE RETURN JUMPDEST SWAP1 SWAP2 PUSH2 0x29DE PUSH1 0x1 SWAP2 PUSH2 0x21B8 DUP4 PUSH2 0x29CF DUP9 DUP8 PUSH2 0x2A98 JUMP JUMPDEST POP ADD SLOAD PUSH1 0x2 PUSH2 0x21AF DUP10 DUP9 PUSH2 0x2A98 JUMP JUMPDEST SWAP4 ADD SWAP3 SWAP2 SWAP1 PUSH2 0x29A7 JUMP JUMPDEST CALLVALUE PUSH2 0x1EC JUMPI PUSH1 0x20 CALLDATASIZE PUSH1 0x3 NOT ADD SLT PUSH2 0x1EC JUMPI PUSH1 0x4 CALLDATALOAD SWAP1 PUSH4 0xFFFFFFFF PUSH1 0xE0 SHL DUP3 AND DUP1 SWAP3 SUB PUSH2 0x1EC JUMPI PUSH1 0x20 SWAP2 PUSH4 0x7965DB0B PUSH1 0xE0 SHL DUP2 EQ SWAP1 DUP2 ISZERO PUSH2 0x2A2A JUMPI JUMPDEST POP ISZERO ISZERO DUP2 MSTORE RETURN JUMPDEST PUSH4 0x1FFC9A7 PUSH1 0xE0 SHL EQ SWAP1 POP DUP4 PUSH2 0x2A23 JUMP JUMPDEST PUSH1 0x4 CALLDATALOAD SWAP1 PUSH1 0x1 PUSH1 0x1 PUSH1 0xA0 SHL SUB DUP3 AND DUP3 SUB PUSH2 0x1EC JUMPI JUMP JUMPDEST PUSH1 0x24 CALLDATALOAD SWAP1 PUSH1 0x1 PUSH1 0x1 PUSH1 0xA0 SHL SUB DUP3 AND DUP3 SUB PUSH2 0x1EC JUMPI JUMP JUMPDEST SWAP2 DUP2 PUSH1 0x1F DUP5 ADD SLT ISZERO PUSH2 0x1EC JUMPI DUP3 CALLDATALOAD SWAP2 PUSH8 0xFFFFFFFFFFFFFFFF DUP4 GT PUSH2 0x1EC JUMPI PUSH1 0x20 DUP1 DUP6 ADD SWAP5 DUP5 PUSH1 0x5 SHL ADD ADD GT PUSH2 0x1EC JUMPI JUMP JUMPDEST DUP1 SLOAD DUP3 LT ISZERO PUSH2 0x2AB4 JUMPI PUSH1 0x0 MSTORE PUSH1 0x20 PUSH1 0x0 KECCAK256 SWAP1 PUSH1 0x3 SHL ADD SWAP1 PUSH1 0x0 SWAP1 JUMP JUMPDEST PUSH4 0x4E487B71 PUSH1 0xE0 SHL PUSH1 0x0 MSTORE PUSH1 0x32 PUSH1 0x4 MSTORE PUSH1 0x24 PUSH1 0x0 REVERT JUMPDEST PUSH2 0x100 DUP2 ADD SWAP1 DUP2 LT PUSH8 0xFFFFFFFFFFFFFFFF DUP3 GT OR PUSH2 0x600 JUMPI PUSH1 0x40 MSTORE JUMP JUMPDEST PUSH1 0x60 DUP2 ADD SWAP1 DUP2 LT PUSH8 0xFFFFFFFFFFFFFFFF DUP3 GT OR PUSH2 0x600 JUMPI PUSH1 0x40 MSTORE JUMP JUMPDEST PUSH1 0x80 DUP2 ADD SWAP1 DUP2 LT PUSH8 0xFFFFFFFFFFFFFFFF DUP3 GT OR PUSH2 0x600 JUMPI PUSH1 0x40 MSTORE JUMP JUMPDEST SWAP1 PUSH1 0x1F DUP1 NOT SWAP2 ADD AND DUP2 ADD SWAP1 DUP2 LT PUSH8 0xFFFFFFFFFFFFFFFF DUP3 GT OR PUSH2 0x600 JUMPI PUSH1 0x40 MSTORE JUMP JUMPDEST PUSH8 0xFFFFFFFFFFFFFFFF DUP2 GT PUSH2 0x600 JUMPI PUSH1 0x1F ADD PUSH1 0x1F NOT AND PUSH1 0x20 ADD SWAP1 JUMP JUMPDEST PUSH1 0x0 JUMPDEST DUP4 DUP2 LT PUSH2 0x2B70 JUMPI POP POP PUSH1 0x0 SWAP2 ADD MSTORE JUMP JUMPDEST DUP2 DUP2 ADD MLOAD DUP4 DUP3 ADD MSTORE PUSH1 0x20 ADD PUSH2 0x2B60 JUMP JUMPDEST PUSH1 0x40 SWAP2 PUSH1 0x20 DUP3 MSTORE PUSH2 0x2BA0 DUP2 MLOAD DUP1 SWAP3 DUP2 PUSH1 0x20 DUP7 ADD MSTORE PUSH1 0x20 DUP7 DUP7 ADD SWAP2 ADD PUSH2 0x2B5D JUMP JUMPDEST PUSH1 0x1F ADD PUSH1 0x1F NOT AND ADD ADD SWAP1 JUMP JUMPDEST SWAP2 SWAP1 DUP3 SUB SWAP2 DUP3 GT PUSH2 0xE95 JUMPI JUMP JUMPDEST SWAP2 SWAP1 DUP3 ADD DUP1 SWAP3 GT PUSH2 0xE95 JUMPI JUMP JUMPDEST ISZERO PUSH2 0x2BCD JUMPI JUMP JUMPDEST PUSH1 0x40 MLOAD PUSH3 0x461BCD PUSH1 0xE5 SHL DUP2 MSTORE PUSH1 0x20 PUSH1 0x4 DUP3 ADD MSTORE PUSH1 0x15 PUSH1 0x24 DUP3 ADD MSTORE PUSH21 0x82E4E4C2F240D8CADCCEE8D040DAD2E6DAC2E8C6D PUSH1 0x5B SHL PUSH1 0x44 DUP3 ADD MSTORE PUSH1 0x64 SWAP1 REVERT JUMPDEST SWAP2 SWAP1 DUP2 LT ISZERO PUSH2 0x2AB4 JUMPI PUSH1 0x5 SHL ADD SWAP1 JUMP JUMPDEST CALLDATALOAD PUSH1 0x1 PUSH1 0x1 PUSH1 0xA0 SHL SUB DUP2 AND DUP2 SUB PUSH2 0x1EC JUMPI SWAP1 JUMP JUMPDEST ISZERO PUSH2 0x2C35 JUMPI JUMP JUMPDEST PUSH1 0x40 MLOAD PUSH3 0x461BCD PUSH1 0xE5 SHL DUP2 MSTORE PUSH1 0x20 PUSH1 0x4 DUP3 ADD MSTORE PUSH1 0x1B PUSH1 0x24 DUP3 ADD MSTORE PUSH32 0x496E76616C69642062656E656669636961727920616464726573730000000000 PUSH1 0x44 DUP3 ADD MSTORE PUSH1 0x64 SWAP1 REVERT JUMPDEST ISZERO PUSH2 0x2C81 JUMPI JUMP JUMPDEST PUSH1 0x40 MLOAD PUSH3 0x461BCD PUSH1 0xE5 SHL DUP2 MSTORE PUSH1 0x20 PUSH1 0x4 DUP3 ADD MSTORE PUSH1 0x19 PUSH1 0x24 DUP3 ADD MSTORE PUSH32 0x496E76616C6964206475726174696F6E206F7220736C69636500000000000000 PUSH1 0x44 DUP3 ADD MSTORE PUSH1 0x64 SWAP1 REVERT JUMPDEST ISZERO PUSH2 0x2CCD JUMPI JUMP JUMPDEST PUSH1 0x40 MLOAD PUSH3 0x461BCD PUSH1 0xE5 SHL DUP2 MSTORE PUSH1 0x20 PUSH1 0x4 DUP3 ADD MSTORE PUSH1 0xF PUSH1 0x24 DUP3 ADD MSTORE PUSH15 0x496E76616C696420636C6966662025 PUSH1 0x88 SHL PUSH1 0x44 DUP3 ADD MSTORE PUSH1 0x64 SWAP1 REVERT JUMPDEST ISZERO PUSH2 0x2D0B JUMPI JUMP JUMPDEST PUSH1 0x40 MLOAD PUSH3 0x461BCD PUSH1 0xE5 SHL DUP2 MSTORE PUSH1 0x20 PUSH1 0x4 DUP3 ADD MSTORE PUSH1 0x23 PUSH1 0x24 DUP3 ADD MSTORE PUSH32 0x546F74616C20616D6F756E74206D757374206265206772656174657220746861 PUSH1 0x44 DUP3 ADD MSTORE PUSH3 0x6E203 PUSH1 0xEC SHL PUSH1 0x64 DUP3 ADD MSTORE PUSH1 0x84 SWAP1 REVERT JUMPDEST ISZERO PUSH2 0x2D63 JUMPI JUMP JUMPDEST PUSH1 0x64 PUSH1 0x40 MLOAD PUSH3 0x461BCD PUSH1 0xE5 SHL DUP2 MSTORE PUSH1 0x20 PUSH1 0x4 DUP3 ADD MSTORE PUSH1 0x20 PUSH1 0x24 DUP3 ADD MSTORE PUSH32 0x53746172742074696D652063616E6E6F7420626520696E207468652070617374 PUSH1 0x44 DUP3 ADD MSTORE REVERT JUMPDEST ISZERO PUSH2 0x2DAE JUMPI JUMP JUMPDEST PUSH1 0x40 MLOAD PUSH3 0x461BCD PUSH1 0xE5 SHL DUP2 MSTORE PUSH1 0x20 PUSH1 0x4 DUP3 ADD MSTORE PUSH1 0x2B PUSH1 0x24 DUP3 ADD MSTORE PUSH32 0x436C696666206475726174696F6E2063616E6E6F742065786365656420746F74 PUSH1 0x44 DUP3 ADD MSTORE PUSH11 0x30B610323AB930BA34B7B7 PUSH1 0xA9 SHL PUSH1 0x64 DUP3 ADD MSTORE PUSH1 0x84 SWAP1 REVERT JUMPDEST DUP1 SLOAD PUSH9 0x10000000000000000 DUP2 LT ISZERO PUSH2 0x600 JUMPI PUSH2 0x2E29 SWAP2 PUSH1 0x1 DUP3 ADD DUP2 SSTORE PUSH2 0x2A98 JUMP JUMPDEST SWAP2 SWAP1 SWAP2 PUSH2 0x2E88 JUMPI PUSH1 0xE0 DUP2 PUSH1 0x7 SWAP3 MLOAD ISZERO ISZERO PUSH1 0xFF DUP1 NOT DUP7 SLOAD AND SWAP2 AND OR DUP5 SSTORE PUSH1 0x20 DUP2 ADD MLOAD PUSH1 0x1 DUP6 ADD SSTORE PUSH1 0x40 DUP2 ADD MLOAD PUSH1 0x2 DUP6 ADD SSTORE PUSH1 0x60 DUP2 ADD MLOAD PUSH1 0x3 DUP6 ADD SSTORE PUSH1 0x80 DUP2 ADD MLOAD PUSH1 0x4 DUP6 ADD SSTORE PUSH1 0xA0 DUP2 ADD MLOAD PUSH1 0x5 DUP6 ADD SSTORE PUSH1 0xC0 DUP2 ADD MLOAD PUSH1 0x6 DUP6 ADD SSTORE ADD MLOAD SWAP2 ADD SSTORE JUMP JUMPDEST PUSH4 0x4E487B71 PUSH1 0xE0 SHL PUSH1 0x0 MSTORE PUSH1 0x0 PUSH1 0x4 MSTORE PUSH1 0x24 PUSH1 0x0 REVERT JUMPDEST SWAP1 PUSH1 0x40 MLOAD PUSH2 0x2EAB DUP2 PUSH2 0x2ACA JUMP JUMPDEST PUSH1 0xE0 PUSH1 0x7 DUP3 SWAP5 PUSH1 0xFF DUP2 SLOAD AND ISZERO ISZERO DUP5 MSTORE PUSH1 0x1 DUP2 ADD SLOAD PUSH1 0x20 DUP6 ADD MSTORE PUSH1 0x2 DUP2 ADD SLOAD PUSH1 0x40 DUP6 ADD MSTORE PUSH1 0x3 DUP2 ADD SLOAD PUSH1 0x60 DUP6 ADD MSTORE PUSH1 0x4 DUP2 ADD SLOAD PUSH1 0x80 DUP6 ADD MSTORE PUSH1 0x5 DUP2 ADD SLOAD PUSH1 0xA0 DUP6 ADD MSTORE PUSH1 0x6 DUP2 ADD SLOAD PUSH1 0xC0 DUP6 ADD MSTORE ADD SLOAD SWAP2 ADD MSTORE JUMP JUMPDEST SWAP1 DUP2 PUSH1 0x20 SWAP2 SUB SLT PUSH2 0x1EC JUMPI MLOAD DUP1 ISZERO ISZERO DUP2 SUB PUSH2 0x1EC JUMPI SWAP1 JUMP JUMPDEST ISZERO PUSH2 0x2F1C JUMPI JUMP JUMPDEST PUSH1 0x40 MLOAD PUSH3 0x461BCD PUSH1 0xE5 SHL DUP2 MSTORE PUSH1 0x20 PUSH1 0x4 DUP3 ADD MSTORE PUSH1 0x2C PUSH1 0x24 DUP3 ADD MSTORE PUSH32 0x46756E6374696F6E206D7573742062652063616C6C6564207468726F75676820 PUSH1 0x44 DUP3 ADD MSTORE PUSH12 0x19195B1959D85D1958D85B1B PUSH1 0xA2 SHL PUSH1 0x64 DUP3 ADD MSTORE PUSH1 0x84 SWAP1 REVERT JUMPDEST ISZERO PUSH2 0x2F7D JUMPI JUMP JUMPDEST PUSH1 0x40 MLOAD PUSH3 0x461BCD PUSH1 0xE5 SHL DUP2 MSTORE PUSH1 0x20 PUSH1 0x4 DUP3 ADD MSTORE PUSH1 0x2C PUSH1 0x24 DUP3 ADD MSTORE PUSH32 0x46756E6374696F6E206D7573742062652063616C6C6564207468726F75676820 PUSH1 0x44 DUP3 ADD MSTORE PUSH12 0x6163746976652070726F7879 PUSH1 0xA0 SHL PUSH1 0x64 DUP3 ADD MSTORE PUSH1 0x84 SWAP1 REVERT JUMPDEST PUSH8 0xFFFFFFFFFFFFFFFF DUP2 GT PUSH2 0x600 JUMPI PUSH1 0x5 SHL PUSH1 0x20 ADD SWAP1 JUMP JUMPDEST DUP2 DUP2 MUL SWAP3 SWAP2 DUP2 ISZERO SWAP2 DUP5 DIV EQ OR ISZERO PUSH2 0xE95 JUMPI JUMP JUMPDEST DUP2 ISZERO PUSH2 0x300C JUMPI DIV SWAP1 JUMP JUMPDEST PUSH4 0x4E487B71 PUSH1 0xE0 SHL PUSH1 0x0 MSTORE PUSH1 0x12 PUSH1 0x4 MSTORE PUSH1 0x24 PUSH1 0x0 REVERT JUMPDEST DUP1 MLOAD ISZERO DUP1 ISZERO PUSH2 0x3171 JUMPI JUMPDEST PUSH2 0x316B JUMPI PUSH1 0x80 DUP2 ADD SWAP1 DUP2 MLOAD TIMESTAMP LT PUSH1 0x0 EQ PUSH2 0x3047 JUMPI POP POP PUSH1 0x0 SWAP1 JUMP JUMPDEST PUSH1 0x60 DUP2 ADD DUP1 MLOAD SWAP1 PUSH2 0x305E PUSH1 0xA0 DUP5 ADD SWAP3 DUP4 MLOAD SWAP1 PUSH2 0x2BB9 JUMP JUMPDEST TIMESTAMP LT PUSH2 0x307E JUMPI POP POP PUSH2 0x307B SWAP2 POP PUSH1 0x40 PUSH1 0x20 DUP3 ADD MLOAD SWAP2 ADD MLOAD SWAP1 PUSH2 0x2BAC JUMP JUMPDEST SWAP1 JUMP JUMPDEST PUSH1 0x0 SWAP4 MLOAD TIMESTAMP LT ISZERO DUP1 PUSH2 0x315E JUMPI JUMPDEST PUSH2 0x313B JUMPI JUMPDEST PUSH2 0x309B SWAP1 MLOAD TIMESTAMP PUSH2 0x2BAC JUMP JUMPDEST PUSH1 0x20 DUP4 ADD SWAP2 PUSH2 0x30BC DUP4 MLOAD PUSH1 0x64 PUSH2 0x30B5 PUSH1 0xE0 DUP9 ADD MLOAD DUP4 PUSH2 0x2FEF JUMP JUMPDEST DIV SWAP1 PUSH2 0x2BAC JUMP JUMPDEST SWAP2 DUP1 PUSH2 0x30F5 JUMPI JUMPDEST POP POP POP MLOAD DUP1 DUP4 GT PUSH2 0x30EC JUMPI JUMPDEST POP PUSH1 0x40 ADD MLOAD DUP1 DUP3 GT ISZERO PUSH2 0x30E5 JUMPI PUSH2 0x307B SWAP2 PUSH2 0x2BAC JUMP JUMPDEST POP POP PUSH1 0x0 SWAP1 JUMP JUMPDEST SWAP2 POP PUSH1 0x40 PUSH2 0x30CF JUMP JUMPDEST PUSH2 0x3113 SWAP1 PUSH2 0x3109 PUSH1 0xC0 DUP8 ADD SWAP2 DUP3 MLOAD SWAP1 PUSH2 0x3002 JUMP JUMPDEST SWAP3 MLOAD SWAP1 MLOAD SWAP1 PUSH2 0x3002 JUMP JUMPDEST SWAP2 DUP3 ISZERO PUSH2 0x30C3 JUMPI SWAP2 PUSH2 0x312D PUSH2 0x21B8 SWAP3 PUSH2 0x3132 SWAP6 SWAP8 SWAP5 PUSH2 0x2FEF JUMP JUMPDEST PUSH2 0x3002 JUMP JUMPDEST SWAP2 CODESIZE DUP1 DUP1 PUSH2 0x30C3 JUMP JUMPDEST SWAP3 POP PUSH2 0x309B PUSH1 0x64 PUSH2 0x3155 PUSH1 0x20 DUP6 ADD MLOAD PUSH1 0xE0 DUP7 ADD MLOAD SWAP1 PUSH2 0x2FEF JUMP JUMPDEST DIV SWAP4 SWAP1 POP PUSH2 0x3090 JUMP JUMPDEST POP PUSH1 0xE0 DUP4 ADD MLOAD ISZERO ISZERO PUSH2 0x308B JUMP JUMPDEST POP PUSH1 0x0 SWAP1 JUMP JUMPDEST POP PUSH1 0x20 DUP2 ADD MLOAD ISZERO PUSH2 0x302C JUMP JUMPDEST DUP1 MLOAD DUP3 LT ISZERO PUSH2 0x2AB4 JUMPI PUSH1 0x20 SWAP2 PUSH1 0x5 SHL ADD ADD SWAP1 JUMP JUMPDEST CALLER PUSH1 0x0 SWAP1 DUP2 MSTORE PUSH32 0xF7EB0DABA1366A953481591555412F50097A7418B48CD07B54C80A4FE83E6584 PUSH1 0x20 SWAP1 DUP2 MSTORE PUSH1 0x40 DUP1 DUP4 KECCAK256 SLOAD SWAP1 SWAP3 SWAP1 PUSH1 0x0 DUP1 MLOAD PUSH1 0x20 PUSH2 0x38B8 DUP4 CODECOPY DUP2 MLOAD SWAP2 MSTORE SWAP1 PUSH1 0xFF AND ISZERO PUSH2 0x31E4 JUMPI POP POP POP POP JUMP JUMPDEST PUSH2 0x31ED CALLER PUSH2 0x3707 JUMP JUMPDEST DUP5 MLOAD SWAP2 PUSH2 0x31F9 DUP4 PUSH2 0x2B03 JUMP JUMPDEST PUSH1 0x42 DUP4 MSTORE DUP5 DUP4 ADD SWAP4 PUSH1 0x60 CALLDATASIZE DUP7 CALLDATACOPY DUP4 MLOAD ISZERO PUSH2 0x3382 JUMPI PUSH1 0x30 DUP6 MSTORE8 DUP4 MLOAD SWAP1 PUSH1 0x1 SWAP2 PUSH1 0x1 LT ISZERO PUSH2 0x3382 JUMPI SWAP1 PUSH1 0x78 PUSH1 0x21 DUP7 ADD MSTORE8 PUSH1 0x41 SWAP2 JUMPDEST DUP2 DUP4 GT PUSH2 0x3314 JUMPI POP POP POP PUSH2 0x32D2 JUMPI PUSH2 0x3280 SWAP4 DUP6 SWAP4 PUSH2 0x32B8 SWAP4 PUSH2 0x32A9 PUSH1 0x48 SWAP5 PUSH2 0x32CE SWAP10 MLOAD SWAP9 DUP6 PUSH23 0x20B1B1B2B9B9A1B7B73A3937B61D1030B1B1B7BAB73A1 PUSH1 0x4D SHL DUP12 SWAP8 DUP9 ADD MSTORE DUP3 MLOAD SWAP3 DUP4 SWAP2 PUSH1 0x37 DUP10 ADD SWAP2 ADD PUSH2 0x2B5D JUMP JUMPDEST DUP5 ADD SWAP2 PUSH17 0x1034B99036B4B9B9B4B733903937B6329 PUSH1 0x7D SHL PUSH1 0x37 DUP5 ADD MSTORE MLOAD DUP1 SWAP4 DUP7 DUP5 ADD SWAP1 PUSH2 0x2B5D JUMP JUMPDEST ADD SUB PUSH1 0x28 DUP2 ADD DUP6 MSTORE ADD DUP4 PUSH2 0x2B1F JUMP JUMPDEST MLOAD PUSH3 0x461BCD PUSH1 0xE5 SHL DUP2 MSTORE SWAP2 DUP3 SWAP2 PUSH1 0x4 DUP4 ADD PUSH2 0x2B80 JUMP JUMPDEST SUB SWAP1 REVERT JUMPDEST PUSH1 0x64 DUP5 DUP7 MLOAD SWAP1 PUSH3 0x461BCD PUSH1 0xE5 SHL DUP3 MSTORE DUP1 PUSH1 0x4 DUP4 ADD MSTORE PUSH1 0x24 DUP3 ADD MSTORE PUSH32 0x537472696E67733A20686578206C656E67746820696E73756666696369656E74 PUSH1 0x44 DUP3 ADD MSTORE REVERT JUMPDEST SWAP1 SWAP2 SWAP3 PUSH1 0xF DUP2 AND PUSH1 0x10 DUP2 LT ISZERO PUSH2 0x336E JUMPI PUSH16 0x181899199A1A9B1B9C1CB0B131B232B3 PUSH1 0x81 SHL SWAP1 BYTE PUSH2 0x3344 DUP6 DUP9 PUSH2 0x36F6 JUMP JUMPDEST MSTORE8 PUSH1 0x4 SHR SWAP3 DUP1 ISZERO PUSH2 0x335A JUMPI PUSH1 0x0 NOT ADD SWAP2 SWAP1 PUSH2 0x322B JUMP JUMPDEST PUSH4 0x4E487B71 PUSH1 0xE0 SHL DUP3 MSTORE PUSH1 0x11 PUSH1 0x4 MSTORE PUSH1 0x24 DUP3 REVERT JUMPDEST PUSH4 0x4E487B71 PUSH1 0xE0 SHL DUP4 MSTORE PUSH1 0x32 PUSH1 0x4 MSTORE PUSH1 0x24 DUP4 REVERT JUMPDEST PUSH4 0x4E487B71 PUSH1 0xE0 SHL DUP2 MSTORE PUSH1 0x32 PUSH1 0x4 MSTORE PUSH1 0x24 SWAP1 REVERT JUMPDEST PUSH1 0x0 DUP2 DUP2 MSTORE PUSH1 0x20 SWAP1 PUSH2 0x12D DUP3 MSTORE PUSH1 0x40 SWAP3 DUP4 DUP3 KECCAK256 CALLER DUP4 MSTORE DUP4 MSTORE PUSH1 0xFF DUP5 DUP4 KECCAK256 SLOAD AND ISZERO PUSH2 0x33C0 JUMPI POP POP POP POP JUMP JUMPDEST PUSH2 0x33C9 CALLER PUSH2 0x3707 JUMP JUMPDEST DUP5 MLOAD SWAP2 PUSH2 0x33D5 DUP4 PUSH2 0x2B03 JUMP JUMPDEST PUSH1 0x42 DUP4 MSTORE DUP5 DUP4 ADD SWAP4 PUSH1 0x60 CALLDATASIZE DUP7 CALLDATACOPY DUP4 MLOAD ISZERO PUSH2 0x3382 JUMPI PUSH1 0x30 DUP6 MSTORE8 DUP4 MLOAD SWAP1 PUSH1 0x1 SWAP2 PUSH1 0x1 LT ISZERO PUSH2 0x3382 JUMPI SWAP1 PUSH1 0x78 PUSH1 0x21 DUP7 ADD MSTORE8 PUSH1 0x41 SWAP2 JUMPDEST DUP2 DUP4 GT PUSH2 0x345C JUMPI POP POP POP PUSH2 0x32D2 JUMPI PUSH2 0x3280 SWAP4 DUP6 SWAP4 PUSH2 0x32B8 SWAP4 PUSH2 0x32A9 PUSH1 0x48 SWAP5 PUSH2 0x32CE SWAP10 MLOAD SWAP9 DUP6 PUSH23 0x20B1B1B2B9B9A1B7B73A3937B61D1030B1B1B7BAB73A1 PUSH1 0x4D SHL DUP12 SWAP8 DUP9 ADD MSTORE DUP3 MLOAD SWAP3 DUP4 SWAP2 PUSH1 0x37 DUP10 ADD SWAP2 ADD PUSH2 0x2B5D JUMP JUMPDEST SWAP1 SWAP2 SWAP3 PUSH1 0xF DUP2 AND PUSH1 0x10 DUP2 LT ISZERO PUSH2 0x336E JUMPI PUSH16 0x181899199A1A9B1B9C1CB0B131B232B3 PUSH1 0x81 SHL SWAP1 BYTE PUSH2 0x348C DUP6 DUP9 PUSH2 0x36F6 JUMP JUMPDEST MSTORE8 PUSH1 0x4 SHR SWAP3 DUP1 ISZERO PUSH2 0x335A JUMPI PUSH1 0x0 NOT ADD SWAP2 SWAP1 PUSH2 0x3407 JUMP JUMPDEST PUSH1 0xFF PUSH1 0x65 SLOAD AND PUSH2 0x34AE JUMPI JUMP JUMPDEST PUSH1 0x40 MLOAD PUSH3 0x461BCD PUSH1 0xE5 SHL DUP2 MSTORE PUSH1 0x20 PUSH1 0x4 DUP3 ADD MSTORE PUSH1 0x10 PUSH1 0x24 DUP3 ADD MSTORE PUSH16 0x14185D5CD8589B194E881C185D5CD959 PUSH1 0x82 SHL PUSH1 0x44 DUP3 ADD MSTORE PUSH1 0x64 SWAP1 REVERT JUMPDEST SWAP1 PUSH1 0x0 SWAP2 DUP1 DUP4 MSTORE PUSH2 0x12D DUP1 PUSH1 0x20 MSTORE PUSH1 0x40 DUP5 KECCAK256 SWAP3 PUSH1 0x1 DUP1 PUSH1 0xA0 SHL SUB AND SWAP3 DUP4 DUP6 MSTORE PUSH1 0x20 MSTORE PUSH1 0xFF PUSH1 0x40 DUP6 KECCAK256 SLOAD AND PUSH2 0x351B JUMPI JUMPDEST POP POP POP POP JUMP JUMPDEST DUP2 DUP5 MSTORE PUSH1 0x20 MSTORE PUSH1 0x40 DUP4 KECCAK256 DUP3 DUP5 MSTORE PUSH1 0x20 MSTORE PUSH1 0x40 DUP4 KECCAK256 PUSH1 0xFF NOT DUP2 SLOAD AND SWAP1 SSTORE PUSH32 0xF6391F5C32D9C69D2A47EA670B442974B53935D1EDC7FD64EB21E047A839171B CALLER SWAP4 DUP1 LOG4 CODESIZE DUP1 DUP1 DUP1 PUSH2 0x3515 JUMP JUMPDEST PUSH1 0x33 SLOAD PUSH1 0x1 PUSH1 0x1 PUSH1 0xA0 SHL SUB AND CALLER SUB PUSH2 0x3579 JUMPI JUMP JUMPDEST PUSH1 0x64 PUSH1 0x40 MLOAD PUSH3 0x461BCD PUSH1 0xE5 SHL DUP2 MSTORE PUSH1 0x20 PUSH1 0x4 DUP3 ADD MSTORE PUSH1 0x20 PUSH1 0x24 DUP3 ADD MSTORE PUSH32 0x4F776E61626C653A2063616C6C6572206973206E6F7420746865206F776E6572 PUSH1 0x44 DUP3 ADD MSTORE REVERT JUMPDEST PUSH1 0x33 DUP1 SLOAD PUSH1 0x1 PUSH1 0x1 PUSH1 0xA0 SHL SUB SWAP3 DUP4 AND PUSH1 0x1 PUSH1 0x1 PUSH1 0xA0 SHL SUB NOT DUP3 AND DUP2 OR SWAP1 SWAP3 SSTORE SWAP1 SWAP2 AND PUSH32 0x8BE0079C531659141344CD1FD0A4F28419497F9722A3DAAFE3B4186F6B6457E0 PUSH1 0x0 DUP1 LOG3 JUMP JUMPDEST ISZERO PUSH2 0x360D JUMPI JUMP JUMPDEST PUSH1 0x40 MLOAD PUSH3 0x461BCD PUSH1 0xE5 SHL DUP2 MSTORE PUSH1 0x20 PUSH1 0x4 DUP3 ADD MSTORE PUSH1 0x2B PUSH1 0x24 DUP3 ADD MSTORE PUSH32 0x496E697469616C697A61626C653A20636F6E7472616374206973206E6F742069 PUSH1 0x44 DUP3 ADD MSTORE PUSH11 0x6E697469616C697A696E67 PUSH1 0xA8 SHL PUSH1 0x64 DUP3 ADD MSTORE PUSH1 0x84 SWAP1 REVERT JUMPDEST DUP1 EXTCODESIZE ISZERO PUSH2 0x369B JUMPI PUSH1 0x0 DUP1 MLOAD PUSH1 0x20 PUSH2 0x38D8 DUP4 CODECOPY DUP2 MLOAD SWAP2 MSTORE DUP1 SLOAD PUSH1 0x1 PUSH1 0x1 PUSH1 0xA0 SHL SUB NOT AND PUSH1 0x1 PUSH1 0x1 PUSH1 0xA0 SHL SUB SWAP1 SWAP3 AND SWAP2 SWAP1 SWAP2 OR SWAP1 SSTORE JUMP JUMPDEST PUSH1 0x40 MLOAD PUSH3 0x461BCD PUSH1 0xE5 SHL DUP2 MSTORE PUSH1 0x20 PUSH1 0x4 DUP3 ADD MSTORE PUSH1 0x2D PUSH1 0x24 DUP3 ADD MSTORE PUSH32 0x455243313936373A206E657720696D706C656D656E746174696F6E206973206E PUSH1 0x44 DUP3 ADD MSTORE PUSH13 0x1BDD08184818DBDB9D1C9858DD PUSH1 0x9A SHL PUSH1 0x64 DUP3 ADD MSTORE PUSH1 0x84 SWAP1 REVERT JUMPDEST SWAP1 DUP2 MLOAD DUP2 LT ISZERO PUSH2 0x2AB4 JUMPI ADD PUSH1 0x20 ADD SWAP1 JUMP JUMPDEST PUSH1 0x40 MLOAD SWAP1 PUSH2 0x3714 DUP3 PUSH2 0x2AE7 JUMP JUMPDEST PUSH1 0x2A DUP3 MSTORE PUSH1 0x20 DUP3 ADD PUSH1 0x40 CALLDATASIZE DUP3 CALLDATACOPY DUP3 MLOAD ISZERO PUSH2 0x2AB4 JUMPI PUSH1 0x30 SWAP1 MSTORE8 DUP2 MLOAD PUSH1 0x1 SWAP1 PUSH1 0x1 LT ISZERO PUSH2 0x2AB4 JUMPI PUSH1 0x78 PUSH1 0x21 DUP5 ADD MSTORE8 PUSH1 0x29 SWAP1 JUMPDEST DUP1 DUP3 GT PUSH2 0x3798 JUMPI POP POP PUSH2 0x3754 JUMPI SWAP1 JUMP JUMPDEST PUSH1 0x64 PUSH1 0x40 MLOAD PUSH3 0x461BCD PUSH1 0xE5 SHL DUP2 MSTORE PUSH1 0x20 PUSH1 0x4 DUP3 ADD MSTORE PUSH1 0x20 PUSH1 0x24 DUP3 ADD MSTORE PUSH32 0x537472696E67733A20686578206C656E67746820696E73756666696369656E74 PUSH1 0x44 DUP3 ADD MSTORE REVERT JUMPDEST SWAP1 SWAP2 PUSH1 0xF DUP2 AND PUSH1 0x10 DUP2 LT ISZERO PUSH2 0x37F1 JUMPI PUSH16 0x181899199A1A9B1B9C1CB0B131B232B3 PUSH1 0x81 SHL SWAP1 BYTE PUSH2 0x37C7 DUP5 DUP7 PUSH2 0x36F6 JUMP JUMPDEST MSTORE8 PUSH1 0x4 SHR SWAP2 DUP1 ISZERO PUSH2 0x37DC JUMPI PUSH1 0x0 NOT ADD SWAP1 PUSH2 0x3744 JUMP JUMPDEST PUSH1 0x24 PUSH1 0x0 PUSH4 0x4E487B71 PUSH1 0xE0 SHL DUP2 MSTORE PUSH1 0x11 PUSH1 0x4 MSTORE REVERT JUMPDEST PUSH1 0x24 PUSH1 0x0 PUSH4 0x4E487B71 PUSH1 0xE0 SHL DUP2 MSTORE PUSH1 0x32 PUSH1 0x4 MSTORE REVERT JUMPDEST SWAP2 SWAP3 SWAP1 ISZERO PUSH2 0x3868 JUMPI POP DUP2 MLOAD ISZERO PUSH2 0x381A JUMPI POP SWAP1 JUMP JUMPDEST EXTCODESIZE ISZERO PUSH2 0x3823 JUMPI SWAP1 JUMP JUMPDEST PUSH1 0x40 MLOAD PUSH3 0x461BCD PUSH1 0xE5 SHL DUP2 MSTORE PUSH1 0x20 PUSH1 0x4 DUP3 ADD MSTORE PUSH1 0x1D PUSH1 0x24 DUP3 ADD MSTORE PUSH32 0x416464726573733A2063616C6C20746F206E6F6E2D636F6E7472616374000000 PUSH1 0x44 DUP3 ADD MSTORE PUSH1 0x64 SWAP1 REVERT JUMPDEST DUP3 MLOAD SWAP1 SWAP2 POP ISZERO PUSH2 0x387B JUMPI POP DUP1 MLOAD SWAP1 PUSH1 0x20 ADD REVERT JUMPDEST PUSH1 0x40 MLOAD PUSH3 0x461BCD PUSH1 0xE5 SHL DUP2 MSTORE SWAP1 DUP2 SWAP1 PUSH2 0x32CE SWAP1 PUSH1 0x4 DUP4 ADD PUSH2 0x2B80 JUMP INVALID 0x2F DUP8 DUP9 GT PUSH31 0x7EFF1D82E926EC794901D17C78024A50270940304540A733656F0D71E15EDD EQ REVERT CALLVALUE XOR 0xEB PUSH5 0x12E352E921 EXTCODEHASH MSTORE8 PREVRANDAO DUP10 SWAP15 0xCE 0xBF NOT LOG3 0xE5 PUSH31 0x7D605E2472B2360894A13BA1A3210667C828492DB98DCA3E2076CC3735A920 LOG3 0xCA POP TSTORE CODESIZE 0x2B 0xBC LOG2 PUSH5 0x6970667358 0x22 SLT KECCAK256 0xD5 0xC0 0xD3 0xD9 RETURNDATACOPY 0xE8 AND CODECOPY SLT SWAP11 SWAP10 0xF9 0x2B SWAP4 PUSH26 0x9B25D5E273AFE6552F05275AD46E0752B064736F6C6343000819 STOP CALLER "},"methodIdentifiers":{"DEFAULT_ADMIN_ROLE()":"a217fddf","MULTISIG_ADMIN_ROLE()":"c8f50b4c","addBatchVestingSchedules(address[],uint256[],uint256[],uint256[],uint256[],uint256[],uint256[])":"077a259c","addVestingSchedule(address,uint256,uint256,uint256,uint256,uint256,uint256)":"48904881","addVestingScheduleWithProof(address,uint256,uint256,uint256,uint256,uint256,uint256,bytes32[])":"b9703626","adminWithdraw(address,uint256)":"401d4482","builder()":"d7e84fbf","claim(uint256)":"379607f5","claimFor(address,uint256)":"0de05659","computeReleasableAmount((bool,uint256,uint256,uint256,uint256,uint256,uint256,uint256))":"d701460c","depositTokens(uint256)":"dd49756e","getPoolBalance()":"abd70aa2","getRoleAdmin(bytes32)":"248a9ca3","getTotalLocked(address)":"05c77a3c","getUserPoolStatus(address)":"34f2c747","getVestingInfo(address)":"fb897ce4","grantRole(bytes32,address)":"2f2ff15d","hasRole(bytes32,address)":"91d14854","initialize(address,address,address)":"c0c53b8b","merkleRoot()":"2eb4a7ab","owner()":"8da5cb5b","ownerInitialized()":"bebc2145","pause()":"8456cb59","paused()":"5c975abb","proxiableUUID()":"52d1902d","renounceOwnership()":"715018a6","renounceRole(bytes32,address)":"36568abe","revokeRole(bytes32,address)":"d547741f","setMerkleRoot(bytes32)":"7cb64759","supportsInterface(bytes4)":"01ffc9a7","timelock()":"d33219b4","token()":"fc0c546a","transferOwnership(address)":"f2fde38b","trustedInitializer()":"9e85f9aa","unpause()":"3f4ba83a","upgradeTo(address)":"3659cfe6","upgradeToAndCall(address,bytes)":"4f1ef286","vestingSchedules(address,uint256)":"45626bd6"}},"storageLayout":{"storage":[{"astId":1895,"contract":"contracts/vesting/HypeyVesting.sol:HypeyVesting","label":"_initialized","offset":0,"slot":"0","type":"t_uint8"},{"astId":1898,"contract":"contracts/vesting/HypeyVesting.sol:HypeyVesting","label":"_initializing","offset":1,"slot":"0","type":"t_bool"},{"astId":3889,"contract":"contracts/vesting/HypeyVesting.sol:HypeyVesting","label":"__gap","offset":0,"slot":"1","type":"t_array(t_uint256)50_storage"},{"astId":421,"contract":"contracts/vesting/HypeyVesting.sol:HypeyVesting","label":"_owner","offset":0,"slot":"51","type":"t_address"},{"astId":541,"contract":"contracts/vesting/HypeyVesting.sol:HypeyVesting","label":"__gap","offset":0,"slot":"52","type":"t_array(t_uint256)49_storage"},{"astId":2216,"contract":"contracts/vesting/HypeyVesting.sol:HypeyVesting","label":"_paused","offset":0,"slot":"101","type":"t_bool"},{"astId":2321,"contract":"contracts/vesting/HypeyVesting.sol:HypeyVesting","label":"__gap","offset":0,"slot":"102","type":"t_array(t_uint256)49_storage"},{"astId":1877,"contract":"contracts/vesting/HypeyVesting.sol:HypeyVesting","label":"__gap","offset":0,"slot":"151","type":"t_array(t_uint256)50_storage"},{"astId":2193,"contract":"contracts/vesting/HypeyVesting.sol:HypeyVesting","label":"__gap","offset":0,"slot":"201","type":"t_array(t_uint256)50_storage"},{"astId":4801,"contract":"contracts/vesting/HypeyVesting.sol:HypeyVesting","label":"__gap","offset":0,"slot":"251","type":"t_array(t_uint256)50_storage"},{"astId":28,"contract":"contracts/vesting/HypeyVesting.sol:HypeyVesting","label":"_roles","offset":0,"slot":"301","type":"t_mapping(t_bytes32,t_struct(RoleData)23_storage)"},{"astId":335,"contract":"contracts/vesting/HypeyVesting.sol:HypeyVesting","label":"__gap","offset":0,"slot":"302","type":"t_array(t_uint256)49_storage"},{"astId":7251,"contract":"contracts/vesting/HypeyVesting.sol:HypeyVesting","label":"token","offset":0,"slot":"351","type":"t_contract(IERC20Upgradeable)3054"},{"astId":7253,"contract":"contracts/vesting/HypeyVesting.sol:HypeyVesting","label":"merkleRoot","offset":0,"slot":"352","type":"t_bytes32"},{"astId":7255,"contract":"contracts/vesting/HypeyVesting.sol:HypeyVesting","label":"ownerInitialized","offset":0,"slot":"353","type":"t_bool"},{"astId":7263,"contract":"contracts/vesting/HypeyVesting.sol:HypeyVesting","label":"timelock","offset":1,"slot":"353","type":"t_contract(TimelockControllerUpgradeable)1522"},{"astId":7269,"contract":"contracts/vesting/HypeyVesting.sol:HypeyVesting","label":"vestingSchedules","offset":0,"slot":"354","type":"t_mapping(t_address,t_array(t_struct(VestingSchedule)7245_storage)dyn_storage)"}],"types":{"t_address":{"encoding":"inplace","label":"address","numberOfBytes":"20"},"t_array(t_struct(VestingSchedule)7245_storage)dyn_storage":{"base":"t_struct(VestingSchedule)7245_storage","encoding":"dynamic_array","label":"struct HypeyVesting.VestingSchedule[]","numberOfBytes":"32"},"t_array(t_uint256)49_storage":{"base":"t_uint256","encoding":"inplace","label":"uint256[49]","numberOfBytes":"1568"},"t_array(t_uint256)50_storage":{"base":"t_uint256","encoding":"inplace","label":"uint256[50]","numberOfBytes":"1600"},"t_bool":{"encoding":"inplace","label":"bool","numberOfBytes":"1"},"t_bytes32":{"encoding":"inplace","label":"bytes32","numberOfBytes":"32"},"t_contract(IERC20Upgradeable)3054":{"encoding":"inplace","label":"contract IERC20Upgradeable","numberOfBytes":"20"},"t_contract(TimelockControllerUpgradeable)1522":{"encoding":"inplace","label":"contract TimelockControllerUpgradeable","numberOfBytes":"20"},"t_mapping(t_address,t_array(t_struct(VestingSchedule)7245_storage)dyn_storage)":{"encoding":"mapping","key":"t_address","label":"mapping(address => struct HypeyVesting.VestingSchedule[])","numberOfBytes":"32","value":"t_array(t_struct(VestingSchedule)7245_storage)dyn_storage"},"t_mapping(t_address,t_bool)":{"encoding":"mapping","key":"t_address","label":"mapping(address => bool)","numberOfBytes":"32","value":"t_bool"},"t_mapping(t_bytes32,t_struct(RoleData)23_storage)":{"encoding":"mapping","key":"t_bytes32","label":"mapping(bytes32 => struct AccessControlUpgradeable.RoleData)","numberOfBytes":"32","value":"t_struct(RoleData)23_storage"},"t_struct(RoleData)23_storage":{"encoding":"inplace","label":"struct AccessControlUpgradeable.RoleData","members":[{"astId":20,"contract":"contracts/vesting/HypeyVesting.sol:HypeyVesting","label":"members","offset":0,"slot":"0","type":"t_mapping(t_address,t_bool)"},{"astId":22,"contract":"contracts/vesting/HypeyVesting.sol:HypeyVesting","label":"adminRole","offset":0,"slot":"1","type":"t_bytes32"}],"numberOfBytes":"64"},"t_struct(VestingSchedule)7245_storage":{"encoding":"inplace","label":"struct HypeyVesting.VestingSchedule","members":[{"astId":7230,"contract":"contracts/vesting/HypeyVesting.sol:HypeyVesting","label":"initialized","offset":0,"slot":"0","type":"t_bool"},{"astId":7232,"contract":"contracts/vesting/HypeyVesting.sol:HypeyVesting","label":"totalAmount","offset":0,"slot":"1","type":"t_uint256"},{"astId":7234,"contract":"contracts/vesting/HypeyVesting.sol:HypeyVesting","label":"released","offset":0,"slot":"2","type":"t_uint256"},{"astId":7236,"contract":"contracts/vesting/HypeyVesting.sol:HypeyVesting","label":"start","offset":0,"slot":"3","type":"t_uint256"},{"astId":7238,"contract":"contracts/vesting/HypeyVesting.sol:HypeyVesting","label":"cliff","offset":0,"slot":"4","type":"t_uint256"},{"astId":7240,"contract":"contracts/vesting/HypeyVesting.sol:HypeyVesting","label":"duration","offset":0,"slot":"5","type":"t_uint256"},{"astId":7242,"contract":"contracts/vesting/HypeyVesting.sol:HypeyVesting","label":"slicePeriodSeconds","offset":0,"slot":"6","type":"t_uint256"},{"astId":7244,"contract":"contracts/vesting/HypeyVesting.sol:HypeyVesting","label":"cliffUnlockPercent","offset":0,"slot":"7","type":"t_uint256"}],"numberOfBytes":"256"},"t_uint256":{"encoding":"inplace","label":"uint256","numberOfBytes":"32"},"t_uint8":{"encoding":"inplace","label":"uint8","numberOfBytes":"1"}}}}}}