{"@openzeppelin/contracts-upgradeable/governance/TimelockControllerUpgradeable.sol":{"TimelockControllerUpgradeable":{"abi":[{"anonymous":false,"inputs":[{"indexed":true,"internalType":"bytes32","name":"id","type":"bytes32"},{"indexed":true,"internalType":"uint256","name":"index","type":"uint256"},{"indexed":false,"internalType":"address","name":"target","type":"address"},{"indexed":false,"internalType":"uint256","name":"value","type":"uint256"},{"indexed":false,"internalType":"bytes","name":"data","type":"bytes"}],"name":"CallExecuted","type":"event"},{"anonymous":false,"inputs":[{"indexed":true,"internalType":"bytes32","name":"id","type":"bytes32"},{"indexed":false,"internalType":"bytes32","name":"salt","type":"bytes32"}],"name":"CallSalt","type":"event"},{"anonymous":false,"inputs":[{"indexed":true,"internalType":"bytes32","name":"id","type":"bytes32"},{"indexed":true,"internalType":"uint256","name":"index","type":"uint256"},{"indexed":false,"internalType":"address","name":"target","type":"address"},{"indexed":false,"internalType":"uint256","name":"value","type":"uint256"},{"indexed":false,"internalType":"bytes","name":"data","type":"bytes"},{"indexed":false,"internalType":"bytes32","name":"predecessor","type":"bytes32"},{"indexed":false,"internalType":"uint256","name":"delay","type":"uint256"}],"name":"CallScheduled","type":"event"},{"anonymous":false,"inputs":[{"indexed":true,"internalType":"bytes32","name":"id","type":"bytes32"}],"name":"Cancelled","type":"event"},{"anonymous":false,"inputs":[{"indexed":false,"internalType":"uint8","name":"version","type":"uint8"}],"name":"Initialized","type":"event"},{"anonymous":false,"inputs":[{"indexed":false,"internalType":"uint256","name":"oldDuration","type":"uint256"},{"indexed":false,"internalType":"uint256","name":"newDuration","type":"uint256"}],"name":"MinDelayChange","type":"event"},{"anonymous":false,"inputs":[{"indexed":true,"internalType":"bytes32","name":"role","type":"bytes32"},{"indexed":true,"internalType":"bytes32","name":"previousAdminRole","type":"bytes32"},{"indexed":true,"internalType":"bytes32","name":"newAdminRole","type":"bytes32"}],"name":"RoleAdminChanged","type":"event"},{"anonymous":false,"inputs":[{"indexed":true,"internalType":"bytes32","name":"role","type":"bytes32"},{"indexed":true,"internalType":"address","name":"account","type":"address"},{"indexed":true,"internalType":"address","name":"sender","type":"address"}],"name":"RoleGranted","type":"event"},{"anonymous":false,"inputs":[{"indexed":true,"internalType":"bytes32","name":"role","type":"bytes32"},{"indexed":true,"internalType":"address","name":"account","type":"address"},{"indexed":true,"internalType":"address","name":"sender","type":"address"}],"name":"RoleRevoked","type":"event"},{"inputs":[],"name":"CANCELLER_ROLE","outputs":[{"internalType":"bytes32","name":"","type":"bytes32"}],"stateMutability":"view","type":"function"},{"inputs":[],"name":"DEFAULT_ADMIN_ROLE","outputs":[{"internalType":"bytes32","name":"","type":"bytes32"}],"stateMutability":"view","type":"function"},{"inputs":[],"name":"EXECUTOR_ROLE","outputs":[{"internalType":"bytes32","name":"","type":"bytes32"}],"stateMutability":"view","type":"function"},{"inputs":[],"name":"PROPOSER_ROLE","outputs":[{"internalType":"bytes32","name":"","type":"bytes32"}],"stateMutability":"view","type":"function"},{"inputs":[],"name":"TIMELOCK_ADMIN_ROLE","outputs":[{"internalType":"bytes32","name":"","type":"bytes32"}],"stateMutability":"view","type":"function"},{"inputs":[{"internalType":"bytes32","name":"id","type":"bytes32"}],"name":"cancel","outputs":[],"stateMutability":"nonpayable","type":"function"},{"inputs":[{"internalType":"address","name":"target","type":"address"},{"internalType":"uint256","name":"value","type":"uint256"},{"internalType":"bytes","name":"payload","type":"bytes"},{"internalType":"bytes32","name":"predecessor","type":"bytes32"},{"internalType":"bytes32","name":"salt","type":"bytes32"}],"name":"execute","outputs":[],"stateMutability":"payable","type":"function"},{"inputs":[{"internalType":"address[]","name":"targets","type":"address[]"},{"internalType":"uint256[]","name":"values","type":"uint256[]"},{"internalType":"bytes[]","name":"payloads","type":"bytes[]"},{"internalType":"bytes32","name":"predecessor","type":"bytes32"},{"internalType":"bytes32","name":"salt","type":"bytes32"}],"name":"executeBatch","outputs":[],"stateMutability":"payable","type":"function"},{"inputs":[],"name":"getMinDelay","outputs":[{"internalType":"uint256","name":"","type":"uint256"}],"stateMutability":"view","type":"function"},{"inputs":[{"internalType":"bytes32","name":"role","type":"bytes32"}],"name":"getRoleAdmin","outputs":[{"internalType":"bytes32","name":"","type":"bytes32"}],"stateMutability":"view","type":"function"},{"inputs":[{"internalType":"bytes32","name":"id","type":"bytes32"}],"name":"getTimestamp","outputs":[{"internalType":"uint256","name":"","type":"uint256"}],"stateMutability":"view","type":"function"},{"inputs":[{"internalType":"bytes32","name":"role","type":"bytes32"},{"internalType":"address","name":"account","type":"address"}],"name":"grantRole","outputs":[],"stateMutability":"nonpayable","type":"function"},{"inputs":[{"internalType":"bytes32","name":"role","type":"bytes32"},{"internalType":"address","name":"account","type":"address"}],"name":"hasRole","outputs":[{"internalType":"bool","name":"","type":"bool"}],"stateMutability":"view","type":"function"},{"inputs":[{"internalType":"address","name":"target","type":"address"},{"internalType":"uint256","name":"value","type":"uint256"},{"internalType":"bytes","name":"data","type":"bytes"},{"internalType":"bytes32","name":"predecessor","type":"bytes32"},{"internalType":"bytes32","name":"salt","type":"bytes32"}],"name":"hashOperation","outputs":[{"internalType":"bytes32","name":"","type":"bytes32"}],"stateMutability":"pure","type":"function"},{"inputs":[{"internalType":"address[]","name":"targets","type":"address[]"},{"internalType":"uint256[]","name":"values","type":"uint256[]"},{"internalType":"bytes[]","name":"payloads","type":"bytes[]"},{"internalType":"bytes32","name":"predecessor","type":"bytes32"},{"internalType":"bytes32","name":"salt","type":"bytes32"}],"name":"hashOperationBatch","outputs":[{"internalType":"bytes32","name":"","type":"bytes32"}],"stateMutability":"pure","type":"function"},{"inputs":[{"internalType":"bytes32","name":"id","type":"bytes32"}],"name":"isOperation","outputs":[{"internalType":"bool","name":"","type":"bool"}],"stateMutability":"view","type":"function"},{"inputs":[{"internalType":"bytes32","name":"id","type":"bytes32"}],"name":"isOperationDone","outputs":[{"internalType":"bool","name":"","type":"bool"}],"stateMutability":"view","type":"function"},{"inputs":[{"internalType":"bytes32","name":"id","type":"bytes32"}],"name":"isOperationPending","outputs":[{"internalType":"bool","name":"","type":"bool"}],"stateMutability":"view","type":"function"},{"inputs":[{"internalType":"bytes32","name":"id","type":"bytes32"}],"name":"isOperationReady","outputs":[{"internalType":"bool","name":"","type":"bool"}],"stateMutability":"view","type":"function"},{"inputs":[{"internalType":"address","name":"","type":"address"},{"internalType":"address","name":"","type":"address"},{"internalType":"uint256[]","name":"","type":"uint256[]"},{"internalType":"uint256[]","name":"","type":"uint256[]"},{"internalType":"bytes","name":"","type":"bytes"}],"name":"onERC1155BatchReceived","outputs":[{"internalType":"bytes4","name":"","type":"bytes4"}],"stateMutability":"nonpayable","type":"function"},{"inputs":[{"internalType":"address","name":"","type":"address"},{"internalType":"address","name":"","type":"address"},{"internalType":"uint256","name":"","type":"uint256"},{"internalType":"uint256","name":"","type":"uint256"},{"internalType":"bytes","name":"","type":"bytes"}],"name":"onERC1155Received","outputs":[{"internalType":"bytes4","name":"","type":"bytes4"}],"stateMutability":"nonpayable","type":"function"},{"inputs":[{"internalType":"address","name":"","type":"address"},{"internalType":"address","name":"","type":"address"},{"internalType":"uint256","name":"","type":"uint256"},{"internalType":"bytes","name":"","type":"bytes"}],"name":"onERC721Received","outputs":[{"internalType":"bytes4","name":"","type":"bytes4"}],"stateMutability":"nonpayable","type":"function"},{"inputs":[{"internalType":"bytes32","name":"role","type":"bytes32"},{"internalType":"address","name":"account","type":"address"}],"name":"renounceRole","outputs":[],"stateMutability":"nonpayable","type":"function"},{"inputs":[{"internalType":"bytes32","name":"role","type":"bytes32"},{"internalType":"address","name":"account","type":"address"}],"name":"revokeRole","outputs":[],"stateMutability":"nonpayable","type":"function"},{"inputs":[{"internalType":"address","name":"target","type":"address"},{"internalType":"uint256","name":"value","type":"uint256"},{"internalType":"bytes","name":"data","type":"bytes"},{"internalType":"bytes32","name":"predecessor","type":"bytes32"},{"internalType":"bytes32","name":"salt","type":"bytes32"},{"internalType":"uint256","name":"delay","type":"uint256"}],"name":"schedule","outputs":[],"stateMutability":"nonpayable","type":"function"},{"inputs":[{"internalType":"address[]","name":"targets","type":"address[]"},{"internalType":"uint256[]","name":"values","type":"uint256[]"},{"internalType":"bytes[]","name":"payloads","type":"bytes[]"},{"internalType":"bytes32","name":"predecessor","type":"bytes32"},{"internalType":"bytes32","name":"salt","type":"bytes32"},{"internalType":"uint256","name":"delay","type":"uint256"}],"name":"scheduleBatch","outputs":[],"stateMutability":"nonpayable","type":"function"},{"inputs":[{"internalType":"bytes4","name":"interfaceId","type":"bytes4"}],"name":"supportsInterface","outputs":[{"internalType":"bool","name":"","type":"bool"}],"stateMutability":"view","type":"function"},{"inputs":[{"internalType":"uint256","name":"newDelay","type":"uint256"}],"name":"updateDelay","outputs":[],"stateMutability":"nonpayable","type":"function"},{"stateMutability":"payable","type":"receive"}],"evm":{"bytecode":{"linkReferences":{},"object":"60808060405234601557611d45908161001b8239f35b600080fdfe608060405260048036101561001d575b50361561001b57600080fd5b005b600090813560e01c90816301d5062a14610dd357816301ffc9a714610d6357816307bd026514610d3a5781630d3cf6fc14610cff578163134008d314610c5c57816313bc9f2014610c3e578163150b7a0214610be8578163248a9ca314610bbb5781632ab0f52914610b8e5781632f2ff15d14610ade57816331d5075014610ab257816336568abe14610a21578163584b153e146109ea57816364d623531461093c5781638065657f1461091c5781638f2a0bb0146107cc5781638f61f4f51461079157816391d1485414610747578163a217fddf1461072b578163b08e51c0146106f0578163b1c5f427146106c5578163bc197c811461063a578163c4d252f514610355578163d45c44351461032b578163d547741f146102eb578163e38335e5146101d8578163f23a6e611461017a575063f27a0c920361000f57346101775780600319360112610177576020609854604051908152f35b80fd5b9050346101d45760a03660031901126101d457610195610eb0565b5061019e610ecb565b506084356001600160401b0381116101d0576101bd9250369101610fc9565b5060405163f23a6e6160e01b8152602090f35b8280fd5b5080fd5b8261024c60ff6040610245846101ed36611040565b92848688849f989c979a9e8f90859f8e899f600080516020611cf0833981519152909a999a526065602052818120818052602052205416156102dd575b610235848314611200565b610240868314611200565b6112d3565b97886119f6565b875b818110610262578861025f89611b3b565b80f35b8080897fc2617efa69bab66782fa219543714338489c4e9e178271560a91b82c3f612b5889896102d46102bb868f6102b4828f928f908f60019f6102a9916102ae93611258565b61127e565b97611258565b3595611292565b906102c882828787611a8c565b60405194859485611160565b0390a30161024e565b6102e63361173d565b61022a565b9050346101d45760403660031901126101d45761025f903561030b610ecb565b9080845260656020526103266001604086200154339061187d565b611b59565b9050346101d45760203660031901126101d457602091604091358152609783522054604051908152f35b9050346101d4576020806003193601126101d0578135917ffd643c72710c63c0180259aba6b2d05451e3591a24e58b62239378085726f7838085526065835260408520338652835260ff6040862054161561045957506103c383600052609760205260016040600020541190565b156103fd5750609790828452528160408120557fbaa1eb22f2a492ba1a5fea61b8df4d27c6c8b5f3971e63bb58fa14ff72eedb708280a280f35b6084916040519162461bcd60e51b8352820152603160248201527f54696d656c6f636b436f6e74726f6c6c65723a206f7065726174696f6e2063616044820152701b9b9bdd0818994818d85b98d95b1b1959607a1b6064820152fd5b8461046333611be0565b916040519061047182610f5c565b604282528582019260603685378251156106275760308453825190600191600110156106145790607860218501536041915b8183116105a9575050506105675760449392916105356048610559936040519384916105268b84019876020b1b1b2b9b9a1b7b73a3937b61d1030b1b1b7bab73a1604d1b8a526104fd8d8251928391603789019101611517565b8401917001034b99036b4b9b9b4b733903937b6329607d1b603784015251809386840190611517565b01036028810184520182610f8d565b60405195869462461bcd60e51b865285015251809281602486015285850190611517565b601f01601f19168101030190fd5b60648486806040519262461bcd60e51b845283015260248201527f537472696e67733a20686578206c656e67746820696e73756666696369656e746044820152fd5b909192600f81166010811015610601576f181899199a1a9b1b9c1cb0b131b232b360811b901a6105d98587611bcf565b53871c9280156105ee576000190191906104a3565b634e487b7160e01b825260118852602482fd5b634e487b7160e01b835260328952602483fd5b634e487b7160e01b815260328752602490fd5b634e487b7160e01b815260328652602490fd5b9050346101d45760a03660031901126101d457610655610eb0565b5061065e610ecb565b506001600160401b036044358181116106c15761067e90369084016110a1565b506064358181116106c15761069690369084016110a1565b506084359081116101d0576106ae9250369101610fc9565b5060405163bc197c8160e01b8152602090f35b8380fd5b82346101775760206106e86106d936611040565b969590959491949392936112d3565b604051908152f35b823461017757806003193601126101775760206040517ffd643c72710c63c0180259aba6b2d05451e3591a24e58b62239378085726f7838152f35b8234610177578060031936011261017757602090604051908152f35b9050346101d45760403660031901126101d457604060209260ff9261076a610ecb565b90358252606585528282206001600160a01b03909116825284522054604051911615158152f35b823461017757806003193601126101775760206040517fb09aa5aeb3702cfd50b6b62bc4532604938f21248a27a1d5ca736082b6819cc18152f35b9050346101d45760c03660031901126101d4576001600160401b039080358281116106c1576107fe9036908301611010565b92602435818111610918576108169036908501611010565b9190936044359182116109145761083284918693369101611010565b6064949194359161085489848489856084359d8e9560a4359b61022a3361153a565b9861085f858b611411565b898b5b8281106108a6578c828c80610875578280f35b60207f20fda5fd27a1ea7bf5b9567f143ac5470bb059374a27e8f67cb44f946f6d038791604051908152a281808280f35b806001927f4cf4410cc57040e44862ef0f45f3dd5a5e02db8eb8add648d4b0e236f1d07dca8b8b6109098f8c6108fc8f928e6108f58f8f906108ef6102a98f8097948195611258565b99611258565b3597611292565b9060405196879687611128565b0390a3018a90610862565b8680fd5b8580fd5b82346101775760206106e861093036610f0e565b949390939291926111ab565b9050346101d45760203660031901126101d45780359030330361099257507f11c24f4ead16507c69ac467fbd5e4eed5fb5c699626d2cc6d66421df253886d560406098548151908152836020820152a160985580f35b60849060206040519162461bcd60e51b8352820152602b60248201527f54696d656c6f636b436f6e74726f6c6c65723a2063616c6c6572206d7573742060448201526a62652074696d656c6f636b60a81b6064820152fd5b8234610177576020366003190112610177576020610a178335600052609760205260016040600020541190565b6040519015158152f35b823461017757604036600319011261017757610a3b610ecb565b336001600160a01b03821603610a565761025f919235611b59565b60405162461bcd60e51b8152602081850152602f60248201527f416363657373436f6e74726f6c3a2063616e206f6e6c792072656e6f756e636560448201526e103937b632b9903337b91039b2b63360891b6064820152608490fd5b8234610177576020366003190112610177576020610a1783356000526097602052604060002054151590565b9050346101d45760403660031901126101d45735610afa610ecb565b8183526065602052610b146001604085200154339061187d565b8183526065602052604083209060018060a01b03169081845260205260ff60408420541615610b41578280f35b81835260656020526040832081845260205260408320600160ff1982541617905533917f2f8788117e7eff1d82e926ec794901d17c78024a50270940304540a733656f0d8480a438808280f35b8234610177576020366003190112610177576020610a178335600052609760205260016040600020541490565b9050346101d45760203660031901126101d457604060209260019235815260658452200154604051908152f35b9050346101d45760803660031901126101d457610c03610eb0565b50610c0c610ecb565b506064356001600160401b0381116101d057610c2b9250369101610fc9565b50604051630a85bd0160e11b8152602090f35b8234610177576020366003190112610177576020610a178335611187565b8261025f610cdd82610ce97fc2617efa69bab66782fa219543714338489c4e9e178271560a91b82c3f612b58610cd4610c9436610f0e565b600080516020611cf08339815191528a999597929994939452606560205260408a208a805260205260ff60408b20541615610cf1575b88848489896111ab565b988997886119f6565b6102c882828787611a8c565b0390a3611b3b565b610cfa3361173d565b610cca565b823461017757806003193601126101775760206040517f5f58e3a2316349923ce3780f8d587db2d72378aed66a8261c916544fa6846ca58152f35b82346101775780600319360112610177576020604051600080516020611cf08339815191528152f35b9050346101d45760203660031901126101d4573563ffffffff60e01b81168091036101d457602090630271189760e51b8114908115610da8575b506040519015158152f35b637965db0b60e01b811491508115610dc2575b5082610d9d565b6301ffc9a760e01b14905082610dbb565b9050346101d45760c03660031901126101d457610dee610eb0565b826024356044356001600160401b0381116101d0577f4cf4410cc57040e44862ef0f45f3dd5a5e02db8eb8add648d4b0e236f1d07dca94610e3191369101610ee1565b94909160643594610e736084359660a43590610e4c3361153a565b610e5a89828c8a89896111ab565b998a97610e67848a611411565b60405196879687611128565b0390a380610e7f578280f35b60207f20fda5fd27a1ea7bf5b9567f143ac5470bb059374a27e8f67cb44f946f6d038791604051908152a238808280f35b600435906001600160a01b0382168203610ec657565b600080fd5b602435906001600160a01b0382168203610ec657565b9181601f84011215610ec6578235916001600160401b038311610ec65760208381860195010111610ec657565b60a0600319820112610ec6576004356001600160a01b0381168103610ec6579160243591604435906001600160401b038211610ec657610f5091600401610ee1565b90916064359060843590565b608081019081106001600160401b03821117610f7757604052565b634e487b7160e01b600052604160045260246000fd5b90601f801991011681019081106001600160401b03821117610f7757604052565b6001600160401b038111610f7757601f01601f191660200190565b81601f82011215610ec657803590610fe082610fae565b92610fee6040519485610f8d565b82845260208383010111610ec657816000926020809301838601378301015290565b9181601f84011215610ec6578235916001600160401b038311610ec6576020808501948460051b010111610ec657565b9060a0600319830112610ec6576001600160401b03600435818111610ec6578361106c91600401611010565b93909392602435838111610ec6578261108791600401611010565b93909392604435918211610ec657610f5091600401611010565b81601f82011215610ec6578035916020916001600160401b038411610f77578360051b90604051946110d585840187610f8d565b85528380860192820101928311610ec6578301905b8282106110f8575050505090565b813581529083019083016110ea565b908060209392818452848401376000828201840152601f01601f1916010190565b929093611156926080959897969860018060a01b03168552602085015260a0604085015260a0840191611107565b9460608201520152565b611184949260609260018060a01b0316825260208201528160408201520191611107565b90565b60005260976020526040600020546001811190816111a3575090565b905042101590565b946111e16111fa94959293604051968795602087019960018060a01b03168a52604087015260a0606087015260c0860191611107565b91608084015260a083015203601f198101835282610f8d565b51902090565b1561120757565b60405162461bcd60e51b815260206004820152602360248201527f54696d656c6f636b436f6e74726f6c6c65723a206c656e677468206d69736d616044820152620e8c6d60eb1b6064820152608490fd5b91908110156112685760051b0190565b634e487b7160e01b600052603260045260246000fd5b356001600160a01b0381168103610ec65790565b91908110156112685760051b81013590601e1981360301821215610ec65701908135916001600160401b038311610ec6576020018236038113610ec6579190565b969294909695919560405196602091828901998060c08b0160a08d525260e08a01919060005b8181106113e957505050601f19898203810160408b0152888252976001600160fb1b038111610ec6579089969495939897929160051b80928a830137019380888601878703606089015252604085019460408260051b82010195836000925b848410611380575050505050506111fa9550608084015260a083015203908101835282610f8d565b9193969850919398999496603f198282030184528935601e1984360301811215610ec65783018681019190356001600160401b038111610ec6578036038313610ec6576113d288928392600195611107565b9b0194019401918b98969394919a9997959a611358565b90919283359060018060a01b038216809203610ec657908152850192850191906001016112f9565b90611429826000526097602052604060002054151590565b6114ba57609854811061146657420190814211611450576000526097602052604060002055565b634e487b7160e01b600052601160045260246000fd5b60405162461bcd60e51b815260206004820152602660248201527f54696d656c6f636b436f6e74726f6c6c65723a20696e73756666696369656e746044820152652064656c617960d01b6064820152608490fd5b60405162461bcd60e51b815260206004820152602f60248201527f54696d656c6f636b436f6e74726f6c6c65723a206f7065726174696f6e20616c60448201526e1c9958591e481cd8da19591d5b1959608a1b6064820152608490fd5b60005b83811061152a5750506000910152565b818101518382015260200161151a565b6001600160a01b031660008181527fafe71ff1fe81c59ca16af21c02420893e650adae4948ece1623218f842885477602090815260408083205490937fb09aa5aeb3702cfd50b6b62bc4532604938f21248a27a1d5ca736082b6819cc19160ff16156115a7575050505050565b6115b090611be0565b908451906115bd82610f5c565b604282528382019460603687378251156117295760308653825190600191600110156117295790607860218501536041915b8183116116bb57505050611679578461165560486105599360449798519889916116468984019876020b1b1b2b9b9a1b7b73a3937b61d1030b1b1b7bab73a1604d1b8a526104fd815180928d603789019101611517565b01036028810189520187610f8d565b5194859362461bcd60e51b8552600485015251809281602486015285850190611517565b60648386519062461bcd60e51b825280600483015260248201527f537472696e67733a20686578206c656e67746820696e73756666696369656e746044820152fd5b909192600f81166010811015611715576f181899199a1a9b1b9c1cb0b131b232b360811b901a6116eb8587611bcf565b5360041c928015611701576000190191906115ef565b634e487b7160e01b82526011600452602482fd5b634e487b7160e01b83526032600452602483fd5b634e487b7160e01b81526032600452602490fd5b6001600160a01b031660008181527f7dc9f88e569f94faad6fa0d44dd44858caf3f34f1bd1c985800aedf5793aad8b60209081526040808320549093600080516020611cf08339815191529160ff1615611798575050505050565b6117a190611be0565b908451906117ae82610f5c565b604282528382019460603687378251156117295760308653825190600191600110156117295790607860218501536041915b81831161183757505050611679578461165560486105599360449798519889916116468984019876020b1b1b2b9b9a1b7b73a3937b61d1030b1b1b7bab73a1604d1b8a526104fd815180928d603789019101611517565b909192600f81166010811015611715576f181899199a1a9b1b9c1cb0b131b232b360811b901a6118678587611bcf565b5360041c928015611701576000190191906117e0565b600090808252602090606582526040938484209060018060a01b031690818552835260ff8585205416156118b2575050505050565b6118bb90611be0565b908451906118c882610f5c565b604282528382019460603687378251156117295760308653825190600191600110156117295790607860218501536041915b81831161195157505050611679578461165560486105599360449798519889916116468984019876020b1b1b2b9b9a1b7b73a3937b61d1030b1b1b7bab73a1604d1b8a526104fd815180928d603789019101611517565b909192600f81166010811015611715576f181899199a1a9b1b9c1cb0b131b232b360811b901a6119818587611bcf565b5360041c928015611701576000190191906118fa565b1561199e57565b60405162461bcd60e51b815260206004820152602a60248201527f54696d656c6f636b436f6e74726f6c6c65723a206f7065726174696f6e206973604482015269206e6f7420726561647960b01b6064820152608490fd5b611a02611a0791611187565b611997565b8015908115611a6d575b5015611a1957565b60405162461bcd60e51b815260206004820152602660248201527f54696d656c6f636b436f6e74726f6c6c65723a206d697373696e6720646570656044820152656e64656e637960d01b6064820152608490fd5b611a869150600052609760205260016040600020541490565b38611a11565b90926000938493826040519384928337810185815203925af13d15611b36573d611ab581610fae565b90611ac36040519283610f8d565b8152600060203d92013e5b15611ad557565b60405162461bcd60e51b815260206004820152603360248201527f54696d656c6f636b436f6e74726f6c6c65723a20756e6465726c79696e6720746044820152721c985b9cd858dd1a5bdb881c995d995c9d1959606a1b6064820152608490fd5b611ace565b611b47611a0282611187565b60005260976020526001604060002055565b906000918083526065602052604083209160018060a01b03169182845260205260ff604084205416611b8a57505050565b8083526065602052604083208284526020526040832060ff1981541690557ff6391f5c32d9c69d2a47ea670b442974b53935d1edc7fd64eb21e047a839171b339380a4565b908151811015611268570160200190565b60405190606082018281106001600160401b03821117610f7757604052602a8252602082016040368237825115611268576030905381516001906001101561126857607860218401536029905b808211611c81575050611c3d5790565b606460405162461bcd60e51b815260206004820152602060248201527f537472696e67733a20686578206c656e67746820696e73756666696369656e746044820152fd5b9091600f81166010811015611cda576f181899199a1a9b1b9c1cb0b131b232b360811b901a611cb08486611bcf565b5360041c918015611cc5576000190190611c2d565b60246000634e487b7160e01b81526011600452fd5b60246000634e487b7160e01b81526032600452fdfed8aa0f3194971a2a116679f7c2090f6939c8d4e01a2a8d7e41d55e5351469e63a2646970667358221220f435f3759664764188eb0ba224d2059061fbcb3728182f0b57d8dda87645777664736f6c63430008190033","opcodes":"PUSH1 0x80 DUP1 PUSH1 0x40 MSTORE CALLVALUE PUSH1 0x15 JUMPI PUSH2 0x1D45 SWAP1 DUP2 PUSH2 0x1B DUP3 CODECOPY RETURN JUMPDEST PUSH1 0x0 DUP1 REVERT INVALID PUSH1 0x80 PUSH1 0x40 MSTORE PUSH1 0x4 DUP1 CALLDATASIZE LT ISZERO PUSH2 0x1D JUMPI JUMPDEST POP CALLDATASIZE ISZERO PUSH2 0x1B JUMPI PUSH1 0x0 DUP1 REVERT JUMPDEST STOP JUMPDEST PUSH1 0x0 SWAP1 DUP2 CALLDATALOAD PUSH1 0xE0 SHR SWAP1 DUP2 PUSH4 0x1D5062A EQ PUSH2 0xDD3 JUMPI DUP2 PUSH4 0x1FFC9A7 EQ PUSH2 0xD63 JUMPI DUP2 PUSH4 0x7BD0265 EQ PUSH2 0xD3A JUMPI DUP2 PUSH4 0xD3CF6FC EQ PUSH2 0xCFF JUMPI DUP2 PUSH4 0x134008D3 EQ PUSH2 0xC5C JUMPI DUP2 PUSH4 0x13BC9F20 EQ PUSH2 0xC3E JUMPI DUP2 PUSH4 0x150B7A02 EQ PUSH2 0xBE8 JUMPI DUP2 PUSH4 0x248A9CA3 EQ PUSH2 0xBBB JUMPI DUP2 PUSH4 0x2AB0F529 EQ PUSH2 0xB8E JUMPI DUP2 PUSH4 0x2F2FF15D EQ PUSH2 0xADE JUMPI DUP2 PUSH4 0x31D50750 EQ PUSH2 0xAB2 JUMPI DUP2 PUSH4 0x36568ABE EQ PUSH2 0xA21 JUMPI DUP2 PUSH4 0x584B153E EQ PUSH2 0x9EA JUMPI DUP2 PUSH4 0x64D62353 EQ PUSH2 0x93C JUMPI DUP2 PUSH4 0x8065657F EQ PUSH2 0x91C JUMPI DUP2 PUSH4 0x8F2A0BB0 EQ PUSH2 0x7CC JUMPI DUP2 PUSH4 0x8F61F4F5 EQ PUSH2 0x791 JUMPI DUP2 PUSH4 0x91D14854 EQ PUSH2 0x747 JUMPI DUP2 PUSH4 0xA217FDDF EQ PUSH2 0x72B JUMPI DUP2 PUSH4 0xB08E51C0 EQ PUSH2 0x6F0 JUMPI DUP2 PUSH4 0xB1C5F427 EQ PUSH2 0x6C5 JUMPI DUP2 PUSH4 0xBC197C81 EQ PUSH2 0x63A JUMPI DUP2 PUSH4 0xC4D252F5 EQ PUSH2 0x355 JUMPI DUP2 PUSH4 0xD45C4435 EQ PUSH2 0x32B JUMPI DUP2 PUSH4 0xD547741F EQ PUSH2 0x2EB JUMPI DUP2 PUSH4 0xE38335E5 EQ PUSH2 0x1D8 JUMPI DUP2 PUSH4 0xF23A6E61 EQ PUSH2 0x17A JUMPI POP PUSH4 0xF27A0C92 SUB PUSH2 0xF JUMPI CALLVALUE PUSH2 0x177 JUMPI DUP1 PUSH1 0x3 NOT CALLDATASIZE ADD SLT PUSH2 0x177 JUMPI PUSH1 0x20 PUSH1 0x98 SLOAD PUSH1 0x40 MLOAD SWAP1 DUP2 MSTORE RETURN JUMPDEST DUP1 REVERT JUMPDEST SWAP1 POP CALLVALUE PUSH2 0x1D4 JUMPI PUSH1 0xA0 CALLDATASIZE PUSH1 0x3 NOT ADD SLT PUSH2 0x1D4 JUMPI PUSH2 0x195 PUSH2 0xEB0 JUMP JUMPDEST POP PUSH2 0x19E PUSH2 0xECB JUMP JUMPDEST POP PUSH1 0x84 CALLDATALOAD PUSH1 0x1 PUSH1 0x1 PUSH1 0x40 SHL SUB DUP2 GT PUSH2 0x1D0 JUMPI PUSH2 0x1BD SWAP3 POP CALLDATASIZE SWAP2 ADD PUSH2 0xFC9 JUMP JUMPDEST POP PUSH1 0x40 MLOAD PUSH4 0xF23A6E61 PUSH1 0xE0 SHL DUP2 MSTORE PUSH1 0x20 SWAP1 RETURN JUMPDEST DUP3 DUP1 REVERT JUMPDEST POP DUP1 REVERT JUMPDEST DUP3 PUSH2 0x24C PUSH1 0xFF PUSH1 0x40 PUSH2 0x245 DUP5 PUSH2 0x1ED CALLDATASIZE PUSH2 0x1040 JUMP JUMPDEST SWAP3 DUP5 DUP7 DUP9 DUP5 SWAP16 SWAP9 SWAP13 SWAP8 SWAP11 SWAP15 DUP16 SWAP1 DUP6 SWAP16 DUP15 DUP10 SWAP16 PUSH1 0x0 DUP1 MLOAD PUSH1 0x20 PUSH2 0x1CF0 DUP4 CODECOPY DUP2 MLOAD SWAP2 MSTORE SWAP1 SWAP11 SWAP10 SWAP11 MSTORE PUSH1 0x65 PUSH1 0x20 MSTORE DUP2 DUP2 KECCAK256 DUP2 DUP1 MSTORE PUSH1 0x20 MSTORE KECCAK256 SLOAD AND ISZERO PUSH2 0x2DD JUMPI JUMPDEST PUSH2 0x235 DUP5 DUP4 EQ PUSH2 0x1200 JUMP JUMPDEST PUSH2 0x240 DUP7 DUP4 EQ PUSH2 0x1200 JUMP JUMPDEST PUSH2 0x12D3 JUMP JUMPDEST SWAP8 DUP9 PUSH2 0x19F6 JUMP JUMPDEST DUP8 JUMPDEST DUP2 DUP2 LT PUSH2 0x262 JUMPI DUP9 PUSH2 0x25F DUP10 PUSH2 0x1B3B JUMP JUMPDEST DUP1 RETURN JUMPDEST DUP1 DUP1 DUP10 PUSH32 0xC2617EFA69BAB66782FA219543714338489C4E9E178271560A91B82C3F612B58 DUP10 DUP10 PUSH2 0x2D4 PUSH2 0x2BB DUP7 DUP16 PUSH2 0x2B4 DUP3 DUP16 SWAP3 DUP16 SWAP1 DUP16 PUSH1 0x1 SWAP16 PUSH2 0x2A9 SWAP2 PUSH2 0x2AE SWAP4 PUSH2 0x1258 JUMP JUMPDEST PUSH2 0x127E JUMP JUMPDEST SWAP8 PUSH2 0x1258 JUMP JUMPDEST CALLDATALOAD SWAP6 PUSH2 0x1292 JUMP JUMPDEST SWAP1 PUSH2 0x2C8 DUP3 DUP3 DUP8 DUP8 PUSH2 0x1A8C JUMP JUMPDEST PUSH1 0x40 MLOAD SWAP5 DUP6 SWAP5 DUP6 PUSH2 0x1160 JUMP JUMPDEST SUB SWAP1 LOG3 ADD PUSH2 0x24E JUMP JUMPDEST PUSH2 0x2E6 CALLER PUSH2 0x173D JUMP JUMPDEST PUSH2 0x22A JUMP JUMPDEST SWAP1 POP CALLVALUE PUSH2 0x1D4 JUMPI PUSH1 0x40 CALLDATASIZE PUSH1 0x3 NOT ADD SLT PUSH2 0x1D4 JUMPI PUSH2 0x25F SWAP1 CALLDATALOAD PUSH2 0x30B PUSH2 0xECB JUMP JUMPDEST SWAP1 DUP1 DUP5 MSTORE PUSH1 0x65 PUSH1 0x20 MSTORE PUSH2 0x326 PUSH1 0x1 PUSH1 0x40 DUP7 KECCAK256 ADD SLOAD CALLER SWAP1 PUSH2 0x187D JUMP JUMPDEST PUSH2 0x1B59 JUMP JUMPDEST SWAP1 POP CALLVALUE PUSH2 0x1D4 JUMPI PUSH1 0x20 CALLDATASIZE PUSH1 0x3 NOT ADD SLT PUSH2 0x1D4 JUMPI PUSH1 0x20 SWAP2 PUSH1 0x40 SWAP2 CALLDATALOAD DUP2 MSTORE PUSH1 0x97 DUP4 MSTORE KECCAK256 SLOAD PUSH1 0x40 MLOAD SWAP1 DUP2 MSTORE RETURN JUMPDEST SWAP1 POP CALLVALUE PUSH2 0x1D4 JUMPI PUSH1 0x20 DUP1 PUSH1 0x3 NOT CALLDATASIZE ADD SLT PUSH2 0x1D0 JUMPI DUP2 CALLDATALOAD SWAP2 PUSH32 0xFD643C72710C63C0180259ABA6B2D05451E3591A24E58B62239378085726F783 DUP1 DUP6 MSTORE PUSH1 0x65 DUP4 MSTORE PUSH1 0x40 DUP6 KECCAK256 CALLER DUP7 MSTORE DUP4 MSTORE PUSH1 0xFF PUSH1 0x40 DUP7 KECCAK256 SLOAD AND ISZERO PUSH2 0x459 JUMPI POP PUSH2 0x3C3 DUP4 PUSH1 0x0 MSTORE PUSH1 0x97 PUSH1 0x20 MSTORE PUSH1 0x1 PUSH1 0x40 PUSH1 0x0 KECCAK256 SLOAD GT SWAP1 JUMP JUMPDEST ISZERO PUSH2 0x3FD JUMPI POP PUSH1 0x97 SWAP1 DUP3 DUP5 MSTORE MSTORE DUP2 PUSH1 0x40 DUP2 KECCAK256 SSTORE PUSH32 0xBAA1EB22F2A492BA1A5FEA61B8DF4D27C6C8B5F3971E63BB58FA14FF72EEDB70 DUP3 DUP1 LOG2 DUP1 RETURN JUMPDEST PUSH1 0x84 SWAP2 PUSH1 0x40 MLOAD SWAP2 PUSH3 0x461BCD PUSH1 0xE5 SHL DUP4 MSTORE DUP3 ADD MSTORE PUSH1 0x31 PUSH1 0x24 DUP3 ADD MSTORE PUSH32 0x54696D656C6F636B436F6E74726F6C6C65723A206F7065726174696F6E206361 PUSH1 0x44 DUP3 ADD MSTORE PUSH17 0x1B9B9BDD0818994818D85B98D95B1B1959 PUSH1 0x7A SHL PUSH1 0x64 DUP3 ADD MSTORE REVERT JUMPDEST DUP5 PUSH2 0x463 CALLER PUSH2 0x1BE0 JUMP JUMPDEST SWAP2 PUSH1 0x40 MLOAD SWAP1 PUSH2 0x471 DUP3 PUSH2 0xF5C JUMP JUMPDEST PUSH1 0x42 DUP3 MSTORE DUP6 DUP3 ADD SWAP3 PUSH1 0x60 CALLDATASIZE DUP6 CALLDATACOPY DUP3 MLOAD ISZERO PUSH2 0x627 JUMPI PUSH1 0x30 DUP5 MSTORE8 DUP3 MLOAD SWAP1 PUSH1 0x1 SWAP2 PUSH1 0x1 LT ISZERO PUSH2 0x614 JUMPI SWAP1 PUSH1 0x78 PUSH1 0x21 DUP6 ADD MSTORE8 PUSH1 0x41 SWAP2 JUMPDEST DUP2 DUP4 GT PUSH2 0x5A9 JUMPI POP POP POP PUSH2 0x567 JUMPI PUSH1 0x44 SWAP4 SWAP3 SWAP2 PUSH2 0x535 PUSH1 0x48 PUSH2 0x559 SWAP4 PUSH1 0x40 MLOAD SWAP4 DUP5 SWAP2 PUSH2 0x526 DUP12 DUP5 ADD SWAP9 PUSH23 0x20B1B1B2B9B9A1B7B73A3937B61D1030B1B1B7BAB73A1 PUSH1 0x4D SHL DUP11 MSTORE PUSH2 0x4FD DUP14 DUP3 MLOAD SWAP3 DUP4 SWAP2 PUSH1 0x37 DUP10 ADD SWAP2 ADD PUSH2 0x1517 JUMP JUMPDEST DUP5 ADD SWAP2 PUSH17 0x1034B99036B4B9B9B4B733903937B6329 PUSH1 0x7D SHL PUSH1 0x37 DUP5 ADD MSTORE MLOAD DUP1 SWAP4 DUP7 DUP5 ADD SWAP1 PUSH2 0x1517 JUMP JUMPDEST ADD SUB PUSH1 0x28 DUP2 ADD DUP5 MSTORE ADD DUP3 PUSH2 0xF8D JUMP JUMPDEST PUSH1 0x40 MLOAD SWAP6 DUP7 SWAP5 PUSH3 0x461BCD PUSH1 0xE5 SHL DUP7 MSTORE DUP6 ADD MSTORE MLOAD DUP1 SWAP3 DUP2 PUSH1 0x24 DUP7 ADD MSTORE DUP6 DUP6 ADD SWAP1 PUSH2 0x1517 JUMP JUMPDEST PUSH1 0x1F ADD PUSH1 0x1F NOT AND DUP2 ADD SUB ADD SWAP1 REVERT JUMPDEST PUSH1 0x64 DUP5 DUP7 DUP1 PUSH1 0x40 MLOAD SWAP3 PUSH3 0x461BCD PUSH1 0xE5 SHL DUP5 MSTORE DUP4 ADD MSTORE PUSH1 0x24 DUP3 ADD MSTORE PUSH32 0x537472696E67733A20686578206C656E67746820696E73756666696369656E74 PUSH1 0x44 DUP3 ADD MSTORE REVERT JUMPDEST SWAP1 SWAP2 SWAP3 PUSH1 0xF DUP2 AND PUSH1 0x10 DUP2 LT ISZERO PUSH2 0x601 JUMPI PUSH16 0x181899199A1A9B1B9C1CB0B131B232B3 PUSH1 0x81 SHL SWAP1 BYTE PUSH2 0x5D9 DUP6 DUP8 PUSH2 0x1BCF JUMP JUMPDEST MSTORE8 DUP8 SHR SWAP3 DUP1 ISZERO PUSH2 0x5EE JUMPI PUSH1 0x0 NOT ADD SWAP2 SWAP1 PUSH2 0x4A3 JUMP JUMPDEST PUSH4 0x4E487B71 PUSH1 0xE0 SHL DUP3 MSTORE PUSH1 0x11 DUP9 MSTORE PUSH1 0x24 DUP3 REVERT JUMPDEST PUSH4 0x4E487B71 PUSH1 0xE0 SHL DUP4 MSTORE PUSH1 0x32 DUP10 MSTORE PUSH1 0x24 DUP4 REVERT JUMPDEST PUSH4 0x4E487B71 PUSH1 0xE0 SHL DUP2 MSTORE PUSH1 0x32 DUP8 MSTORE PUSH1 0x24 SWAP1 REVERT JUMPDEST PUSH4 0x4E487B71 PUSH1 0xE0 SHL DUP2 MSTORE PUSH1 0x32 DUP7 MSTORE PUSH1 0x24 SWAP1 REVERT JUMPDEST SWAP1 POP CALLVALUE PUSH2 0x1D4 JUMPI PUSH1 0xA0 CALLDATASIZE PUSH1 0x3 NOT ADD SLT PUSH2 0x1D4 JUMPI PUSH2 0x655 PUSH2 0xEB0 JUMP JUMPDEST POP PUSH2 0x65E PUSH2 0xECB JUMP JUMPDEST POP PUSH1 0x1 PUSH1 0x1 PUSH1 0x40 SHL SUB PUSH1 0x44 CALLDATALOAD DUP2 DUP2 GT PUSH2 0x6C1 JUMPI PUSH2 0x67E SWAP1 CALLDATASIZE SWAP1 DUP5 ADD PUSH2 0x10A1 JUMP JUMPDEST POP PUSH1 0x64 CALLDATALOAD DUP2 DUP2 GT PUSH2 0x6C1 JUMPI PUSH2 0x696 SWAP1 CALLDATASIZE SWAP1 DUP5 ADD PUSH2 0x10A1 JUMP JUMPDEST POP PUSH1 0x84 CALLDATALOAD SWAP1 DUP2 GT PUSH2 0x1D0 JUMPI PUSH2 0x6AE SWAP3 POP CALLDATASIZE SWAP2 ADD PUSH2 0xFC9 JUMP JUMPDEST POP PUSH1 0x40 MLOAD PUSH4 0xBC197C81 PUSH1 0xE0 SHL DUP2 MSTORE PUSH1 0x20 SWAP1 RETURN JUMPDEST DUP4 DUP1 REVERT JUMPDEST DUP3 CALLVALUE PUSH2 0x177 JUMPI PUSH1 0x20 PUSH2 0x6E8 PUSH2 0x6D9 CALLDATASIZE PUSH2 0x1040 JUMP JUMPDEST SWAP7 SWAP6 SWAP1 SWAP6 SWAP5 SWAP2 SWAP5 SWAP4 SWAP3 SWAP4 PUSH2 0x12D3 JUMP JUMPDEST PUSH1 0x40 MLOAD SWAP1 DUP2 MSTORE RETURN JUMPDEST DUP3 CALLVALUE PUSH2 0x177 JUMPI DUP1 PUSH1 0x3 NOT CALLDATASIZE ADD SLT PUSH2 0x177 JUMPI PUSH1 0x20 PUSH1 0x40 MLOAD PUSH32 0xFD643C72710C63C0180259ABA6B2D05451E3591A24E58B62239378085726F783 DUP2 MSTORE RETURN JUMPDEST DUP3 CALLVALUE PUSH2 0x177 JUMPI DUP1 PUSH1 0x3 NOT CALLDATASIZE ADD SLT PUSH2 0x177 JUMPI PUSH1 0x20 SWAP1 PUSH1 0x40 MLOAD SWAP1 DUP2 MSTORE RETURN JUMPDEST SWAP1 POP CALLVALUE PUSH2 0x1D4 JUMPI PUSH1 0x40 CALLDATASIZE PUSH1 0x3 NOT ADD SLT PUSH2 0x1D4 JUMPI PUSH1 0x40 PUSH1 0x20 SWAP3 PUSH1 0xFF SWAP3 PUSH2 0x76A PUSH2 0xECB JUMP JUMPDEST SWAP1 CALLDATALOAD DUP3 MSTORE PUSH1 0x65 DUP6 MSTORE DUP3 DUP3 KECCAK256 PUSH1 0x1 PUSH1 0x1 PUSH1 0xA0 SHL SUB SWAP1 SWAP2 AND DUP3 MSTORE DUP5 MSTORE KECCAK256 SLOAD PUSH1 0x40 MLOAD SWAP2 AND ISZERO ISZERO DUP2 MSTORE RETURN JUMPDEST DUP3 CALLVALUE PUSH2 0x177 JUMPI DUP1 PUSH1 0x3 NOT CALLDATASIZE ADD SLT PUSH2 0x177 JUMPI PUSH1 0x20 PUSH1 0x40 MLOAD PUSH32 0xB09AA5AEB3702CFD50B6B62BC4532604938F21248A27A1D5CA736082B6819CC1 DUP2 MSTORE RETURN JUMPDEST SWAP1 POP CALLVALUE PUSH2 0x1D4 JUMPI PUSH1 0xC0 CALLDATASIZE PUSH1 0x3 NOT ADD SLT PUSH2 0x1D4 JUMPI PUSH1 0x1 PUSH1 0x1 PUSH1 0x40 SHL SUB SWAP1 DUP1 CALLDATALOAD DUP3 DUP2 GT PUSH2 0x6C1 JUMPI PUSH2 0x7FE SWAP1 CALLDATASIZE SWAP1 DUP4 ADD PUSH2 0x1010 JUMP JUMPDEST SWAP3 PUSH1 0x24 CALLDATALOAD DUP2 DUP2 GT PUSH2 0x918 JUMPI PUSH2 0x816 SWAP1 CALLDATASIZE SWAP1 DUP6 ADD PUSH2 0x1010 JUMP JUMPDEST SWAP2 SWAP1 SWAP4 PUSH1 0x44 CALLDATALOAD SWAP2 DUP3 GT PUSH2 0x914 JUMPI PUSH2 0x832 DUP5 SWAP2 DUP7 SWAP4 CALLDATASIZE SWAP2 ADD PUSH2 0x1010 JUMP JUMPDEST PUSH1 0x64 SWAP5 SWAP2 SWAP5 CALLDATALOAD SWAP2 PUSH2 0x854 DUP10 DUP5 DUP5 DUP10 DUP6 PUSH1 0x84 CALLDATALOAD SWAP14 DUP15 SWAP6 PUSH1 0xA4 CALLDATALOAD SWAP12 PUSH2 0x22A CALLER PUSH2 0x153A JUMP JUMPDEST SWAP9 PUSH2 0x85F DUP6 DUP12 PUSH2 0x1411 JUMP JUMPDEST DUP10 DUP12 JUMPDEST DUP3 DUP2 LT PUSH2 0x8A6 JUMPI DUP13 DUP3 DUP13 DUP1 PUSH2 0x875 JUMPI DUP3 DUP1 RETURN JUMPDEST PUSH1 0x20 PUSH32 0x20FDA5FD27A1EA7BF5B9567F143AC5470BB059374A27E8F67CB44F946F6D0387 SWAP2 PUSH1 0x40 MLOAD SWAP1 DUP2 MSTORE LOG2 DUP2 DUP1 DUP3 DUP1 RETURN JUMPDEST DUP1 PUSH1 0x1 SWAP3 PUSH32 0x4CF4410CC57040E44862EF0F45F3DD5A5E02DB8EB8ADD648D4B0E236F1D07DCA DUP12 DUP12 PUSH2 0x909 DUP16 DUP13 PUSH2 0x8FC DUP16 SWAP3 DUP15 PUSH2 0x8F5 DUP16 DUP16 SWAP1 PUSH2 0x8EF PUSH2 0x2A9 DUP16 DUP1 SWAP8 SWAP5 DUP2 SWAP6 PUSH2 0x1258 JUMP JUMPDEST SWAP10 PUSH2 0x1258 JUMP JUMPDEST CALLDATALOAD SWAP8 PUSH2 0x1292 JUMP JUMPDEST SWAP1 PUSH1 0x40 MLOAD SWAP7 DUP8 SWAP7 DUP8 PUSH2 0x1128 JUMP JUMPDEST SUB SWAP1 LOG3 ADD DUP11 SWAP1 PUSH2 0x862 JUMP JUMPDEST DUP7 DUP1 REVERT JUMPDEST DUP6 DUP1 REVERT JUMPDEST DUP3 CALLVALUE PUSH2 0x177 JUMPI PUSH1 0x20 PUSH2 0x6E8 PUSH2 0x930 CALLDATASIZE PUSH2 0xF0E JUMP JUMPDEST SWAP5 SWAP4 SWAP1 SWAP4 SWAP3 SWAP2 SWAP3 PUSH2 0x11AB JUMP JUMPDEST SWAP1 POP CALLVALUE PUSH2 0x1D4 JUMPI PUSH1 0x20 CALLDATASIZE PUSH1 0x3 NOT ADD SLT PUSH2 0x1D4 JUMPI DUP1 CALLDATALOAD SWAP1 ADDRESS CALLER SUB PUSH2 0x992 JUMPI POP PUSH32 0x11C24F4EAD16507C69AC467FBD5E4EED5FB5C699626D2CC6D66421DF253886D5 PUSH1 0x40 PUSH1 0x98 SLOAD DUP2 MLOAD SWAP1 DUP2 MSTORE DUP4 PUSH1 0x20 DUP3 ADD MSTORE LOG1 PUSH1 0x98 SSTORE DUP1 RETURN JUMPDEST PUSH1 0x84 SWAP1 PUSH1 0x20 PUSH1 0x40 MLOAD SWAP2 PUSH3 0x461BCD PUSH1 0xE5 SHL DUP4 MSTORE DUP3 ADD MSTORE PUSH1 0x2B PUSH1 0x24 DUP3 ADD MSTORE PUSH32 0x54696D656C6F636B436F6E74726F6C6C65723A2063616C6C6572206D75737420 PUSH1 0x44 DUP3 ADD MSTORE PUSH11 0x62652074696D656C6F636B PUSH1 0xA8 SHL PUSH1 0x64 DUP3 ADD MSTORE REVERT JUMPDEST DUP3 CALLVALUE PUSH2 0x177 JUMPI PUSH1 0x20 CALLDATASIZE PUSH1 0x3 NOT ADD SLT PUSH2 0x177 JUMPI PUSH1 0x20 PUSH2 0xA17 DUP4 CALLDATALOAD PUSH1 0x0 MSTORE PUSH1 0x97 PUSH1 0x20 MSTORE PUSH1 0x1 PUSH1 0x40 PUSH1 0x0 KECCAK256 SLOAD GT SWAP1 JUMP JUMPDEST PUSH1 0x40 MLOAD SWAP1 ISZERO ISZERO DUP2 MSTORE RETURN JUMPDEST DUP3 CALLVALUE PUSH2 0x177 JUMPI PUSH1 0x40 CALLDATASIZE PUSH1 0x3 NOT ADD SLT PUSH2 0x177 JUMPI PUSH2 0xA3B PUSH2 0xECB JUMP JUMPDEST CALLER PUSH1 0x1 PUSH1 0x1 PUSH1 0xA0 SHL SUB DUP3 AND SUB PUSH2 0xA56 JUMPI PUSH2 0x25F SWAP2 SWAP3 CALLDATALOAD PUSH2 0x1B59 JUMP JUMPDEST PUSH1 0x40 MLOAD PUSH3 0x461BCD PUSH1 0xE5 SHL DUP2 MSTORE PUSH1 0x20 DUP2 DUP6 ADD MSTORE PUSH1 0x2F PUSH1 0x24 DUP3 ADD MSTORE PUSH32 0x416363657373436F6E74726F6C3A2063616E206F6E6C792072656E6F756E6365 PUSH1 0x44 DUP3 ADD MSTORE PUSH15 0x103937B632B9903337B91039B2B633 PUSH1 0x89 SHL PUSH1 0x64 DUP3 ADD MSTORE PUSH1 0x84 SWAP1 REVERT JUMPDEST DUP3 CALLVALUE PUSH2 0x177 JUMPI PUSH1 0x20 CALLDATASIZE PUSH1 0x3 NOT ADD SLT PUSH2 0x177 JUMPI PUSH1 0x20 PUSH2 0xA17 DUP4 CALLDATALOAD PUSH1 0x0 MSTORE PUSH1 0x97 PUSH1 0x20 MSTORE PUSH1 0x40 PUSH1 0x0 KECCAK256 SLOAD ISZERO ISZERO SWAP1 JUMP JUMPDEST SWAP1 POP CALLVALUE PUSH2 0x1D4 JUMPI PUSH1 0x40 CALLDATASIZE PUSH1 0x3 NOT ADD SLT PUSH2 0x1D4 JUMPI CALLDATALOAD PUSH2 0xAFA PUSH2 0xECB JUMP JUMPDEST DUP2 DUP4 MSTORE PUSH1 0x65 PUSH1 0x20 MSTORE PUSH2 0xB14 PUSH1 0x1 PUSH1 0x40 DUP6 KECCAK256 ADD SLOAD CALLER SWAP1 PUSH2 0x187D JUMP JUMPDEST DUP2 DUP4 MSTORE PUSH1 0x65 PUSH1 0x20 MSTORE PUSH1 0x40 DUP4 KECCAK256 SWAP1 PUSH1 0x1 DUP1 PUSH1 0xA0 SHL SUB AND SWAP1 DUP2 DUP5 MSTORE PUSH1 0x20 MSTORE PUSH1 0xFF PUSH1 0x40 DUP5 KECCAK256 SLOAD AND ISZERO PUSH2 0xB41 JUMPI DUP3 DUP1 RETURN JUMPDEST DUP2 DUP4 MSTORE PUSH1 0x65 PUSH1 0x20 MSTORE PUSH1 0x40 DUP4 KECCAK256 DUP2 DUP5 MSTORE PUSH1 0x20 MSTORE PUSH1 0x40 DUP4 KECCAK256 PUSH1 0x1 PUSH1 0xFF NOT DUP3 SLOAD AND OR SWAP1 SSTORE CALLER SWAP2 PUSH32 0x2F8788117E7EFF1D82E926EC794901D17C78024A50270940304540A733656F0D DUP5 DUP1 LOG4 CODESIZE DUP1 DUP3 DUP1 RETURN JUMPDEST DUP3 CALLVALUE PUSH2 0x177 JUMPI PUSH1 0x20 CALLDATASIZE PUSH1 0x3 NOT ADD SLT PUSH2 0x177 JUMPI PUSH1 0x20 PUSH2 0xA17 DUP4 CALLDATALOAD PUSH1 0x0 MSTORE PUSH1 0x97 PUSH1 0x20 MSTORE PUSH1 0x1 PUSH1 0x40 PUSH1 0x0 KECCAK256 SLOAD EQ SWAP1 JUMP JUMPDEST SWAP1 POP CALLVALUE PUSH2 0x1D4 JUMPI PUSH1 0x20 CALLDATASIZE PUSH1 0x3 NOT ADD SLT PUSH2 0x1D4 JUMPI PUSH1 0x40 PUSH1 0x20 SWAP3 PUSH1 0x1 SWAP3 CALLDATALOAD DUP2 MSTORE PUSH1 0x65 DUP5 MSTORE KECCAK256 ADD SLOAD PUSH1 0x40 MLOAD SWAP1 DUP2 MSTORE RETURN JUMPDEST SWAP1 POP CALLVALUE PUSH2 0x1D4 JUMPI PUSH1 0x80 CALLDATASIZE PUSH1 0x3 NOT ADD SLT PUSH2 0x1D4 JUMPI PUSH2 0xC03 PUSH2 0xEB0 JUMP JUMPDEST POP PUSH2 0xC0C PUSH2 0xECB JUMP JUMPDEST POP PUSH1 0x64 CALLDATALOAD PUSH1 0x1 PUSH1 0x1 PUSH1 0x40 SHL SUB DUP2 GT PUSH2 0x1D0 JUMPI PUSH2 0xC2B SWAP3 POP CALLDATASIZE SWAP2 ADD PUSH2 0xFC9 JUMP JUMPDEST POP PUSH1 0x40 MLOAD PUSH4 0xA85BD01 PUSH1 0xE1 SHL DUP2 MSTORE PUSH1 0x20 SWAP1 RETURN JUMPDEST DUP3 CALLVALUE PUSH2 0x177 JUMPI PUSH1 0x20 CALLDATASIZE PUSH1 0x3 NOT ADD SLT PUSH2 0x177 JUMPI PUSH1 0x20 PUSH2 0xA17 DUP4 CALLDATALOAD PUSH2 0x1187 JUMP JUMPDEST DUP3 PUSH2 0x25F PUSH2 0xCDD DUP3 PUSH2 0xCE9 PUSH32 0xC2617EFA69BAB66782FA219543714338489C4E9E178271560A91B82C3F612B58 PUSH2 0xCD4 PUSH2 0xC94 CALLDATASIZE PUSH2 0xF0E JUMP JUMPDEST PUSH1 0x0 DUP1 MLOAD PUSH1 0x20 PUSH2 0x1CF0 DUP4 CODECOPY DUP2 MLOAD SWAP2 MSTORE DUP11 SWAP10 SWAP6 SWAP8 SWAP3 SWAP10 SWAP5 SWAP4 SWAP5 MSTORE PUSH1 0x65 PUSH1 0x20 MSTORE PUSH1 0x40 DUP11 KECCAK256 DUP11 DUP1 MSTORE PUSH1 0x20 MSTORE PUSH1 0xFF PUSH1 0x40 DUP12 KECCAK256 SLOAD AND ISZERO PUSH2 0xCF1 JUMPI JUMPDEST DUP9 DUP5 DUP5 DUP10 DUP10 PUSH2 0x11AB JUMP JUMPDEST SWAP9 DUP10 SWAP8 DUP9 PUSH2 0x19F6 JUMP JUMPDEST PUSH2 0x2C8 DUP3 DUP3 DUP8 DUP8 PUSH2 0x1A8C JUMP JUMPDEST SUB SWAP1 LOG3 PUSH2 0x1B3B JUMP JUMPDEST PUSH2 0xCFA CALLER PUSH2 0x173D JUMP JUMPDEST PUSH2 0xCCA JUMP JUMPDEST DUP3 CALLVALUE PUSH2 0x177 JUMPI DUP1 PUSH1 0x3 NOT CALLDATASIZE ADD SLT PUSH2 0x177 JUMPI PUSH1 0x20 PUSH1 0x40 MLOAD PUSH32 0x5F58E3A2316349923CE3780F8D587DB2D72378AED66A8261C916544FA6846CA5 DUP2 MSTORE RETURN JUMPDEST DUP3 CALLVALUE PUSH2 0x177 JUMPI DUP1 PUSH1 0x3 NOT CALLDATASIZE ADD SLT PUSH2 0x177 JUMPI PUSH1 0x20 PUSH1 0x40 MLOAD PUSH1 0x0 DUP1 MLOAD PUSH1 0x20 PUSH2 0x1CF0 DUP4 CODECOPY DUP2 MLOAD SWAP2 MSTORE DUP2 MSTORE RETURN JUMPDEST SWAP1 POP CALLVALUE PUSH2 0x1D4 JUMPI PUSH1 0x20 CALLDATASIZE PUSH1 0x3 NOT ADD SLT PUSH2 0x1D4 JUMPI CALLDATALOAD PUSH4 0xFFFFFFFF PUSH1 0xE0 SHL DUP2 AND DUP1 SWAP2 SUB PUSH2 0x1D4 JUMPI PUSH1 0x20 SWAP1 PUSH4 0x2711897 PUSH1 0xE5 SHL DUP2 EQ SWAP1 DUP2 ISZERO PUSH2 0xDA8 JUMPI JUMPDEST POP PUSH1 0x40 MLOAD SWAP1 ISZERO ISZERO DUP2 MSTORE RETURN JUMPDEST PUSH4 0x7965DB0B PUSH1 0xE0 SHL DUP2 EQ SWAP2 POP DUP2 ISZERO PUSH2 0xDC2 JUMPI JUMPDEST POP DUP3 PUSH2 0xD9D JUMP JUMPDEST PUSH4 0x1FFC9A7 PUSH1 0xE0 SHL EQ SWAP1 POP DUP3 PUSH2 0xDBB JUMP JUMPDEST SWAP1 POP CALLVALUE PUSH2 0x1D4 JUMPI PUSH1 0xC0 CALLDATASIZE PUSH1 0x3 NOT ADD SLT PUSH2 0x1D4 JUMPI PUSH2 0xDEE PUSH2 0xEB0 JUMP JUMPDEST DUP3 PUSH1 0x24 CALLDATALOAD PUSH1 0x44 CALLDATALOAD PUSH1 0x1 PUSH1 0x1 PUSH1 0x40 SHL SUB DUP2 GT PUSH2 0x1D0 JUMPI PUSH32 0x4CF4410CC57040E44862EF0F45F3DD5A5E02DB8EB8ADD648D4B0E236F1D07DCA SWAP5 PUSH2 0xE31 SWAP2 CALLDATASIZE SWAP2 ADD PUSH2 0xEE1 JUMP JUMPDEST SWAP5 SWAP1 SWAP2 PUSH1 0x64 CALLDATALOAD SWAP5 PUSH2 0xE73 PUSH1 0x84 CALLDATALOAD SWAP7 PUSH1 0xA4 CALLDATALOAD SWAP1 PUSH2 0xE4C CALLER PUSH2 0x153A JUMP JUMPDEST PUSH2 0xE5A DUP10 DUP3 DUP13 DUP11 DUP10 DUP10 PUSH2 0x11AB JUMP JUMPDEST SWAP10 DUP11 SWAP8 PUSH2 0xE67 DUP5 DUP11 PUSH2 0x1411 JUMP JUMPDEST PUSH1 0x40 MLOAD SWAP7 DUP8 SWAP7 DUP8 PUSH2 0x1128 JUMP JUMPDEST SUB SWAP1 LOG3 DUP1 PUSH2 0xE7F JUMPI DUP3 DUP1 RETURN JUMPDEST PUSH1 0x20 PUSH32 0x20FDA5FD27A1EA7BF5B9567F143AC5470BB059374A27E8F67CB44F946F6D0387 SWAP2 PUSH1 0x40 MLOAD SWAP1 DUP2 MSTORE LOG2 CODESIZE DUP1 DUP3 DUP1 RETURN JUMPDEST PUSH1 0x4 CALLDATALOAD SWAP1 PUSH1 0x1 PUSH1 0x1 PUSH1 0xA0 SHL SUB DUP3 AND DUP3 SUB PUSH2 0xEC6 JUMPI JUMP JUMPDEST PUSH1 0x0 DUP1 REVERT JUMPDEST PUSH1 0x24 CALLDATALOAD SWAP1 PUSH1 0x1 PUSH1 0x1 PUSH1 0xA0 SHL SUB DUP3 AND DUP3 SUB PUSH2 0xEC6 JUMPI JUMP JUMPDEST SWAP2 DUP2 PUSH1 0x1F DUP5 ADD SLT ISZERO PUSH2 0xEC6 JUMPI DUP3 CALLDATALOAD SWAP2 PUSH1 0x1 PUSH1 0x1 PUSH1 0x40 SHL SUB DUP4 GT PUSH2 0xEC6 JUMPI PUSH1 0x20 DUP4 DUP2 DUP7 ADD SWAP6 ADD ADD GT PUSH2 0xEC6 JUMPI JUMP JUMPDEST PUSH1 0xA0 PUSH1 0x3 NOT DUP3 ADD SLT PUSH2 0xEC6 JUMPI PUSH1 0x4 CALLDATALOAD PUSH1 0x1 PUSH1 0x1 PUSH1 0xA0 SHL SUB DUP2 AND DUP2 SUB PUSH2 0xEC6 JUMPI SWAP2 PUSH1 0x24 CALLDATALOAD SWAP2 PUSH1 0x44 CALLDATALOAD SWAP1 PUSH1 0x1 PUSH1 0x1 PUSH1 0x40 SHL SUB DUP3 GT PUSH2 0xEC6 JUMPI PUSH2 0xF50 SWAP2 PUSH1 0x4 ADD PUSH2 0xEE1 JUMP JUMPDEST SWAP1 SWAP2 PUSH1 0x64 CALLDATALOAD SWAP1 PUSH1 0x84 CALLDATALOAD SWAP1 JUMP JUMPDEST PUSH1 0x80 DUP2 ADD SWAP1 DUP2 LT PUSH1 0x1 PUSH1 0x1 PUSH1 0x40 SHL SUB DUP3 GT OR PUSH2 0xF77 JUMPI PUSH1 0x40 MSTORE JUMP JUMPDEST PUSH4 0x4E487B71 PUSH1 0xE0 SHL PUSH1 0x0 MSTORE PUSH1 0x41 PUSH1 0x4 MSTORE PUSH1 0x24 PUSH1 0x0 REVERT JUMPDEST SWAP1 PUSH1 0x1F DUP1 NOT SWAP2 ADD AND DUP2 ADD SWAP1 DUP2 LT PUSH1 0x1 PUSH1 0x1 PUSH1 0x40 SHL SUB DUP3 GT OR PUSH2 0xF77 JUMPI PUSH1 0x40 MSTORE JUMP JUMPDEST PUSH1 0x1 PUSH1 0x1 PUSH1 0x40 SHL SUB DUP2 GT PUSH2 0xF77 JUMPI PUSH1 0x1F ADD PUSH1 0x1F NOT AND PUSH1 0x20 ADD SWAP1 JUMP JUMPDEST DUP2 PUSH1 0x1F DUP3 ADD SLT ISZERO PUSH2 0xEC6 JUMPI DUP1 CALLDATALOAD SWAP1 PUSH2 0xFE0 DUP3 PUSH2 0xFAE JUMP JUMPDEST SWAP3 PUSH2 0xFEE PUSH1 0x40 MLOAD SWAP5 DUP6 PUSH2 0xF8D JUMP JUMPDEST DUP3 DUP5 MSTORE PUSH1 0x20 DUP4 DUP4 ADD ADD GT PUSH2 0xEC6 JUMPI DUP2 PUSH1 0x0 SWAP3 PUSH1 0x20 DUP1 SWAP4 ADD DUP4 DUP7 ADD CALLDATACOPY DUP4 ADD ADD MSTORE SWAP1 JUMP JUMPDEST SWAP2 DUP2 PUSH1 0x1F DUP5 ADD SLT ISZERO PUSH2 0xEC6 JUMPI DUP3 CALLDATALOAD SWAP2 PUSH1 0x1 PUSH1 0x1 PUSH1 0x40 SHL SUB DUP4 GT PUSH2 0xEC6 JUMPI PUSH1 0x20 DUP1 DUP6 ADD SWAP5 DUP5 PUSH1 0x5 SHL ADD ADD GT PUSH2 0xEC6 JUMPI JUMP JUMPDEST SWAP1 PUSH1 0xA0 PUSH1 0x3 NOT DUP4 ADD SLT PUSH2 0xEC6 JUMPI PUSH1 0x1 PUSH1 0x1 PUSH1 0x40 SHL SUB PUSH1 0x4 CALLDATALOAD DUP2 DUP2 GT PUSH2 0xEC6 JUMPI DUP4 PUSH2 0x106C SWAP2 PUSH1 0x4 ADD PUSH2 0x1010 JUMP JUMPDEST SWAP4 SWAP1 SWAP4 SWAP3 PUSH1 0x24 CALLDATALOAD DUP4 DUP2 GT PUSH2 0xEC6 JUMPI DUP3 PUSH2 0x1087 SWAP2 PUSH1 0x4 ADD PUSH2 0x1010 JUMP JUMPDEST SWAP4 SWAP1 SWAP4 SWAP3 PUSH1 0x44 CALLDATALOAD SWAP2 DUP3 GT PUSH2 0xEC6 JUMPI PUSH2 0xF50 SWAP2 PUSH1 0x4 ADD PUSH2 0x1010 JUMP JUMPDEST DUP2 PUSH1 0x1F DUP3 ADD SLT ISZERO PUSH2 0xEC6 JUMPI DUP1 CALLDATALOAD SWAP2 PUSH1 0x20 SWAP2 PUSH1 0x1 PUSH1 0x1 PUSH1 0x40 SHL SUB DUP5 GT PUSH2 0xF77 JUMPI DUP4 PUSH1 0x5 SHL SWAP1 PUSH1 0x40 MLOAD SWAP5 PUSH2 0x10D5 DUP6 DUP5 ADD DUP8 PUSH2 0xF8D JUMP JUMPDEST DUP6 MSTORE DUP4 DUP1 DUP7 ADD SWAP3 DUP3 ADD ADD SWAP3 DUP4 GT PUSH2 0xEC6 JUMPI DUP4 ADD SWAP1 JUMPDEST DUP3 DUP3 LT PUSH2 0x10F8 JUMPI POP POP POP POP SWAP1 JUMP JUMPDEST DUP2 CALLDATALOAD DUP2 MSTORE SWAP1 DUP4 ADD SWAP1 DUP4 ADD PUSH2 0x10EA JUMP JUMPDEST SWAP1 DUP1 PUSH1 0x20 SWAP4 SWAP3 DUP2 DUP5 MSTORE DUP5 DUP5 ADD CALLDATACOPY PUSH1 0x0 DUP3 DUP3 ADD DUP5 ADD MSTORE PUSH1 0x1F ADD PUSH1 0x1F NOT AND ADD ADD SWAP1 JUMP JUMPDEST SWAP3 SWAP1 SWAP4 PUSH2 0x1156 SWAP3 PUSH1 0x80 SWAP6 SWAP9 SWAP8 SWAP7 SWAP9 PUSH1 0x1 DUP1 PUSH1 0xA0 SHL SUB AND DUP6 MSTORE PUSH1 0x20 DUP6 ADD MSTORE PUSH1 0xA0 PUSH1 0x40 DUP6 ADD MSTORE PUSH1 0xA0 DUP5 ADD SWAP2 PUSH2 0x1107 JUMP JUMPDEST SWAP5 PUSH1 0x60 DUP3 ADD MSTORE ADD MSTORE JUMP JUMPDEST PUSH2 0x1184 SWAP5 SWAP3 PUSH1 0x60 SWAP3 PUSH1 0x1 DUP1 PUSH1 0xA0 SHL SUB AND DUP3 MSTORE PUSH1 0x20 DUP3 ADD MSTORE DUP2 PUSH1 0x40 DUP3 ADD MSTORE ADD SWAP2 PUSH2 0x1107 JUMP JUMPDEST SWAP1 JUMP JUMPDEST PUSH1 0x0 MSTORE PUSH1 0x97 PUSH1 0x20 MSTORE PUSH1 0x40 PUSH1 0x0 KECCAK256 SLOAD PUSH1 0x1 DUP2 GT SWAP1 DUP2 PUSH2 0x11A3 JUMPI POP SWAP1 JUMP JUMPDEST SWAP1 POP TIMESTAMP LT ISZERO SWAP1 JUMP JUMPDEST SWAP5 PUSH2 0x11E1 PUSH2 0x11FA SWAP5 SWAP6 SWAP3 SWAP4 PUSH1 0x40 MLOAD SWAP7 DUP8 SWAP6 PUSH1 0x20 DUP8 ADD SWAP10 PUSH1 0x1 DUP1 PUSH1 0xA0 SHL SUB AND DUP11 MSTORE PUSH1 0x40 DUP8 ADD MSTORE PUSH1 0xA0 PUSH1 0x60 DUP8 ADD MSTORE PUSH1 0xC0 DUP7 ADD SWAP2 PUSH2 0x1107 JUMP JUMPDEST SWAP2 PUSH1 0x80 DUP5 ADD MSTORE PUSH1 0xA0 DUP4 ADD MSTORE SUB PUSH1 0x1F NOT DUP2 ADD DUP4 MSTORE DUP3 PUSH2 0xF8D JUMP JUMPDEST MLOAD SWAP1 KECCAK256 SWAP1 JUMP JUMPDEST ISZERO PUSH2 0x1207 JUMPI JUMP JUMPDEST PUSH1 0x40 MLOAD PUSH3 0x461BCD PUSH1 0xE5 SHL DUP2 MSTORE PUSH1 0x20 PUSH1 0x4 DUP3 ADD MSTORE PUSH1 0x23 PUSH1 0x24 DUP3 ADD MSTORE PUSH32 0x54696D656C6F636B436F6E74726F6C6C65723A206C656E677468206D69736D61 PUSH1 0x44 DUP3 ADD MSTORE PUSH3 0xE8C6D PUSH1 0xEB SHL PUSH1 0x64 DUP3 ADD MSTORE PUSH1 0x84 SWAP1 REVERT JUMPDEST SWAP2 SWAP1 DUP2 LT ISZERO PUSH2 0x1268 JUMPI PUSH1 0x5 SHL ADD SWAP1 JUMP JUMPDEST PUSH4 0x4E487B71 PUSH1 0xE0 SHL PUSH1 0x0 MSTORE PUSH1 0x32 PUSH1 0x4 MSTORE PUSH1 0x24 PUSH1 0x0 REVERT JUMPDEST CALLDATALOAD PUSH1 0x1 PUSH1 0x1 PUSH1 0xA0 SHL SUB DUP2 AND DUP2 SUB PUSH2 0xEC6 JUMPI SWAP1 JUMP JUMPDEST SWAP2 SWAP1 DUP2 LT ISZERO PUSH2 0x1268 JUMPI PUSH1 0x5 SHL DUP2 ADD CALLDATALOAD SWAP1 PUSH1 0x1E NOT DUP2 CALLDATASIZE SUB ADD DUP3 SLT ISZERO PUSH2 0xEC6 JUMPI ADD SWAP1 DUP2 CALLDATALOAD SWAP2 PUSH1 0x1 PUSH1 0x1 PUSH1 0x40 SHL SUB DUP4 GT PUSH2 0xEC6 JUMPI PUSH1 0x20 ADD DUP3 CALLDATASIZE SUB DUP2 SGT PUSH2 0xEC6 JUMPI SWAP2 SWAP1 JUMP JUMPDEST SWAP7 SWAP3 SWAP5 SWAP1 SWAP7 SWAP6 SWAP2 SWAP6 PUSH1 0x40 MLOAD SWAP7 PUSH1 0x20 SWAP2 DUP3 DUP10 ADD SWAP10 DUP1 PUSH1 0xC0 DUP12 ADD PUSH1 0xA0 DUP14 MSTORE MSTORE PUSH1 0xE0 DUP11 ADD SWAP2 SWAP1 PUSH1 0x0 JUMPDEST DUP2 DUP2 LT PUSH2 0x13E9 JUMPI POP POP POP PUSH1 0x1F NOT DUP10 DUP3 SUB DUP2 ADD PUSH1 0x40 DUP12 ADD MSTORE DUP9 DUP3 MSTORE SWAP8 PUSH1 0x1 PUSH1 0x1 PUSH1 0xFB SHL SUB DUP2 GT PUSH2 0xEC6 JUMPI SWAP1 DUP10 SWAP7 SWAP5 SWAP6 SWAP4 SWAP9 SWAP8 SWAP3 SWAP2 PUSH1 0x5 SHL DUP1 SWAP3 DUP11 DUP4 ADD CALLDATACOPY ADD SWAP4 DUP1 DUP9 DUP7 ADD DUP8 DUP8 SUB PUSH1 0x60 DUP10 ADD MSTORE MSTORE PUSH1 0x40 DUP6 ADD SWAP5 PUSH1 0x40 DUP3 PUSH1 0x5 SHL DUP3 ADD ADD SWAP6 DUP4 PUSH1 0x0 SWAP3 JUMPDEST DUP5 DUP5 LT PUSH2 0x1380 JUMPI POP POP POP POP POP POP PUSH2 0x11FA SWAP6 POP PUSH1 0x80 DUP5 ADD MSTORE PUSH1 0xA0 DUP4 ADD MSTORE SUB SWAP1 DUP2 ADD DUP4 MSTORE DUP3 PUSH2 0xF8D JUMP JUMPDEST SWAP2 SWAP4 SWAP7 SWAP9 POP SWAP2 SWAP4 SWAP9 SWAP10 SWAP5 SWAP7 PUSH1 0x3F NOT DUP3 DUP3 SUB ADD DUP5 MSTORE DUP10 CALLDATALOAD PUSH1 0x1E NOT DUP5 CALLDATASIZE SUB ADD DUP2 SLT ISZERO PUSH2 0xEC6 JUMPI DUP4 ADD DUP7 DUP2 ADD SWAP2 SWAP1 CALLDATALOAD PUSH1 0x1 PUSH1 0x1 PUSH1 0x40 SHL SUB DUP2 GT PUSH2 0xEC6 JUMPI DUP1 CALLDATASIZE SUB DUP4 SGT PUSH2 0xEC6 JUMPI PUSH2 0x13D2 DUP9 SWAP3 DUP4 SWAP3 PUSH1 0x1 SWAP6 PUSH2 0x1107 JUMP JUMPDEST SWAP12 ADD SWAP5 ADD SWAP5 ADD SWAP2 DUP12 SWAP9 SWAP7 SWAP4 SWAP5 SWAP2 SWAP11 SWAP10 SWAP8 SWAP6 SWAP11 PUSH2 0x1358 JUMP JUMPDEST SWAP1 SWAP2 SWAP3 DUP4 CALLDATALOAD SWAP1 PUSH1 0x1 DUP1 PUSH1 0xA0 SHL SUB DUP3 AND DUP1 SWAP3 SUB PUSH2 0xEC6 JUMPI SWAP1 DUP2 MSTORE DUP6 ADD SWAP3 DUP6 ADD SWAP2 SWAP1 PUSH1 0x1 ADD PUSH2 0x12F9 JUMP JUMPDEST SWAP1 PUSH2 0x1429 DUP3 PUSH1 0x0 MSTORE PUSH1 0x97 PUSH1 0x20 MSTORE PUSH1 0x40 PUSH1 0x0 KECCAK256 SLOAD ISZERO ISZERO SWAP1 JUMP JUMPDEST PUSH2 0x14BA JUMPI PUSH1 0x98 SLOAD DUP2 LT PUSH2 0x1466 JUMPI TIMESTAMP ADD SWAP1 DUP2 TIMESTAMP GT PUSH2 0x1450 JUMPI PUSH1 0x0 MSTORE PUSH1 0x97 PUSH1 0x20 MSTORE PUSH1 0x40 PUSH1 0x0 KECCAK256 SSTORE JUMP JUMPDEST PUSH4 0x4E487B71 PUSH1 0xE0 SHL PUSH1 0x0 MSTORE PUSH1 0x11 PUSH1 0x4 MSTORE PUSH1 0x24 PUSH1 0x0 REVERT JUMPDEST PUSH1 0x40 MLOAD PUSH3 0x461BCD PUSH1 0xE5 SHL DUP2 MSTORE PUSH1 0x20 PUSH1 0x4 DUP3 ADD MSTORE PUSH1 0x26 PUSH1 0x24 DUP3 ADD MSTORE PUSH32 0x54696D656C6F636B436F6E74726F6C6C65723A20696E73756666696369656E74 PUSH1 0x44 DUP3 ADD MSTORE PUSH6 0x2064656C6179 PUSH1 0xD0 SHL PUSH1 0x64 DUP3 ADD MSTORE PUSH1 0x84 SWAP1 REVERT JUMPDEST PUSH1 0x40 MLOAD PUSH3 0x461BCD PUSH1 0xE5 SHL DUP2 MSTORE PUSH1 0x20 PUSH1 0x4 DUP3 ADD MSTORE PUSH1 0x2F PUSH1 0x24 DUP3 ADD MSTORE PUSH32 0x54696D656C6F636B436F6E74726F6C6C65723A206F7065726174696F6E20616C PUSH1 0x44 DUP3 ADD MSTORE PUSH15 0x1C9958591E481CD8DA19591D5B1959 PUSH1 0x8A SHL PUSH1 0x64 DUP3 ADD MSTORE PUSH1 0x84 SWAP1 REVERT JUMPDEST PUSH1 0x0 JUMPDEST DUP4 DUP2 LT PUSH2 0x152A JUMPI POP POP PUSH1 0x0 SWAP2 ADD MSTORE JUMP JUMPDEST DUP2 DUP2 ADD MLOAD DUP4 DUP3 ADD MSTORE PUSH1 0x20 ADD PUSH2 0x151A JUMP JUMPDEST PUSH1 0x1 PUSH1 0x1 PUSH1 0xA0 SHL SUB AND PUSH1 0x0 DUP2 DUP2 MSTORE PUSH32 0xAFE71FF1FE81C59CA16AF21C02420893E650ADAE4948ECE1623218F842885477 PUSH1 0x20 SWAP1 DUP2 MSTORE PUSH1 0x40 DUP1 DUP4 KECCAK256 SLOAD SWAP1 SWAP4 PUSH32 0xB09AA5AEB3702CFD50B6B62BC4532604938F21248A27A1D5CA736082B6819CC1 SWAP2 PUSH1 0xFF AND ISZERO PUSH2 0x15A7 JUMPI POP POP POP POP POP JUMP JUMPDEST PUSH2 0x15B0 SWAP1 PUSH2 0x1BE0 JUMP JUMPDEST SWAP1 DUP5 MLOAD SWAP1 PUSH2 0x15BD DUP3 PUSH2 0xF5C JUMP JUMPDEST PUSH1 0x42 DUP3 MSTORE DUP4 DUP3 ADD SWAP5 PUSH1 0x60 CALLDATASIZE DUP8 CALLDATACOPY DUP3 MLOAD ISZERO PUSH2 0x1729 JUMPI PUSH1 0x30 DUP7 MSTORE8 DUP3 MLOAD SWAP1 PUSH1 0x1 SWAP2 PUSH1 0x1 LT ISZERO PUSH2 0x1729 JUMPI SWAP1 PUSH1 0x78 PUSH1 0x21 DUP6 ADD MSTORE8 PUSH1 0x41 SWAP2 JUMPDEST DUP2 DUP4 GT PUSH2 0x16BB JUMPI POP POP POP PUSH2 0x1679 JUMPI DUP5 PUSH2 0x1655 PUSH1 0x48 PUSH2 0x559 SWAP4 PUSH1 0x44 SWAP8 SWAP9 MLOAD SWAP9 DUP10 SWAP2 PUSH2 0x1646 DUP10 DUP5 ADD SWAP9 PUSH23 0x20B1B1B2B9B9A1B7B73A3937B61D1030B1B1B7BAB73A1 PUSH1 0x4D SHL DUP11 MSTORE PUSH2 0x4FD DUP2 MLOAD DUP1 SWAP3 DUP14 PUSH1 0x37 DUP10 ADD SWAP2 ADD PUSH2 0x1517 JUMP JUMPDEST ADD SUB PUSH1 0x28 DUP2 ADD DUP10 MSTORE ADD DUP8 PUSH2 0xF8D JUMP JUMPDEST MLOAD SWAP5 DUP6 SWAP4 PUSH3 0x461BCD PUSH1 0xE5 SHL DUP6 MSTORE PUSH1 0x4 DUP6 ADD MSTORE MLOAD DUP1 SWAP3 DUP2 PUSH1 0x24 DUP7 ADD MSTORE DUP6 DUP6 ADD SWAP1 PUSH2 0x1517 JUMP JUMPDEST PUSH1 0x64 DUP4 DUP7 MLOAD SWAP1 PUSH3 0x461BCD PUSH1 0xE5 SHL DUP3 MSTORE DUP1 PUSH1 0x4 DUP4 ADD MSTORE PUSH1 0x24 DUP3 ADD MSTORE PUSH32 0x537472696E67733A20686578206C656E67746820696E73756666696369656E74 PUSH1 0x44 DUP3 ADD MSTORE REVERT JUMPDEST SWAP1 SWAP2 SWAP3 PUSH1 0xF DUP2 AND PUSH1 0x10 DUP2 LT ISZERO PUSH2 0x1715 JUMPI PUSH16 0x181899199A1A9B1B9C1CB0B131B232B3 PUSH1 0x81 SHL SWAP1 BYTE PUSH2 0x16EB DUP6 DUP8 PUSH2 0x1BCF JUMP JUMPDEST MSTORE8 PUSH1 0x4 SHR SWAP3 DUP1 ISZERO PUSH2 0x1701 JUMPI PUSH1 0x0 NOT ADD SWAP2 SWAP1 PUSH2 0x15EF JUMP JUMPDEST PUSH4 0x4E487B71 PUSH1 0xE0 SHL DUP3 MSTORE PUSH1 0x11 PUSH1 0x4 MSTORE PUSH1 0x24 DUP3 REVERT JUMPDEST PUSH4 0x4E487B71 PUSH1 0xE0 SHL DUP4 MSTORE PUSH1 0x32 PUSH1 0x4 MSTORE PUSH1 0x24 DUP4 REVERT JUMPDEST PUSH4 0x4E487B71 PUSH1 0xE0 SHL DUP2 MSTORE PUSH1 0x32 PUSH1 0x4 MSTORE PUSH1 0x24 SWAP1 REVERT JUMPDEST PUSH1 0x1 PUSH1 0x1 PUSH1 0xA0 SHL SUB AND PUSH1 0x0 DUP2 DUP2 MSTORE PUSH32 0x7DC9F88E569F94FAAD6FA0D44DD44858CAF3F34F1BD1C985800AEDF5793AAD8B PUSH1 0x20 SWAP1 DUP2 MSTORE PUSH1 0x40 DUP1 DUP4 KECCAK256 SLOAD SWAP1 SWAP4 PUSH1 0x0 DUP1 MLOAD PUSH1 0x20 PUSH2 0x1CF0 DUP4 CODECOPY DUP2 MLOAD SWAP2 MSTORE SWAP2 PUSH1 0xFF AND ISZERO PUSH2 0x1798 JUMPI POP POP POP POP POP JUMP JUMPDEST PUSH2 0x17A1 SWAP1 PUSH2 0x1BE0 JUMP JUMPDEST SWAP1 DUP5 MLOAD SWAP1 PUSH2 0x17AE DUP3 PUSH2 0xF5C JUMP JUMPDEST PUSH1 0x42 DUP3 MSTORE DUP4 DUP3 ADD SWAP5 PUSH1 0x60 CALLDATASIZE DUP8 CALLDATACOPY DUP3 MLOAD ISZERO PUSH2 0x1729 JUMPI PUSH1 0x30 DUP7 MSTORE8 DUP3 MLOAD SWAP1 PUSH1 0x1 SWAP2 PUSH1 0x1 LT ISZERO PUSH2 0x1729 JUMPI SWAP1 PUSH1 0x78 PUSH1 0x21 DUP6 ADD MSTORE8 PUSH1 0x41 SWAP2 JUMPDEST DUP2 DUP4 GT PUSH2 0x1837 JUMPI POP POP POP PUSH2 0x1679 JUMPI DUP5 PUSH2 0x1655 PUSH1 0x48 PUSH2 0x559 SWAP4 PUSH1 0x44 SWAP8 SWAP9 MLOAD SWAP9 DUP10 SWAP2 PUSH2 0x1646 DUP10 DUP5 ADD SWAP9 PUSH23 0x20B1B1B2B9B9A1B7B73A3937B61D1030B1B1B7BAB73A1 PUSH1 0x4D SHL DUP11 MSTORE PUSH2 0x4FD DUP2 MLOAD DUP1 SWAP3 DUP14 PUSH1 0x37 DUP10 ADD SWAP2 ADD PUSH2 0x1517 JUMP JUMPDEST SWAP1 SWAP2 SWAP3 PUSH1 0xF DUP2 AND PUSH1 0x10 DUP2 LT ISZERO PUSH2 0x1715 JUMPI PUSH16 0x181899199A1A9B1B9C1CB0B131B232B3 PUSH1 0x81 SHL SWAP1 BYTE PUSH2 0x1867 DUP6 DUP8 PUSH2 0x1BCF JUMP JUMPDEST MSTORE8 PUSH1 0x4 SHR SWAP3 DUP1 ISZERO PUSH2 0x1701 JUMPI PUSH1 0x0 NOT ADD SWAP2 SWAP1 PUSH2 0x17E0 JUMP JUMPDEST PUSH1 0x0 SWAP1 DUP1 DUP3 MSTORE PUSH1 0x20 SWAP1 PUSH1 0x65 DUP3 MSTORE PUSH1 0x40 SWAP4 DUP5 DUP5 KECCAK256 SWAP1 PUSH1 0x1 DUP1 PUSH1 0xA0 SHL SUB AND SWAP1 DUP2 DUP6 MSTORE DUP4 MSTORE PUSH1 0xFF DUP6 DUP6 KECCAK256 SLOAD AND ISZERO PUSH2 0x18B2 JUMPI POP POP POP POP POP JUMP JUMPDEST PUSH2 0x18BB SWAP1 PUSH2 0x1BE0 JUMP JUMPDEST SWAP1 DUP5 MLOAD SWAP1 PUSH2 0x18C8 DUP3 PUSH2 0xF5C JUMP JUMPDEST PUSH1 0x42 DUP3 MSTORE DUP4 DUP3 ADD SWAP5 PUSH1 0x60 CALLDATASIZE DUP8 CALLDATACOPY DUP3 MLOAD ISZERO PUSH2 0x1729 JUMPI PUSH1 0x30 DUP7 MSTORE8 DUP3 MLOAD SWAP1 PUSH1 0x1 SWAP2 PUSH1 0x1 LT ISZERO PUSH2 0x1729 JUMPI SWAP1 PUSH1 0x78 PUSH1 0x21 DUP6 ADD MSTORE8 PUSH1 0x41 SWAP2 JUMPDEST DUP2 DUP4 GT PUSH2 0x1951 JUMPI POP POP POP PUSH2 0x1679 JUMPI DUP5 PUSH2 0x1655 PUSH1 0x48 PUSH2 0x559 SWAP4 PUSH1 0x44 SWAP8 SWAP9 MLOAD SWAP9 DUP10 SWAP2 PUSH2 0x1646 DUP10 DUP5 ADD SWAP9 PUSH23 0x20B1B1B2B9B9A1B7B73A3937B61D1030B1B1B7BAB73A1 PUSH1 0x4D SHL DUP11 MSTORE PUSH2 0x4FD DUP2 MLOAD DUP1 SWAP3 DUP14 PUSH1 0x37 DUP10 ADD SWAP2 ADD PUSH2 0x1517 JUMP JUMPDEST SWAP1 SWAP2 SWAP3 PUSH1 0xF DUP2 AND PUSH1 0x10 DUP2 LT ISZERO PUSH2 0x1715 JUMPI PUSH16 0x181899199A1A9B1B9C1CB0B131B232B3 PUSH1 0x81 SHL SWAP1 BYTE PUSH2 0x1981 DUP6 DUP8 PUSH2 0x1BCF JUMP JUMPDEST MSTORE8 PUSH1 0x4 SHR SWAP3 DUP1 ISZERO PUSH2 0x1701 JUMPI PUSH1 0x0 NOT ADD SWAP2 SWAP1 PUSH2 0x18FA JUMP JUMPDEST ISZERO PUSH2 0x199E JUMPI JUMP JUMPDEST PUSH1 0x40 MLOAD PUSH3 0x461BCD PUSH1 0xE5 SHL DUP2 MSTORE PUSH1 0x20 PUSH1 0x4 DUP3 ADD MSTORE PUSH1 0x2A PUSH1 0x24 DUP3 ADD MSTORE PUSH32 0x54696D656C6F636B436F6E74726F6C6C65723A206F7065726174696F6E206973 PUSH1 0x44 DUP3 ADD MSTORE PUSH10 0x206E6F74207265616479 PUSH1 0xB0 SHL PUSH1 0x64 DUP3 ADD MSTORE PUSH1 0x84 SWAP1 REVERT JUMPDEST PUSH2 0x1A02 PUSH2 0x1A07 SWAP2 PUSH2 0x1187 JUMP JUMPDEST PUSH2 0x1997 JUMP JUMPDEST DUP1 ISZERO SWAP1 DUP2 ISZERO PUSH2 0x1A6D JUMPI JUMPDEST POP ISZERO PUSH2 0x1A19 JUMPI JUMP JUMPDEST PUSH1 0x40 MLOAD PUSH3 0x461BCD PUSH1 0xE5 SHL DUP2 MSTORE PUSH1 0x20 PUSH1 0x4 DUP3 ADD MSTORE PUSH1 0x26 PUSH1 0x24 DUP3 ADD MSTORE PUSH32 0x54696D656C6F636B436F6E74726F6C6C65723A206D697373696E672064657065 PUSH1 0x44 DUP3 ADD MSTORE PUSH6 0x6E64656E6379 PUSH1 0xD0 SHL PUSH1 0x64 DUP3 ADD MSTORE PUSH1 0x84 SWAP1 REVERT JUMPDEST PUSH2 0x1A86 SWAP2 POP PUSH1 0x0 MSTORE PUSH1 0x97 PUSH1 0x20 MSTORE PUSH1 0x1 PUSH1 0x40 PUSH1 0x0 KECCAK256 SLOAD EQ SWAP1 JUMP JUMPDEST CODESIZE PUSH2 0x1A11 JUMP JUMPDEST SWAP1 SWAP3 PUSH1 0x0 SWAP4 DUP5 SWAP4 DUP3 PUSH1 0x40 MLOAD SWAP4 DUP5 SWAP3 DUP4 CALLDATACOPY DUP2 ADD DUP6 DUP2 MSTORE SUB SWAP3 GAS CALL RETURNDATASIZE ISZERO PUSH2 0x1B36 JUMPI RETURNDATASIZE PUSH2 0x1AB5 DUP2 PUSH2 0xFAE JUMP JUMPDEST SWAP1 PUSH2 0x1AC3 PUSH1 0x40 MLOAD SWAP3 DUP4 PUSH2 0xF8D JUMP JUMPDEST DUP2 MSTORE PUSH1 0x0 PUSH1 0x20 RETURNDATASIZE SWAP3 ADD RETURNDATACOPY JUMPDEST ISZERO PUSH2 0x1AD5 JUMPI JUMP JUMPDEST PUSH1 0x40 MLOAD PUSH3 0x461BCD PUSH1 0xE5 SHL DUP2 MSTORE PUSH1 0x20 PUSH1 0x4 DUP3 ADD MSTORE PUSH1 0x33 PUSH1 0x24 DUP3 ADD MSTORE PUSH32 0x54696D656C6F636B436F6E74726F6C6C65723A20756E6465726C79696E672074 PUSH1 0x44 DUP3 ADD MSTORE PUSH19 0x1C985B9CD858DD1A5BDB881C995D995C9D1959 PUSH1 0x6A SHL PUSH1 0x64 DUP3 ADD MSTORE PUSH1 0x84 SWAP1 REVERT JUMPDEST PUSH2 0x1ACE JUMP JUMPDEST PUSH2 0x1B47 PUSH2 0x1A02 DUP3 PUSH2 0x1187 JUMP JUMPDEST PUSH1 0x0 MSTORE PUSH1 0x97 PUSH1 0x20 MSTORE PUSH1 0x1 PUSH1 0x40 PUSH1 0x0 KECCAK256 SSTORE JUMP JUMPDEST SWAP1 PUSH1 0x0 SWAP2 DUP1 DUP4 MSTORE PUSH1 0x65 PUSH1 0x20 MSTORE PUSH1 0x40 DUP4 KECCAK256 SWAP2 PUSH1 0x1 DUP1 PUSH1 0xA0 SHL SUB AND SWAP2 DUP3 DUP5 MSTORE PUSH1 0x20 MSTORE PUSH1 0xFF PUSH1 0x40 DUP5 KECCAK256 SLOAD AND PUSH2 0x1B8A JUMPI POP POP POP JUMP JUMPDEST DUP1 DUP4 MSTORE PUSH1 0x65 PUSH1 0x20 MSTORE PUSH1 0x40 DUP4 KECCAK256 DUP3 DUP5 MSTORE PUSH1 0x20 MSTORE PUSH1 0x40 DUP4 KECCAK256 PUSH1 0xFF NOT DUP2 SLOAD AND SWAP1 SSTORE PUSH32 0xF6391F5C32D9C69D2A47EA670B442974B53935D1EDC7FD64EB21E047A839171B CALLER SWAP4 DUP1 LOG4 JUMP JUMPDEST SWAP1 DUP2 MLOAD DUP2 LT ISZERO PUSH2 0x1268 JUMPI ADD PUSH1 0x20 ADD SWAP1 JUMP JUMPDEST PUSH1 0x40 MLOAD SWAP1 PUSH1 0x60 DUP3 ADD DUP3 DUP2 LT PUSH1 0x1 PUSH1 0x1 PUSH1 0x40 SHL SUB DUP3 GT OR PUSH2 0xF77 JUMPI PUSH1 0x40 MSTORE PUSH1 0x2A DUP3 MSTORE PUSH1 0x20 DUP3 ADD PUSH1 0x40 CALLDATASIZE DUP3 CALLDATACOPY DUP3 MLOAD ISZERO PUSH2 0x1268 JUMPI PUSH1 0x30 SWAP1 MSTORE8 DUP2 MLOAD PUSH1 0x1 SWAP1 PUSH1 0x1 LT ISZERO PUSH2 0x1268 JUMPI PUSH1 0x78 PUSH1 0x21 DUP5 ADD MSTORE8 PUSH1 0x29 SWAP1 JUMPDEST DUP1 DUP3 GT PUSH2 0x1C81 JUMPI POP POP PUSH2 0x1C3D JUMPI SWAP1 JUMP JUMPDEST PUSH1 0x64 PUSH1 0x40 MLOAD PUSH3 0x461BCD PUSH1 0xE5 SHL DUP2 MSTORE PUSH1 0x20 PUSH1 0x4 DUP3 ADD MSTORE PUSH1 0x20 PUSH1 0x24 DUP3 ADD MSTORE PUSH32 0x537472696E67733A20686578206C656E67746820696E73756666696369656E74 PUSH1 0x44 DUP3 ADD MSTORE REVERT JUMPDEST SWAP1 SWAP2 PUSH1 0xF DUP2 AND PUSH1 0x10 DUP2 LT ISZERO PUSH2 0x1CDA JUMPI PUSH16 0x181899199A1A9B1B9C1CB0B131B232B3 PUSH1 0x81 SHL SWAP1 BYTE PUSH2 0x1CB0 DUP5 DUP7 PUSH2 0x1BCF JUMP JUMPDEST MSTORE8 PUSH1 0x4 SHR SWAP2 DUP1 ISZERO PUSH2 0x1CC5 JUMPI PUSH1 0x0 NOT ADD SWAP1 PUSH2 0x1C2D JUMP JUMPDEST PUSH1 0x24 PUSH1 0x0 PUSH4 0x4E487B71 PUSH1 0xE0 SHL DUP2 MSTORE PUSH1 0x11 PUSH1 0x4 MSTORE REVERT JUMPDEST PUSH1 0x24 PUSH1 0x0 PUSH4 0x4E487B71 PUSH1 0xE0 SHL DUP2 MSTORE PUSH1 0x32 PUSH1 0x4 MSTORE REVERT INVALID 0xD8 0xAA 0xF BALANCE SWAP5 SWAP8 BYTE 0x2A GT PUSH7 0x79F7C2090F6939 0xC8 0xD4 0xE0 BYTE 0x2A DUP14 PUSH31 0x41D55E5351469E63A2646970667358221220F435F3759664764188EB0BA224 0xD2 SDIV SWAP1 PUSH2 0xFBCB CALLDATACOPY 0x28 XOR 0x2F SIGNEXTEND JUMPI 0xD8 0xDD 0xA8 PUSH23 0x45777664736F6C63430008190033000000000000000000 "},"methodIdentifiers":{"CANCELLER_ROLE()":"b08e51c0","DEFAULT_ADMIN_ROLE()":"a217fddf","EXECUTOR_ROLE()":"07bd0265","PROPOSER_ROLE()":"8f61f4f5","TIMELOCK_ADMIN_ROLE()":"0d3cf6fc","cancel(bytes32)":"c4d252f5","execute(address,uint256,bytes,bytes32,bytes32)":"134008d3","executeBatch(address[],uint256[],bytes[],bytes32,bytes32)":"e38335e5","getMinDelay()":"f27a0c92","getRoleAdmin(bytes32)":"248a9ca3","getTimestamp(bytes32)":"d45c4435","grantRole(bytes32,address)":"2f2ff15d","hasRole(bytes32,address)":"91d14854","hashOperation(address,uint256,bytes,bytes32,bytes32)":"8065657f","hashOperationBatch(address[],uint256[],bytes[],bytes32,bytes32)":"b1c5f427","isOperation(bytes32)":"31d50750","isOperationDone(bytes32)":"2ab0f529","isOperationPending(bytes32)":"584b153e","isOperationReady(bytes32)":"13bc9f20","onERC1155BatchReceived(address,address,uint256[],uint256[],bytes)":"bc197c81","onERC1155Received(address,address,uint256,uint256,bytes)":"f23a6e61","onERC721Received(address,address,uint256,bytes)":"150b7a02","renounceRole(bytes32,address)":"36568abe","revokeRole(bytes32,address)":"d547741f","schedule(address,uint256,bytes,bytes32,bytes32,uint256)":"01d5062a","scheduleBatch(address[],uint256[],bytes[],bytes32,bytes32,uint256)":"8f2a0bb0","supportsInterface(bytes4)":"01ffc9a7","updateDelay(uint256)":"64d62353"}},"storageLayout":{"storage":[{"astId":1895,"contract":"@openzeppelin/contracts-upgradeable/governance/TimelockControllerUpgradeable.sol:TimelockControllerUpgradeable","label":"_initialized","offset":0,"slot":"0","type":"t_uint8"},{"astId":1898,"contract":"@openzeppelin/contracts-upgradeable/governance/TimelockControllerUpgradeable.sol:TimelockControllerUpgradeable","label":"_initializing","offset":1,"slot":"0","type":"t_bool"},{"astId":3889,"contract":"@openzeppelin/contracts-upgradeable/governance/TimelockControllerUpgradeable.sol:TimelockControllerUpgradeable","label":"__gap","offset":0,"slot":"1","type":"t_array(t_uint256)50_storage"},{"astId":4801,"contract":"@openzeppelin/contracts-upgradeable/governance/TimelockControllerUpgradeable.sol:TimelockControllerUpgradeable","label":"__gap","offset":0,"slot":"51","type":"t_array(t_uint256)50_storage"},{"astId":28,"contract":"@openzeppelin/contracts-upgradeable/governance/TimelockControllerUpgradeable.sol:TimelockControllerUpgradeable","label":"_roles","offset":0,"slot":"101","type":"t_mapping(t_bytes32,t_struct(RoleData)23_storage)"},{"astId":335,"contract":"@openzeppelin/contracts-upgradeable/governance/TimelockControllerUpgradeable.sol:TimelockControllerUpgradeable","label":"__gap","offset":0,"slot":"102","type":"t_array(t_uint256)49_storage"},{"astId":588,"contract":"@openzeppelin/contracts-upgradeable/governance/TimelockControllerUpgradeable.sol:TimelockControllerUpgradeable","label":"_timestamps","offset":0,"slot":"151","type":"t_mapping(t_bytes32,t_uint256)"},{"astId":590,"contract":"@openzeppelin/contracts-upgradeable/governance/TimelockControllerUpgradeable.sol:TimelockControllerUpgradeable","label":"_minDelay","offset":0,"slot":"152","type":"t_uint256"},{"astId":1521,"contract":"@openzeppelin/contracts-upgradeable/governance/TimelockControllerUpgradeable.sol:TimelockControllerUpgradeable","label":"__gap","offset":0,"slot":"153","type":"t_array(t_uint256)48_storage"}],"types":{"t_address":{"encoding":"inplace","label":"address","numberOfBytes":"20"},"t_array(t_uint256)48_storage":{"base":"t_uint256","encoding":"inplace","label":"uint256[48]","numberOfBytes":"1536"},"t_array(t_uint256)49_storage":{"base":"t_uint256","encoding":"inplace","label":"uint256[49]","numberOfBytes":"1568"},"t_array(t_uint256)50_storage":{"base":"t_uint256","encoding":"inplace","label":"uint256[50]","numberOfBytes":"1600"},"t_bool":{"encoding":"inplace","label":"bool","numberOfBytes":"1"},"t_bytes32":{"encoding":"inplace","label":"bytes32","numberOfBytes":"32"},"t_mapping(t_address,t_bool)":{"encoding":"mapping","key":"t_address","label":"mapping(address => bool)","numberOfBytes":"32","value":"t_bool"},"t_mapping(t_bytes32,t_struct(RoleData)23_storage)":{"encoding":"mapping","key":"t_bytes32","label":"mapping(bytes32 => struct AccessControlUpgradeable.RoleData)","numberOfBytes":"32","value":"t_struct(RoleData)23_storage"},"t_mapping(t_bytes32,t_uint256)":{"encoding":"mapping","key":"t_bytes32","label":"mapping(bytes32 => uint256)","numberOfBytes":"32","value":"t_uint256"},"t_struct(RoleData)23_storage":{"encoding":"inplace","label":"struct AccessControlUpgradeable.RoleData","members":[{"astId":20,"contract":"@openzeppelin/contracts-upgradeable/governance/TimelockControllerUpgradeable.sol:TimelockControllerUpgradeable","label":"members","offset":0,"slot":"0","type":"t_mapping(t_address,t_bool)"},{"astId":22,"contract":"@openzeppelin/contracts-upgradeable/governance/TimelockControllerUpgradeable.sol:TimelockControllerUpgradeable","label":"adminRole","offset":0,"slot":"1","type":"t_bytes32"}],"numberOfBytes":"64"},"t_uint256":{"encoding":"inplace","label":"uint256","numberOfBytes":"32"},"t_uint8":{"encoding":"inplace","label":"uint8","numberOfBytes":"1"}}}}}}