{"contracts/token/HYPEYToken.sol":{"HYPEYToken":{"abi":[{"inputs":[],"stateMutability":"nonpayable","type":"constructor"},{"anonymous":false,"inputs":[{"indexed":false,"internalType":"address","name":"previousAdmin","type":"address"},{"indexed":false,"internalType":"address","name":"newAdmin","type":"address"}],"name":"AdminChanged","type":"event"},{"anonymous":false,"inputs":[{"indexed":true,"internalType":"address","name":"owner","type":"address"},{"indexed":true,"internalType":"address","name":"spender","type":"address"},{"indexed":false,"internalType":"uint256","name":"value","type":"uint256"}],"name":"Approval","type":"event"},{"anonymous":false,"inputs":[{"indexed":true,"internalType":"address","name":"beacon","type":"address"}],"name":"BeaconUpgraded","type":"event"},{"anonymous":false,"inputs":[{"indexed":false,"internalType":"uint256","name":"oldRate","type":"uint256"},{"indexed":false,"internalType":"uint256","name":"newRate","type":"uint256"}],"name":"BurnRateChanged","type":"event"},{"anonymous":false,"inputs":[{"indexed":true,"internalType":"address","name":"wallet","type":"address"},{"indexed":false,"internalType":"bool","name":"exempt","type":"bool"}],"name":"ExemptStatusChanged","type":"event"},{"anonymous":false,"inputs":[{"indexed":false,"internalType":"uint8","name":"version","type":"uint8"}],"name":"Initialized","type":"event"},{"anonymous":false,"inputs":[{"indexed":true,"internalType":"address","name":"previousOwner","type":"address"},{"indexed":true,"internalType":"address","name":"newOwner","type":"address"}],"name":"OwnershipTransferred","type":"event"},{"anonymous":false,"inputs":[{"indexed":true,"internalType":"address","name":"oldAddress","type":"address"},{"indexed":true,"internalType":"address","name":"newAddress","type":"address"}],"name":"ReserveBurnAddressChanged","type":"event"},{"anonymous":false,"inputs":[{"indexed":true,"internalType":"bytes32","name":"role","type":"bytes32"},{"indexed":true,"internalType":"bytes32","name":"previousAdminRole","type":"bytes32"},{"indexed":true,"internalType":"bytes32","name":"newAdminRole","type":"bytes32"}],"name":"RoleAdminChanged","type":"event"},{"anonymous":false,"inputs":[{"indexed":true,"internalType":"bytes32","name":"role","type":"bytes32"},{"indexed":true,"internalType":"address","name":"account","type":"address"},{"indexed":true,"internalType":"address","name":"sender","type":"address"}],"name":"RoleGranted","type":"event"},{"anonymous":false,"inputs":[{"indexed":true,"internalType":"bytes32","name":"role","type":"bytes32"},{"indexed":true,"internalType":"address","name":"account","type":"address"},{"indexed":true,"internalType":"address","name":"sender","type":"address"}],"name":"RoleRevoked","type":"event"},{"anonymous":false,"inputs":[{"indexed":true,"internalType":"address","name":"from","type":"address"},{"indexed":true,"internalType":"address","name":"to","type":"address"},{"indexed":false,"internalType":"uint256","name":"value","type":"uint256"}],"name":"Transfer","type":"event"},{"anonymous":false,"inputs":[{"indexed":true,"internalType":"address","name":"implementation","type":"address"}],"name":"Upgraded","type":"event"},{"inputs":[],"name":"DAY_SELL_TAX_BPS","outputs":[{"internalType":"uint256","name":"","type":"uint256"}],"stateMutability":"view","type":"function"},{"inputs":[],"name":"DEFAULT_ADMIN_ROLE","outputs":[{"internalType":"bytes32","name":"","type":"bytes32"}],"stateMutability":"view","type":"function"},{"inputs":[],"name":"INITIAL_SUPPLY","outputs":[{"internalType":"uint256","name":"","type":"uint256"}],"stateMutability":"view","type":"function"},{"inputs":[],"name":"MIN_EXEMPT_AMOUNT","outputs":[{"internalType":"uint256","name":"","type":"uint256"}],"stateMutability":"view","type":"function"},{"inputs":[],"name":"MULTISIG_ADMIN_ROLE","outputs":[{"internalType":"bytes32","name":"","type":"bytes32"}],"stateMutability":"view","type":"function"},{"inputs":[],"name":"NIGHT_SELL_TAX_BPS","outputs":[{"internalType":"uint256","name":"","type":"uint256"}],"stateMutability":"view","type":"function"},{"inputs":[{"internalType":"address","name":"owner","type":"address"},{"internalType":"address","name":"spender","type":"address"}],"name":"allowance","outputs":[{"internalType":"uint256","name":"","type":"uint256"}],"stateMutability":"view","type":"function"},{"inputs":[{"internalType":"address","name":"spender","type":"address"},{"internalType":"uint256","name":"amount","type":"uint256"}],"name":"approve","outputs":[{"internalType":"bool","name":"","type":"bool"}],"stateMutability":"nonpayable","type":"function"},{"inputs":[{"internalType":"address","name":"","type":"address"}],"name":"approvedNFTContracts","outputs":[{"internalType":"bool","name":"","type":"bool"}],"stateMutability":"view","type":"function"},{"inputs":[{"internalType":"address","name":"","type":"address"}],"name":"approvedPlatforms","outputs":[{"internalType":"bool","name":"","type":"bool"}],"stateMutability":"view","type":"function"},{"inputs":[{"internalType":"address","name":"account","type":"address"}],"name":"balanceOf","outputs":[{"internalType":"uint256","name":"","type":"uint256"}],"stateMutability":"view","type":"function"},{"inputs":[],"name":"builder","outputs":[{"internalType":"string","name":"","type":"string"}],"stateMutability":"pure","type":"function"},{"inputs":[{"internalType":"address","name":"user","type":"address"},{"internalType":"uint256","name":"amount","type":"uint256"}],"name":"burnForNFT","outputs":[],"stateMutability":"nonpayable","type":"function"},{"inputs":[{"internalType":"uint256","name":"amount","type":"uint256"}],"name":"burnKPIEvent","outputs":[],"stateMutability":"nonpayable","type":"function"},{"inputs":[{"internalType":"uint256","name":"amount","type":"uint256"},{"internalType":"uint256","name":"basisPoints","type":"uint256"}],"name":"burnPlatformFee","outputs":[],"stateMutability":"nonpayable","type":"function"},{"inputs":[],"name":"burnRateBasisPoints","outputs":[{"internalType":"uint256","name":"","type":"uint256"}],"stateMutability":"view","type":"function"},{"inputs":[],"name":"decimals","outputs":[{"internalType":"uint8","name":"","type":"uint8"}],"stateMutability":"view","type":"function"},{"inputs":[{"internalType":"address","name":"spender","type":"address"},{"internalType":"uint256","name":"subtractedValue","type":"uint256"}],"name":"decreaseAllowance","outputs":[{"internalType":"bool","name":"","type":"bool"}],"stateMutability":"nonpayable","type":"function"},{"inputs":[],"name":"dexPair","outputs":[{"internalType":"address","name":"","type":"address"}],"stateMutability":"view","type":"function"},{"inputs":[{"internalType":"address","name":"recipient","type":"address"},{"internalType":"uint256","name":"amount","type":"uint256"}],"name":"distributeInitialSupply","outputs":[],"stateMutability":"nonpayable","type":"function"},{"inputs":[],"name":"dynamicBurnEnabled","outputs":[{"internalType":"bool","name":"","type":"bool"}],"stateMutability":"view","type":"function"},{"inputs":[{"internalType":"address","name":"","type":"address"}],"name":"exemptFromBurn","outputs":[{"internalType":"bool","name":"","type":"bool"}],"stateMutability":"view","type":"function"},{"inputs":[{"internalType":"bytes32","name":"role","type":"bytes32"}],"name":"getRoleAdmin","outputs":[{"internalType":"bytes32","name":"","type":"bytes32"}],"stateMutability":"view","type":"function"},{"inputs":[{"internalType":"bytes32","name":"role","type":"bytes32"},{"internalType":"address","name":"account","type":"address"}],"name":"grantRole","outputs":[],"stateMutability":"nonpayable","type":"function"},{"inputs":[{"internalType":"bytes32","name":"role","type":"bytes32"},{"internalType":"address","name":"account","type":"address"}],"name":"hasRole","outputs":[{"internalType":"bool","name":"","type":"bool"}],"stateMutability":"view","type":"function"},{"inputs":[{"internalType":"address","name":"spender","type":"address"},{"internalType":"uint256","name":"addedValue","type":"uint256"}],"name":"increaseAllowance","outputs":[{"internalType":"bool","name":"","type":"bool"}],"stateMutability":"nonpayable","type":"function"},{"inputs":[{"internalType":"address","name":"_reserveBurnAddress","type":"address"},{"internalType":"address","name":"timelockAddress","type":"address"},{"internalType":"address","name":"initialOwner","type":"address"}],"name":"initialize","outputs":[],"stateMutability":"nonpayable","type":"function"},{"inputs":[],"name":"isNight","outputs":[{"internalType":"bool","name":"","type":"bool"}],"stateMutability":"view","type":"function"},{"inputs":[],"name":"name","outputs":[{"internalType":"string","name":"","type":"string"}],"stateMutability":"view","type":"function"},{"inputs":[],"name":"owner","outputs":[{"internalType":"address","name":"","type":"address"}],"stateMutability":"view","type":"function"},{"inputs":[],"name":"ownerInitialized","outputs":[{"internalType":"bool","name":"","type":"bool"}],"stateMutability":"view","type":"function"},{"inputs":[],"name":"proxiableUUID","outputs":[{"internalType":"bytes32","name":"","type":"bytes32"}],"stateMutability":"view","type":"function"},{"inputs":[],"name":"renounceOwnership","outputs":[],"stateMutability":"nonpayable","type":"function"},{"inputs":[{"internalType":"bytes32","name":"role","type":"bytes32"},{"internalType":"address","name":"account","type":"address"}],"name":"renounceRole","outputs":[],"stateMutability":"nonpayable","type":"function"},{"inputs":[],"name":"reserveBurnAddress","outputs":[{"internalType":"address","name":"","type":"address"}],"stateMutability":"view","type":"function"},{"inputs":[{"internalType":"bytes32","name":"role","type":"bytes32"},{"internalType":"address","name":"account","type":"address"}],"name":"revokeRole","outputs":[],"stateMutability":"nonpayable","type":"function"},{"inputs":[{"internalType":"uint256","name":"_basisPoints","type":"uint256"}],"name":"setBurnRate","outputs":[],"stateMutability":"nonpayable","type":"function"},{"inputs":[{"internalType":"address","name":"_pair","type":"address"}],"name":"setDexPair","outputs":[],"stateMutability":"nonpayable","type":"function"},{"inputs":[{"internalType":"bool","name":"enabled","type":"bool"}],"name":"setDynamicBurnEnabled","outputs":[],"stateMutability":"nonpayable","type":"function"},{"inputs":[{"internalType":"address","name":"wallet","type":"address"},{"internalType":"bool","name":"exempt","type":"bool"}],"name":"setExemptFromBurn","outputs":[],"stateMutability":"nonpayable","type":"function"},{"inputs":[{"internalType":"address","name":"nftContract","type":"address"},{"internalType":"bool","name":"approved","type":"bool"}],"name":"setNFTContractApproved","outputs":[],"stateMutability":"nonpayable","type":"function"},{"inputs":[{"internalType":"bool","name":"_isNight","type":"bool"}],"name":"setNightMode","outputs":[],"stateMutability":"nonpayable","type":"function"},{"inputs":[{"internalType":"address","name":"platform","type":"address"},{"internalType":"bool","name":"approved","type":"bool"}],"name":"setPlatformApproved","outputs":[],"stateMutability":"nonpayable","type":"function"},{"inputs":[{"internalType":"address","name":"_addr","type":"address"}],"name":"setReserveBurnAddress","outputs":[],"stateMutability":"nonpayable","type":"function"},{"inputs":[{"internalType":"bytes4","name":"interfaceId","type":"bytes4"}],"name":"supportsInterface","outputs":[{"internalType":"bool","name":"","type":"bool"}],"stateMutability":"view","type":"function"},{"inputs":[],"name":"symbol","outputs":[{"internalType":"string","name":"","type":"string"}],"stateMutability":"view","type":"function"},{"inputs":[],"name":"timelock","outputs":[{"internalType":"contract TimelockControllerUpgradeable","name":"","type":"address"}],"stateMutability":"view","type":"function"},{"inputs":[],"name":"totalSupply","outputs":[{"internalType":"uint256","name":"","type":"uint256"}],"stateMutability":"view","type":"function"},{"inputs":[{"internalType":"address","name":"recipient","type":"address"},{"internalType":"uint256","name":"amount","type":"uint256"}],"name":"transfer","outputs":[{"internalType":"bool","name":"","type":"bool"}],"stateMutability":"nonpayable","type":"function"},{"inputs":[{"internalType":"address","name":"sender","type":"address"},{"internalType":"address","name":"recipient","type":"address"},{"internalType":"uint256","name":"amount","type":"uint256"}],"name":"transferFrom","outputs":[{"internalType":"bool","name":"","type":"bool"}],"stateMutability":"nonpayable","type":"function"},{"inputs":[{"internalType":"address","name":"newOwner","type":"address"}],"name":"transferOwnership","outputs":[],"stateMutability":"nonpayable","type":"function"},{"inputs":[],"name":"trustedInitializer","outputs":[{"internalType":"address","name":"","type":"address"}],"stateMutability":"view","type":"function"},{"inputs":[{"internalType":"address","name":"newImplementation","type":"address"}],"name":"upgradeTo","outputs":[],"stateMutability":"nonpayable","type":"function"},{"inputs":[{"internalType":"address","name":"newImplementation","type":"address"},{"internalType":"bytes","name":"data","type":"bytes"}],"name":"upgradeToAndCall","outputs":[],"stateMutability":"payable","type":"function"}],"evm":{"bytecode":{"linkReferences":{},"object":"60c080604052346100f057306080523360a0526000549060ff8260081c1661009e575060ff80821603610063575b60405161337190816100f68239608051818181611483015281816117c60152611bc5015260a0518181816105e20152610e190152f35b60ff90811916176000557f7f26b83ff96e1f2b6a682f133852f6798a09c465da95921460cefb3847402498602060405160ff8152a13861002d565b62461bcd60e51b815260206004820152602760248201527f496e697469616c697a61626c653a20636f6e747261637420697320696e697469604482015266616c697a696e6760c81b6064820152608490fd5b600080fdfe608080604052600436101561001357600080fd5b60003560e01c90816301ffc9a7146123c757508063058a80e61461239d57806306fdde0314612307578063095ea7b3146122e157806312427bae146121ee57806314ddc354146121c957806318160ddd146121ab578063189d165e146120fc57806323b872dd1461203e578063248a9ca31461200e5780632f2ff15d14611f5c5780632ff2e9dc14611f35578063313ce56714611f1957806336568abe14611e875780633659cfe614611ba05780633950935114611b4e578063400ee06f14611b0d57806342bcef5a14611af05780634f1ef2861461174a5780634f39cd24146115ba57806350b654141461157a57806352328aa51461155b57806352545c2a1461153457806352d1902d146114705780636257192b146113a6578063671a07ed146112635780636e637cc51461122357806370a08231146111e9578063715018a61461118c57806372e90acf146111685780637ba287ec146110985780638da5cb5b1461106f5780638f76240914610fc157806391d1485414610f7357806392fcff9014610f325780639476d34c14610f1557806395d89b4114610e485780639e85f9aa14610e03578063a217fddf14610de7578063a457c2d714610d40578063a9059cbb14610d0f578063ae36f5c814610c8d578063bebc214514610c69578063c0c53b8b14610573578063c8f50b4c1461054a578063cc244e1414610523578063d33219b4146104f9578063d547741f146104b9578063d7e84fbf1461046e578063dd62ed3e1461041d578063ebf173901461036f578063f242ab4114610345578063f2fde38b146102b65763fda49e401461027157600080fd5b346102b15760203660031901126102b1576001600160a01b03610292612469565b16600052610163602052602060ff604060002054166040519015158152f35b600080fd5b346102b15760203660031901126102b1576102cf612469565b6102d76127d5565b6001600160a01b038116156102f1576102ef906130ca565b005b60405162461bcd60e51b815260206004820152602660248201527f4f776e61626c653a206e6577206f776e657220697320746865207a65726f206160448201526564647265737360d01b6064820152608490fd5b346102b15760003660031901126102b157610166546040516001600160a01b039091168152602090f35b346102b15760403660031901126102b157610388612469565b6103906124a4565b906103996127d5565b6001600160a01b03169081156103d8576102ef916103b930821415612691565b60005261016360205260406000209060ff801983541691151516179055565b60405162461bcd60e51b815260206004820152601860248201527f496e76616c696420706c6174666f726d206164647265737300000000000000006044820152606490fd5b346102b15760403660031901126102b157610436612469565b61043e61247f565b9060018060a01b038091166000526034602052604060002091166000526020526020604060002054604051908152f35b346102b15760003660031901126102b1576104b560405161048e816124cf565b600e81526d544f50415920444556205445414d60901b60208201526040519182918261243d565b0390f35b346102b15760403660031901126102b1576102ef6004356104d861247f565b908060005261012d6020526104f4600160406000200154612a8e565b612edc565b346102b15760003660031901126102b157610165546040516001600160a01b039091168152602090f35b346102b15760003660031901126102b157602060ff6101655460a01c166040519015158152f35b346102b15760003660031901126102b15760206040516000805160206132dc8339815191528152f35b346102b15760603660031901126102b15761058c612469565b61059461247f565b6044356001600160a01b038181169392918490036102b1576000549360ff8560081c161594858096610c5c575b8015610c45575b15610be95760ff19811660011760005585610bd7575b50817f0000000000000000000000000000000000000000000000000000000000000000163303610b925781841615610b4d5781831615610b085715610acb57604051610629816124cf565b600b81526a242ca822ac902a37b5b2b760a91b60208201526040519061064e826124cf565b6005825264485950455960d81b602083015261067a60ff60005460081c1661067581613113565b613113565b80519067ffffffffffffffff82116109be578190610699603654612529565b601f8111610a57575b50602090601f83116001146109df576000926109d4575b50508160011b916000199060031b1c1916176036555b80519067ffffffffffffffff82116109be5781906106ee603754612529565b601f811161094a575b50602090601f83116001146108d2576000926108c7575b50508160011b916000199060031b1c1916176037555b61073960ff60005460081c1661067581613113565b610742336130ca565b61075760ff60005460081c1661067581613113565b6107626044356130ca565b61076d604435612da0565b610778604435612e32565b61078182612da0565b61078a82612e32565b6bffffffffffffffffffffffff60a01b9181610165911683825416179055610160921690825416179055606461015f553015610882576035546b09b18ab5df7180b6b80000009081810180911161086c57603555306000526033602052604060002081815401905560405190815260007fddf252ad1be2c89b69c2b068fc378daa952ba7f163c4a11628f55a4df523b3ef60203093a3610162805460ff1916600117905561083457005b61ff0019600054166000557f7f26b83ff96e1f2b6a682f133852f6798a09c465da95921460cefb3847402498602060405160018152a1005b634e487b7160e01b600052601160045260246000fd5b60405162461bcd60e51b815260206004820152601f60248201527f45524332303a206d696e7420746f20746865207a65726f2061646472657373006044820152606490fd5b01519050868061070e565b9250603760005260008051602061331c833981519152906000935b601f198416851061092f576001945083601f19811610610916575b505050811b01603755610724565b015160001960f88460031b161c19169055868080610908565b818101518355602094850194600190930192909101906108ed565b9091506037600052601f830160051c60008051602061331c83398151915201602084106109a9575b908392915b601f820160051c60008051602061331c83398151915201811061099a57506106f7565b60008155849350600101610977565b5060008051602061331c833981519152610972565b634e487b7160e01b600052604160045260246000fd5b0151905087806106b9565b925060366000526000805160206132bc833981519152906000935b601f1984168510610a3c576001945083601f19811610610a23575b505050811b016036556106cf565b015160001960f88460031b161c19169055878080610a15565b818101518355602094850194600190930192909101906109fa565b9091506036600052601f830160051c6000805160206132bc8339815191520160208410610ab6575b908392915b601f820160051c6000805160206132bc833981519152018110610aa757506106a2565b60008155849350600101610a84565b506000805160206132bc833981519152610a7f565b60405162461bcd60e51b815260206004820152601560248201527424b73b30b634b21034b734ba34b0b61037bbb732b960591b6044820152606490fd5b60405162461bcd60e51b815260206004820152601860248201527f496e76616c69642074696d656c6f636b206164647265737300000000000000006044820152606490fd5b60405162461bcd60e51b815260206004820152601c60248201527f496e76616c69642072657365727665206275726e2061646472657373000000006044820152606490fd5b60405162461bcd60e51b815260206004820152601860248201527f556e617574686f72697a656420696e697469616c697a657200000000000000006044820152606490fd5b61ffff191661010117600055856105de565b60405162461bcd60e51b815260206004820152602e60248201527f496e697469616c697a61626c653a20636f6e747261637420697320616c72656160448201526d191e481a5b9a5d1a585b1a5e995960921b6064820152608490fd5b50303b1580156105c85750600160ff8216146105c8565b50600160ff8216106105c1565b346102b15760003660031901126102b157602060ff61016254166040519015158152f35b346102b15760203660031901126102b157610ca6612469565b610cae6127d5565b6001600160a01b03168015610cd35761016680546001600160a01b0319169091179055005b60405162461bcd60e51b8152602060048201526014602482015273496e76616c69642070616972206164647265737360601b6044820152606490fd5b346102b15760403660031901126102b157610d35610d2b612469565b6024359033612938565b602060405160018152f35b346102b15760403660031901126102b157610d59612469565b60243590336000526034602052604060002060018060a01b03821660005260205260406000205491808310610d9457610d35920390336126d3565b60405162461bcd60e51b815260206004820152602560248201527f45524332303a2064656372656173656420616c6c6f77616e63652062656c6f77604482015264207a65726f60d81b6064820152608490fd5b346102b15760003660031901126102b157602060405160008152f35b346102b15760003660031901126102b1576040517f00000000000000000000000000000000000000000000000000000000000000006001600160a01b03168152602090f35b346102b15760003660031901126102b1576040516000603754610e6a81612529565b80845290602090600190818116908115610eeb5750600114610ea3575b6104b585610e97818703826124eb565b6040519182918261243d565b60376000908152935060008051602061331c8339815191525b838510610ed857505050508101602001610e97826104b5610e87565b8054868601840152938201938101610ebc565b8695506104b596935060209250610e9794915060ff191682840152151560051b8201019293610e87565b346102b15760003660031901126102b15760206040516106408152f35b346102b15760203660031901126102b157610f4b612495565b610f536127d5565b610165805460ff60a01b191691151560a01b60ff60a01b16919091179055005b346102b15760403660031901126102b157610f8c61247f565b60043560005261012d60205260406000209060018060a01b0316600052602052602060ff604060002054166040519015158152f35b346102b15760403660031901126102b157610fda612469565b610fe26124a4565b90610feb6127d5565b6001600160a01b031690811561102a576102ef9161100b30821415612691565b60005261016460205260406000209060ff801983541691151516179055565b60405162461bcd60e51b815260206004820152601c60248201527f496e76616c6964204e465420636f6e74726163742061646472657373000000006044820152606490fd5b346102b15760003660031901126102b1576065546040516001600160a01b039091168152602090f35b346102b15760403660031901126102b1576110b1612469565b6024356110bc6127d5565b6001600160a01b0382161561112f5730600052603360205280604060002054106110ea576102ef9130612f5a565b60405162461bcd60e51b815260206004820152601d60248201527f496e73756666696369656e7420636f6e74726163742062616c616e63650000006044820152606490fd5b60405162461bcd60e51b8152602060048201526011602482015270125b9d985b1a59081c9958da5c1a595b9d607a1b6044820152606490fd5b346102b15760003660031901126102b157602060405168056bc75e2d631000008152f35b346102b15760003660031901126102b1576111a56127d5565b606580546001600160a01b031981169091556000906001600160a01b03167f8be0079c531659141344cd1fd0a4f28419497f9722a3daafe3b4186f6b6457e08280a3005b346102b15760203660031901126102b1576001600160a01b0361120a612469565b1660005260336020526020604060002054604051908152f35b346102b15760203660031901126102b1576001600160a01b03611244612469565b16600052610161602052602060ff604060002054166040519015158152f35b346102b15760403660031901126102b1576004356024353360005261016360205260ff6040600020541615611361576101f48111611333576112a6821515612625565b33600052603360205281604060002054106112f7576112cb612710916102ef93612671565b046112e46112dd8260011c8093612684565b913361282d565b610160546001600160a01b031633612f5a565b60405162461bcd60e51b8152602060048201526014602482015273496e73756666696369656e742062616c616e636560601b6044820152606490fd5b60405162461bcd60e51b81526020600482015260066024820152654d617820352560d01b6044820152606490fd5b60405162461bcd60e51b815260206004820152601860248201527f4e6f7420616e20617070726f76656420706c6174666f726d00000000000000006044820152606490fd5b346102b15760403660031901126102b1576113bf612469565b6113c76124a4565b906113d06127d5565b6001600160a01b03169081156114325760207f284395b44a0b0185827a17744bf7276faa252074c57cbc51d31f32a4eec27edc918360005261016182526114278160406000209060ff801983541691151516179055565b6040519015158152a2005b60405162461bcd60e51b8152602060048201526016602482015275496e76616c69642077616c6c6574206164647265737360501b6044820152606490fd5b346102b15760003660031901126102b1577f00000000000000000000000000000000000000000000000000000000000000006001600160a01b031630036114c95760206040516000805160206132fc8339815191528152f35b60405162461bcd60e51b815260206004820152603860248201527f555550535570677261646561626c653a206d757374206e6f742062652063616c60448201527f6c6564207468726f7567682064656c656761746563616c6c00000000000000006064820152608490fd5b346102b15760003660031901126102b157602060ff6101665460a01c166040519015158152f35b346102b15760003660031901126102b157602061015f54604051908152f35b346102b15760203660031901126102b1576001600160a01b0361159b612469565b16600052610164602052602060ff604060002054166040519015158152f35b346102b15760403660031901126102b1576115d3612469565b60243533600052602091610164835260ff6040600020541615611705576001600160a01b03811680156116c95761160b831515612625565b806000526033845260406000205483116116845760005260338352606460406000205404821161163f576102ef925061282d565b60405162461bcd60e51b815260048101849052601860248201527f4e4654206275726e20616d6f756e7420746f6f206869676800000000000000006044820152606490fd5b60405162461bcd60e51b815260048101859052601960248201527f496e73756666696369656e7420757365722062616c616e6365000000000000006044820152606490fd5b60405162461bcd60e51b8152600481018590526014602482015273496e76616c69642075736572206164647265737360601b6044820152606490fd5b60405162461bcd60e51b815260048101849052601960248201527f4e6f7420617070726f766564204e465420636f6e7472616374000000000000006044820152606490fd5b60403660031901126102b15761175e612469565b602490813567ffffffffffffffff81116102b157366023820112156102b15780600401359061178c8261250d565b61179960405191826124eb565b82815260209283820192368783830101116102b15781600092888793018637830101526001600160a01b037f00000000000000000000000000000000000000000000000000000000000000008116906117f430831415612563565b6118116000805160206132fc8339815191529282845416146125c4565b8061016554163303611ab0576000805160206132dc83398151915260005261012d8552604060002032600052855260ff6040600020541615611a6c577f4910fdfa16fed3260ed0e7147f7cc6da11a60208b5b9406d12a635614ffd91435460ff16156118865750505050506102ef9150613173565b859293949516906040516352d1902d60e01b81528681600481865afa60009181611a3d575b5061190b5760405162461bcd60e51b815260048101889052602e818a01527f45524331393637557067726164653a206e657720696d706c656d656e7461746960448201526d6f6e206973206e6f74205555505360901b6064820152608490fd5b96919293959496036119e8575061192182613173565b7fbc7cd75a20ee27fd9adebab32041f755214dbc6bffa90cc0225b39da2e5c2d3b600080a28251158015906119e0575b61195757005b6000806102ef956040519561196b876124b3565b602787527f416464726573733a206c6f772d6c6576656c2064656c65676174652063616c6c86880152660819985a5b195960ca1b60408801525190845af4903d156119d7573d6119ba8161250d565b906119c860405192836124eb565b8152600081943d92013e61322a565b6060925061322a565b506001611951565b8360296084926040519262461bcd60e51b845260048401528201527f45524331393637557067726164653a20756e737570706f727465642070726f786044820152681a58589b195555525160ba1b6064820152fd5b9091508781813d8311611a65575b611a5581836124eb565b810103126102b1575190896118ab565b503d611a4b565b60405162461bcd60e51b815260048101869052601f818901527f55706772616465207265717569726573206d756c74697369672061646d696e006044820152606490fd5b60405162461bcd60e51b8152600481018690526019818901527855706772616465206f6e6c79207669612074696d656c6f636b60381b6044820152606490fd5b346102b15760003660031901126102b15760206040516101908152f35b346102b15760203660031901126102b157611b26612495565b611b2e6127d5565b610166805460ff60a01b191691151560a01b60ff60a01b16919091179055005b346102b15760403660031901126102b157611b67612469565b336000526034602052604060002060018060a01b038216600052602052604060002054602435810180911161086c57610d3591336126d3565b346102b1576020806003193601126102b157611bba612469565b6001600160a01b03917f00000000000000000000000000000000000000000000000000000000000000008316611bf230821415612563565b611c0f6000805160206132fc8339815191529185835416146125c4565b8361016554163303611e46576000805160206132dc83398151915260005261012d8252604060002032600052825260ff6040600020541615611e0157604051908282019482861067ffffffffffffffff8711176109be57856040526000835260ff7f4910fdfa16fed3260ed0e7147f7cc6da11a60208b5b9406d12a635614ffd91435416600014611ca857505050506102ef9150613173565b8492939416906040516352d1902d60e01b81528581600481865afa60009181611dd2575b50611d2d5760405162461bcd60e51b815260048101879052602e60248201527f45524331393637557067726164653a206e657720696d706c656d656e7461746960448201526d6f6e206973206e6f74205555505360901b6064820152608490fd5b94939403611d7b57611d3e82613173565b7fbc7cd75a20ee27fd9adebab32041f755214dbc6bffa90cc0225b39da2e5c2d3b600080a2825115801590611d735761195757005b506000611951565b60405162461bcd60e51b815260048101849052602960248201527f45524331393637557067726164653a20756e737570706f727465642070726f786044820152681a58589b195555525160ba1b6064820152608490fd5b9091508681813d8311611dfa575b611dea81836124eb565b810103126102b157519088611ccc565b503d611de0565b60405162461bcd60e51b815260048101839052601f60248201527f55706772616465207265717569726573206d756c74697369672061646d696e006044820152606490fd5b60405162461bcd60e51b815260048101839052601960248201527855706772616465206f6e6c79207669612074696d656c6f636b60381b6044820152606490fd5b346102b15760403660031901126102b157611ea061247f565b336001600160a01b03821603611ebc576102ef90600435612edc565b60405162461bcd60e51b815260206004820152602f60248201527f416363657373436f6e74726f6c3a2063616e206f6e6c792072656e6f756e636560448201526e103937b632b9903337b91039b2b63360891b6064820152608490fd5b346102b15760003660031901126102b157602060405160128152f35b346102b15760003660031901126102b15760206040516b09b18ab5df7180b6b80000008152f35b346102b15760403660031901126102b157600435611f7861247f565b8160005261012d80602052611f94600160406000200154612a8e565b826000528060205260406000209160018060a01b0316918260005260205260ff6040600020541615611fc257005b826000526020526040600020816000526020526040600020600160ff1982541617905533917f2f8788117e7eff1d82e926ec794901d17c78024a50270940304540a733656f0d600080a4005b346102b15760203660031901126102b15760043560005261012d6020526020600160406000200154604051908152f35b346102b15760603660031901126102b157612057612469565b61205f61247f565b6044359060018060a01b038316600052603460205260406000203360005260205260406000205492600019840361209b575b610d359350612938565b8284106120b7576120b283610d35950333836126d3565b612091565b60405162461bcd60e51b815260206004820152601d60248201527f45524332303a20696e73756666696369656e7420616c6c6f77616e63650000006044820152606490fd5b346102b15760203660031901126102b1576004356121186127d5565b61012c811161215b5760407f229952885149023c7b324c7187b4b260b1a8e44dfee2bf619ef6f1296d52706d9161015f90808254925582519182526020820152a1005b60405162461bcd60e51b815260206004820152602260248201527f4275726e2072617465206d757374206265206265747765656e203020616e6420604482015261332560f01b6064820152608490fd5b346102b15760003660031901126102b1576020603554604051908152f35b346102b15760203660031901126102b1576121e26127d5565b6102ef6004353361282d565b346102b15760203660031901126102b157612207612469565b61220f6127d5565b6001600160a01b039081169081156122aa573082146122655761016080546001600160a01b031981168417909155167fd8de49613974de2a8c445f87916a1bbc4d3540d3d0997002f754bb5b10bd2ae4600080a3005b60405162461bcd60e51b815260206004820152601a60248201527f43616e6e6f7420626520636f6e747261637420616464726573730000000000006044820152606490fd5b60405162461bcd60e51b815260206004820152600f60248201526e496e76616c6964206164647265737360881b6044820152606490fd5b346102b15760403660031901126102b157610d356122fd612469565b60243590336126d3565b346102b15760003660031901126102b157604051600060365461232981612529565b80845290602090600190818116908115610eeb5750600114612355576104b585610e97818703826124eb565b6036600090815293506000805160206132bc8339815191525b83851061238a57505050508101602001610e97826104b5610e87565b805486860184015293820193810161236e565b346102b15760003660031901126102b157610160546040516001600160a01b039091168152602090f35b346102b15760203660031901126102b1576004359063ffffffff60e01b82168092036102b157602091637965db0b60e01b8114908115612409575b5015158152f35b6301ffc9a760e01b14905083612402565b60005b83811061242d5750506000910152565b818101518382015260200161241d565b6040916020825261245d815180928160208601526020868601910161241a565b601f01601f1916010190565b600435906001600160a01b03821682036102b157565b602435906001600160a01b03821682036102b157565b6004359081151582036102b157565b6024359081151582036102b157565b6060810190811067ffffffffffffffff8211176109be57604052565b6040810190811067ffffffffffffffff8211176109be57604052565b90601f8019910116810190811067ffffffffffffffff8211176109be57604052565b67ffffffffffffffff81116109be57601f01601f191660200190565b90600182811c92168015612559575b602083101461254357565b634e487b7160e01b600052602260045260246000fd5b91607f1691612538565b1561256a57565b60405162461bcd60e51b815260206004820152602c60248201527f46756e6374696f6e206d7573742062652063616c6c6564207468726f7567682060448201526b19195b1959d85d1958d85b1b60a21b6064820152608490fd5b156125cb57565b60405162461bcd60e51b815260206004820152602c60248201527f46756e6374696f6e206d7573742062652063616c6c6564207468726f7567682060448201526b6163746976652070726f787960a01b6064820152608490fd5b1561262c57565b60405162461bcd60e51b815260206004820152601d60248201527f416d6f756e74206d7573742062652067726561746572207468616e20300000006044820152606490fd5b8181029291811591840414171561086c57565b9190820391821161086c57565b1561269857565b60405162461bcd60e51b815260206004820152601360248201527221b0b73737ba1030b8383937bb329039b2b63360691b6044820152606490fd5b6001600160a01b0390811691821561278457169182156127345760207f8c5be1e5ebec7d5bd14f71427d1e84f3dd0314c0f7b2291e5b200ac8c7c3b925918360005260348252604060002085600052825280604060002055604051908152a3565b60405162461bcd60e51b815260206004820152602260248201527f45524332303a20617070726f766520746f20746865207a65726f206164647265604482015261737360f01b6064820152608490fd5b60405162461bcd60e51b8152602060048201526024808201527f45524332303a20617070726f76652066726f6d20746865207a65726f206164646044820152637265737360e01b6064820152608490fd5b6065546001600160a01b031633036127e957565b606460405162461bcd60e51b815260206004820152602060248201527f4f776e61626c653a2063616c6c6572206973206e6f7420746865206f776e65726044820152fd5b6001600160a01b031680156128e95780600052603360205260406000205491808310612899576020817fddf252ad1be2c89b69c2b068fc378daa952ba7f163c4a11628f55a4df523b3ef92600095858752603384520360408620558060355403603555604051908152a3565b60405162461bcd60e51b815260206004820152602260248201527f45524332303a206275726e20616d6f756e7420657863656564732062616c616e604482015261636560f01b6064820152608490fd5b60405162461bcd60e51b815260206004820152602160248201527f45524332303a206275726e2066726f6d20746865207a65726f206164647265736044820152607360f81b6064820152608490fd5b9060018060a01b039182811660009080825261016160205260ff6040832054168015612a7b575b612a525780825260336020526040822054600581029080820460051490151715612a67576103e8900468056bc75e2d63100000808210612a5f575b508610612a52576101665490858216908115612a45578103612a155750505b8015612a0957846127106129d3612a0293612a0798612671565b04946129f76129f08760011c976129ea8982612684565b94612684565b968561282d565b610160541683612f5a565b612f5a565b565b50612a07939250612f5a565b84861603612a3a5760a01c60ff16159050612a32576106406129b9565b6101906129b9565b505061015f546129b9565b5050505061015f546129b9565b5050612a07939250612f5a565b90503861299a565b634e487b7160e01b83526011600452602483fd5b50848416825260ff60408320541661295f565b600081815260209061012d8252604092838220338352835260ff848320541615612ab85750505050565b33908451612ac5816124b3565b602a81528481019186368437815115612d8c576030835381519360019460011015612d78576078602184015360295b858111612d0e5750612ccc578651936080850185811067ffffffffffffffff821117612cb857885260428552868501956060368837855115612ca45760308753855160011015612ca45790607860218701536041915b818311612c3657505050612bf457938593612bda93612bcb604894612ba27f416363657373436f6e74726f6c3a206163636f756e742000000000000000000099612bf09b519a8b97880152518092603788019061241a565b8401917001034b99036b4b9b9b4b733903937b6329607d1b60378401525180938684019061241a565b010360288101855201836124eb565b5162461bcd60e51b81529182916004830161243d565b0390fd5b60648587519062461bcd60e51b825280600483015260248201527f537472696e67733a20686578206c656e67746820696e73756666696369656e746044820152fd5b909192600f81166010811015612c90576f181899199a1a9b1b9c1cb0b131b232b360811b901a612c668589613203565b5360041c928015612c7c57600019019190612b4a565b634e487b7160e01b82526011600452602482fd5b634e487b7160e01b83526032600452602483fd5b634e487b7160e01b81526032600452602490fd5b634e487b7160e01b87526041600452602487fd5b60648688519062461bcd60e51b825280600483015260248201527f537472696e67733a20686578206c656e67746820696e73756666696369656e746044820152fd5b90600f81166010811015612d64576f181899199a1a9b1b9c1cb0b131b232b360811b901a612d3c8386613203565b5360041c908015612d505760001901612af4565b634e487b7160e01b87526011600452602487fd5b634e487b7160e01b88526032600452602488fd5b634e487b7160e01b86526032600452602486fd5b634e487b7160e01b85526032600452602485fd5b6001600160a01b031660008181527fa581b17bfc4d6578e300cafbf34fd2dc1fef0270d8c73f88a99dcde2859a6639602052604081205490919061012d9060ff1615612deb57505050565b8280526020526040822081835260205260408220600160ff1982541617905533917f2f8788117e7eff1d82e926ec794901d17c78024a50270940304540a733656f0d8180a4565b6001600160a01b031660008181527ff7eb0daba1366a953481591555412f50097a7418b48cd07b54c80a4fe83e658460205260408120549091906000805160206132dc8339815191529061012d9060ff1615612e8f575b50505050565b8184526020526040832082845260205260408320600160ff198254161790557f2f8788117e7eff1d82e926ec794901d17c78024a50270940304540a733656f0d339380a438808080612e89565b9060009180835261012d80602052604084209260018060a01b03169283855260205260ff604085205416612f105750505050565b818452602052604083208284526020526040832060ff1981541690557ff6391f5c32d9c69d2a47ea670b442974b53935d1edc7fd64eb21e047a839171b339380a438808080612e89565b6001600160a01b0390811691821561307757169182156130265760008281526033602052604081205491808310612fd257604082827fddf252ad1be2c89b69c2b068fc378daa952ba7f163c4a11628f55a4df523b3ef95876020965260338652038282205586815220818154019055604051908152a3565b60405162461bcd60e51b815260206004820152602660248201527f45524332303a207472616e7366657220616d6f756e7420657863656564732062604482015265616c616e636560d01b6064820152608490fd5b60405162461bcd60e51b815260206004820152602360248201527f45524332303a207472616e7366657220746f20746865207a65726f206164647260448201526265737360e81b6064820152608490fd5b60405162461bcd60e51b815260206004820152602560248201527f45524332303a207472616e736665722066726f6d20746865207a65726f206164604482015264647265737360d81b6064820152608490fd5b606580546001600160a01b039283166001600160a01b0319821681179092559091167f8be0079c531659141344cd1fd0a4f28419497f9722a3daafe3b4186f6b6457e0600080a3565b1561311a57565b60405162461bcd60e51b815260206004820152602b60248201527f496e697469616c697a61626c653a20636f6e7472616374206973206e6f74206960448201526a6e697469616c697a696e6760a81b6064820152608490fd5b803b156131a8576000805160206132fc83398151915280546001600160a01b0319166001600160a01b03909216919091179055565b60405162461bcd60e51b815260206004820152602d60248201527f455243313936373a206e657720696d706c656d656e746174696f6e206973206e60448201526c1bdd08184818dbdb9d1c9858dd609a1b6064820152608490fd5b908151811015613214570160200190565b634e487b7160e01b600052603260045260246000fd5b9192901561328c575081511561323e575090565b3b156132475790565b60405162461bcd60e51b815260206004820152601d60248201527f416464726573733a2063616c6c20746f206e6f6e2d636f6e74726163740000006044820152606490fd5b82519091501561329f5750805190602001fd5b60405162461bcd60e51b8152908190612bf0906004830161243d56fe4a11f94e20a93c79f6ec743a1954ec4fc2c08429ae2122118bf234b2185c81b871e15edd14fd3418eb6412e352e9213f5344899ecebf19a3e57e7d605e2472b2360894a13ba1a3210667c828492db98dca3e2076cc3735a920a3ca505d382bbc42a7b7dd785cd69714a189dffb3fd7d7174edc9ece837694ce50f7078f7c31aea2646970667358221220b7c1571576d7f90eeb0f6e79b45237466bdb30cbcdf8d806c19e9c789fcd6bff64736f6c63430008190033","opcodes":"PUSH1 0xC0 DUP1 PUSH1 0x40 MSTORE CALLVALUE PUSH2 0xF0 JUMPI ADDRESS PUSH1 0x80 MSTORE CALLER PUSH1 0xA0 MSTORE PUSH1 0x0 SLOAD SWAP1 PUSH1 0xFF DUP3 PUSH1 0x8 SHR AND PUSH2 0x9E JUMPI POP PUSH1 0xFF DUP1 DUP3 AND SUB PUSH2 0x63 JUMPI JUMPDEST PUSH1 0x40 MLOAD PUSH2 0x3371 SWAP1 DUP2 PUSH2 0xF6 DUP3 CODECOPY PUSH1 0x80 MLOAD DUP2 DUP2 DUP2 PUSH2 0x1483 ADD MSTORE DUP2 DUP2 PUSH2 0x17C6 ADD MSTORE PUSH2 0x1BC5 ADD MSTORE PUSH1 0xA0 MLOAD DUP2 DUP2 DUP2 PUSH2 0x5E2 ADD MSTORE PUSH2 0xE19 ADD MSTORE RETURN JUMPDEST PUSH1 0xFF SWAP1 DUP2 NOT AND OR PUSH1 0x0 SSTORE PUSH32 0x7F26B83FF96E1F2B6A682F133852F6798A09C465DA95921460CEFB3847402498 PUSH1 0x20 PUSH1 0x40 MLOAD PUSH1 0xFF DUP2 MSTORE LOG1 CODESIZE PUSH2 0x2D JUMP JUMPDEST PUSH3 0x461BCD PUSH1 0xE5 SHL DUP2 MSTORE PUSH1 0x20 PUSH1 0x4 DUP3 ADD MSTORE PUSH1 0x27 PUSH1 0x24 DUP3 ADD MSTORE PUSH32 0x496E697469616C697A61626C653A20636F6E747261637420697320696E697469 PUSH1 0x44 DUP3 ADD MSTORE PUSH7 0x616C697A696E67 PUSH1 0xC8 SHL PUSH1 0x64 DUP3 ADD MSTORE PUSH1 0x84 SWAP1 REVERT JUMPDEST PUSH1 0x0 DUP1 REVERT INVALID PUSH1 0x80 DUP1 PUSH1 0x40 MSTORE PUSH1 0x4 CALLDATASIZE LT ISZERO PUSH2 0x13 JUMPI PUSH1 0x0 DUP1 REVERT JUMPDEST PUSH1 0x0 CALLDATALOAD PUSH1 0xE0 SHR SWAP1 DUP2 PUSH4 0x1FFC9A7 EQ PUSH2 0x23C7 JUMPI POP DUP1 PUSH4 0x58A80E6 EQ PUSH2 0x239D JUMPI DUP1 PUSH4 0x6FDDE03 EQ PUSH2 0x2307 JUMPI DUP1 PUSH4 0x95EA7B3 EQ PUSH2 0x22E1 JUMPI DUP1 PUSH4 0x12427BAE EQ PUSH2 0x21EE JUMPI DUP1 PUSH4 0x14DDC354 EQ PUSH2 0x21C9 JUMPI DUP1 PUSH4 0x18160DDD EQ PUSH2 0x21AB JUMPI DUP1 PUSH4 0x189D165E EQ PUSH2 0x20FC JUMPI DUP1 PUSH4 0x23B872DD EQ PUSH2 0x203E JUMPI DUP1 PUSH4 0x248A9CA3 EQ PUSH2 0x200E JUMPI DUP1 PUSH4 0x2F2FF15D EQ PUSH2 0x1F5C JUMPI DUP1 PUSH4 0x2FF2E9DC EQ PUSH2 0x1F35 JUMPI DUP1 PUSH4 0x313CE567 EQ PUSH2 0x1F19 JUMPI DUP1 PUSH4 0x36568ABE EQ PUSH2 0x1E87 JUMPI DUP1 PUSH4 0x3659CFE6 EQ PUSH2 0x1BA0 JUMPI DUP1 PUSH4 0x39509351 EQ PUSH2 0x1B4E JUMPI DUP1 PUSH4 0x400EE06F EQ PUSH2 0x1B0D JUMPI DUP1 PUSH4 0x42BCEF5A EQ PUSH2 0x1AF0 JUMPI DUP1 PUSH4 0x4F1EF286 EQ PUSH2 0x174A JUMPI DUP1 PUSH4 0x4F39CD24 EQ PUSH2 0x15BA JUMPI DUP1 PUSH4 0x50B65414 EQ PUSH2 0x157A JUMPI DUP1 PUSH4 0x52328AA5 EQ PUSH2 0x155B JUMPI DUP1 PUSH4 0x52545C2A EQ PUSH2 0x1534 JUMPI DUP1 PUSH4 0x52D1902D EQ PUSH2 0x1470 JUMPI DUP1 PUSH4 0x6257192B EQ PUSH2 0x13A6 JUMPI DUP1 PUSH4 0x671A07ED EQ PUSH2 0x1263 JUMPI DUP1 PUSH4 0x6E637CC5 EQ PUSH2 0x1223 JUMPI DUP1 PUSH4 0x70A08231 EQ PUSH2 0x11E9 JUMPI DUP1 PUSH4 0x715018A6 EQ PUSH2 0x118C JUMPI DUP1 PUSH4 0x72E90ACF EQ PUSH2 0x1168 JUMPI DUP1 PUSH4 0x7BA287EC EQ PUSH2 0x1098 JUMPI DUP1 PUSH4 0x8DA5CB5B EQ PUSH2 0x106F JUMPI DUP1 PUSH4 0x8F762409 EQ PUSH2 0xFC1 JUMPI DUP1 PUSH4 0x91D14854 EQ PUSH2 0xF73 JUMPI DUP1 PUSH4 0x92FCFF90 EQ PUSH2 0xF32 JUMPI DUP1 PUSH4 0x9476D34C EQ PUSH2 0xF15 JUMPI DUP1 PUSH4 0x95D89B41 EQ PUSH2 0xE48 JUMPI DUP1 PUSH4 0x9E85F9AA EQ PUSH2 0xE03 JUMPI DUP1 PUSH4 0xA217FDDF EQ PUSH2 0xDE7 JUMPI DUP1 PUSH4 0xA457C2D7 EQ PUSH2 0xD40 JUMPI DUP1 PUSH4 0xA9059CBB EQ PUSH2 0xD0F JUMPI DUP1 PUSH4 0xAE36F5C8 EQ PUSH2 0xC8D JUMPI DUP1 PUSH4 0xBEBC2145 EQ PUSH2 0xC69 JUMPI DUP1 PUSH4 0xC0C53B8B EQ PUSH2 0x573 JUMPI DUP1 PUSH4 0xC8F50B4C EQ PUSH2 0x54A JUMPI DUP1 PUSH4 0xCC244E14 EQ PUSH2 0x523 JUMPI DUP1 PUSH4 0xD33219B4 EQ PUSH2 0x4F9 JUMPI DUP1 PUSH4 0xD547741F EQ PUSH2 0x4B9 JUMPI DUP1 PUSH4 0xD7E84FBF EQ PUSH2 0x46E JUMPI DUP1 PUSH4 0xDD62ED3E EQ PUSH2 0x41D JUMPI DUP1 PUSH4 0xEBF17390 EQ PUSH2 0x36F JUMPI DUP1 PUSH4 0xF242AB41 EQ PUSH2 0x345 JUMPI DUP1 PUSH4 0xF2FDE38B EQ PUSH2 0x2B6 JUMPI PUSH4 0xFDA49E40 EQ PUSH2 0x271 JUMPI PUSH1 0x0 DUP1 REVERT JUMPDEST CALLVALUE PUSH2 0x2B1 JUMPI PUSH1 0x20 CALLDATASIZE PUSH1 0x3 NOT ADD SLT PUSH2 0x2B1 JUMPI PUSH1 0x1 PUSH1 0x1 PUSH1 0xA0 SHL SUB PUSH2 0x292 PUSH2 0x2469 JUMP JUMPDEST AND PUSH1 0x0 MSTORE PUSH2 0x163 PUSH1 0x20 MSTORE PUSH1 0x20 PUSH1 0xFF PUSH1 0x40 PUSH1 0x0 KECCAK256 SLOAD AND PUSH1 0x40 MLOAD SWAP1 ISZERO ISZERO DUP2 MSTORE RETURN JUMPDEST PUSH1 0x0 DUP1 REVERT JUMPDEST CALLVALUE PUSH2 0x2B1 JUMPI PUSH1 0x20 CALLDATASIZE PUSH1 0x3 NOT ADD SLT PUSH2 0x2B1 JUMPI PUSH2 0x2CF PUSH2 0x2469 JUMP JUMPDEST PUSH2 0x2D7 PUSH2 0x27D5 JUMP JUMPDEST PUSH1 0x1 PUSH1 0x1 PUSH1 0xA0 SHL SUB DUP2 AND ISZERO PUSH2 0x2F1 JUMPI PUSH2 0x2EF SWAP1 PUSH2 0x30CA JUMP JUMPDEST STOP JUMPDEST PUSH1 0x40 MLOAD PUSH3 0x461BCD PUSH1 0xE5 SHL DUP2 MSTORE PUSH1 0x20 PUSH1 0x4 DUP3 ADD MSTORE PUSH1 0x26 PUSH1 0x24 DUP3 ADD MSTORE PUSH32 0x4F776E61626C653A206E6577206F776E657220697320746865207A65726F2061 PUSH1 0x44 DUP3 ADD MSTORE PUSH6 0x646472657373 PUSH1 0xD0 SHL PUSH1 0x64 DUP3 ADD MSTORE PUSH1 0x84 SWAP1 REVERT JUMPDEST CALLVALUE PUSH2 0x2B1 JUMPI PUSH1 0x0 CALLDATASIZE PUSH1 0x3 NOT ADD SLT PUSH2 0x2B1 JUMPI PUSH2 0x166 SLOAD PUSH1 0x40 MLOAD PUSH1 0x1 PUSH1 0x1 PUSH1 0xA0 SHL SUB SWAP1 SWAP2 AND DUP2 MSTORE PUSH1 0x20 SWAP1 RETURN JUMPDEST CALLVALUE PUSH2 0x2B1 JUMPI PUSH1 0x40 CALLDATASIZE PUSH1 0x3 NOT ADD SLT PUSH2 0x2B1 JUMPI PUSH2 0x388 PUSH2 0x2469 JUMP JUMPDEST PUSH2 0x390 PUSH2 0x24A4 JUMP JUMPDEST SWAP1 PUSH2 0x399 PUSH2 0x27D5 JUMP JUMPDEST PUSH1 0x1 PUSH1 0x1 PUSH1 0xA0 SHL SUB AND SWAP1 DUP2 ISZERO PUSH2 0x3D8 JUMPI PUSH2 0x2EF SWAP2 PUSH2 0x3B9 ADDRESS DUP3 EQ ISZERO PUSH2 0x2691 JUMP JUMPDEST PUSH1 0x0 MSTORE PUSH2 0x163 PUSH1 0x20 MSTORE PUSH1 0x40 PUSH1 0x0 KECCAK256 SWAP1 PUSH1 0xFF DUP1 NOT DUP4 SLOAD AND SWAP2 ISZERO ISZERO AND OR SWAP1 SSTORE JUMP JUMPDEST PUSH1 0x40 MLOAD PUSH3 0x461BCD PUSH1 0xE5 SHL DUP2 MSTORE PUSH1 0x20 PUSH1 0x4 DUP3 ADD MSTORE PUSH1 0x18 PUSH1 0x24 DUP3 ADD MSTORE PUSH32 0x496E76616C696420706C6174666F726D20616464726573730000000000000000 PUSH1 0x44 DUP3 ADD MSTORE PUSH1 0x64 SWAP1 REVERT JUMPDEST CALLVALUE PUSH2 0x2B1 JUMPI PUSH1 0x40 CALLDATASIZE PUSH1 0x3 NOT ADD SLT PUSH2 0x2B1 JUMPI PUSH2 0x436 PUSH2 0x2469 JUMP JUMPDEST PUSH2 0x43E PUSH2 0x247F JUMP JUMPDEST SWAP1 PUSH1 0x1 DUP1 PUSH1 0xA0 SHL SUB DUP1 SWAP2 AND PUSH1 0x0 MSTORE PUSH1 0x34 PUSH1 0x20 MSTORE PUSH1 0x40 PUSH1 0x0 KECCAK256 SWAP2 AND PUSH1 0x0 MSTORE PUSH1 0x20 MSTORE PUSH1 0x20 PUSH1 0x40 PUSH1 0x0 KECCAK256 SLOAD PUSH1 0x40 MLOAD SWAP1 DUP2 MSTORE RETURN JUMPDEST CALLVALUE PUSH2 0x2B1 JUMPI PUSH1 0x0 CALLDATASIZE PUSH1 0x3 NOT ADD SLT PUSH2 0x2B1 JUMPI PUSH2 0x4B5 PUSH1 0x40 MLOAD PUSH2 0x48E DUP2 PUSH2 0x24CF JUMP JUMPDEST PUSH1 0xE DUP2 MSTORE PUSH14 0x544F50415920444556205445414D PUSH1 0x90 SHL PUSH1 0x20 DUP3 ADD MSTORE PUSH1 0x40 MLOAD SWAP2 DUP3 SWAP2 DUP3 PUSH2 0x243D JUMP JUMPDEST SUB SWAP1 RETURN JUMPDEST CALLVALUE PUSH2 0x2B1 JUMPI PUSH1 0x40 CALLDATASIZE PUSH1 0x3 NOT ADD SLT PUSH2 0x2B1 JUMPI PUSH2 0x2EF PUSH1 0x4 CALLDATALOAD PUSH2 0x4D8 PUSH2 0x247F JUMP JUMPDEST SWAP1 DUP1 PUSH1 0x0 MSTORE PUSH2 0x12D PUSH1 0x20 MSTORE PUSH2 0x4F4 PUSH1 0x1 PUSH1 0x40 PUSH1 0x0 KECCAK256 ADD SLOAD PUSH2 0x2A8E JUMP JUMPDEST PUSH2 0x2EDC JUMP JUMPDEST CALLVALUE PUSH2 0x2B1 JUMPI PUSH1 0x0 CALLDATASIZE PUSH1 0x3 NOT ADD SLT PUSH2 0x2B1 JUMPI PUSH2 0x165 SLOAD PUSH1 0x40 MLOAD PUSH1 0x1 PUSH1 0x1 PUSH1 0xA0 SHL SUB SWAP1 SWAP2 AND DUP2 MSTORE PUSH1 0x20 SWAP1 RETURN JUMPDEST CALLVALUE PUSH2 0x2B1 JUMPI PUSH1 0x0 CALLDATASIZE PUSH1 0x3 NOT ADD SLT PUSH2 0x2B1 JUMPI PUSH1 0x20 PUSH1 0xFF PUSH2 0x165 SLOAD PUSH1 0xA0 SHR AND PUSH1 0x40 MLOAD SWAP1 ISZERO ISZERO DUP2 MSTORE RETURN JUMPDEST CALLVALUE PUSH2 0x2B1 JUMPI PUSH1 0x0 CALLDATASIZE PUSH1 0x3 NOT ADD SLT PUSH2 0x2B1 JUMPI PUSH1 0x20 PUSH1 0x40 MLOAD PUSH1 0x0 DUP1 MLOAD PUSH1 0x20 PUSH2 0x32DC DUP4 CODECOPY DUP2 MLOAD SWAP2 MSTORE DUP2 MSTORE RETURN JUMPDEST CALLVALUE PUSH2 0x2B1 JUMPI PUSH1 0x60 CALLDATASIZE PUSH1 0x3 NOT ADD SLT PUSH2 0x2B1 JUMPI PUSH2 0x58C PUSH2 0x2469 JUMP JUMPDEST PUSH2 0x594 PUSH2 0x247F JUMP JUMPDEST PUSH1 0x44 CALLDATALOAD PUSH1 0x1 PUSH1 0x1 PUSH1 0xA0 SHL SUB DUP2 DUP2 AND SWAP4 SWAP3 SWAP2 DUP5 SWAP1 SUB PUSH2 0x2B1 JUMPI PUSH1 0x0 SLOAD SWAP4 PUSH1 0xFF DUP6 PUSH1 0x8 SHR AND ISZERO SWAP5 DUP6 DUP1 SWAP7 PUSH2 0xC5C JUMPI JUMPDEST DUP1 ISZERO PUSH2 0xC45 JUMPI JUMPDEST ISZERO PUSH2 0xBE9 JUMPI PUSH1 0xFF NOT DUP2 AND PUSH1 0x1 OR PUSH1 0x0 SSTORE DUP6 PUSH2 0xBD7 JUMPI JUMPDEST POP DUP2 PUSH32 0x0 AND CALLER SUB PUSH2 0xB92 JUMPI DUP2 DUP5 AND ISZERO PUSH2 0xB4D JUMPI DUP2 DUP4 AND ISZERO PUSH2 0xB08 JUMPI ISZERO PUSH2 0xACB JUMPI PUSH1 0x40 MLOAD PUSH2 0x629 DUP2 PUSH2 0x24CF JUMP JUMPDEST PUSH1 0xB DUP2 MSTORE PUSH11 0x242CA822AC902A37B5B2B7 PUSH1 0xA9 SHL PUSH1 0x20 DUP3 ADD MSTORE PUSH1 0x40 MLOAD SWAP1 PUSH2 0x64E DUP3 PUSH2 0x24CF JUMP JUMPDEST PUSH1 0x5 DUP3 MSTORE PUSH5 0x4859504559 PUSH1 0xD8 SHL PUSH1 0x20 DUP4 ADD MSTORE PUSH2 0x67A PUSH1 0xFF PUSH1 0x0 SLOAD PUSH1 0x8 SHR AND PUSH2 0x675 DUP2 PUSH2 0x3113 JUMP JUMPDEST PUSH2 0x3113 JUMP JUMPDEST DUP1 MLOAD SWAP1 PUSH8 0xFFFFFFFFFFFFFFFF DUP3 GT PUSH2 0x9BE JUMPI DUP2 SWAP1 PUSH2 0x699 PUSH1 0x36 SLOAD PUSH2 0x2529 JUMP JUMPDEST PUSH1 0x1F DUP2 GT PUSH2 0xA57 JUMPI JUMPDEST POP PUSH1 0x20 SWAP1 PUSH1 0x1F DUP4 GT PUSH1 0x1 EQ PUSH2 0x9DF JUMPI PUSH1 0x0 SWAP3 PUSH2 0x9D4 JUMPI JUMPDEST POP POP DUP2 PUSH1 0x1 SHL SWAP2 PUSH1 0x0 NOT SWAP1 PUSH1 0x3 SHL SHR NOT AND OR PUSH1 0x36 SSTORE JUMPDEST DUP1 MLOAD SWAP1 PUSH8 0xFFFFFFFFFFFFFFFF DUP3 GT PUSH2 0x9BE JUMPI DUP2 SWAP1 PUSH2 0x6EE PUSH1 0x37 SLOAD PUSH2 0x2529 JUMP JUMPDEST PUSH1 0x1F DUP2 GT PUSH2 0x94A JUMPI JUMPDEST POP PUSH1 0x20 SWAP1 PUSH1 0x1F DUP4 GT PUSH1 0x1 EQ PUSH2 0x8D2 JUMPI PUSH1 0x0 SWAP3 PUSH2 0x8C7 JUMPI JUMPDEST POP POP DUP2 PUSH1 0x1 SHL SWAP2 PUSH1 0x0 NOT SWAP1 PUSH1 0x3 SHL SHR NOT AND OR PUSH1 0x37 SSTORE JUMPDEST PUSH2 0x739 PUSH1 0xFF PUSH1 0x0 SLOAD PUSH1 0x8 SHR AND PUSH2 0x675 DUP2 PUSH2 0x3113 JUMP JUMPDEST PUSH2 0x742 CALLER PUSH2 0x30CA JUMP JUMPDEST PUSH2 0x757 PUSH1 0xFF PUSH1 0x0 SLOAD PUSH1 0x8 SHR AND PUSH2 0x675 DUP2 PUSH2 0x3113 JUMP JUMPDEST PUSH2 0x762 PUSH1 0x44 CALLDATALOAD PUSH2 0x30CA JUMP JUMPDEST PUSH2 0x76D PUSH1 0x44 CALLDATALOAD PUSH2 0x2DA0 JUMP JUMPDEST PUSH2 0x778 PUSH1 0x44 CALLDATALOAD PUSH2 0x2E32 JUMP JUMPDEST PUSH2 0x781 DUP3 PUSH2 0x2DA0 JUMP JUMPDEST PUSH2 0x78A DUP3 PUSH2 0x2E32 JUMP JUMPDEST PUSH12 0xFFFFFFFFFFFFFFFFFFFFFFFF PUSH1 0xA0 SHL SWAP2 DUP2 PUSH2 0x165 SWAP2 AND DUP4 DUP3 SLOAD AND OR SWAP1 SSTORE PUSH2 0x160 SWAP3 AND SWAP1 DUP3 SLOAD AND OR SWAP1 SSTORE PUSH1 0x64 PUSH2 0x15F SSTORE ADDRESS ISZERO PUSH2 0x882 JUMPI PUSH1 0x35 SLOAD PUSH12 0x9B18AB5DF7180B6B8000000 SWAP1 DUP2 DUP2 ADD DUP1 SWAP2 GT PUSH2 0x86C JUMPI PUSH1 0x35 SSTORE ADDRESS PUSH1 0x0 MSTORE PUSH1 0x33 PUSH1 0x20 MSTORE PUSH1 0x40 PUSH1 0x0 KECCAK256 DUP2 DUP2 SLOAD ADD SWAP1 SSTORE PUSH1 0x40 MLOAD SWAP1 DUP2 MSTORE PUSH1 0x0 PUSH32 0xDDF252AD1BE2C89B69C2B068FC378DAA952BA7F163C4A11628F55A4DF523B3EF PUSH1 0x20 ADDRESS SWAP4 LOG3 PUSH2 0x162 DUP1 SLOAD PUSH1 0xFF NOT AND PUSH1 0x1 OR SWAP1 SSTORE PUSH2 0x834 JUMPI STOP JUMPDEST PUSH2 0xFF00 NOT PUSH1 0x0 SLOAD AND PUSH1 0x0 SSTORE PUSH32 0x7F26B83FF96E1F2B6A682F133852F6798A09C465DA95921460CEFB3847402498 PUSH1 0x20 PUSH1 0x40 MLOAD PUSH1 0x1 DUP2 MSTORE LOG1 STOP JUMPDEST PUSH4 0x4E487B71 PUSH1 0xE0 SHL PUSH1 0x0 MSTORE PUSH1 0x11 PUSH1 0x4 MSTORE PUSH1 0x24 PUSH1 0x0 REVERT JUMPDEST PUSH1 0x40 MLOAD PUSH3 0x461BCD PUSH1 0xE5 SHL DUP2 MSTORE PUSH1 0x20 PUSH1 0x4 DUP3 ADD MSTORE PUSH1 0x1F PUSH1 0x24 DUP3 ADD MSTORE PUSH32 0x45524332303A206D696E7420746F20746865207A65726F206164647265737300 PUSH1 0x44 DUP3 ADD MSTORE PUSH1 0x64 SWAP1 REVERT JUMPDEST ADD MLOAD SWAP1 POP DUP7 DUP1 PUSH2 0x70E JUMP JUMPDEST SWAP3 POP PUSH1 0x37 PUSH1 0x0 MSTORE PUSH1 0x0 DUP1 MLOAD PUSH1 0x20 PUSH2 0x331C DUP4 CODECOPY DUP2 MLOAD SWAP2 MSTORE SWAP1 PUSH1 0x0 SWAP4 JUMPDEST PUSH1 0x1F NOT DUP5 AND DUP6 LT PUSH2 0x92F JUMPI PUSH1 0x1 SWAP5 POP DUP4 PUSH1 0x1F NOT DUP2 AND LT PUSH2 0x916 JUMPI JUMPDEST POP POP POP DUP2 SHL ADD PUSH1 0x37 SSTORE PUSH2 0x724 JUMP JUMPDEST ADD MLOAD PUSH1 0x0 NOT PUSH1 0xF8 DUP5 PUSH1 0x3 SHL AND SHR NOT AND SWAP1 SSTORE DUP7 DUP1 DUP1 PUSH2 0x908 JUMP JUMPDEST DUP2 DUP2 ADD MLOAD DUP4 SSTORE PUSH1 0x20 SWAP5 DUP6 ADD SWAP5 PUSH1 0x1 SWAP1 SWAP4 ADD SWAP3 SWAP1 SWAP2 ADD SWAP1 PUSH2 0x8ED JUMP JUMPDEST SWAP1 SWAP2 POP PUSH1 0x37 PUSH1 0x0 MSTORE PUSH1 0x1F DUP4 ADD PUSH1 0x5 SHR PUSH1 0x0 DUP1 MLOAD PUSH1 0x20 PUSH2 0x331C DUP4 CODECOPY DUP2 MLOAD SWAP2 MSTORE ADD PUSH1 0x20 DUP5 LT PUSH2 0x9A9 JUMPI JUMPDEST SWAP1 DUP4 SWAP3 SWAP2 JUMPDEST PUSH1 0x1F DUP3 ADD PUSH1 0x5 SHR PUSH1 0x0 DUP1 MLOAD PUSH1 0x20 PUSH2 0x331C DUP4 CODECOPY DUP2 MLOAD SWAP2 MSTORE ADD DUP2 LT PUSH2 0x99A JUMPI POP PUSH2 0x6F7 JUMP JUMPDEST PUSH1 0x0 DUP2 SSTORE DUP5 SWAP4 POP PUSH1 0x1 ADD PUSH2 0x977 JUMP JUMPDEST POP PUSH1 0x0 DUP1 MLOAD PUSH1 0x20 PUSH2 0x331C DUP4 CODECOPY DUP2 MLOAD SWAP2 MSTORE PUSH2 0x972 JUMP JUMPDEST PUSH4 0x4E487B71 PUSH1 0xE0 SHL PUSH1 0x0 MSTORE PUSH1 0x41 PUSH1 0x4 MSTORE PUSH1 0x24 PUSH1 0x0 REVERT JUMPDEST ADD MLOAD SWAP1 POP DUP8 DUP1 PUSH2 0x6B9 JUMP JUMPDEST SWAP3 POP PUSH1 0x36 PUSH1 0x0 MSTORE PUSH1 0x0 DUP1 MLOAD PUSH1 0x20 PUSH2 0x32BC DUP4 CODECOPY DUP2 MLOAD SWAP2 MSTORE SWAP1 PUSH1 0x0 SWAP4 JUMPDEST PUSH1 0x1F NOT DUP5 AND DUP6 LT PUSH2 0xA3C JUMPI PUSH1 0x1 SWAP5 POP DUP4 PUSH1 0x1F NOT DUP2 AND LT PUSH2 0xA23 JUMPI JUMPDEST POP POP POP DUP2 SHL ADD PUSH1 0x36 SSTORE PUSH2 0x6CF JUMP JUMPDEST ADD MLOAD PUSH1 0x0 NOT PUSH1 0xF8 DUP5 PUSH1 0x3 SHL AND SHR NOT AND SWAP1 SSTORE DUP8 DUP1 DUP1 PUSH2 0xA15 JUMP JUMPDEST DUP2 DUP2 ADD MLOAD DUP4 SSTORE PUSH1 0x20 SWAP5 DUP6 ADD SWAP5 PUSH1 0x1 SWAP1 SWAP4 ADD SWAP3 SWAP1 SWAP2 ADD SWAP1 PUSH2 0x9FA JUMP JUMPDEST SWAP1 SWAP2 POP PUSH1 0x36 PUSH1 0x0 MSTORE PUSH1 0x1F DUP4 ADD PUSH1 0x5 SHR PUSH1 0x0 DUP1 MLOAD PUSH1 0x20 PUSH2 0x32BC DUP4 CODECOPY DUP2 MLOAD SWAP2 MSTORE ADD PUSH1 0x20 DUP5 LT PUSH2 0xAB6 JUMPI JUMPDEST SWAP1 DUP4 SWAP3 SWAP2 JUMPDEST PUSH1 0x1F DUP3 ADD PUSH1 0x5 SHR PUSH1 0x0 DUP1 MLOAD PUSH1 0x20 PUSH2 0x32BC DUP4 CODECOPY DUP2 MLOAD SWAP2 MSTORE ADD DUP2 LT PUSH2 0xAA7 JUMPI POP PUSH2 0x6A2 JUMP JUMPDEST PUSH1 0x0 DUP2 SSTORE DUP5 SWAP4 POP PUSH1 0x1 ADD PUSH2 0xA84 JUMP JUMPDEST POP PUSH1 0x0 DUP1 MLOAD PUSH1 0x20 PUSH2 0x32BC DUP4 CODECOPY DUP2 MLOAD SWAP2 MSTORE PUSH2 0xA7F JUMP JUMPDEST PUSH1 0x40 MLOAD PUSH3 0x461BCD PUSH1 0xE5 SHL DUP2 MSTORE PUSH1 0x20 PUSH1 0x4 DUP3 ADD MSTORE PUSH1 0x15 PUSH1 0x24 DUP3 ADD MSTORE PUSH21 0x24B73B30B634B21034B734BA34B0B61037BBB732B9 PUSH1 0x59 SHL PUSH1 0x44 DUP3 ADD MSTORE PUSH1 0x64 SWAP1 REVERT JUMPDEST PUSH1 0x40 MLOAD PUSH3 0x461BCD PUSH1 0xE5 SHL DUP2 MSTORE PUSH1 0x20 PUSH1 0x4 DUP3 ADD MSTORE PUSH1 0x18 PUSH1 0x24 DUP3 ADD MSTORE PUSH32 0x496E76616C69642074696D656C6F636B20616464726573730000000000000000 PUSH1 0x44 DUP3 ADD MSTORE PUSH1 0x64 SWAP1 REVERT JUMPDEST PUSH1 0x40 MLOAD PUSH3 0x461BCD PUSH1 0xE5 SHL DUP2 MSTORE PUSH1 0x20 PUSH1 0x4 DUP3 ADD MSTORE PUSH1 0x1C PUSH1 0x24 DUP3 ADD MSTORE PUSH32 0x496E76616C69642072657365727665206275726E206164647265737300000000 PUSH1 0x44 DUP3 ADD MSTORE PUSH1 0x64 SWAP1 REVERT JUMPDEST PUSH1 0x40 MLOAD PUSH3 0x461BCD PUSH1 0xE5 SHL DUP2 MSTORE PUSH1 0x20 PUSH1 0x4 DUP3 ADD MSTORE PUSH1 0x18 PUSH1 0x24 DUP3 ADD MSTORE PUSH32 0x556E617574686F72697A656420696E697469616C697A65720000000000000000 PUSH1 0x44 DUP3 ADD MSTORE PUSH1 0x64 SWAP1 REVERT JUMPDEST PUSH2 0xFFFF NOT AND PUSH2 0x101 OR PUSH1 0x0 SSTORE DUP6 PUSH2 0x5DE JUMP JUMPDEST PUSH1 0x40 MLOAD PUSH3 0x461BCD PUSH1 0xE5 SHL DUP2 MSTORE PUSH1 0x20 PUSH1 0x4 DUP3 ADD MSTORE PUSH1 0x2E PUSH1 0x24 DUP3 ADD MSTORE PUSH32 0x496E697469616C697A61626C653A20636F6E747261637420697320616C726561 PUSH1 0x44 DUP3 ADD MSTORE PUSH14 0x191E481A5B9A5D1A585B1A5E9959 PUSH1 0x92 SHL PUSH1 0x64 DUP3 ADD MSTORE PUSH1 0x84 SWAP1 REVERT JUMPDEST POP ADDRESS EXTCODESIZE ISZERO DUP1 ISZERO PUSH2 0x5C8 JUMPI POP PUSH1 0x1 PUSH1 0xFF DUP3 AND EQ PUSH2 0x5C8 JUMP JUMPDEST POP PUSH1 0x1 PUSH1 0xFF DUP3 AND LT PUSH2 0x5C1 JUMP JUMPDEST CALLVALUE PUSH2 0x2B1 JUMPI PUSH1 0x0 CALLDATASIZE PUSH1 0x3 NOT ADD SLT PUSH2 0x2B1 JUMPI PUSH1 0x20 PUSH1 0xFF PUSH2 0x162 SLOAD AND PUSH1 0x40 MLOAD SWAP1 ISZERO ISZERO DUP2 MSTORE RETURN JUMPDEST CALLVALUE PUSH2 0x2B1 JUMPI PUSH1 0x20 CALLDATASIZE PUSH1 0x3 NOT ADD SLT PUSH2 0x2B1 JUMPI PUSH2 0xCA6 PUSH2 0x2469 JUMP JUMPDEST PUSH2 0xCAE PUSH2 0x27D5 JUMP JUMPDEST PUSH1 0x1 PUSH1 0x1 PUSH1 0xA0 SHL SUB AND DUP1 ISZERO PUSH2 0xCD3 JUMPI PUSH2 0x166 DUP1 SLOAD PUSH1 0x1 PUSH1 0x1 PUSH1 0xA0 SHL SUB NOT AND SWAP1 SWAP2 OR SWAP1 SSTORE STOP JUMPDEST PUSH1 0x40 MLOAD PUSH3 0x461BCD PUSH1 0xE5 SHL DUP2 MSTORE PUSH1 0x20 PUSH1 0x4 DUP3 ADD MSTORE PUSH1 0x14 PUSH1 0x24 DUP3 ADD MSTORE PUSH20 0x496E76616C696420706169722061646472657373 PUSH1 0x60 SHL PUSH1 0x44 DUP3 ADD MSTORE PUSH1 0x64 SWAP1 REVERT JUMPDEST CALLVALUE PUSH2 0x2B1 JUMPI PUSH1 0x40 CALLDATASIZE PUSH1 0x3 NOT ADD SLT PUSH2 0x2B1 JUMPI PUSH2 0xD35 PUSH2 0xD2B PUSH2 0x2469 JUMP JUMPDEST PUSH1 0x24 CALLDATALOAD SWAP1 CALLER PUSH2 0x2938 JUMP JUMPDEST PUSH1 0x20 PUSH1 0x40 MLOAD PUSH1 0x1 DUP2 MSTORE RETURN JUMPDEST CALLVALUE PUSH2 0x2B1 JUMPI PUSH1 0x40 CALLDATASIZE PUSH1 0x3 NOT ADD SLT PUSH2 0x2B1 JUMPI PUSH2 0xD59 PUSH2 0x2469 JUMP JUMPDEST PUSH1 0x24 CALLDATALOAD SWAP1 CALLER PUSH1 0x0 MSTORE PUSH1 0x34 PUSH1 0x20 MSTORE PUSH1 0x40 PUSH1 0x0 KECCAK256 PUSH1 0x1 DUP1 PUSH1 0xA0 SHL SUB DUP3 AND PUSH1 0x0 MSTORE PUSH1 0x20 MSTORE PUSH1 0x40 PUSH1 0x0 KECCAK256 SLOAD SWAP2 DUP1 DUP4 LT PUSH2 0xD94 JUMPI PUSH2 0xD35 SWAP3 SUB SWAP1 CALLER PUSH2 0x26D3 JUMP JUMPDEST PUSH1 0x40 MLOAD PUSH3 0x461BCD PUSH1 0xE5 SHL DUP2 MSTORE PUSH1 0x20 PUSH1 0x4 DUP3 ADD MSTORE PUSH1 0x25 PUSH1 0x24 DUP3 ADD MSTORE PUSH32 0x45524332303A2064656372656173656420616C6C6F77616E63652062656C6F77 PUSH1 0x44 DUP3 ADD MSTORE PUSH5 0x207A65726F PUSH1 0xD8 SHL PUSH1 0x64 DUP3 ADD MSTORE PUSH1 0x84 SWAP1 REVERT JUMPDEST CALLVALUE PUSH2 0x2B1 JUMPI PUSH1 0x0 CALLDATASIZE PUSH1 0x3 NOT ADD SLT PUSH2 0x2B1 JUMPI PUSH1 0x20 PUSH1 0x40 MLOAD PUSH1 0x0 DUP2 MSTORE RETURN JUMPDEST CALLVALUE PUSH2 0x2B1 JUMPI PUSH1 0x0 CALLDATASIZE PUSH1 0x3 NOT ADD SLT PUSH2 0x2B1 JUMPI PUSH1 0x40 MLOAD PUSH32 0x0 PUSH1 0x1 PUSH1 0x1 PUSH1 0xA0 SHL SUB AND DUP2 MSTORE PUSH1 0x20 SWAP1 RETURN JUMPDEST CALLVALUE PUSH2 0x2B1 JUMPI PUSH1 0x0 CALLDATASIZE PUSH1 0x3 NOT ADD SLT PUSH2 0x2B1 JUMPI PUSH1 0x40 MLOAD PUSH1 0x0 PUSH1 0x37 SLOAD PUSH2 0xE6A DUP2 PUSH2 0x2529 JUMP JUMPDEST DUP1 DUP5 MSTORE SWAP1 PUSH1 0x20 SWAP1 PUSH1 0x1 SWAP1 DUP2 DUP2 AND SWAP1 DUP2 ISZERO PUSH2 0xEEB JUMPI POP PUSH1 0x1 EQ PUSH2 0xEA3 JUMPI JUMPDEST PUSH2 0x4B5 DUP6 PUSH2 0xE97 DUP2 DUP8 SUB DUP3 PUSH2 0x24EB JUMP JUMPDEST PUSH1 0x40 MLOAD SWAP2 DUP3 SWAP2 DUP3 PUSH2 0x243D JUMP JUMPDEST PUSH1 0x37 PUSH1 0x0 SWAP1 DUP2 MSTORE SWAP4 POP PUSH1 0x0 DUP1 MLOAD PUSH1 0x20 PUSH2 0x331C DUP4 CODECOPY DUP2 MLOAD SWAP2 MSTORE JUMPDEST DUP4 DUP6 LT PUSH2 0xED8 JUMPI POP POP POP POP DUP2 ADD PUSH1 0x20 ADD PUSH2 0xE97 DUP3 PUSH2 0x4B5 PUSH2 0xE87 JUMP JUMPDEST DUP1 SLOAD DUP7 DUP7 ADD DUP5 ADD MSTORE SWAP4 DUP3 ADD SWAP4 DUP2 ADD PUSH2 0xEBC JUMP JUMPDEST DUP7 SWAP6 POP PUSH2 0x4B5 SWAP7 SWAP4 POP PUSH1 0x20 SWAP3 POP PUSH2 0xE97 SWAP5 SWAP2 POP PUSH1 0xFF NOT AND DUP3 DUP5 ADD MSTORE ISZERO ISZERO PUSH1 0x5 SHL DUP3 ADD ADD SWAP3 SWAP4 PUSH2 0xE87 JUMP JUMPDEST CALLVALUE PUSH2 0x2B1 JUMPI PUSH1 0x0 CALLDATASIZE PUSH1 0x3 NOT ADD SLT PUSH2 0x2B1 JUMPI PUSH1 0x20 PUSH1 0x40 MLOAD PUSH2 0x640 DUP2 MSTORE RETURN JUMPDEST CALLVALUE PUSH2 0x2B1 JUMPI PUSH1 0x20 CALLDATASIZE PUSH1 0x3 NOT ADD SLT PUSH2 0x2B1 JUMPI PUSH2 0xF4B PUSH2 0x2495 JUMP JUMPDEST PUSH2 0xF53 PUSH2 0x27D5 JUMP JUMPDEST PUSH2 0x165 DUP1 SLOAD PUSH1 0xFF PUSH1 0xA0 SHL NOT AND SWAP2 ISZERO ISZERO PUSH1 0xA0 SHL PUSH1 0xFF PUSH1 0xA0 SHL AND SWAP2 SWAP1 SWAP2 OR SWAP1 SSTORE STOP JUMPDEST CALLVALUE PUSH2 0x2B1 JUMPI PUSH1 0x40 CALLDATASIZE PUSH1 0x3 NOT ADD SLT PUSH2 0x2B1 JUMPI PUSH2 0xF8C PUSH2 0x247F JUMP JUMPDEST PUSH1 0x4 CALLDATALOAD PUSH1 0x0 MSTORE PUSH2 0x12D PUSH1 0x20 MSTORE PUSH1 0x40 PUSH1 0x0 KECCAK256 SWAP1 PUSH1 0x1 DUP1 PUSH1 0xA0 SHL SUB AND PUSH1 0x0 MSTORE PUSH1 0x20 MSTORE PUSH1 0x20 PUSH1 0xFF PUSH1 0x40 PUSH1 0x0 KECCAK256 SLOAD AND PUSH1 0x40 MLOAD SWAP1 ISZERO ISZERO DUP2 MSTORE RETURN JUMPDEST CALLVALUE PUSH2 0x2B1 JUMPI PUSH1 0x40 CALLDATASIZE PUSH1 0x3 NOT ADD SLT PUSH2 0x2B1 JUMPI PUSH2 0xFDA PUSH2 0x2469 JUMP JUMPDEST PUSH2 0xFE2 PUSH2 0x24A4 JUMP JUMPDEST SWAP1 PUSH2 0xFEB PUSH2 0x27D5 JUMP JUMPDEST PUSH1 0x1 PUSH1 0x1 PUSH1 0xA0 SHL SUB AND SWAP1 DUP2 ISZERO PUSH2 0x102A JUMPI PUSH2 0x2EF SWAP2 PUSH2 0x100B ADDRESS DUP3 EQ ISZERO PUSH2 0x2691 JUMP JUMPDEST PUSH1 0x0 MSTORE PUSH2 0x164 PUSH1 0x20 MSTORE PUSH1 0x40 PUSH1 0x0 KECCAK256 SWAP1 PUSH1 0xFF DUP1 NOT DUP4 SLOAD AND SWAP2 ISZERO ISZERO AND OR SWAP1 SSTORE JUMP JUMPDEST PUSH1 0x40 MLOAD PUSH3 0x461BCD PUSH1 0xE5 SHL DUP2 MSTORE PUSH1 0x20 PUSH1 0x4 DUP3 ADD MSTORE PUSH1 0x1C PUSH1 0x24 DUP3 ADD MSTORE PUSH32 0x496E76616C6964204E465420636F6E7472616374206164647265737300000000 PUSH1 0x44 DUP3 ADD MSTORE PUSH1 0x64 SWAP1 REVERT JUMPDEST CALLVALUE PUSH2 0x2B1 JUMPI PUSH1 0x0 CALLDATASIZE PUSH1 0x3 NOT ADD SLT PUSH2 0x2B1 JUMPI PUSH1 0x65 SLOAD PUSH1 0x40 MLOAD PUSH1 0x1 PUSH1 0x1 PUSH1 0xA0 SHL SUB SWAP1 SWAP2 AND DUP2 MSTORE PUSH1 0x20 SWAP1 RETURN JUMPDEST CALLVALUE PUSH2 0x2B1 JUMPI PUSH1 0x40 CALLDATASIZE PUSH1 0x3 NOT ADD SLT PUSH2 0x2B1 JUMPI PUSH2 0x10B1 PUSH2 0x2469 JUMP JUMPDEST PUSH1 0x24 CALLDATALOAD PUSH2 0x10BC PUSH2 0x27D5 JUMP JUMPDEST PUSH1 0x1 PUSH1 0x1 PUSH1 0xA0 SHL SUB DUP3 AND ISZERO PUSH2 0x112F JUMPI ADDRESS PUSH1 0x0 MSTORE PUSH1 0x33 PUSH1 0x20 MSTORE DUP1 PUSH1 0x40 PUSH1 0x0 KECCAK256 SLOAD LT PUSH2 0x10EA JUMPI PUSH2 0x2EF SWAP2 ADDRESS PUSH2 0x2F5A JUMP JUMPDEST PUSH1 0x40 MLOAD PUSH3 0x461BCD PUSH1 0xE5 SHL DUP2 MSTORE PUSH1 0x20 PUSH1 0x4 DUP3 ADD MSTORE PUSH1 0x1D PUSH1 0x24 DUP3 ADD MSTORE PUSH32 0x496E73756666696369656E7420636F6E74726163742062616C616E6365000000 PUSH1 0x44 DUP3 ADD MSTORE PUSH1 0x64 SWAP1 REVERT JUMPDEST PUSH1 0x40 MLOAD PUSH3 0x461BCD PUSH1 0xE5 SHL DUP2 MSTORE PUSH1 0x20 PUSH1 0x4 DUP3 ADD MSTORE PUSH1 0x11 PUSH1 0x24 DUP3 ADD MSTORE PUSH17 0x125B9D985B1A59081C9958DA5C1A595B9D PUSH1 0x7A SHL PUSH1 0x44 DUP3 ADD MSTORE PUSH1 0x64 SWAP1 REVERT JUMPDEST CALLVALUE PUSH2 0x2B1 JUMPI PUSH1 0x0 CALLDATASIZE PUSH1 0x3 NOT ADD SLT PUSH2 0x2B1 JUMPI PUSH1 0x20 PUSH1 0x40 MLOAD PUSH9 0x56BC75E2D63100000 DUP2 MSTORE RETURN JUMPDEST CALLVALUE PUSH2 0x2B1 JUMPI PUSH1 0x0 CALLDATASIZE PUSH1 0x3 NOT ADD SLT PUSH2 0x2B1 JUMPI PUSH2 0x11A5 PUSH2 0x27D5 JUMP JUMPDEST PUSH1 0x65 DUP1 SLOAD PUSH1 0x1 PUSH1 0x1 PUSH1 0xA0 SHL SUB NOT DUP2 AND SWAP1 SWAP2 SSTORE PUSH1 0x0 SWAP1 PUSH1 0x1 PUSH1 0x1 PUSH1 0xA0 SHL SUB AND PUSH32 0x8BE0079C531659141344CD1FD0A4F28419497F9722A3DAAFE3B4186F6B6457E0 DUP3 DUP1 LOG3 STOP JUMPDEST CALLVALUE PUSH2 0x2B1 JUMPI PUSH1 0x20 CALLDATASIZE PUSH1 0x3 NOT ADD SLT PUSH2 0x2B1 JUMPI PUSH1 0x1 PUSH1 0x1 PUSH1 0xA0 SHL SUB PUSH2 0x120A PUSH2 0x2469 JUMP JUMPDEST AND PUSH1 0x0 MSTORE PUSH1 0x33 PUSH1 0x20 MSTORE PUSH1 0x20 PUSH1 0x40 PUSH1 0x0 KECCAK256 SLOAD PUSH1 0x40 MLOAD SWAP1 DUP2 MSTORE RETURN JUMPDEST CALLVALUE PUSH2 0x2B1 JUMPI PUSH1 0x20 CALLDATASIZE PUSH1 0x3 NOT ADD SLT PUSH2 0x2B1 JUMPI PUSH1 0x1 PUSH1 0x1 PUSH1 0xA0 SHL SUB PUSH2 0x1244 PUSH2 0x2469 JUMP JUMPDEST AND PUSH1 0x0 MSTORE PUSH2 0x161 PUSH1 0x20 MSTORE PUSH1 0x20 PUSH1 0xFF PUSH1 0x40 PUSH1 0x0 KECCAK256 SLOAD AND PUSH1 0x40 MLOAD SWAP1 ISZERO ISZERO DUP2 MSTORE RETURN JUMPDEST CALLVALUE PUSH2 0x2B1 JUMPI PUSH1 0x40 CALLDATASIZE PUSH1 0x3 NOT ADD SLT PUSH2 0x2B1 JUMPI PUSH1 0x4 CALLDATALOAD PUSH1 0x24 CALLDATALOAD CALLER PUSH1 0x0 MSTORE PUSH2 0x163 PUSH1 0x20 MSTORE PUSH1 0xFF PUSH1 0x40 PUSH1 0x0 KECCAK256 SLOAD AND ISZERO PUSH2 0x1361 JUMPI PUSH2 0x1F4 DUP2 GT PUSH2 0x1333 JUMPI PUSH2 0x12A6 DUP3 ISZERO ISZERO PUSH2 0x2625 JUMP JUMPDEST CALLER PUSH1 0x0 MSTORE PUSH1 0x33 PUSH1 0x20 MSTORE DUP2 PUSH1 0x40 PUSH1 0x0 KECCAK256 SLOAD LT PUSH2 0x12F7 JUMPI PUSH2 0x12CB PUSH2 0x2710 SWAP2 PUSH2 0x2EF SWAP4 PUSH2 0x2671 JUMP JUMPDEST DIV PUSH2 0x12E4 PUSH2 0x12DD DUP3 PUSH1 0x1 SHR DUP1 SWAP4 PUSH2 0x2684 JUMP JUMPDEST SWAP2 CALLER PUSH2 0x282D JUMP JUMPDEST PUSH2 0x160 SLOAD PUSH1 0x1 PUSH1 0x1 PUSH1 0xA0 SHL SUB AND CALLER PUSH2 0x2F5A JUMP JUMPDEST PUSH1 0x40 MLOAD PUSH3 0x461BCD PUSH1 0xE5 SHL DUP2 MSTORE PUSH1 0x20 PUSH1 0x4 DUP3 ADD MSTORE PUSH1 0x14 PUSH1 0x24 DUP3 ADD MSTORE PUSH20 0x496E73756666696369656E742062616C616E6365 PUSH1 0x60 SHL PUSH1 0x44 DUP3 ADD MSTORE PUSH1 0x64 SWAP1 REVERT JUMPDEST PUSH1 0x40 MLOAD PUSH3 0x461BCD PUSH1 0xE5 SHL DUP2 MSTORE PUSH1 0x20 PUSH1 0x4 DUP3 ADD MSTORE PUSH1 0x6 PUSH1 0x24 DUP3 ADD MSTORE PUSH6 0x4D6178203525 PUSH1 0xD0 SHL PUSH1 0x44 DUP3 ADD MSTORE PUSH1 0x64 SWAP1 REVERT JUMPDEST PUSH1 0x40 MLOAD PUSH3 0x461BCD PUSH1 0xE5 SHL DUP2 MSTORE PUSH1 0x20 PUSH1 0x4 DUP3 ADD MSTORE PUSH1 0x18 PUSH1 0x24 DUP3 ADD MSTORE PUSH32 0x4E6F7420616E20617070726F76656420706C6174666F726D0000000000000000 PUSH1 0x44 DUP3 ADD MSTORE PUSH1 0x64 SWAP1 REVERT JUMPDEST CALLVALUE PUSH2 0x2B1 JUMPI PUSH1 0x40 CALLDATASIZE PUSH1 0x3 NOT ADD SLT PUSH2 0x2B1 JUMPI PUSH2 0x13BF PUSH2 0x2469 JUMP JUMPDEST PUSH2 0x13C7 PUSH2 0x24A4 JUMP JUMPDEST SWAP1 PUSH2 0x13D0 PUSH2 0x27D5 JUMP JUMPDEST PUSH1 0x1 PUSH1 0x1 PUSH1 0xA0 SHL SUB AND SWAP1 DUP2 ISZERO PUSH2 0x1432 JUMPI PUSH1 0x20 PUSH32 0x284395B44A0B0185827A17744BF7276FAA252074C57CBC51D31F32A4EEC27EDC SWAP2 DUP4 PUSH1 0x0 MSTORE PUSH2 0x161 DUP3 MSTORE PUSH2 0x1427 DUP2 PUSH1 0x40 PUSH1 0x0 KECCAK256 SWAP1 PUSH1 0xFF DUP1 NOT DUP4 SLOAD AND SWAP2 ISZERO ISZERO AND OR SWAP1 SSTORE JUMP JUMPDEST PUSH1 0x40 MLOAD SWAP1 ISZERO ISZERO DUP2 MSTORE LOG2 STOP JUMPDEST PUSH1 0x40 MLOAD PUSH3 0x461BCD PUSH1 0xE5 SHL DUP2 MSTORE PUSH1 0x20 PUSH1 0x4 DUP3 ADD MSTORE PUSH1 0x16 PUSH1 0x24 DUP3 ADD MSTORE PUSH22 0x496E76616C69642077616C6C65742061646472657373 PUSH1 0x50 SHL PUSH1 0x44 DUP3 ADD MSTORE PUSH1 0x64 SWAP1 REVERT JUMPDEST CALLVALUE PUSH2 0x2B1 JUMPI PUSH1 0x0 CALLDATASIZE PUSH1 0x3 NOT ADD SLT PUSH2 0x2B1 JUMPI PUSH32 0x0 PUSH1 0x1 PUSH1 0x1 PUSH1 0xA0 SHL SUB AND ADDRESS SUB PUSH2 0x14C9 JUMPI PUSH1 0x20 PUSH1 0x40 MLOAD PUSH1 0x0 DUP1 MLOAD PUSH1 0x20 PUSH2 0x32FC DUP4 CODECOPY DUP2 MLOAD SWAP2 MSTORE DUP2 MSTORE RETURN JUMPDEST PUSH1 0x40 MLOAD PUSH3 0x461BCD PUSH1 0xE5 SHL DUP2 MSTORE PUSH1 0x20 PUSH1 0x4 DUP3 ADD MSTORE PUSH1 0x38 PUSH1 0x24 DUP3 ADD MSTORE PUSH32 0x555550535570677261646561626C653A206D757374206E6F742062652063616C PUSH1 0x44 DUP3 ADD MSTORE PUSH32 0x6C6564207468726F7567682064656C656761746563616C6C0000000000000000 PUSH1 0x64 DUP3 ADD MSTORE PUSH1 0x84 SWAP1 REVERT JUMPDEST CALLVALUE PUSH2 0x2B1 JUMPI PUSH1 0x0 CALLDATASIZE PUSH1 0x3 NOT ADD SLT PUSH2 0x2B1 JUMPI PUSH1 0x20 PUSH1 0xFF PUSH2 0x166 SLOAD PUSH1 0xA0 SHR AND PUSH1 0x40 MLOAD SWAP1 ISZERO ISZERO DUP2 MSTORE RETURN JUMPDEST CALLVALUE PUSH2 0x2B1 JUMPI PUSH1 0x0 CALLDATASIZE PUSH1 0x3 NOT ADD SLT PUSH2 0x2B1 JUMPI PUSH1 0x20 PUSH2 0x15F SLOAD PUSH1 0x40 MLOAD SWAP1 DUP2 MSTORE RETURN JUMPDEST CALLVALUE PUSH2 0x2B1 JUMPI PUSH1 0x20 CALLDATASIZE PUSH1 0x3 NOT ADD SLT PUSH2 0x2B1 JUMPI PUSH1 0x1 PUSH1 0x1 PUSH1 0xA0 SHL SUB PUSH2 0x159B PUSH2 0x2469 JUMP JUMPDEST AND PUSH1 0x0 MSTORE PUSH2 0x164 PUSH1 0x20 MSTORE PUSH1 0x20 PUSH1 0xFF PUSH1 0x40 PUSH1 0x0 KECCAK256 SLOAD AND PUSH1 0x40 MLOAD SWAP1 ISZERO ISZERO DUP2 MSTORE RETURN JUMPDEST CALLVALUE PUSH2 0x2B1 JUMPI PUSH1 0x40 CALLDATASIZE PUSH1 0x3 NOT ADD SLT PUSH2 0x2B1 JUMPI PUSH2 0x15D3 PUSH2 0x2469 JUMP JUMPDEST PUSH1 0x24 CALLDATALOAD CALLER PUSH1 0x0 MSTORE PUSH1 0x20 SWAP2 PUSH2 0x164 DUP4 MSTORE PUSH1 0xFF PUSH1 0x40 PUSH1 0x0 KECCAK256 SLOAD AND ISZERO PUSH2 0x1705 JUMPI PUSH1 0x1 PUSH1 0x1 PUSH1 0xA0 SHL SUB DUP2 AND DUP1 ISZERO PUSH2 0x16C9 JUMPI PUSH2 0x160B DUP4 ISZERO ISZERO PUSH2 0x2625 JUMP JUMPDEST DUP1 PUSH1 0x0 MSTORE PUSH1 0x33 DUP5 MSTORE PUSH1 0x40 PUSH1 0x0 KECCAK256 SLOAD DUP4 GT PUSH2 0x1684 JUMPI PUSH1 0x0 MSTORE PUSH1 0x33 DUP4 MSTORE PUSH1 0x64 PUSH1 0x40 PUSH1 0x0 KECCAK256 SLOAD DIV DUP3 GT PUSH2 0x163F JUMPI PUSH2 0x2EF SWAP3 POP PUSH2 0x282D JUMP JUMPDEST PUSH1 0x40 MLOAD PUSH3 0x461BCD PUSH1 0xE5 SHL DUP2 MSTORE PUSH1 0x4 DUP2 ADD DUP5 SWAP1 MSTORE PUSH1 0x18 PUSH1 0x24 DUP3 ADD MSTORE PUSH32 0x4E4654206275726E20616D6F756E7420746F6F20686967680000000000000000 PUSH1 0x44 DUP3 ADD MSTORE PUSH1 0x64 SWAP1 REVERT JUMPDEST PUSH1 0x40 MLOAD PUSH3 0x461BCD PUSH1 0xE5 SHL DUP2 MSTORE PUSH1 0x4 DUP2 ADD DUP6 SWAP1 MSTORE PUSH1 0x19 PUSH1 0x24 DUP3 ADD MSTORE PUSH32 0x496E73756666696369656E7420757365722062616C616E636500000000000000 PUSH1 0x44 DUP3 ADD MSTORE PUSH1 0x64 SWAP1 REVERT JUMPDEST PUSH1 0x40 MLOAD PUSH3 0x461BCD PUSH1 0xE5 SHL DUP2 MSTORE PUSH1 0x4 DUP2 ADD DUP6 SWAP1 MSTORE PUSH1 0x14 PUSH1 0x24 DUP3 ADD MSTORE PUSH20 0x496E76616C696420757365722061646472657373 PUSH1 0x60 SHL PUSH1 0x44 DUP3 ADD MSTORE PUSH1 0x64 SWAP1 REVERT JUMPDEST PUSH1 0x40 MLOAD PUSH3 0x461BCD PUSH1 0xE5 SHL DUP2 MSTORE PUSH1 0x4 DUP2 ADD DUP5 SWAP1 MSTORE PUSH1 0x19 PUSH1 0x24 DUP3 ADD MSTORE PUSH32 0x4E6F7420617070726F766564204E465420636F6E747261637400000000000000 PUSH1 0x44 DUP3 ADD MSTORE PUSH1 0x64 SWAP1 REVERT JUMPDEST PUSH1 0x40 CALLDATASIZE PUSH1 0x3 NOT ADD SLT PUSH2 0x2B1 JUMPI PUSH2 0x175E PUSH2 0x2469 JUMP JUMPDEST PUSH1 0x24 SWAP1 DUP2 CALLDATALOAD PUSH8 0xFFFFFFFFFFFFFFFF DUP2 GT PUSH2 0x2B1 JUMPI CALLDATASIZE PUSH1 0x23 DUP3 ADD SLT ISZERO PUSH2 0x2B1 JUMPI DUP1 PUSH1 0x4 ADD CALLDATALOAD SWAP1 PUSH2 0x178C DUP3 PUSH2 0x250D JUMP JUMPDEST PUSH2 0x1799 PUSH1 0x40 MLOAD SWAP2 DUP3 PUSH2 0x24EB JUMP JUMPDEST DUP3 DUP2 MSTORE PUSH1 0x20 SWAP3 DUP4 DUP3 ADD SWAP3 CALLDATASIZE DUP8 DUP4 DUP4 ADD ADD GT PUSH2 0x2B1 JUMPI DUP2 PUSH1 0x0 SWAP3 DUP9 DUP8 SWAP4 ADD DUP7 CALLDATACOPY DUP4 ADD ADD MSTORE PUSH1 0x1 PUSH1 0x1 PUSH1 0xA0 SHL SUB PUSH32 0x0 DUP2 AND SWAP1 PUSH2 0x17F4 ADDRESS DUP4 EQ ISZERO PUSH2 0x2563 JUMP JUMPDEST PUSH2 0x1811 PUSH1 0x0 DUP1 MLOAD PUSH1 0x20 PUSH2 0x32FC DUP4 CODECOPY DUP2 MLOAD SWAP2 MSTORE SWAP3 DUP3 DUP5 SLOAD AND EQ PUSH2 0x25C4 JUMP JUMPDEST DUP1 PUSH2 0x165 SLOAD AND CALLER SUB PUSH2 0x1AB0 JUMPI PUSH1 0x0 DUP1 MLOAD PUSH1 0x20 PUSH2 0x32DC DUP4 CODECOPY DUP2 MLOAD SWAP2 MSTORE PUSH1 0x0 MSTORE PUSH2 0x12D DUP6 MSTORE PUSH1 0x40 PUSH1 0x0 KECCAK256 ORIGIN PUSH1 0x0 MSTORE DUP6 MSTORE PUSH1 0xFF PUSH1 0x40 PUSH1 0x0 KECCAK256 SLOAD AND ISZERO PUSH2 0x1A6C JUMPI PUSH32 0x4910FDFA16FED3260ED0E7147F7CC6DA11A60208B5B9406D12A635614FFD9143 SLOAD PUSH1 0xFF AND ISZERO PUSH2 0x1886 JUMPI POP POP POP POP POP PUSH2 0x2EF SWAP2 POP PUSH2 0x3173 JUMP JUMPDEST DUP6 SWAP3 SWAP4 SWAP5 SWAP6 AND SWAP1 PUSH1 0x40 MLOAD PUSH4 0x52D1902D PUSH1 0xE0 SHL DUP2 MSTORE DUP7 DUP2 PUSH1 0x4 DUP2 DUP7 GAS STATICCALL PUSH1 0x0 SWAP2 DUP2 PUSH2 0x1A3D JUMPI JUMPDEST POP PUSH2 0x190B JUMPI PUSH1 0x40 MLOAD PUSH3 0x461BCD PUSH1 0xE5 SHL DUP2 MSTORE PUSH1 0x4 DUP2 ADD DUP9 SWAP1 MSTORE PUSH1 0x2E DUP2 DUP11 ADD MSTORE PUSH32 0x45524331393637557067726164653A206E657720696D706C656D656E74617469 PUSH1 0x44 DUP3 ADD MSTORE PUSH14 0x6F6E206973206E6F742055555053 PUSH1 0x90 SHL PUSH1 0x64 DUP3 ADD MSTORE PUSH1 0x84 SWAP1 REVERT JUMPDEST SWAP7 SWAP2 SWAP3 SWAP4 SWAP6 SWAP5 SWAP7 SUB PUSH2 0x19E8 JUMPI POP PUSH2 0x1921 DUP3 PUSH2 0x3173 JUMP JUMPDEST PUSH32 0xBC7CD75A20EE27FD9ADEBAB32041F755214DBC6BFFA90CC0225B39DA2E5C2D3B PUSH1 0x0 DUP1 LOG2 DUP3 MLOAD ISZERO DUP1 ISZERO SWAP1 PUSH2 0x19E0 JUMPI JUMPDEST PUSH2 0x1957 JUMPI STOP JUMPDEST PUSH1 0x0 DUP1 PUSH2 0x2EF SWAP6 PUSH1 0x40 MLOAD SWAP6 PUSH2 0x196B DUP8 PUSH2 0x24B3 JUMP JUMPDEST PUSH1 0x27 DUP8 MSTORE PUSH32 0x416464726573733A206C6F772D6C6576656C2064656C65676174652063616C6C DUP7 DUP9 ADD MSTORE PUSH7 0x819985A5B1959 PUSH1 0xCA SHL PUSH1 0x40 DUP9 ADD MSTORE MLOAD SWAP1 DUP5 GAS DELEGATECALL SWAP1 RETURNDATASIZE ISZERO PUSH2 0x19D7 JUMPI RETURNDATASIZE PUSH2 0x19BA DUP2 PUSH2 0x250D JUMP JUMPDEST SWAP1 PUSH2 0x19C8 PUSH1 0x40 MLOAD SWAP3 DUP4 PUSH2 0x24EB JUMP JUMPDEST DUP2 MSTORE PUSH1 0x0 DUP2 SWAP5 RETURNDATASIZE SWAP3 ADD RETURNDATACOPY PUSH2 0x322A JUMP JUMPDEST PUSH1 0x60 SWAP3 POP PUSH2 0x322A JUMP JUMPDEST POP PUSH1 0x1 PUSH2 0x1951 JUMP JUMPDEST DUP4 PUSH1 0x29 PUSH1 0x84 SWAP3 PUSH1 0x40 MLOAD SWAP3 PUSH3 0x461BCD PUSH1 0xE5 SHL DUP5 MSTORE PUSH1 0x4 DUP5 ADD MSTORE DUP3 ADD MSTORE PUSH32 0x45524331393637557067726164653A20756E737570706F727465642070726F78 PUSH1 0x44 DUP3 ADD MSTORE PUSH9 0x1A58589B1955555251 PUSH1 0xBA SHL PUSH1 0x64 DUP3 ADD MSTORE REVERT JUMPDEST SWAP1 SWAP2 POP DUP8 DUP2 DUP2 RETURNDATASIZE DUP4 GT PUSH2 0x1A65 JUMPI JUMPDEST PUSH2 0x1A55 DUP2 DUP4 PUSH2 0x24EB JUMP JUMPDEST DUP2 ADD SUB SLT PUSH2 0x2B1 JUMPI MLOAD SWAP1 DUP10 PUSH2 0x18AB JUMP JUMPDEST POP RETURNDATASIZE PUSH2 0x1A4B JUMP JUMPDEST PUSH1 0x40 MLOAD PUSH3 0x461BCD PUSH1 0xE5 SHL DUP2 MSTORE PUSH1 0x4 DUP2 ADD DUP7 SWAP1 MSTORE PUSH1 0x1F DUP2 DUP10 ADD MSTORE PUSH32 0x55706772616465207265717569726573206D756C74697369672061646D696E00 PUSH1 0x44 DUP3 ADD MSTORE PUSH1 0x64 SWAP1 REVERT JUMPDEST PUSH1 0x40 MLOAD PUSH3 0x461BCD PUSH1 0xE5 SHL DUP2 MSTORE PUSH1 0x4 DUP2 ADD DUP7 SWAP1 MSTORE PUSH1 0x19 DUP2 DUP10 ADD MSTORE PUSH25 0x55706772616465206F6E6C79207669612074696D656C6F636B PUSH1 0x38 SHL PUSH1 0x44 DUP3 ADD MSTORE PUSH1 0x64 SWAP1 REVERT JUMPDEST CALLVALUE PUSH2 0x2B1 JUMPI PUSH1 0x0 CALLDATASIZE PUSH1 0x3 NOT ADD SLT PUSH2 0x2B1 JUMPI PUSH1 0x20 PUSH1 0x40 MLOAD PUSH2 0x190 DUP2 MSTORE RETURN JUMPDEST CALLVALUE PUSH2 0x2B1 JUMPI PUSH1 0x20 CALLDATASIZE PUSH1 0x3 NOT ADD SLT PUSH2 0x2B1 JUMPI PUSH2 0x1B26 PUSH2 0x2495 JUMP JUMPDEST PUSH2 0x1B2E PUSH2 0x27D5 JUMP JUMPDEST PUSH2 0x166 DUP1 SLOAD PUSH1 0xFF PUSH1 0xA0 SHL NOT AND SWAP2 ISZERO ISZERO PUSH1 0xA0 SHL PUSH1 0xFF PUSH1 0xA0 SHL AND SWAP2 SWAP1 SWAP2 OR SWAP1 SSTORE STOP JUMPDEST CALLVALUE PUSH2 0x2B1 JUMPI PUSH1 0x40 CALLDATASIZE PUSH1 0x3 NOT ADD SLT PUSH2 0x2B1 JUMPI PUSH2 0x1B67 PUSH2 0x2469 JUMP JUMPDEST CALLER PUSH1 0x0 MSTORE PUSH1 0x34 PUSH1 0x20 MSTORE PUSH1 0x40 PUSH1 0x0 KECCAK256 PUSH1 0x1 DUP1 PUSH1 0xA0 SHL SUB DUP3 AND PUSH1 0x0 MSTORE PUSH1 0x20 MSTORE PUSH1 0x40 PUSH1 0x0 KECCAK256 SLOAD PUSH1 0x24 CALLDATALOAD DUP2 ADD DUP1 SWAP2 GT PUSH2 0x86C JUMPI PUSH2 0xD35 SWAP2 CALLER PUSH2 0x26D3 JUMP JUMPDEST CALLVALUE PUSH2 0x2B1 JUMPI PUSH1 0x20 DUP1 PUSH1 0x3 NOT CALLDATASIZE ADD SLT PUSH2 0x2B1 JUMPI PUSH2 0x1BBA PUSH2 0x2469 JUMP JUMPDEST PUSH1 0x1 PUSH1 0x1 PUSH1 0xA0 SHL SUB SWAP2 PUSH32 0x0 DUP4 AND PUSH2 0x1BF2 ADDRESS DUP3 EQ ISZERO PUSH2 0x2563 JUMP JUMPDEST PUSH2 0x1C0F PUSH1 0x0 DUP1 MLOAD PUSH1 0x20 PUSH2 0x32FC DUP4 CODECOPY DUP2 MLOAD SWAP2 MSTORE SWAP2 DUP6 DUP4 SLOAD AND EQ PUSH2 0x25C4 JUMP JUMPDEST DUP4 PUSH2 0x165 SLOAD AND CALLER SUB PUSH2 0x1E46 JUMPI PUSH1 0x0 DUP1 MLOAD PUSH1 0x20 PUSH2 0x32DC DUP4 CODECOPY DUP2 MLOAD SWAP2 MSTORE PUSH1 0x0 MSTORE PUSH2 0x12D DUP3 MSTORE PUSH1 0x40 PUSH1 0x0 KECCAK256 ORIGIN PUSH1 0x0 MSTORE DUP3 MSTORE PUSH1 0xFF PUSH1 0x40 PUSH1 0x0 KECCAK256 SLOAD AND ISZERO PUSH2 0x1E01 JUMPI PUSH1 0x40 MLOAD SWAP1 DUP3 DUP3 ADD SWAP5 DUP3 DUP7 LT PUSH8 0xFFFFFFFFFFFFFFFF DUP8 GT OR PUSH2 0x9BE JUMPI DUP6 PUSH1 0x40 MSTORE PUSH1 0x0 DUP4 MSTORE PUSH1 0xFF PUSH32 0x4910FDFA16FED3260ED0E7147F7CC6DA11A60208B5B9406D12A635614FFD9143 SLOAD AND PUSH1 0x0 EQ PUSH2 0x1CA8 JUMPI POP POP POP POP PUSH2 0x2EF SWAP2 POP PUSH2 0x3173 JUMP JUMPDEST DUP5 SWAP3 SWAP4 SWAP5 AND SWAP1 PUSH1 0x40 MLOAD PUSH4 0x52D1902D PUSH1 0xE0 SHL DUP2 MSTORE DUP6 DUP2 PUSH1 0x4 DUP2 DUP7 GAS STATICCALL PUSH1 0x0 SWAP2 DUP2 PUSH2 0x1DD2 JUMPI JUMPDEST POP PUSH2 0x1D2D JUMPI PUSH1 0x40 MLOAD PUSH3 0x461BCD PUSH1 0xE5 SHL DUP2 MSTORE PUSH1 0x4 DUP2 ADD DUP8 SWAP1 MSTORE PUSH1 0x2E PUSH1 0x24 DUP3 ADD MSTORE PUSH32 0x45524331393637557067726164653A206E657720696D706C656D656E74617469 PUSH1 0x44 DUP3 ADD MSTORE PUSH14 0x6F6E206973206E6F742055555053 PUSH1 0x90 SHL PUSH1 0x64 DUP3 ADD MSTORE PUSH1 0x84 SWAP1 REVERT JUMPDEST SWAP5 SWAP4 SWAP5 SUB PUSH2 0x1D7B JUMPI PUSH2 0x1D3E DUP3 PUSH2 0x3173 JUMP JUMPDEST PUSH32 0xBC7CD75A20EE27FD9ADEBAB32041F755214DBC6BFFA90CC0225B39DA2E5C2D3B PUSH1 0x0 DUP1 LOG2 DUP3 MLOAD ISZERO DUP1 ISZERO SWAP1 PUSH2 0x1D73 JUMPI PUSH2 0x1957 JUMPI STOP JUMPDEST POP PUSH1 0x0 PUSH2 0x1951 JUMP JUMPDEST PUSH1 0x40 MLOAD PUSH3 0x461BCD PUSH1 0xE5 SHL DUP2 MSTORE PUSH1 0x4 DUP2 ADD DUP5 SWAP1 MSTORE PUSH1 0x29 PUSH1 0x24 DUP3 ADD MSTORE PUSH32 0x45524331393637557067726164653A20756E737570706F727465642070726F78 PUSH1 0x44 DUP3 ADD MSTORE PUSH9 0x1A58589B1955555251 PUSH1 0xBA SHL PUSH1 0x64 DUP3 ADD MSTORE PUSH1 0x84 SWAP1 REVERT JUMPDEST SWAP1 SWAP2 POP DUP7 DUP2 DUP2 RETURNDATASIZE DUP4 GT PUSH2 0x1DFA JUMPI JUMPDEST PUSH2 0x1DEA DUP2 DUP4 PUSH2 0x24EB JUMP JUMPDEST DUP2 ADD SUB SLT PUSH2 0x2B1 JUMPI MLOAD SWAP1 DUP9 PUSH2 0x1CCC JUMP JUMPDEST POP RETURNDATASIZE PUSH2 0x1DE0 JUMP JUMPDEST PUSH1 0x40 MLOAD PUSH3 0x461BCD PUSH1 0xE5 SHL DUP2 MSTORE PUSH1 0x4 DUP2 ADD DUP4 SWAP1 MSTORE PUSH1 0x1F PUSH1 0x24 DUP3 ADD MSTORE PUSH32 0x55706772616465207265717569726573206D756C74697369672061646D696E00 PUSH1 0x44 DUP3 ADD MSTORE PUSH1 0x64 SWAP1 REVERT JUMPDEST PUSH1 0x40 MLOAD PUSH3 0x461BCD PUSH1 0xE5 SHL DUP2 MSTORE PUSH1 0x4 DUP2 ADD DUP4 SWAP1 MSTORE PUSH1 0x19 PUSH1 0x24 DUP3 ADD MSTORE PUSH25 0x55706772616465206F6E6C79207669612074696D656C6F636B PUSH1 0x38 SHL PUSH1 0x44 DUP3 ADD MSTORE PUSH1 0x64 SWAP1 REVERT JUMPDEST CALLVALUE PUSH2 0x2B1 JUMPI PUSH1 0x40 CALLDATASIZE PUSH1 0x3 NOT ADD SLT PUSH2 0x2B1 JUMPI PUSH2 0x1EA0 PUSH2 0x247F JUMP JUMPDEST CALLER PUSH1 0x1 PUSH1 0x1 PUSH1 0xA0 SHL SUB DUP3 AND SUB PUSH2 0x1EBC JUMPI PUSH2 0x2EF SWAP1 PUSH1 0x4 CALLDATALOAD PUSH2 0x2EDC JUMP JUMPDEST PUSH1 0x40 MLOAD PUSH3 0x461BCD PUSH1 0xE5 SHL DUP2 MSTORE PUSH1 0x20 PUSH1 0x4 DUP3 ADD MSTORE PUSH1 0x2F PUSH1 0x24 DUP3 ADD MSTORE PUSH32 0x416363657373436F6E74726F6C3A2063616E206F6E6C792072656E6F756E6365 PUSH1 0x44 DUP3 ADD MSTORE PUSH15 0x103937B632B9903337B91039B2B633 PUSH1 0x89 SHL PUSH1 0x64 DUP3 ADD MSTORE PUSH1 0x84 SWAP1 REVERT JUMPDEST CALLVALUE PUSH2 0x2B1 JUMPI PUSH1 0x0 CALLDATASIZE PUSH1 0x3 NOT ADD SLT PUSH2 0x2B1 JUMPI PUSH1 0x20 PUSH1 0x40 MLOAD PUSH1 0x12 DUP2 MSTORE RETURN JUMPDEST CALLVALUE PUSH2 0x2B1 JUMPI PUSH1 0x0 CALLDATASIZE PUSH1 0x3 NOT ADD SLT PUSH2 0x2B1 JUMPI PUSH1 0x20 PUSH1 0x40 MLOAD PUSH12 0x9B18AB5DF7180B6B8000000 DUP2 MSTORE RETURN JUMPDEST CALLVALUE PUSH2 0x2B1 JUMPI PUSH1 0x40 CALLDATASIZE PUSH1 0x3 NOT ADD SLT PUSH2 0x2B1 JUMPI PUSH1 0x4 CALLDATALOAD PUSH2 0x1F78 PUSH2 0x247F JUMP JUMPDEST DUP2 PUSH1 0x0 MSTORE PUSH2 0x12D DUP1 PUSH1 0x20 MSTORE PUSH2 0x1F94 PUSH1 0x1 PUSH1 0x40 PUSH1 0x0 KECCAK256 ADD SLOAD PUSH2 0x2A8E JUMP JUMPDEST DUP3 PUSH1 0x0 MSTORE DUP1 PUSH1 0x20 MSTORE PUSH1 0x40 PUSH1 0x0 KECCAK256 SWAP2 PUSH1 0x1 DUP1 PUSH1 0xA0 SHL SUB AND SWAP2 DUP3 PUSH1 0x0 MSTORE PUSH1 0x20 MSTORE PUSH1 0xFF PUSH1 0x40 PUSH1 0x0 KECCAK256 SLOAD AND ISZERO PUSH2 0x1FC2 JUMPI STOP JUMPDEST DUP3 PUSH1 0x0 MSTORE PUSH1 0x20 MSTORE PUSH1 0x40 PUSH1 0x0 KECCAK256 DUP2 PUSH1 0x0 MSTORE PUSH1 0x20 MSTORE PUSH1 0x40 PUSH1 0x0 KECCAK256 PUSH1 0x1 PUSH1 0xFF NOT DUP3 SLOAD AND OR SWAP1 SSTORE CALLER SWAP2 PUSH32 0x2F8788117E7EFF1D82E926EC794901D17C78024A50270940304540A733656F0D PUSH1 0x0 DUP1 LOG4 STOP JUMPDEST CALLVALUE PUSH2 0x2B1 JUMPI PUSH1 0x20 CALLDATASIZE PUSH1 0x3 NOT ADD SLT PUSH2 0x2B1 JUMPI PUSH1 0x4 CALLDATALOAD PUSH1 0x0 MSTORE PUSH2 0x12D PUSH1 0x20 MSTORE PUSH1 0x20 PUSH1 0x1 PUSH1 0x40 PUSH1 0x0 KECCAK256 ADD SLOAD PUSH1 0x40 MLOAD SWAP1 DUP2 MSTORE RETURN JUMPDEST CALLVALUE PUSH2 0x2B1 JUMPI PUSH1 0x60 CALLDATASIZE PUSH1 0x3 NOT ADD SLT PUSH2 0x2B1 JUMPI PUSH2 0x2057 PUSH2 0x2469 JUMP JUMPDEST PUSH2 0x205F PUSH2 0x247F JUMP JUMPDEST PUSH1 0x44 CALLDATALOAD SWAP1 PUSH1 0x1 DUP1 PUSH1 0xA0 SHL SUB DUP4 AND PUSH1 0x0 MSTORE PUSH1 0x34 PUSH1 0x20 MSTORE PUSH1 0x40 PUSH1 0x0 KECCAK256 CALLER PUSH1 0x0 MSTORE PUSH1 0x20 MSTORE PUSH1 0x40 PUSH1 0x0 KECCAK256 SLOAD SWAP3 PUSH1 0x0 NOT DUP5 SUB PUSH2 0x209B JUMPI JUMPDEST PUSH2 0xD35 SWAP4 POP PUSH2 0x2938 JUMP JUMPDEST DUP3 DUP5 LT PUSH2 0x20B7 JUMPI PUSH2 0x20B2 DUP4 PUSH2 0xD35 SWAP6 SUB CALLER DUP4 PUSH2 0x26D3 JUMP JUMPDEST PUSH2 0x2091 JUMP JUMPDEST PUSH1 0x40 MLOAD PUSH3 0x461BCD PUSH1 0xE5 SHL DUP2 MSTORE PUSH1 0x20 PUSH1 0x4 DUP3 ADD MSTORE PUSH1 0x1D PUSH1 0x24 DUP3 ADD MSTORE PUSH32 0x45524332303A20696E73756666696369656E7420616C6C6F77616E6365000000 PUSH1 0x44 DUP3 ADD MSTORE PUSH1 0x64 SWAP1 REVERT JUMPDEST CALLVALUE PUSH2 0x2B1 JUMPI PUSH1 0x20 CALLDATASIZE PUSH1 0x3 NOT ADD SLT PUSH2 0x2B1 JUMPI PUSH1 0x4 CALLDATALOAD PUSH2 0x2118 PUSH2 0x27D5 JUMP JUMPDEST PUSH2 0x12C DUP2 GT PUSH2 0x215B JUMPI PUSH1 0x40 PUSH32 0x229952885149023C7B324C7187B4B260B1A8E44DFEE2BF619EF6F1296D52706D SWAP2 PUSH2 0x15F SWAP1 DUP1 DUP3 SLOAD SWAP3 SSTORE DUP3 MLOAD SWAP2 DUP3 MSTORE PUSH1 0x20 DUP3 ADD MSTORE LOG1 STOP JUMPDEST PUSH1 0x40 MLOAD PUSH3 0x461BCD PUSH1 0xE5 SHL DUP2 MSTORE PUSH1 0x20 PUSH1 0x4 DUP3 ADD MSTORE PUSH1 0x22 PUSH1 0x24 DUP3 ADD MSTORE PUSH32 0x4275726E2072617465206D757374206265206265747765656E203020616E6420 PUSH1 0x44 DUP3 ADD MSTORE PUSH2 0x3325 PUSH1 0xF0 SHL PUSH1 0x64 DUP3 ADD MSTORE PUSH1 0x84 SWAP1 REVERT JUMPDEST CALLVALUE PUSH2 0x2B1 JUMPI PUSH1 0x0 CALLDATASIZE PUSH1 0x3 NOT ADD SLT PUSH2 0x2B1 JUMPI PUSH1 0x20 PUSH1 0x35 SLOAD PUSH1 0x40 MLOAD SWAP1 DUP2 MSTORE RETURN JUMPDEST CALLVALUE PUSH2 0x2B1 JUMPI PUSH1 0x20 CALLDATASIZE PUSH1 0x3 NOT ADD SLT PUSH2 0x2B1 JUMPI PUSH2 0x21E2 PUSH2 0x27D5 JUMP JUMPDEST PUSH2 0x2EF PUSH1 0x4 CALLDATALOAD CALLER PUSH2 0x282D JUMP JUMPDEST CALLVALUE PUSH2 0x2B1 JUMPI PUSH1 0x20 CALLDATASIZE PUSH1 0x3 NOT ADD SLT PUSH2 0x2B1 JUMPI PUSH2 0x2207 PUSH2 0x2469 JUMP JUMPDEST PUSH2 0x220F PUSH2 0x27D5 JUMP JUMPDEST PUSH1 0x1 PUSH1 0x1 PUSH1 0xA0 SHL SUB SWAP1 DUP2 AND SWAP1 DUP2 ISZERO PUSH2 0x22AA JUMPI ADDRESS DUP3 EQ PUSH2 0x2265 JUMPI PUSH2 0x160 DUP1 SLOAD PUSH1 0x1 PUSH1 0x1 PUSH1 0xA0 SHL SUB NOT DUP2 AND DUP5 OR SWAP1 SWAP2 SSTORE AND PUSH32 0xD8DE49613974DE2A8C445F87916A1BBC4D3540D3D0997002F754BB5B10BD2AE4 PUSH1 0x0 DUP1 LOG3 STOP JUMPDEST PUSH1 0x40 MLOAD PUSH3 0x461BCD PUSH1 0xE5 SHL DUP2 MSTORE PUSH1 0x20 PUSH1 0x4 DUP3 ADD MSTORE PUSH1 0x1A PUSH1 0x24 DUP3 ADD MSTORE PUSH32 0x43616E6E6F7420626520636F6E74726163742061646472657373000000000000 PUSH1 0x44 DUP3 ADD MSTORE PUSH1 0x64 SWAP1 REVERT JUMPDEST PUSH1 0x40 MLOAD PUSH3 0x461BCD PUSH1 0xE5 SHL DUP2 MSTORE PUSH1 0x20 PUSH1 0x4 DUP3 ADD MSTORE PUSH1 0xF PUSH1 0x24 DUP3 ADD MSTORE PUSH15 0x496E76616C69642061646472657373 PUSH1 0x88 SHL PUSH1 0x44 DUP3 ADD MSTORE PUSH1 0x64 SWAP1 REVERT JUMPDEST CALLVALUE PUSH2 0x2B1 JUMPI PUSH1 0x40 CALLDATASIZE PUSH1 0x3 NOT ADD SLT PUSH2 0x2B1 JUMPI PUSH2 0xD35 PUSH2 0x22FD PUSH2 0x2469 JUMP JUMPDEST PUSH1 0x24 CALLDATALOAD SWAP1 CALLER PUSH2 0x26D3 JUMP JUMPDEST CALLVALUE PUSH2 0x2B1 JUMPI PUSH1 0x0 CALLDATASIZE PUSH1 0x3 NOT ADD SLT PUSH2 0x2B1 JUMPI PUSH1 0x40 MLOAD PUSH1 0x0 PUSH1 0x36 SLOAD PUSH2 0x2329 DUP2 PUSH2 0x2529 JUMP JUMPDEST DUP1 DUP5 MSTORE SWAP1 PUSH1 0x20 SWAP1 PUSH1 0x1 SWAP1 DUP2 DUP2 AND SWAP1 DUP2 ISZERO PUSH2 0xEEB JUMPI POP PUSH1 0x1 EQ PUSH2 0x2355 JUMPI PUSH2 0x4B5 DUP6 PUSH2 0xE97 DUP2 DUP8 SUB DUP3 PUSH2 0x24EB JUMP JUMPDEST PUSH1 0x36 PUSH1 0x0 SWAP1 DUP2 MSTORE SWAP4 POP PUSH1 0x0 DUP1 MLOAD PUSH1 0x20 PUSH2 0x32BC DUP4 CODECOPY DUP2 MLOAD SWAP2 MSTORE JUMPDEST DUP4 DUP6 LT PUSH2 0x238A JUMPI POP POP POP POP DUP2 ADD PUSH1 0x20 ADD PUSH2 0xE97 DUP3 PUSH2 0x4B5 PUSH2 0xE87 JUMP JUMPDEST DUP1 SLOAD DUP7 DUP7 ADD DUP5 ADD MSTORE SWAP4 DUP3 ADD SWAP4 DUP2 ADD PUSH2 0x236E JUMP JUMPDEST CALLVALUE PUSH2 0x2B1 JUMPI PUSH1 0x0 CALLDATASIZE PUSH1 0x3 NOT ADD SLT PUSH2 0x2B1 JUMPI PUSH2 0x160 SLOAD PUSH1 0x40 MLOAD PUSH1 0x1 PUSH1 0x1 PUSH1 0xA0 SHL SUB SWAP1 SWAP2 AND DUP2 MSTORE PUSH1 0x20 SWAP1 RETURN JUMPDEST CALLVALUE PUSH2 0x2B1 JUMPI PUSH1 0x20 CALLDATASIZE PUSH1 0x3 NOT ADD SLT PUSH2 0x2B1 JUMPI PUSH1 0x4 CALLDATALOAD SWAP1 PUSH4 0xFFFFFFFF PUSH1 0xE0 SHL DUP3 AND DUP1 SWAP3 SUB PUSH2 0x2B1 JUMPI PUSH1 0x20 SWAP2 PUSH4 0x7965DB0B PUSH1 0xE0 SHL DUP2 EQ SWAP1 DUP2 ISZERO PUSH2 0x2409 JUMPI JUMPDEST POP ISZERO ISZERO DUP2 MSTORE RETURN JUMPDEST PUSH4 0x1FFC9A7 PUSH1 0xE0 SHL EQ SWAP1 POP DUP4 PUSH2 0x2402 JUMP JUMPDEST PUSH1 0x0 JUMPDEST DUP4 DUP2 LT PUSH2 0x242D JUMPI POP POP PUSH1 0x0 SWAP2 ADD MSTORE JUMP JUMPDEST DUP2 DUP2 ADD MLOAD DUP4 DUP3 ADD MSTORE PUSH1 0x20 ADD PUSH2 0x241D JUMP JUMPDEST PUSH1 0x40 SWAP2 PUSH1 0x20 DUP3 MSTORE PUSH2 0x245D DUP2 MLOAD DUP1 SWAP3 DUP2 PUSH1 0x20 DUP7 ADD MSTORE PUSH1 0x20 DUP7 DUP7 ADD SWAP2 ADD PUSH2 0x241A JUMP JUMPDEST PUSH1 0x1F ADD PUSH1 0x1F NOT AND ADD ADD SWAP1 JUMP JUMPDEST PUSH1 0x4 CALLDATALOAD SWAP1 PUSH1 0x1 PUSH1 0x1 PUSH1 0xA0 SHL SUB DUP3 AND DUP3 SUB PUSH2 0x2B1 JUMPI JUMP JUMPDEST PUSH1 0x24 CALLDATALOAD SWAP1 PUSH1 0x1 PUSH1 0x1 PUSH1 0xA0 SHL SUB DUP3 AND DUP3 SUB PUSH2 0x2B1 JUMPI JUMP JUMPDEST PUSH1 0x4 CALLDATALOAD SWAP1 DUP2 ISZERO ISZERO DUP3 SUB PUSH2 0x2B1 JUMPI JUMP JUMPDEST PUSH1 0x24 CALLDATALOAD SWAP1 DUP2 ISZERO ISZERO DUP3 SUB PUSH2 0x2B1 JUMPI JUMP JUMPDEST PUSH1 0x60 DUP2 ADD SWAP1 DUP2 LT PUSH8 0xFFFFFFFFFFFFFFFF DUP3 GT OR PUSH2 0x9BE JUMPI PUSH1 0x40 MSTORE JUMP JUMPDEST PUSH1 0x40 DUP2 ADD SWAP1 DUP2 LT PUSH8 0xFFFFFFFFFFFFFFFF DUP3 GT OR PUSH2 0x9BE JUMPI PUSH1 0x40 MSTORE JUMP JUMPDEST SWAP1 PUSH1 0x1F DUP1 NOT SWAP2 ADD AND DUP2 ADD SWAP1 DUP2 LT PUSH8 0xFFFFFFFFFFFFFFFF DUP3 GT OR PUSH2 0x9BE JUMPI PUSH1 0x40 MSTORE JUMP JUMPDEST PUSH8 0xFFFFFFFFFFFFFFFF DUP2 GT PUSH2 0x9BE JUMPI PUSH1 0x1F ADD PUSH1 0x1F NOT AND PUSH1 0x20 ADD SWAP1 JUMP JUMPDEST SWAP1 PUSH1 0x1 DUP3 DUP2 SHR SWAP3 AND DUP1 ISZERO PUSH2 0x2559 JUMPI JUMPDEST PUSH1 0x20 DUP4 LT EQ PUSH2 0x2543 JUMPI JUMP JUMPDEST PUSH4 0x4E487B71 PUSH1 0xE0 SHL PUSH1 0x0 MSTORE PUSH1 0x22 PUSH1 0x4 MSTORE PUSH1 0x24 PUSH1 0x0 REVERT JUMPDEST SWAP2 PUSH1 0x7F AND SWAP2 PUSH2 0x2538 JUMP JUMPDEST ISZERO PUSH2 0x256A JUMPI JUMP JUMPDEST PUSH1 0x40 MLOAD PUSH3 0x461BCD PUSH1 0xE5 SHL DUP2 MSTORE PUSH1 0x20 PUSH1 0x4 DUP3 ADD MSTORE PUSH1 0x2C PUSH1 0x24 DUP3 ADD MSTORE PUSH32 0x46756E6374696F6E206D7573742062652063616C6C6564207468726F75676820 PUSH1 0x44 DUP3 ADD MSTORE PUSH12 0x19195B1959D85D1958D85B1B PUSH1 0xA2 SHL PUSH1 0x64 DUP3 ADD MSTORE PUSH1 0x84 SWAP1 REVERT JUMPDEST ISZERO PUSH2 0x25CB JUMPI JUMP JUMPDEST PUSH1 0x40 MLOAD PUSH3 0x461BCD PUSH1 0xE5 SHL DUP2 MSTORE PUSH1 0x20 PUSH1 0x4 DUP3 ADD MSTORE PUSH1 0x2C PUSH1 0x24 DUP3 ADD MSTORE PUSH32 0x46756E6374696F6E206D7573742062652063616C6C6564207468726F75676820 PUSH1 0x44 DUP3 ADD MSTORE PUSH12 0x6163746976652070726F7879 PUSH1 0xA0 SHL PUSH1 0x64 DUP3 ADD MSTORE PUSH1 0x84 SWAP1 REVERT JUMPDEST ISZERO PUSH2 0x262C JUMPI JUMP JUMPDEST PUSH1 0x40 MLOAD PUSH3 0x461BCD PUSH1 0xE5 SHL DUP2 MSTORE PUSH1 0x20 PUSH1 0x4 DUP3 ADD MSTORE PUSH1 0x1D PUSH1 0x24 DUP3 ADD MSTORE PUSH32 0x416D6F756E74206D7573742062652067726561746572207468616E2030000000 PUSH1 0x44 DUP3 ADD MSTORE PUSH1 0x64 SWAP1 REVERT JUMPDEST DUP2 DUP2 MUL SWAP3 SWAP2 DUP2 ISZERO SWAP2 DUP5 DIV EQ OR ISZERO PUSH2 0x86C JUMPI JUMP JUMPDEST SWAP2 SWAP1 DUP3 SUB SWAP2 DUP3 GT PUSH2 0x86C JUMPI JUMP JUMPDEST ISZERO PUSH2 0x2698 JUMPI JUMP JUMPDEST PUSH1 0x40 MLOAD PUSH3 0x461BCD PUSH1 0xE5 SHL DUP2 MSTORE PUSH1 0x20 PUSH1 0x4 DUP3 ADD MSTORE PUSH1 0x13 PUSH1 0x24 DUP3 ADD MSTORE PUSH19 0x21B0B73737BA1030B8383937BB329039B2B633 PUSH1 0x69 SHL PUSH1 0x44 DUP3 ADD MSTORE PUSH1 0x64 SWAP1 REVERT JUMPDEST PUSH1 0x1 PUSH1 0x1 PUSH1 0xA0 SHL SUB SWAP1 DUP2 AND SWAP2 DUP3 ISZERO PUSH2 0x2784 JUMPI AND SWAP2 DUP3 ISZERO PUSH2 0x2734 JUMPI PUSH1 0x20 PUSH32 0x8C5BE1E5EBEC7D5BD14F71427D1E84F3DD0314C0F7B2291E5B200AC8C7C3B925 SWAP2 DUP4 PUSH1 0x0 MSTORE PUSH1 0x34 DUP3 MSTORE PUSH1 0x40 PUSH1 0x0 KECCAK256 DUP6 PUSH1 0x0 MSTORE DUP3 MSTORE DUP1 PUSH1 0x40 PUSH1 0x0 KECCAK256 SSTORE PUSH1 0x40 MLOAD SWAP1 DUP2 MSTORE LOG3 JUMP JUMPDEST PUSH1 0x40 MLOAD PUSH3 0x461BCD PUSH1 0xE5 SHL DUP2 MSTORE PUSH1 0x20 PUSH1 0x4 DUP3 ADD MSTORE PUSH1 0x22 PUSH1 0x24 DUP3 ADD MSTORE PUSH32 0x45524332303A20617070726F766520746F20746865207A65726F206164647265 PUSH1 0x44 DUP3 ADD MSTORE PUSH2 0x7373 PUSH1 0xF0 SHL PUSH1 0x64 DUP3 ADD MSTORE PUSH1 0x84 SWAP1 REVERT JUMPDEST PUSH1 0x40 MLOAD PUSH3 0x461BCD PUSH1 0xE5 SHL DUP2 MSTORE PUSH1 0x20 PUSH1 0x4 DUP3 ADD MSTORE PUSH1 0x24 DUP1 DUP3 ADD MSTORE PUSH32 0x45524332303A20617070726F76652066726F6D20746865207A65726F20616464 PUSH1 0x44 DUP3 ADD MSTORE PUSH4 0x72657373 PUSH1 0xE0 SHL PUSH1 0x64 DUP3 ADD MSTORE PUSH1 0x84 SWAP1 REVERT JUMPDEST PUSH1 0x65 SLOAD PUSH1 0x1 PUSH1 0x1 PUSH1 0xA0 SHL SUB AND CALLER SUB PUSH2 0x27E9 JUMPI JUMP JUMPDEST PUSH1 0x64 PUSH1 0x40 MLOAD PUSH3 0x461BCD PUSH1 0xE5 SHL DUP2 MSTORE PUSH1 0x20 PUSH1 0x4 DUP3 ADD MSTORE PUSH1 0x20 PUSH1 0x24 DUP3 ADD MSTORE PUSH32 0x4F776E61626C653A2063616C6C6572206973206E6F7420746865206F776E6572 PUSH1 0x44 DUP3 ADD MSTORE REVERT JUMPDEST PUSH1 0x1 PUSH1 0x1 PUSH1 0xA0 SHL SUB AND DUP1 ISZERO PUSH2 0x28E9 JUMPI DUP1 PUSH1 0x0 MSTORE PUSH1 0x33 PUSH1 0x20 MSTORE PUSH1 0x40 PUSH1 0x0 KECCAK256 SLOAD SWAP2 DUP1 DUP4 LT PUSH2 0x2899 JUMPI PUSH1 0x20 DUP2 PUSH32 0xDDF252AD1BE2C89B69C2B068FC378DAA952BA7F163C4A11628F55A4DF523B3EF SWAP3 PUSH1 0x0 SWAP6 DUP6 DUP8 MSTORE PUSH1 0x33 DUP5 MSTORE SUB PUSH1 0x40 DUP7 KECCAK256 SSTORE DUP1 PUSH1 0x35 SLOAD SUB PUSH1 0x35 SSTORE PUSH1 0x40 MLOAD SWAP1 DUP2 MSTORE LOG3 JUMP JUMPDEST PUSH1 0x40 MLOAD PUSH3 0x461BCD PUSH1 0xE5 SHL DUP2 MSTORE PUSH1 0x20 PUSH1 0x4 DUP3 ADD MSTORE PUSH1 0x22 PUSH1 0x24 DUP3 ADD MSTORE PUSH32 0x45524332303A206275726E20616D6F756E7420657863656564732062616C616E PUSH1 0x44 DUP3 ADD MSTORE PUSH2 0x6365 PUSH1 0xF0 SHL PUSH1 0x64 DUP3 ADD MSTORE PUSH1 0x84 SWAP1 REVERT JUMPDEST PUSH1 0x40 MLOAD PUSH3 0x461BCD PUSH1 0xE5 SHL DUP2 MSTORE PUSH1 0x20 PUSH1 0x4 DUP3 ADD MSTORE PUSH1 0x21 PUSH1 0x24 DUP3 ADD MSTORE PUSH32 0x45524332303A206275726E2066726F6D20746865207A65726F20616464726573 PUSH1 0x44 DUP3 ADD MSTORE PUSH1 0x73 PUSH1 0xF8 SHL PUSH1 0x64 DUP3 ADD MSTORE PUSH1 0x84 SWAP1 REVERT JUMPDEST SWAP1 PUSH1 0x1 DUP1 PUSH1 0xA0 SHL SUB SWAP2 DUP3 DUP2 AND PUSH1 0x0 SWAP1 DUP1 DUP3 MSTORE PUSH2 0x161 PUSH1 0x20 MSTORE PUSH1 0xFF PUSH1 0x40 DUP4 KECCAK256 SLOAD AND DUP1 ISZERO PUSH2 0x2A7B JUMPI JUMPDEST PUSH2 0x2A52 JUMPI DUP1 DUP3 MSTORE PUSH1 0x33 PUSH1 0x20 MSTORE PUSH1 0x40 DUP3 KECCAK256 SLOAD PUSH1 0x5 DUP2 MUL SWAP1 DUP1 DUP3 DIV PUSH1 0x5 EQ SWAP1 ISZERO OR ISZERO PUSH2 0x2A67 JUMPI PUSH2 0x3E8 SWAP1 DIV PUSH9 0x56BC75E2D63100000 DUP1 DUP3 LT PUSH2 0x2A5F JUMPI JUMPDEST POP DUP7 LT PUSH2 0x2A52 JUMPI PUSH2 0x166 SLOAD SWAP1 DUP6 DUP3 AND SWAP1 DUP2 ISZERO PUSH2 0x2A45 JUMPI DUP2 SUB PUSH2 0x2A15 JUMPI POP POP JUMPDEST DUP1 ISZERO PUSH2 0x2A09 JUMPI DUP5 PUSH2 0x2710 PUSH2 0x29D3 PUSH2 0x2A02 SWAP4 PUSH2 0x2A07 SWAP9 PUSH2 0x2671 JUMP JUMPDEST DIV SWAP5 PUSH2 0x29F7 PUSH2 0x29F0 DUP8 PUSH1 0x1 SHR SWAP8 PUSH2 0x29EA DUP10 DUP3 PUSH2 0x2684 JUMP JUMPDEST SWAP5 PUSH2 0x2684 JUMP JUMPDEST SWAP7 DUP6 PUSH2 0x282D JUMP JUMPDEST PUSH2 0x160 SLOAD AND DUP4 PUSH2 0x2F5A JUMP JUMPDEST PUSH2 0x2F5A JUMP JUMPDEST JUMP JUMPDEST POP PUSH2 0x2A07 SWAP4 SWAP3 POP PUSH2 0x2F5A JUMP JUMPDEST DUP5 DUP7 AND SUB PUSH2 0x2A3A JUMPI PUSH1 0xA0 SHR PUSH1 0xFF AND ISZERO SWAP1 POP PUSH2 0x2A32 JUMPI PUSH2 0x640 PUSH2 0x29B9 JUMP JUMPDEST PUSH2 0x190 PUSH2 0x29B9 JUMP JUMPDEST POP POP PUSH2 0x15F SLOAD PUSH2 0x29B9 JUMP JUMPDEST POP POP POP POP PUSH2 0x15F SLOAD PUSH2 0x29B9 JUMP JUMPDEST POP POP PUSH2 0x2A07 SWAP4 SWAP3 POP PUSH2 0x2F5A JUMP JUMPDEST SWAP1 POP CODESIZE PUSH2 0x299A JUMP JUMPDEST PUSH4 0x4E487B71 PUSH1 0xE0 SHL DUP4 MSTORE PUSH1 0x11 PUSH1 0x4 MSTORE PUSH1 0x24 DUP4 REVERT JUMPDEST POP DUP5 DUP5 AND DUP3 MSTORE PUSH1 0xFF PUSH1 0x40 DUP4 KECCAK256 SLOAD AND PUSH2 0x295F JUMP JUMPDEST PUSH1 0x0 DUP2 DUP2 MSTORE PUSH1 0x20 SWAP1 PUSH2 0x12D DUP3 MSTORE PUSH1 0x40 SWAP3 DUP4 DUP3 KECCAK256 CALLER DUP4 MSTORE DUP4 MSTORE PUSH1 0xFF DUP5 DUP4 KECCAK256 SLOAD AND ISZERO PUSH2 0x2AB8 JUMPI POP POP POP POP JUMP JUMPDEST CALLER SWAP1 DUP5 MLOAD PUSH2 0x2AC5 DUP2 PUSH2 0x24B3 JUMP JUMPDEST PUSH1 0x2A DUP2 MSTORE DUP5 DUP2 ADD SWAP2 DUP7 CALLDATASIZE DUP5 CALLDATACOPY DUP2 MLOAD ISZERO PUSH2 0x2D8C JUMPI PUSH1 0x30 DUP4 MSTORE8 DUP2 MLOAD SWAP4 PUSH1 0x1 SWAP5 PUSH1 0x1 LT ISZERO PUSH2 0x2D78 JUMPI PUSH1 0x78 PUSH1 0x21 DUP5 ADD MSTORE8 PUSH1 0x29 JUMPDEST DUP6 DUP2 GT PUSH2 0x2D0E JUMPI POP PUSH2 0x2CCC JUMPI DUP7 MLOAD SWAP4 PUSH1 0x80 DUP6 ADD DUP6 DUP2 LT PUSH8 0xFFFFFFFFFFFFFFFF DUP3 GT OR PUSH2 0x2CB8 JUMPI DUP9 MSTORE PUSH1 0x42 DUP6 MSTORE DUP7 DUP6 ADD SWAP6 PUSH1 0x60 CALLDATASIZE DUP9 CALLDATACOPY DUP6 MLOAD ISZERO PUSH2 0x2CA4 JUMPI PUSH1 0x30 DUP8 MSTORE8 DUP6 MLOAD PUSH1 0x1 LT ISZERO PUSH2 0x2CA4 JUMPI SWAP1 PUSH1 0x78 PUSH1 0x21 DUP8 ADD MSTORE8 PUSH1 0x41 SWAP2 JUMPDEST DUP2 DUP4 GT PUSH2 0x2C36 JUMPI POP POP POP PUSH2 0x2BF4 JUMPI SWAP4 DUP6 SWAP4 PUSH2 0x2BDA SWAP4 PUSH2 0x2BCB PUSH1 0x48 SWAP5 PUSH2 0x2BA2 PUSH32 0x416363657373436F6E74726F6C3A206163636F756E7420000000000000000000 SWAP10 PUSH2 0x2BF0 SWAP12 MLOAD SWAP11 DUP12 SWAP8 DUP9 ADD MSTORE MLOAD DUP1 SWAP3 PUSH1 0x37 DUP9 ADD SWAP1 PUSH2 0x241A JUMP JUMPDEST DUP5 ADD SWAP2 PUSH17 0x1034B99036B4B9B9B4B733903937B6329 PUSH1 0x7D SHL PUSH1 0x37 DUP5 ADD MSTORE MLOAD DUP1 SWAP4 DUP7 DUP5 ADD SWAP1 PUSH2 0x241A JUMP JUMPDEST ADD SUB PUSH1 0x28 DUP2 ADD DUP6 MSTORE ADD DUP4 PUSH2 0x24EB JUMP JUMPDEST MLOAD PUSH3 0x461BCD PUSH1 0xE5 SHL DUP2 MSTORE SWAP2 DUP3 SWAP2 PUSH1 0x4 DUP4 ADD PUSH2 0x243D JUMP JUMPDEST SUB SWAP1 REVERT JUMPDEST PUSH1 0x64 DUP6 DUP8 MLOAD SWAP1 PUSH3 0x461BCD PUSH1 0xE5 SHL DUP3 MSTORE DUP1 PUSH1 0x4 DUP4 ADD MSTORE PUSH1 0x24 DUP3 ADD MSTORE PUSH32 0x537472696E67733A20686578206C656E67746820696E73756666696369656E74 PUSH1 0x44 DUP3 ADD MSTORE REVERT JUMPDEST SWAP1 SWAP2 SWAP3 PUSH1 0xF DUP2 AND PUSH1 0x10 DUP2 LT ISZERO PUSH2 0x2C90 JUMPI PUSH16 0x181899199A1A9B1B9C1CB0B131B232B3 PUSH1 0x81 SHL SWAP1 BYTE PUSH2 0x2C66 DUP6 DUP10 PUSH2 0x3203 JUMP JUMPDEST MSTORE8 PUSH1 0x4 SHR SWAP3 DUP1 ISZERO PUSH2 0x2C7C JUMPI PUSH1 0x0 NOT ADD SWAP2 SWAP1 PUSH2 0x2B4A JUMP JUMPDEST PUSH4 0x4E487B71 PUSH1 0xE0 SHL DUP3 MSTORE PUSH1 0x11 PUSH1 0x4 MSTORE PUSH1 0x24 DUP3 REVERT JUMPDEST PUSH4 0x4E487B71 PUSH1 0xE0 SHL DUP4 MSTORE PUSH1 0x32 PUSH1 0x4 MSTORE PUSH1 0x24 DUP4 REVERT JUMPDEST PUSH4 0x4E487B71 PUSH1 0xE0 SHL DUP2 MSTORE PUSH1 0x32 PUSH1 0x4 MSTORE PUSH1 0x24 SWAP1 REVERT JUMPDEST PUSH4 0x4E487B71 PUSH1 0xE0 SHL DUP8 MSTORE PUSH1 0x41 PUSH1 0x4 MSTORE PUSH1 0x24 DUP8 REVERT JUMPDEST PUSH1 0x64 DUP7 DUP9 MLOAD SWAP1 PUSH3 0x461BCD PUSH1 0xE5 SHL DUP3 MSTORE DUP1 PUSH1 0x4 DUP4 ADD MSTORE PUSH1 0x24 DUP3 ADD MSTORE PUSH32 0x537472696E67733A20686578206C656E67746820696E73756666696369656E74 PUSH1 0x44 DUP3 ADD MSTORE REVERT JUMPDEST SWAP1 PUSH1 0xF DUP2 AND PUSH1 0x10 DUP2 LT ISZERO PUSH2 0x2D64 JUMPI PUSH16 0x181899199A1A9B1B9C1CB0B131B232B3 PUSH1 0x81 SHL SWAP1 BYTE PUSH2 0x2D3C DUP4 DUP7 PUSH2 0x3203 JUMP JUMPDEST MSTORE8 PUSH1 0x4 SHR SWAP1 DUP1 ISZERO PUSH2 0x2D50 JUMPI PUSH1 0x0 NOT ADD PUSH2 0x2AF4 JUMP JUMPDEST PUSH4 0x4E487B71 PUSH1 0xE0 SHL DUP8 MSTORE PUSH1 0x11 PUSH1 0x4 MSTORE PUSH1 0x24 DUP8 REVERT JUMPDEST PUSH4 0x4E487B71 PUSH1 0xE0 SHL DUP9 MSTORE PUSH1 0x32 PUSH1 0x4 MSTORE PUSH1 0x24 DUP9 REVERT JUMPDEST PUSH4 0x4E487B71 PUSH1 0xE0 SHL DUP7 MSTORE PUSH1 0x32 PUSH1 0x4 MSTORE PUSH1 0x24 DUP7 REVERT JUMPDEST PUSH4 0x4E487B71 PUSH1 0xE0 SHL DUP6 MSTORE PUSH1 0x32 PUSH1 0x4 MSTORE PUSH1 0x24 DUP6 REVERT JUMPDEST PUSH1 0x1 PUSH1 0x1 PUSH1 0xA0 SHL SUB AND PUSH1 0x0 DUP2 DUP2 MSTORE PUSH32 0xA581B17BFC4D6578E300CAFBF34FD2DC1FEF0270D8C73F88A99DCDE2859A6639 PUSH1 0x20 MSTORE PUSH1 0x40 DUP2 KECCAK256 SLOAD SWAP1 SWAP2 SWAP1 PUSH2 0x12D SWAP1 PUSH1 0xFF AND ISZERO PUSH2 0x2DEB JUMPI POP POP POP JUMP JUMPDEST DUP3 DUP1 MSTORE PUSH1 0x20 MSTORE PUSH1 0x40 DUP3 KECCAK256 DUP2 DUP4 MSTORE PUSH1 0x20 MSTORE PUSH1 0x40 DUP3 KECCAK256 PUSH1 0x1 PUSH1 0xFF NOT DUP3 SLOAD AND OR SWAP1 SSTORE CALLER SWAP2 PUSH32 0x2F8788117E7EFF1D82E926EC794901D17C78024A50270940304540A733656F0D DUP2 DUP1 LOG4 JUMP JUMPDEST PUSH1 0x1 PUSH1 0x1 PUSH1 0xA0 SHL SUB AND PUSH1 0x0 DUP2 DUP2 MSTORE PUSH32 0xF7EB0DABA1366A953481591555412F50097A7418B48CD07B54C80A4FE83E6584 PUSH1 0x20 MSTORE PUSH1 0x40 DUP2 KECCAK256 SLOAD SWAP1 SWAP2 SWAP1 PUSH1 0x0 DUP1 MLOAD PUSH1 0x20 PUSH2 0x32DC DUP4 CODECOPY DUP2 MLOAD SWAP2 MSTORE SWAP1 PUSH2 0x12D SWAP1 PUSH1 0xFF AND ISZERO PUSH2 0x2E8F JUMPI JUMPDEST POP POP POP POP JUMP JUMPDEST DUP2 DUP5 MSTORE PUSH1 0x20 MSTORE PUSH1 0x40 DUP4 KECCAK256 DUP3 DUP5 MSTORE PUSH1 0x20 MSTORE PUSH1 0x40 DUP4 KECCAK256 PUSH1 0x1 PUSH1 0xFF NOT DUP3 SLOAD AND OR SWAP1 SSTORE PUSH32 0x2F8788117E7EFF1D82E926EC794901D17C78024A50270940304540A733656F0D CALLER SWAP4 DUP1 LOG4 CODESIZE DUP1 DUP1 DUP1 PUSH2 0x2E89 JUMP JUMPDEST SWAP1 PUSH1 0x0 SWAP2 DUP1 DUP4 MSTORE PUSH2 0x12D DUP1 PUSH1 0x20 MSTORE PUSH1 0x40 DUP5 KECCAK256 SWAP3 PUSH1 0x1 DUP1 PUSH1 0xA0 SHL SUB AND SWAP3 DUP4 DUP6 MSTORE PUSH1 0x20 MSTORE PUSH1 0xFF PUSH1 0x40 DUP6 KECCAK256 SLOAD AND PUSH2 0x2F10 JUMPI POP POP POP POP JUMP JUMPDEST DUP2 DUP5 MSTORE PUSH1 0x20 MSTORE PUSH1 0x40 DUP4 KECCAK256 DUP3 DUP5 MSTORE PUSH1 0x20 MSTORE PUSH1 0x40 DUP4 KECCAK256 PUSH1 0xFF NOT DUP2 SLOAD AND SWAP1 SSTORE PUSH32 0xF6391F5C32D9C69D2A47EA670B442974B53935D1EDC7FD64EB21E047A839171B CALLER SWAP4 DUP1 LOG4 CODESIZE DUP1 DUP1 DUP1 PUSH2 0x2E89 JUMP JUMPDEST PUSH1 0x1 PUSH1 0x1 PUSH1 0xA0 SHL SUB SWAP1 DUP2 AND SWAP2 DUP3 ISZERO PUSH2 0x3077 JUMPI AND SWAP2 DUP3 ISZERO PUSH2 0x3026 JUMPI PUSH1 0x0 DUP3 DUP2 MSTORE PUSH1 0x33 PUSH1 0x20 MSTORE PUSH1 0x40 DUP2 KECCAK256 SLOAD SWAP2 DUP1 DUP4 LT PUSH2 0x2FD2 JUMPI PUSH1 0x40 DUP3 DUP3 PUSH32 0xDDF252AD1BE2C89B69C2B068FC378DAA952BA7F163C4A11628F55A4DF523B3EF SWAP6 DUP8 PUSH1 0x20 SWAP7 MSTORE PUSH1 0x33 DUP7 MSTORE SUB DUP3 DUP3 KECCAK256 SSTORE DUP7 DUP2 MSTORE KECCAK256 DUP2 DUP2 SLOAD ADD SWAP1 SSTORE PUSH1 0x40 MLOAD SWAP1 DUP2 MSTORE LOG3 JUMP JUMPDEST PUSH1 0x40 MLOAD PUSH3 0x461BCD PUSH1 0xE5 SHL DUP2 MSTORE PUSH1 0x20 PUSH1 0x4 DUP3 ADD MSTORE PUSH1 0x26 PUSH1 0x24 DUP3 ADD MSTORE PUSH32 0x45524332303A207472616E7366657220616D6F756E7420657863656564732062 PUSH1 0x44 DUP3 ADD MSTORE PUSH6 0x616C616E6365 PUSH1 0xD0 SHL PUSH1 0x64 DUP3 ADD MSTORE PUSH1 0x84 SWAP1 REVERT JUMPDEST PUSH1 0x40 MLOAD PUSH3 0x461BCD PUSH1 0xE5 SHL DUP2 MSTORE PUSH1 0x20 PUSH1 0x4 DUP3 ADD MSTORE PUSH1 0x23 PUSH1 0x24 DUP3 ADD MSTORE PUSH32 0x45524332303A207472616E7366657220746F20746865207A65726F2061646472 PUSH1 0x44 DUP3 ADD MSTORE PUSH3 0x657373 PUSH1 0xE8 SHL PUSH1 0x64 DUP3 ADD MSTORE PUSH1 0x84 SWAP1 REVERT JUMPDEST PUSH1 0x40 MLOAD PUSH3 0x461BCD PUSH1 0xE5 SHL DUP2 MSTORE PUSH1 0x20 PUSH1 0x4 DUP3 ADD MSTORE PUSH1 0x25 PUSH1 0x24 DUP3 ADD MSTORE PUSH32 0x45524332303A207472616E736665722066726F6D20746865207A65726F206164 PUSH1 0x44 DUP3 ADD MSTORE PUSH5 0x6472657373 PUSH1 0xD8 SHL PUSH1 0x64 DUP3 ADD MSTORE PUSH1 0x84 SWAP1 REVERT JUMPDEST PUSH1 0x65 DUP1 SLOAD PUSH1 0x1 PUSH1 0x1 PUSH1 0xA0 SHL SUB SWAP3 DUP4 AND PUSH1 0x1 PUSH1 0x1 PUSH1 0xA0 SHL SUB NOT DUP3 AND DUP2 OR SWAP1 SWAP3 SSTORE SWAP1 SWAP2 AND PUSH32 0x8BE0079C531659141344CD1FD0A4F28419497F9722A3DAAFE3B4186F6B6457E0 PUSH1 0x0 DUP1 LOG3 JUMP JUMPDEST ISZERO PUSH2 0x311A JUMPI JUMP JUMPDEST PUSH1 0x40 MLOAD PUSH3 0x461BCD PUSH1 0xE5 SHL DUP2 MSTORE PUSH1 0x20 PUSH1 0x4 DUP3 ADD MSTORE PUSH1 0x2B PUSH1 0x24 DUP3 ADD MSTORE PUSH32 0x496E697469616C697A61626C653A20636F6E7472616374206973206E6F742069 PUSH1 0x44 DUP3 ADD MSTORE PUSH11 0x6E697469616C697A696E67 PUSH1 0xA8 SHL PUSH1 0x64 DUP3 ADD MSTORE PUSH1 0x84 SWAP1 REVERT JUMPDEST DUP1 EXTCODESIZE ISZERO PUSH2 0x31A8 JUMPI PUSH1 0x0 DUP1 MLOAD PUSH1 0x20 PUSH2 0x32FC DUP4 CODECOPY DUP2 MLOAD SWAP2 MSTORE DUP1 SLOAD PUSH1 0x1 PUSH1 0x1 PUSH1 0xA0 SHL SUB NOT AND PUSH1 0x1 PUSH1 0x1 PUSH1 0xA0 SHL SUB SWAP1 SWAP3 AND SWAP2 SWAP1 SWAP2 OR SWAP1 SSTORE JUMP JUMPDEST PUSH1 0x40 MLOAD PUSH3 0x461BCD PUSH1 0xE5 SHL DUP2 MSTORE PUSH1 0x20 PUSH1 0x4 DUP3 ADD MSTORE PUSH1 0x2D PUSH1 0x24 DUP3 ADD MSTORE PUSH32 0x455243313936373A206E657720696D706C656D656E746174696F6E206973206E PUSH1 0x44 DUP3 ADD MSTORE PUSH13 0x1BDD08184818DBDB9D1C9858DD PUSH1 0x9A SHL PUSH1 0x64 DUP3 ADD MSTORE PUSH1 0x84 SWAP1 REVERT JUMPDEST SWAP1 DUP2 MLOAD DUP2 LT ISZERO PUSH2 0x3214 JUMPI ADD PUSH1 0x20 ADD SWAP1 JUMP JUMPDEST PUSH4 0x4E487B71 PUSH1 0xE0 SHL PUSH1 0x0 MSTORE PUSH1 0x32 PUSH1 0x4 MSTORE PUSH1 0x24 PUSH1 0x0 REVERT JUMPDEST SWAP2 SWAP3 SWAP1 ISZERO PUSH2 0x328C JUMPI POP DUP2 MLOAD ISZERO PUSH2 0x323E JUMPI POP SWAP1 JUMP JUMPDEST EXTCODESIZE ISZERO PUSH2 0x3247 JUMPI SWAP1 JUMP JUMPDEST PUSH1 0x40 MLOAD PUSH3 0x461BCD PUSH1 0xE5 SHL DUP2 MSTORE PUSH1 0x20 PUSH1 0x4 DUP3 ADD MSTORE PUSH1 0x1D PUSH1 0x24 DUP3 ADD MSTORE PUSH32 0x416464726573733A2063616C6C20746F206E6F6E2D636F6E7472616374000000 PUSH1 0x44 DUP3 ADD MSTORE PUSH1 0x64 SWAP1 REVERT JUMPDEST DUP3 MLOAD SWAP1 SWAP2 POP ISZERO PUSH2 0x329F JUMPI POP DUP1 MLOAD SWAP1 PUSH1 0x20 ADD REVERT JUMPDEST PUSH1 0x40 MLOAD PUSH3 0x461BCD PUSH1 0xE5 SHL DUP2 MSTORE SWAP1 DUP2 SWAP1 PUSH2 0x2BF0 SWAP1 PUSH1 0x4 DUP4 ADD PUSH2 0x243D JUMP INVALID BLOBBASEFEE GT 0xF9 0x4E KECCAK256 0xA9 EXTCODECOPY PUSH26 0xF6EC743A1954EC4FC2C08429AE2122118BF234B2185C81B871E1 MCOPY 0xDD EQ REVERT CALLVALUE XOR 0xEB PUSH5 0x12E352E921 EXTCODEHASH MSTORE8 PREVRANDAO DUP10 SWAP15 0xCE 0xBF NOT LOG3 0xE5 PUSH31 0x7D605E2472B2360894A13BA1A3210667C828492DB98DCA3E2076CC3735A920 LOG3 0xCA POP TSTORE CODESIZE 0x2B 0xBC TIMESTAMP 0xA7 0xB7 0xDD PUSH25 0x5CD69714A189DFFB3FD7D7174EDC9ECE837694CE50F7078F7C BALANCE 0xAE LOG2 PUSH5 0x6970667358 0x22 SLT KECCAK256 0xB7 0xC1 JUMPI ISZERO PUSH23 0xD7F90EEB0F6E79B45237466BDB30CBCDF8D806C19E9C78 SWAP16 0xCD PUSH12 0xFF64736F6C63430008190033 "},"methodIdentifiers":{"DAY_SELL_TAX_BPS()":"42bcef5a","DEFAULT_ADMIN_ROLE()":"a217fddf","INITIAL_SUPPLY()":"2ff2e9dc","MIN_EXEMPT_AMOUNT()":"72e90acf","MULTISIG_ADMIN_ROLE()":"c8f50b4c","NIGHT_SELL_TAX_BPS()":"9476d34c","allowance(address,address)":"dd62ed3e","approve(address,uint256)":"095ea7b3","approvedNFTContracts(address)":"50b65414","approvedPlatforms(address)":"fda49e40","balanceOf(address)":"70a08231","builder()":"d7e84fbf","burnForNFT(address,uint256)":"4f39cd24","burnKPIEvent(uint256)":"14ddc354","burnPlatformFee(uint256,uint256)":"671a07ed","burnRateBasisPoints()":"52328aa5","decimals()":"313ce567","decreaseAllowance(address,uint256)":"a457c2d7","dexPair()":"f242ab41","distributeInitialSupply(address,uint256)":"7ba287ec","dynamicBurnEnabled()":"cc244e14","exemptFromBurn(address)":"6e637cc5","getRoleAdmin(bytes32)":"248a9ca3","grantRole(bytes32,address)":"2f2ff15d","hasRole(bytes32,address)":"91d14854","increaseAllowance(address,uint256)":"39509351","initialize(address,address,address)":"c0c53b8b","isNight()":"52545c2a","name()":"06fdde03","owner()":"8da5cb5b","ownerInitialized()":"bebc2145","proxiableUUID()":"52d1902d","renounceOwnership()":"715018a6","renounceRole(bytes32,address)":"36568abe","reserveBurnAddress()":"058a80e6","revokeRole(bytes32,address)":"d547741f","setBurnRate(uint256)":"189d165e","setDexPair(address)":"ae36f5c8","setDynamicBurnEnabled(bool)":"92fcff90","setExemptFromBurn(address,bool)":"6257192b","setNFTContractApproved(address,bool)":"8f762409","setNightMode(bool)":"400ee06f","setPlatformApproved(address,bool)":"ebf17390","setReserveBurnAddress(address)":"12427bae","supportsInterface(bytes4)":"01ffc9a7","symbol()":"95d89b41","timelock()":"d33219b4","totalSupply()":"18160ddd","transfer(address,uint256)":"a9059cbb","transferFrom(address,address,uint256)":"23b872dd","transferOwnership(address)":"f2fde38b","trustedInitializer()":"9e85f9aa","upgradeTo(address)":"3659cfe6","upgradeToAndCall(address,bytes)":"4f1ef286"}},"storageLayout":{"storage":[{"astId":1895,"contract":"contracts/token/HYPEYToken.sol:HYPEYToken","label":"_initialized","offset":0,"slot":"0","type":"t_uint8"},{"astId":1898,"contract":"contracts/token/HYPEYToken.sol:HYPEYToken","label":"_initializing","offset":1,"slot":"0","type":"t_bool"},{"astId":3349,"contract":"contracts/token/HYPEYToken.sol:HYPEYToken","label":"__gap","offset":0,"slot":"1","type":"t_array(t_uint256)50_storage"},{"astId":2255,"contract":"contracts/token/HYPEYToken.sol:HYPEYToken","label":"_balances","offset":0,"slot":"51","type":"t_mapping(t_address,t_uint256)"},{"astId":2261,"contract":"contracts/token/HYPEYToken.sol:HYPEYToken","label":"_allowances","offset":0,"slot":"52","type":"t_mapping(t_address,t_mapping(t_address,t_uint256))"},{"astId":2263,"contract":"contracts/token/HYPEYToken.sol:HYPEYToken","label":"_totalSupply","offset":0,"slot":"53","type":"t_uint256"},{"astId":2265,"contract":"contracts/token/HYPEYToken.sol:HYPEYToken","label":"_name","offset":0,"slot":"54","type":"t_string_storage"},{"astId":2267,"contract":"contracts/token/HYPEYToken.sol:HYPEYToken","label":"_symbol","offset":0,"slot":"55","type":"t_string_storage"},{"astId":2847,"contract":"contracts/token/HYPEYToken.sol:HYPEYToken","label":"__gap","offset":0,"slot":"56","type":"t_array(t_uint256)45_storage"},{"astId":421,"contract":"contracts/token/HYPEYToken.sol:HYPEYToken","label":"_owner","offset":0,"slot":"101","type":"t_address"},{"astId":541,"contract":"contracts/token/HYPEYToken.sol:HYPEYToken","label":"__gap","offset":0,"slot":"102","type":"t_array(t_uint256)49_storage"},{"astId":1877,"contract":"contracts/token/HYPEYToken.sol:HYPEYToken","label":"__gap","offset":0,"slot":"151","type":"t_array(t_uint256)50_storage"},{"astId":2193,"contract":"contracts/token/HYPEYToken.sol:HYPEYToken","label":"__gap","offset":0,"slot":"201","type":"t_array(t_uint256)50_storage"},{"astId":3733,"contract":"contracts/token/HYPEYToken.sol:HYPEYToken","label":"__gap","offset":0,"slot":"251","type":"t_array(t_uint256)50_storage"},{"astId":28,"contract":"contracts/token/HYPEYToken.sol:HYPEYToken","label":"_roles","offset":0,"slot":"301","type":"t_mapping(t_bytes32,t_struct(RoleData)23_storage)"},{"astId":335,"contract":"contracts/token/HYPEYToken.sol:HYPEYToken","label":"__gap","offset":0,"slot":"302","type":"t_array(t_uint256)49_storage"},{"astId":4748,"contract":"contracts/token/HYPEYToken.sol:HYPEYToken","label":"burnRateBasisPoints","offset":0,"slot":"351","type":"t_uint256"},{"astId":4750,"contract":"contracts/token/HYPEYToken.sol:HYPEYToken","label":"reserveBurnAddress","offset":0,"slot":"352","type":"t_address"},{"astId":4754,"contract":"contracts/token/HYPEYToken.sol:HYPEYToken","label":"exemptFromBurn","offset":0,"slot":"353","type":"t_mapping(t_address,t_bool)"},{"astId":4756,"contract":"contracts/token/HYPEYToken.sol:HYPEYToken","label":"ownerInitialized","offset":0,"slot":"354","type":"t_bool"},{"astId":4760,"contract":"contracts/token/HYPEYToken.sol:HYPEYToken","label":"approvedPlatforms","offset":0,"slot":"355","type":"t_mapping(t_address,t_bool)"},{"astId":4764,"contract":"contracts/token/HYPEYToken.sol:HYPEYToken","label":"approvedNFTContracts","offset":0,"slot":"356","type":"t_mapping(t_address,t_bool)"},{"astId":4772,"contract":"contracts/token/HYPEYToken.sol:HYPEYToken","label":"timelock","offset":0,"slot":"357","type":"t_contract(TimelockControllerUpgradeable)1522"},{"astId":4974,"contract":"contracts/token/HYPEYToken.sol:HYPEYToken","label":"dynamicBurnEnabled","offset":20,"slot":"357","type":"t_bool"},{"astId":4976,"contract":"contracts/token/HYPEYToken.sol:HYPEYToken","label":"dexPair","offset":0,"slot":"358","type":"t_address"},{"astId":4978,"contract":"contracts/token/HYPEYToken.sol:HYPEYToken","label":"isNight","offset":20,"slot":"358","type":"t_bool"}],"types":{"t_address":{"encoding":"inplace","label":"address","numberOfBytes":"20"},"t_array(t_uint256)45_storage":{"base":"t_uint256","encoding":"inplace","label":"uint256[45]","numberOfBytes":"1440"},"t_array(t_uint256)49_storage":{"base":"t_uint256","encoding":"inplace","label":"uint256[49]","numberOfBytes":"1568"},"t_array(t_uint256)50_storage":{"base":"t_uint256","encoding":"inplace","label":"uint256[50]","numberOfBytes":"1600"},"t_bool":{"encoding":"inplace","label":"bool","numberOfBytes":"1"},"t_bytes32":{"encoding":"inplace","label":"bytes32","numberOfBytes":"32"},"t_contract(TimelockControllerUpgradeable)1522":{"encoding":"inplace","label":"contract TimelockControllerUpgradeable","numberOfBytes":"20"},"t_mapping(t_address,t_bool)":{"encoding":"mapping","key":"t_address","label":"mapping(address => bool)","numberOfBytes":"32","value":"t_bool"},"t_mapping(t_address,t_mapping(t_address,t_uint256))":{"encoding":"mapping","key":"t_address","label":"mapping(address => mapping(address => uint256))","numberOfBytes":"32","value":"t_mapping(t_address,t_uint256)"},"t_mapping(t_address,t_uint256)":{"encoding":"mapping","key":"t_address","label":"mapping(address => uint256)","numberOfBytes":"32","value":"t_uint256"},"t_mapping(t_bytes32,t_struct(RoleData)23_storage)":{"encoding":"mapping","key":"t_bytes32","label":"mapping(bytes32 => struct AccessControlUpgradeable.RoleData)","numberOfBytes":"32","value":"t_struct(RoleData)23_storage"},"t_string_storage":{"encoding":"bytes","label":"string","numberOfBytes":"32"},"t_struct(RoleData)23_storage":{"encoding":"inplace","label":"struct AccessControlUpgradeable.RoleData","members":[{"astId":20,"contract":"contracts/token/HYPEYToken.sol:HYPEYToken","label":"members","offset":0,"slot":"0","type":"t_mapping(t_address,t_bool)"},{"astId":22,"contract":"contracts/token/HYPEYToken.sol:HYPEYToken","label":"adminRole","offset":0,"slot":"1","type":"t_bytes32"}],"numberOfBytes":"64"},"t_uint256":{"encoding":"inplace","label":"uint256","numberOfBytes":"32"},"t_uint8":{"encoding":"inplace","label":"uint8","numberOfBytes":"1"}}}}}}