{
  "_format": "hh-sol-artifact-1",
  "contractName": "MockTimelock",
  "sourceName": "contracts/MockTimelock.sol",
  "abi": [
    {
      "anonymous": false,
      "inputs": [
        {
          "indexed": false,
          "internalType": "address",
          "name": "previousAdmin",
          "type": "address"
        },
        {
          "indexed": false,
          "internalType": "address",
          "name": "newAdmin",
          "type": "address"
        }
      ],
      "name": "AdminChanged",
      "type": "event"
    },
    {
      "anonymous": false,
      "inputs": [
        {
          "indexed": true,
          "internalType": "address",
          "name": "beacon",
          "type": "address"
        }
      ],
      "name": "BeaconUpgraded",
      "type": "event"
    },
    {
      "anonymous": false,
      "inputs": [
        {
          "indexed": true,
          "internalType": "bytes32",
          "name": "id",
          "type": "bytes32"
        },
        {
          "indexed": true,
          "internalType": "uint256",
          "name": "index",
          "type": "uint256"
        },
        {
          "indexed": false,
          "internalType": "address",
          "name": "target",
          "type": "address"
        },
        {
          "indexed": false,
          "internalType": "uint256",
          "name": "value",
          "type": "uint256"
        },
        {
          "indexed": false,
          "internalType": "bytes",
          "name": "data",
          "type": "bytes"
        }
      ],
      "name": "CallExecuted",
      "type": "event"
    },
    {
      "anonymous": false,
      "inputs": [
        {
          "indexed": true,
          "internalType": "bytes32",
          "name": "id",
          "type": "bytes32"
        },
        {
          "indexed": false,
          "internalType": "bytes32",
          "name": "salt",
          "type": "bytes32"
        }
      ],
      "name": "CallSalt",
      "type": "event"
    },
    {
      "anonymous": false,
      "inputs": [
        {
          "indexed": true,
          "internalType": "bytes32",
          "name": "id",
          "type": "bytes32"
        },
        {
          "indexed": true,
          "internalType": "uint256",
          "name": "index",
          "type": "uint256"
        },
        {
          "indexed": false,
          "internalType": "address",
          "name": "target",
          "type": "address"
        },
        {
          "indexed": false,
          "internalType": "uint256",
          "name": "value",
          "type": "uint256"
        },
        {
          "indexed": false,
          "internalType": "bytes",
          "name": "data",
          "type": "bytes"
        },
        {
          "indexed": false,
          "internalType": "bytes32",
          "name": "predecessor",
          "type": "bytes32"
        },
        {
          "indexed": false,
          "internalType": "uint256",
          "name": "delay",
          "type": "uint256"
        }
      ],
      "name": "CallScheduled",
      "type": "event"
    },
    {
      "anonymous": false,
      "inputs": [
        {
          "indexed": true,
          "internalType": "bytes32",
          "name": "id",
          "type": "bytes32"
        }
      ],
      "name": "Cancelled",
      "type": "event"
    },
    {
      "anonymous": false,
      "inputs": [
        {
          "indexed": false,
          "internalType": "uint8",
          "name": "version",
          "type": "uint8"
        }
      ],
      "name": "Initialized",
      "type": "event"
    },
    {
      "anonymous": false,
      "inputs": [
        {
          "indexed": false,
          "internalType": "uint256",
          "name": "oldDuration",
          "type": "uint256"
        },
        {
          "indexed": false,
          "internalType": "uint256",
          "name": "newDuration",
          "type": "uint256"
        }
      ],
      "name": "MinDelayChange",
      "type": "event"
    },
    {
      "anonymous": false,
      "inputs": [
        {
          "indexed": true,
          "internalType": "bytes32",
          "name": "role",
          "type": "bytes32"
        },
        {
          "indexed": true,
          "internalType": "bytes32",
          "name": "previousAdminRole",
          "type": "bytes32"
        },
        {
          "indexed": true,
          "internalType": "bytes32",
          "name": "newAdminRole",
          "type": "bytes32"
        }
      ],
      "name": "RoleAdminChanged",
      "type": "event"
    },
    {
      "anonymous": false,
      "inputs": [
        {
          "indexed": true,
          "internalType": "bytes32",
          "name": "role",
          "type": "bytes32"
        },
        {
          "indexed": true,
          "internalType": "address",
          "name": "account",
          "type": "address"
        },
        {
          "indexed": true,
          "internalType": "address",
          "name": "sender",
          "type": "address"
        }
      ],
      "name": "RoleGranted",
      "type": "event"
    },
    {
      "anonymous": false,
      "inputs": [
        {
          "indexed": true,
          "internalType": "bytes32",
          "name": "role",
          "type": "bytes32"
        },
        {
          "indexed": true,
          "internalType": "address",
          "name": "account",
          "type": "address"
        },
        {
          "indexed": true,
          "internalType": "address",
          "name": "sender",
          "type": "address"
        }
      ],
      "name": "RoleRevoked",
      "type": "event"
    },
    {
      "anonymous": false,
      "inputs": [
        {
          "indexed": true,
          "internalType": "address",
          "name": "implementation",
          "type": "address"
        }
      ],
      "name": "Upgraded",
      "type": "event"
    },
    {
      "inputs": [],
      "name": "CANCELLER_ROLE",
      "outputs": [
        {
          "internalType": "bytes32",
          "name": "",
          "type": "bytes32"
        }
      ],
      "stateMutability": "view",
      "type": "function"
    },
    {
      "inputs": [],
      "name": "DEFAULT_ADMIN_ROLE",
      "outputs": [
        {
          "internalType": "bytes32",
          "name": "",
          "type": "bytes32"
        }
      ],
      "stateMutability": "view",
      "type": "function"
    },
    {
      "inputs": [],
      "name": "EXECUTOR_ROLE",
      "outputs": [
        {
          "internalType": "bytes32",
          "name": "",
          "type": "bytes32"
        }
      ],
      "stateMutability": "view",
      "type": "function"
    },
    {
      "inputs": [],
      "name": "PROPOSER_ROLE",
      "outputs": [
        {
          "internalType": "bytes32",
          "name": "",
          "type": "bytes32"
        }
      ],
      "stateMutability": "view",
      "type": "function"
    },
    {
      "inputs": [],
      "name": "TIMELOCK_ADMIN_ROLE",
      "outputs": [
        {
          "internalType": "bytes32",
          "name": "",
          "type": "bytes32"
        }
      ],
      "stateMutability": "view",
      "type": "function"
    },
    {
      "inputs": [
        {
          "internalType": "bytes32",
          "name": "id",
          "type": "bytes32"
        }
      ],
      "name": "cancel",
      "outputs": [],
      "stateMutability": "nonpayable",
      "type": "function"
    },
    {
      "inputs": [
        {
          "internalType": "address",
          "name": "target",
          "type": "address"
        },
        {
          "internalType": "uint256",
          "name": "value",
          "type": "uint256"
        },
        {
          "internalType": "bytes",
          "name": "payload",
          "type": "bytes"
        },
        {
          "internalType": "bytes32",
          "name": "predecessor",
          "type": "bytes32"
        },
        {
          "internalType": "bytes32",
          "name": "salt",
          "type": "bytes32"
        }
      ],
      "name": "execute",
      "outputs": [],
      "stateMutability": "payable",
      "type": "function"
    },
    {
      "inputs": [
        {
          "internalType": "address[]",
          "name": "targets",
          "type": "address[]"
        },
        {
          "internalType": "uint256[]",
          "name": "values",
          "type": "uint256[]"
        },
        {
          "internalType": "bytes[]",
          "name": "payloads",
          "type": "bytes[]"
        },
        {
          "internalType": "bytes32",
          "name": "predecessor",
          "type": "bytes32"
        },
        {
          "internalType": "bytes32",
          "name": "salt",
          "type": "bytes32"
        }
      ],
      "name": "executeBatch",
      "outputs": [],
      "stateMutability": "payable",
      "type": "function"
    },
    {
      "inputs": [],
      "name": "getMinDelay",
      "outputs": [
        {
          "internalType": "uint256",
          "name": "",
          "type": "uint256"
        }
      ],
      "stateMutability": "view",
      "type": "function"
    },
    {
      "inputs": [
        {
          "internalType": "bytes32",
          "name": "role",
          "type": "bytes32"
        }
      ],
      "name": "getRoleAdmin",
      "outputs": [
        {
          "internalType": "bytes32",
          "name": "",
          "type": "bytes32"
        }
      ],
      "stateMutability": "view",
      "type": "function"
    },
    {
      "inputs": [
        {
          "internalType": "bytes32",
          "name": "id",
          "type": "bytes32"
        }
      ],
      "name": "getTimestamp",
      "outputs": [
        {
          "internalType": "uint256",
          "name": "",
          "type": "uint256"
        }
      ],
      "stateMutability": "view",
      "type": "function"
    },
    {
      "inputs": [
        {
          "internalType": "bytes32",
          "name": "role",
          "type": "bytes32"
        },
        {
          "internalType": "address",
          "name": "account",
          "type": "address"
        }
      ],
      "name": "grantRole",
      "outputs": [],
      "stateMutability": "nonpayable",
      "type": "function"
    },
    {
      "inputs": [
        {
          "internalType": "bytes32",
          "name": "role",
          "type": "bytes32"
        },
        {
          "internalType": "address",
          "name": "account",
          "type": "address"
        }
      ],
      "name": "hasRole",
      "outputs": [
        {
          "internalType": "bool",
          "name": "",
          "type": "bool"
        }
      ],
      "stateMutability": "view",
      "type": "function"
    },
    {
      "inputs": [
        {
          "internalType": "address",
          "name": "target",
          "type": "address"
        },
        {
          "internalType": "uint256",
          "name": "value",
          "type": "uint256"
        },
        {
          "internalType": "bytes",
          "name": "data",
          "type": "bytes"
        },
        {
          "internalType": "bytes32",
          "name": "predecessor",
          "type": "bytes32"
        },
        {
          "internalType": "bytes32",
          "name": "salt",
          "type": "bytes32"
        }
      ],
      "name": "hashOperation",
      "outputs": [
        {
          "internalType": "bytes32",
          "name": "",
          "type": "bytes32"
        }
      ],
      "stateMutability": "pure",
      "type": "function"
    },
    {
      "inputs": [
        {
          "internalType": "address[]",
          "name": "targets",
          "type": "address[]"
        },
        {
          "internalType": "uint256[]",
          "name": "values",
          "type": "uint256[]"
        },
        {
          "internalType": "bytes[]",
          "name": "payloads",
          "type": "bytes[]"
        },
        {
          "internalType": "bytes32",
          "name": "predecessor",
          "type": "bytes32"
        },
        {
          "internalType": "bytes32",
          "name": "salt",
          "type": "bytes32"
        }
      ],
      "name": "hashOperationBatch",
      "outputs": [
        {
          "internalType": "bytes32",
          "name": "",
          "type": "bytes32"
        }
      ],
      "stateMutability": "pure",
      "type": "function"
    },
    {
      "inputs": [
        {
          "internalType": "uint256",
          "name": "minDelay",
          "type": "uint256"
        },
        {
          "internalType": "address[]",
          "name": "proposers",
          "type": "address[]"
        },
        {
          "internalType": "address[]",
          "name": "executors",
          "type": "address[]"
        },
        {
          "internalType": "address",
          "name": "admin",
          "type": "address"
        }
      ],
      "name": "initialize",
      "outputs": [],
      "stateMutability": "nonpayable",
      "type": "function"
    },
    {
      "inputs": [
        {
          "internalType": "bytes32",
          "name": "id",
          "type": "bytes32"
        }
      ],
      "name": "isOperation",
      "outputs": [
        {
          "internalType": "bool",
          "name": "",
          "type": "bool"
        }
      ],
      "stateMutability": "view",
      "type": "function"
    },
    {
      "inputs": [
        {
          "internalType": "bytes32",
          "name": "id",
          "type": "bytes32"
        }
      ],
      "name": "isOperationDone",
      "outputs": [
        {
          "internalType": "bool",
          "name": "",
          "type": "bool"
        }
      ],
      "stateMutability": "view",
      "type": "function"
    },
    {
      "inputs": [
        {
          "internalType": "bytes32",
          "name": "id",
          "type": "bytes32"
        }
      ],
      "name": "isOperationPending",
      "outputs": [
        {
          "internalType": "bool",
          "name": "",
          "type": "bool"
        }
      ],
      "stateMutability": "view",
      "type": "function"
    },
    {
      "inputs": [
        {
          "internalType": "bytes32",
          "name": "id",
          "type": "bytes32"
        }
      ],
      "name": "isOperationReady",
      "outputs": [
        {
          "internalType": "bool",
          "name": "",
          "type": "bool"
        }
      ],
      "stateMutability": "view",
      "type": "function"
    },
    {
      "inputs": [
        {
          "internalType": "address",
          "name": "",
          "type": "address"
        },
        {
          "internalType": "address",
          "name": "",
          "type": "address"
        },
        {
          "internalType": "uint256[]",
          "name": "",
          "type": "uint256[]"
        },
        {
          "internalType": "uint256[]",
          "name": "",
          "type": "uint256[]"
        },
        {
          "internalType": "bytes",
          "name": "",
          "type": "bytes"
        }
      ],
      "name": "onERC1155BatchReceived",
      "outputs": [
        {
          "internalType": "bytes4",
          "name": "",
          "type": "bytes4"
        }
      ],
      "stateMutability": "nonpayable",
      "type": "function"
    },
    {
      "inputs": [
        {
          "internalType": "address",
          "name": "",
          "type": "address"
        },
        {
          "internalType": "address",
          "name": "",
          "type": "address"
        },
        {
          "internalType": "uint256",
          "name": "",
          "type": "uint256"
        },
        {
          "internalType": "uint256",
          "name": "",
          "type": "uint256"
        },
        {
          "internalType": "bytes",
          "name": "",
          "type": "bytes"
        }
      ],
      "name": "onERC1155Received",
      "outputs": [
        {
          "internalType": "bytes4",
          "name": "",
          "type": "bytes4"
        }
      ],
      "stateMutability": "nonpayable",
      "type": "function"
    },
    {
      "inputs": [
        {
          "internalType": "address",
          "name": "",
          "type": "address"
        },
        {
          "internalType": "address",
          "name": "",
          "type": "address"
        },
        {
          "internalType": "uint256",
          "name": "",
          "type": "uint256"
        },
        {
          "internalType": "bytes",
          "name": "",
          "type": "bytes"
        }
      ],
      "name": "onERC721Received",
      "outputs": [
        {
          "internalType": "bytes4",
          "name": "",
          "type": "bytes4"
        }
      ],
      "stateMutability": "nonpayable",
      "type": "function"
    },
    {
      "inputs": [],
      "name": "proxiableUUID",
      "outputs": [
        {
          "internalType": "bytes32",
          "name": "",
          "type": "bytes32"
        }
      ],
      "stateMutability": "view",
      "type": "function"
    },
    {
      "inputs": [
        {
          "internalType": "bytes32",
          "name": "role",
          "type": "bytes32"
        },
        {
          "internalType": "address",
          "name": "account",
          "type": "address"
        }
      ],
      "name": "renounceRole",
      "outputs": [],
      "stateMutability": "nonpayable",
      "type": "function"
    },
    {
      "inputs": [
        {
          "internalType": "bytes32",
          "name": "role",
          "type": "bytes32"
        },
        {
          "internalType": "address",
          "name": "account",
          "type": "address"
        }
      ],
      "name": "revokeRole",
      "outputs": [],
      "stateMutability": "nonpayable",
      "type": "function"
    },
    {
      "inputs": [
        {
          "internalType": "address",
          "name": "target",
          "type": "address"
        },
        {
          "internalType": "uint256",
          "name": "value",
          "type": "uint256"
        },
        {
          "internalType": "bytes",
          "name": "data",
          "type": "bytes"
        },
        {
          "internalType": "bytes32",
          "name": "predecessor",
          "type": "bytes32"
        },
        {
          "internalType": "bytes32",
          "name": "salt",
          "type": "bytes32"
        },
        {
          "internalType": "uint256",
          "name": "delay",
          "type": "uint256"
        }
      ],
      "name": "schedule",
      "outputs": [],
      "stateMutability": "nonpayable",
      "type": "function"
    },
    {
      "inputs": [
        {
          "internalType": "address[]",
          "name": "targets",
          "type": "address[]"
        },
        {
          "internalType": "uint256[]",
          "name": "values",
          "type": "uint256[]"
        },
        {
          "internalType": "bytes[]",
          "name": "payloads",
          "type": "bytes[]"
        },
        {
          "internalType": "bytes32",
          "name": "predecessor",
          "type": "bytes32"
        },
        {
          "internalType": "bytes32",
          "name": "salt",
          "type": "bytes32"
        },
        {
          "internalType": "uint256",
          "name": "delay",
          "type": "uint256"
        }
      ],
      "name": "scheduleBatch",
      "outputs": [],
      "stateMutability": "nonpayable",
      "type": "function"
    },
    {
      "inputs": [
        {
          "internalType": "bytes4",
          "name": "interfaceId",
          "type": "bytes4"
        }
      ],
      "name": "supportsInterface",
      "outputs": [
        {
          "internalType": "bool",
          "name": "",
          "type": "bool"
        }
      ],
      "stateMutability": "view",
      "type": "function"
    },
    {
      "inputs": [
        {
          "internalType": "uint256",
          "name": "newDelay",
          "type": "uint256"
        }
      ],
      "name": "updateDelay",
      "outputs": [],
      "stateMutability": "nonpayable",
      "type": "function"
    },
    {
      "inputs": [
        {
          "internalType": "address",
          "name": "newImplementation",
          "type": "address"
        }
      ],
      "name": "upgradeTo",
      "outputs": [],
      "stateMutability": "nonpayable",
      "type": "function"
    },
    {
      "inputs": [
        {
          "internalType": "address",
          "name": "newImplementation",
          "type": "address"
        },
        {
          "internalType": "bytes",
          "name": "data",
          "type": "bytes"
        }
      ],
      "name": "upgradeToAndCall",
      "outputs": [],
      "stateMutability": "payable",
      "type": "function"
    },
    {
      "stateMutability": "payable",
      "type": "receive"
    }
  ],
  "bytecode": "0x60a0806040523460305730608052612d9e908161003682396080518181816110300152818161111d015261138c0152f35b600080fdfe608060405260048036101561001d575b50361561001b57600080fd5b005b60003560e01c90816301d5062a1461199357816301ffc9a71461192557816307bd0265146118fc5781630d3cf6fc146118d3578163134008d31461183057816313bc9f2014611813578163150b7a02146117bf578163248a9ca3146117925781632ab0f529146117665781632f2ff15d146116c557816331d507501461169a57816336568abe1461160b5781633659cfe6146113675781634f1ef286146110e057816352d1902d1461101d578163584b153e14610fe757816364d6235314610f3c5781638065657f14610f1d5781638f2a0bb014610dc25781638f61f4f514610d9957816391d1485414610d4d578163a217fddf14610d31578163b08e51c014610d08578163b1c5f42714610cde578163bc197c8114610c59578163c4c4c7b314610643578163c4d252f514610388578163d45c44351461035e578163d547741f1461031e578163e38335e514610201578163f23a6e61146101ad575063f27a0c921461018a573861000f565b346101a85760003660031901126101a8576020609854604051908152f35b600080fd5b346101a85760a03660031901126101a8576101c6611a3d565b506101cf611a53565b50608435906001600160401b0382116101a8576101ee91369101611b80565b5060405163f23a6e6160e01b8152602090f35b61028361027c61021036611bf7565b60008052600080516020612ca98339815191526020527fa01e231ca478cf51f663e103939e98de36fa76d3e4e0b1de673dc711acc3a01b5492999198939693919260ff1615610310575b610265858514611ef2565b6102708a8514611ef2565b888a888789888d611fc5565b96876127ff565b60005b8181106102965761001b8761294f565b8080887fc2617efa69bab66782fa219543714338489c4e9e178271560a91b82c3f612b5888886103076102ee8f986001998f828e6102e18f836102dc916102e796611f4a565b611f70565b97611f4a565b3595611f84565b906102fb828287876128c5565b60405194859485611d90565b0390a301610286565b6103193361242b565b61025a565b346101a85760403660031901126101a85761001b903561033c611a53565b90806000526065602052610359600160406000200154339061268a565b61296d565b346101a85760203660031901126101a8573560005260976020526020604060002054604051908152f35b346101a8576020806003193601126101a857813591600080516020612d498339815191528060005260658352604060002033600052835260ff604060002054161561047e57506103e683600052609760205260016040600020541190565b1561042257506097908260005252600060408120557fbaa1eb22f2a492ba1a5fea61b8df4d27c6c8b5f3971e63bb58fa14ff72eedb70600080a2005b6084916040519162461bcd60e51b8352820152603160248201527f54696d656c6f636b436f6e74726f6c6c65723a206f7065726174696f6e2063616044820152701b9b9bdd0818994818d85b98d95b1b1959607a1b6064820152fd5b61048733612a54565b6040519061049482611b29565b6042825284820192606036853782511561062e576030845382516001906001101561061957607860218501536041905b8082116105ac57505061056a579361054d9260489261053e61051597604051988576020b1b1b2b9b9a1b7b73a3937b61d1030b1b1b7bab73a1604d1b8b978801528251928391603789019101612208565b8401917001034b99036b4b9b9b4b733903937b6329607d1b603784015251809386840190612208565b01036028810185520183611b44565b61056660405192839262461bcd60e51b8452830161222b565b0390fd5b60648486806040519262461bcd60e51b845283015260248201527f537472696e67733a20686578206c656e67746820696e73756666696369656e746044820152fd5b9091600f81166010811015610604576f181899199a1a9b1b9c1cb0b131b232b360811b901a6105db8487612a43565b53861c9180156105ef5760001901906104c4565b601187634e487b7160e01b6000525260246000fd5b603288634e487b7160e01b6000525260246000fd5b603286634e487b7160e01b6000525260246000fd5b603285634e487b7160e01b6000525260246000fd5b346101a85760803660031901126101a8576001600160401b036024358181116101a8576106739036908401611ccf565b906044359081116101a85761068b9036908401611ccf565b606435929091906001600160a01b03841684036101a8576000549360ff8560081c161594858096610c4c575b8015610c35575b15610bda5760ff19811660011760005585610bc8575b506106ef60ff60005460081c166106ea816129e3565b6129e3565b600080516020612ce98339815191526000526065602052600080516020612ce983398151915260016040600020018181549155817fbd79b86ffe0ab8e8776151514217cd7cacd52c909f66475c3af44e129f0b00ff918183600080a4600080516020612d098339815191526000528160016040600020018181549155600080516020612d0983398151915283600080a4600080516020612d298339815191526000528160016040600020018181549155600080516020612d2983398151915283600080a4600080516020612d49833981519152600052600080516020612d498339815191526001604060002001918383549355600080a4600080516020612ce983398151915260005260406000203060005260205260ff6040600020541615610b65575b6001600160a01b038116610aba575b5060005b8251811015610992576001906001600160a01b036108448286612be3565b511660008181527fafe71ff1fe81c59ca16af21c02420893e650adae4948ece1623218f842885477602052604090205460ff1615610930575b50818060a01b0361088e8286612be3565b511660008181527fb33a3829f2d1f31fd111fcd13892b72b93a782f7b93bf968903b15b040efa320602052604090205460ff16156108ce575b5001610826565b60008181527fb33a3829f2d1f31fd111fcd13892b72b93a782f7b93bf968903b15b040efa32060205260408120805460ff191685179055339190600080516020612d4983398151915290600080516020612c898339815191529080a4866108c7565b60008181527fafe71ff1fe81c59ca16af21c02420893e650adae4948ece1623218f84288547760205260408120805460ff191685179055339190600080516020612d0983398151915290600080516020612c898339815191529080a48661087d565b84828560005b8151811015610a34576001906001600160a01b036109b68285612be3565b51166000818152600080516020612ca9833981519152602052604090205460ff16156109e4575b5001610998565b6000818152600080516020612ca983398151915260205260408120805460ff191685179055339190600080516020612d2983398151915290600080516020612c898339815191529080a4856109dd565b837f11c24f4ead16507c69ac467fbd5e4eed5fb5c699626d2cc6d66421df253886d5604085803560985581519060008252356020820152a160005490610a7f60ff8360081c166129e3565b610a8557005b61ff0019166000557f7f26b83ff96e1f2b6a682f133852f6798a09c465da95921460cefb3847402498602060405160018152a1005b6001600160a01b03811660009081527fa7f0fe6b160f14839da5807e54d8be701aeb7039e18d9515384c8011270d6e77602052604090205460ff16610822576001600160a01b031660008181527fa7f0fe6b160f14839da5807e54d8be701aeb7039e18d9515384c8011270d6e7760205260408120805460ff19166001179055339190600080516020612ce983398151915290600080516020612c898339815191529080a484610822565b3060008181527fa7f0fe6b160f14839da5807e54d8be701aeb7039e18d9515384c8011270d6e7760205260408120805460ff19166001179055339190600080516020612ce983398151915290600080516020612c898339815191529080a4610813565b61ffff191661010117600055856106d4565b60405162461bcd60e51b8152602081850152602e60248201527f496e697469616c697a61626c653a20636f6e747261637420697320616c72656160448201526d191e481a5b9a5d1a585b1a5e995960921b6064820152608490fd5b50303b1580156106be5750600160ff8216146106be565b50600160ff8216106106b7565b346101a85760a03660031901126101a857610c72611a3d565b50610c7b611a53565b506001600160401b03906044358281116101a857610c9c9036908301611c6f565b506064358281116101a857610cb49036908301611c6f565b506084359182116101a857610ccb91369101611b80565b5060405163bc197c8160e01b8152602090f35b346101a8576020610d00610cf136611bf7565b96959095949194939293611fc5565b604051908152f35b346101a85760003660031901126101a8576020604051600080516020612d498339815191528152f35b346101a85760003660031901126101a857602060405160008152f35b346101a85760403660031901126101a857610d66611a53565b9035600052606560205260406000209060018060a01b0316600052602052602060ff604060002054166040519015158152f35b346101a85760003660031901126101a8576020604051600080516020612d098339815191528152f35b346101a85760c03660031901126101a8576001600160401b039080358281116101a857610df29036908301611bc7565b926024358181116101a857610e0a9036908501611bc7565b9190936044359182116101a857610e2684918693369101611bc7565b60649491943591610e6389848489856084359d8e9560a4359b610e4833612257565b610e53848314611ef2565b610e5e868314611ef2565b611fc5565b98610e6e858b612102565b8960005b828110610eaf57508980610e8257005b60207f20fda5fd27a1ea7bf5b9567f143ac5470bb059374a27e8f67cb44f946f6d038791604051908152a2005b806001927f4cf4410cc57040e44862ef0f45f3dd5a5e02db8eb8add648d4b0e236f1d07dca8b8b610f128f8c610f058f928e610efe8f8f90610ef86102dc8f8097948195611f4a565b99611f4a565b3597611f84565b9060405196879687611d58565b0390a3018a90610e72565b346101a8576020610d00610f3036611aaa565b94939093929192611e9d565b346101a85760203660031901126101a857803590303303610f8f57507f11c24f4ead16507c69ac467fbd5e4eed5fb5c699626d2cc6d66421df253886d560406098548151908152836020820152a1609855005b60849060206040519162461bcd60e51b8352820152602b60248201527f54696d656c6f636b436f6e74726f6c6c65723a2063616c6c6572206d7573742060448201526a62652074696d656c6f636b60a81b6064820152fd5b346101a85760203660031901126101a85761101360209135600052609760205260016040600020541190565b6040519015158152f35b346101a85760003660031901126101a8577f00000000000000000000000000000000000000000000000000000000000000006001600160a01b03163003611076576020604051600080516020612cc98339815191528152f35b60849060206040519162461bcd60e51b8352820152603860248201527f555550535570677261646561626c653a206d757374206e6f742062652063616c60448201527f6c6564207468726f7567682064656c656761746563616c6c00000000000000006064820152fd5b60403660031901126101a8576110f4611a3d565b6024356001600160401b0381116101a8576111129036908401611b80565b916001600160a01b037f000000000000000000000000000000000000000000000000000000000000000081169061114b30831415611ddb565b611168600080516020612cc9833981519152928284541614611e3c565b61117133612559565b7f4910fdfa16fed3260ed0e7147f7cc6da11a60208b5b9406d12a635614ffd91435460ff16156111a85750505061001b9150612b53565b8391929316604051926352d1902d60e01b845260209384818781865afa60009181611338575b5061122e5760405162461bcd60e51b8152808701869052602e60248201527f45524331393637557067726164653a206e657720696d706c656d656e7461746960448201526d6f6e206973206e6f74205555505360901b6064820152608490fd5b9491929394036112e2575061124282612b53565b7fbc7cd75a20ee27fd9adebab32041f755214dbc6bffa90cc0225b39da2e5c2d3b600080a28251158015906112da575b61127857005b60008061001b946040519461128c86611af8565b602786527f416464726573733a206c6f772d6c6576656c2064656c65676174652063616c6c81870152660819985a5b195960ca1b604087015281519101845af46112d4612895565b91612bf7565b506001611272565b60405162461bcd60e51b8152908101849052602960248201527f45524331393637557067726164653a20756e737570706f727465642070726f786044820152681a58589b195555525160ba1b6064820152608490fd5b9091508581813d8311611360575b6113508183611b44565b810103126101a8575190886111ce565b503d611346565b346101a857602090816003193601126101a857611382611a3d565b6001600160a01b037f0000000000000000000000000000000000000000000000000000000000000000811693919291906113be30861415611ddb565b6113db600080516020612cc9833981519152958287541614611e3c565b6113e433612559565b60405194828601918683106001600160401b038411176115f657826040526000875260ff7f4910fdfa16fed3260ed0e7147f7cc6da11a60208b5b9406d12a635614ffd9143541660001461144157505050505061001b9150612b53565b8593949516906040516352d1902d60e01b815285818881865afa600091816115c7575b506114c45760405162461bcd60e51b8152808801879052602e60248201527f45524331393637557067726164653a206e657720696d706c656d656e7461746960448201526d6f6e206973206e6f74205555505360901b6064820152608490fd5b9591929394950361157157506114d983612b53565b7fbc7cd75a20ee27fd9adebab32041f755214dbc6bffa90cc0225b39da2e5c2d3b600080a2835115801590611569575b61150f57005b6000809161001b957f416464726573733a206c6f772d6c6576656c2064656c65676174652063616c6c6040519661154588611af8565b60278852870152660819985a5b195960ca1b60408701525190845af46112d4612895565b506000611509565b60405162461bcd60e51b8152908101859052602960248201527f45524331393637557067726164653a20756e737570706f727465642070726f786044820152681a58589b195555525160ba1b6064820152608490fd5b9091508681813d83116115ef575b6115df8183611b44565b810103126101a857519089611464565b503d6115d5565b604185634e487b7160e01b6000525260246000fd5b346101a85760403660031901126101a857611624611a53565b336001600160a01b0382160361163e5761001b913561296d565b60405162461bcd60e51b8152602081840152602f60248201527f416363657373436f6e74726f6c3a2063616e206f6e6c792072656e6f756e636560448201526e103937b632b9903337b91039b2b63360891b6064820152608490fd5b346101a85760203660031901126101a857611013602091356000526097602052604060002054151590565b346101a85760403660031901126101a857356116df611a53565b8160005260656020526116fb600160406000200154339061268a565b81600052606560205260406000209060018060a01b0316908160005260205260ff604060002054161561172a57005b8160005260656020526040600020816000526020526040600020600160ff198254161790553391600080516020612c89833981519152600080a4005b346101a85760203660031901126101a85761101360209135600052609760205260016040600020541490565b346101a85760203660031901126101a8573560005260656020526020600160406000200154604051908152f35b346101a85760803660031901126101a8576117d8611a3d565b506117e1611a53565b50606435906001600160401b0382116101a85761180091369101611b80565b50604051630a85bd0160e11b8152602090f35b346101a85760203660031901126101a85761101360209135611db7565b61001b6118b160006118bd7fc2617efa69bab66782fa219543714338489c4e9e178271560a91b82c3f612b586118a861186836611aaa565b600080516020612d298339815191528a999597929994939452606560205260408a208a805260205260ff60408b205416156118c5575b8884848989611e9d565b988997886127ff565b6102fb828287876128c5565b0390a361294f565b6118ce3361242b565b61189e565b346101a85760003660031901126101a8576020604051600080516020612ce98339815191528152f35b346101a85760003660031901126101a8576020604051600080516020612d298339815191528152f35b346101a85760203660031901126101a8573563ffffffff60e01b81168091036101a857602090630271189760e51b8114908115611968575b506040519015158152f35b637965db0b60e01b811491508115611982575b508261195d565b6301ffc9a760e01b1490508261197b565b346101a85760c03660031901126101a8576119ac611a3d565b604435916024356001600160401b0384116101a8576119f16000927f4cf4410cc57040e44862ef0f45f3dd5a5e02db8eb8add648d4b0e236f1d07dca95369101611a7d565b94909160643594611a336084359660a43590611a0c33612257565b611a1a89828c8a8989611e9d565b998a97611a27848a612102565b60405196879687611d58565b0390a380610e8257005b600435906001600160a01b03821682036101a857565b602435906001600160a01b03821682036101a857565b35906001600160a01b03821682036101a857565b9181601f840112156101a8578235916001600160401b0383116101a857602083818601950101116101a857565b60a06003198201126101a8576004356001600160a01b03811681036101a8579160243591604435906001600160401b0382116101a857611aec91600401611a7d565b90916064359060843590565b606081019081106001600160401b03821117611b1357604052565b634e487b7160e01b600052604160045260246000fd5b608081019081106001600160401b03821117611b1357604052565b90601f801991011681019081106001600160401b03821117611b1357604052565b6001600160401b038111611b1357601f01601f191660200190565b81601f820112156101a857803590611b9782611b65565b92611ba56040519485611b44565b828452602083830101116101a857816000926020809301838601378301015290565b9181601f840112156101a8578235916001600160401b0383116101a8576020808501948460051b0101116101a857565b9060a06003198301126101a8576001600160401b036004358181116101a85783611c2391600401611bc7565b939093926024358381116101a85782611c3e91600401611bc7565b939093926044359182116101a857611aec91600401611bc7565b6001600160401b038111611b135760051b60200190565b9080601f830112156101a8576020908235611c8981611c58565b93611c976040519586611b44565b81855260208086019260051b8201019283116101a857602001905b828210611cc0575050505090565b81358152908301908301611cb2565b9080601f830112156101a8576020908235611ce981611c58565b93611cf76040519586611b44565b81855260208086019260051b8201019283116101a857602001905b828210611d20575050505090565b838091611d2c84611a69565b815201910190611d12565b908060209392818452848401376000828201840152601f01601f1916010190565b929093611d86926080959897969860018060a01b03168552602085015260a0604085015260a0840191611d37565b9460608201520152565b611db4949260609260018060a01b0316825260208201528160408201520191611d37565b90565b6000526097602052604060002054600181119081611dd3575090565b905042101590565b15611de257565b60405162461bcd60e51b815260206004820152602c60248201527f46756e6374696f6e206d7573742062652063616c6c6564207468726f7567682060448201526b19195b1959d85d1958d85b1b60a21b6064820152608490fd5b15611e4357565b60405162461bcd60e51b815260206004820152602c60248201527f46756e6374696f6e206d7573742062652063616c6c6564207468726f7567682060448201526b6163746976652070726f787960a01b6064820152608490fd5b94611ed3611eec94959293604051968795602087019960018060a01b03168a52604087015260a0606087015260c0860191611d37565b91608084015260a083015203601f198101835282611b44565b51902090565b15611ef957565b60405162461bcd60e51b815260206004820152602360248201527f54696d656c6f636b436f6e74726f6c6c65723a206c656e677468206d69736d616044820152620e8c6d60eb1b6064820152608490fd5b9190811015611f5a5760051b0190565b634e487b7160e01b600052603260045260246000fd5b356001600160a01b03811681036101a85790565b9190811015611f5a5760051b81013590601e19813603018212156101a85701908135916001600160401b0383116101a85760200182360381136101a8579190565b969294909695919560405196602091828901998060c08b0160a08d525260e08a01919060005b858282106120de5750505050888103601f1990810160408b0152888252976001600160fb1b0381116101a8579089969495939897929160051b80928a830137019380888601878703606089015252604085019460408260051b82010195836000925b84841061207557505050505050611eec9550608084015260a083015203908101835282611b44565b9193969850919398999496603f198282030184528935601e19843603018112156101a85783018681019190356001600160401b0381116101a85780360383136101a8576120c788928392600195611d37565b9b0194019401918b98969394919a9997959a61204d565b80600192939495838060a01b036120f488611a69565b168152019401929101611feb565b9061211a826000526097602052604060002054151590565b6121ab57609854811061215757420190814211612141576000526097602052604060002055565b634e487b7160e01b600052601160045260246000fd5b60405162461bcd60e51b815260206004820152602660248201527f54696d656c6f636b436f6e74726f6c6c65723a20696e73756666696369656e746044820152652064656c617960d01b6064820152608490fd5b60405162461bcd60e51b815260206004820152602f60248201527f54696d656c6f636b436f6e74726f6c6c65723a206f7065726174696f6e20616c60448201526e1c9958591e481cd8da19591d5b1959608a1b6064820152608490fd5b60005b83811061221b5750506000910152565b818101518382015260200161220b565b6040916020825261224b8151809281602086015260208686019101612208565b601f01601f1916010190565b6001600160a01b031660008181527fafe71ff1fe81c59ca16af21c02420893e650adae4948ece1623218f84288547760209081526040808320549093919291600080516020612d098339815191529160ff16156122b5575050505050565b6122be90612a54565b8451916122ca83611b29565b604283528483019360603686378351156124175760308553835190600191600110156124175790607860218601536041915b8183116123a957505050612367576105159385936123519361053e6048946105669951988576020b1b1b2b9b9a1b7b73a3937b61d1030b1b1b7bab73a1604d1b8b978801528251928391603789019101612208565b5162461bcd60e51b81529182916004830161222b565b60648486519062461bcd60e51b825280600483015260248201527f537472696e67733a20686578206c656e67746820696e73756666696369656e746044820152fd5b909192600f81166010811015612403576f181899199a1a9b1b9c1cb0b131b232b360811b901a6123d98588612a43565b5360041c9280156123ef576000190191906122fc565b634e487b7160e01b82526011600452602482fd5b634e487b7160e01b83526032600452602483fd5b634e487b7160e01b81526032600452602490fd5b6001600160a01b03166000818152600080516020612ca983398151915260209081526040808320549093919291600080516020612d298339815191529160ff1615612477575050505050565b61248090612a54565b84519161248c83611b29565b604283528483019360603686378351156124175760308553835190600191600110156124175790607860218601536041915b81831161251357505050612367576105159385936123519361053e6048946105669951988576020b1b1b2b9b9a1b7b73a3937b61d1030b1b1b7bab73a1604d1b8b978801528251928391603789019101612208565b909192600f81166010811015612403576f181899199a1a9b1b9c1cb0b131b232b360811b901a6125438588612a43565b5360041c9280156123ef576000190191906124be565b6001600160a01b031660008181527fffdfc1249c027f9191656349feb0761381bb32c9f557e01f419fd08754bf5a1b602090815260408083205490939192919060ff16156125a75750505050565b6125b090612a54565b835190826125bd83611b29565b604283528483019360603686378351156124175760308553835190600191600110156124175790607860218601536041915b81831161264457505050612367576105159385936123519361053e6048946105669951988576020b1b1b2b9b9a1b7b73a3937b61d1030b1b1b7bab73a1604d1b8b978801528251928391603789019101612208565b909192600f81166010811015612403576f181899199a1a9b1b9c1cb0b131b232b360811b901a6126748588612a43565b5360041c9280156123ef576000190191906125ef565b6000818152602091606583526040938483209060018060a01b031690818452845260ff8584205416156126be575050505050565b6126c790612a54565b8451916126d383611b29565b604283528483019360603686378351156124175760308553835190600191600110156124175790607860218601536041915b81831161275a57505050612367576105159385936123519361053e6048946105669951988576020b1b1b2b9b9a1b7b73a3937b61d1030b1b1b7bab73a1604d1b8b978801528251928391603789019101612208565b909192600f81166010811015612403576f181899199a1a9b1b9c1cb0b131b232b360811b901a61278a8588612a43565b5360041c9280156123ef57600019019190612705565b156127a757565b60405162461bcd60e51b815260206004820152602a60248201527f54696d656c6f636b436f6e74726f6c6c65723a206f7065726174696f6e206973604482015269206e6f7420726561647960b01b6064820152608490fd5b61280b61281091611db7565b6127a0565b8015908115612876575b501561282257565b60405162461bcd60e51b815260206004820152602660248201527f54696d656c6f636b436f6e74726f6c6c65723a206d697373696e6720646570656044820152656e64656e637960d01b6064820152608490fd5b61288f9150600052609760205260016040600020541490565b3861281a565b3d156128c0573d906128a682611b65565b916128b46040519384611b44565b82523d6000602084013e565b606090565b90926000938493826040519384928337810185815203925af16128e6612895565b50156128ee57565b60405162461bcd60e51b815260206004820152603360248201527f54696d656c6f636b436f6e74726f6c6c65723a20756e6465726c79696e6720746044820152721c985b9cd858dd1a5bdb881c995d995c9d1959606a1b6064820152608490fd5b61295b61280b82611db7565b60005260976020526001604060002055565b906000918083526065602052604083209160018060a01b03169182845260205260ff60408420541661299e57505050565b8083526065602052604083208284526020526040832060ff1981541690557ff6391f5c32d9c69d2a47ea670b442974b53935d1edc7fd64eb21e047a839171b339380a4565b156129ea57565b60405162461bcd60e51b815260206004820152602b60248201527f496e697469616c697a61626c653a20636f6e7472616374206973206e6f74206960448201526a6e697469616c697a696e6760a81b6064820152608490fd5b908151811015611f5a570160200190565b60405190612a6182611af8565b602a8252602082016040368237825115611f5a5760309053815160019060011015611f5a57607860218401536029905b808211612ae5575050612aa15790565b606460405162461bcd60e51b815260206004820152602060248201527f537472696e67733a20686578206c656e67746820696e73756666696369656e746044820152fd5b9091600f81166010811015612b3e576f181899199a1a9b1b9c1cb0b131b232b360811b901a612b148486612a43565b5360041c918015612b29576000190190612a91565b60246000634e487b7160e01b81526011600452fd5b60246000634e487b7160e01b81526032600452fd5b803b15612b8857600080516020612cc983398151915280546001600160a01b0319166001600160a01b03909216919091179055565b60405162461bcd60e51b815260206004820152602d60248201527f455243313936373a206e657720696d706c656d656e746174696f6e206973206e60448201526c1bdd08184818dbdb9d1c9858dd609a1b6064820152608490fd5b8051821015611f5a5760209160051b010190565b91929015612c595750815115612c0b575090565b3b15612c145790565b60405162461bcd60e51b815260206004820152601d60248201527f416464726573733a2063616c6c20746f206e6f6e2d636f6e74726163740000006044820152606490fd5b825190915015612c6c5750805190602001fd5b60405162461bcd60e51b8152908190610566906004830161222b56fe2f8788117e7eff1d82e926ec794901d17c78024a50270940304540a733656f0d7dc9f88e569f94faad6fa0d44dd44858caf3f34f1bd1c985800aedf5793aad8b360894a13ba1a3210667c828492db98dca3e2076cc3735a920a3ca505d382bbc5f58e3a2316349923ce3780f8d587db2d72378aed66a8261c916544fa6846ca5b09aa5aeb3702cfd50b6b62bc4532604938f21248a27a1d5ca736082b6819cc1d8aa0f3194971a2a116679f7c2090f6939c8d4e01a2a8d7e41d55e5351469e63fd643c72710c63c0180259aba6b2d05451e3591a24e58b62239378085726f783a26469706673582212201b52f695c7bb0d3be2fae9f9f046fc2f75fd281f54667ca67bfe0317364ea7e464736f6c63430008190033",
  "linkReferences": {},
  "deployedLinkReferences": {}
}